{
  "_format": "hh-sol-artifact-1",
  "contractName": "VerifyPlacementVerifier",
  "sourceName": "contracts/verifyPlacement_verifier.sol",
  "abi": [
    {
      "inputs": [
        {
          "internalType": "uint256[2]",
          "name": "a",
          "type": "uint256[2]"
        },
        {
          "internalType": "uint256[2][2]",
          "name": "b",
          "type": "uint256[2][2]"
        },
        {
          "internalType": "uint256[2]",
          "name": "c",
          "type": "uint256[2]"
        },
        {
          "internalType": "uint256[3]",
          "name": "input",
          "type": "uint256[3]"
        }
      ],
      "name": "verifyProof",
      "outputs": [
        {
          "internalType": "bool",
          "name": "r",
          "type": "bool"
        }
      ],
      "stateMutability": "view",
      "type": "function"
    }
  ],
  "bytecode": "0x608060405234801561001057600080fd5b506123e0806100206000396000f3fe608060405234801561001057600080fd5b506004361061002b5760003560e01c806311479fea14610030575b600080fd5b61004a60048036038101906100459190611d91565b610060565b6040516100579190611ed7565b60405180910390f35b600061006a611a9c565b6040518060400160405280876000600281106100af577f4e487b7100000000000000000000000000000000000000000000000000000000600052603260045260246000fd5b60200201518152602001876001600281106100f3577f4e487b7100000000000000000000000000000000000000000000000000000000600052603260045260246000fd5b602002015181525081600001819052506040518060400160405280604051806040016040528088600060028110610153577f4e487b7100000000000000000000000000000000000000000000000000000000600052603260045260246000fd5b6020020151600060028110610191577f4e487b7100000000000000000000000000000000000000000000000000000000600052603260045260246000fd5b60200201518152602001886000600281106101d5577f4e487b7100000000000000000000000000000000000000000000000000000000600052603260045260246000fd5b6020020151600160028110610213577f4e487b7100000000000000000000000000000000000000000000000000000000600052603260045260246000fd5b60200201518152508152602001604051806040016040528088600160028110610265577f4e487b7100000000000000000000000000000000000000000000000000000000600052603260045260246000fd5b60200201516000600281106102a3577f4e487b7100000000000000000000000000000000000000000000000000000000600052603260045260246000fd5b60200201518152602001886001600281106102e7577f4e487b7100000000000000000000000000000000000000000000000000000000600052603260045260246000fd5b6020020151600160028110610325577f4e487b7100000000000000000000000000000000000000000000000000000000600052603260045260246000fd5b6020020151815250815250816020018190525060405180604001604052808560006002811061037d577f4e487b7100000000000000000000000000000000000000000000000000000000600052603260045260246000fd5b60200201518152602001856001600281106103c1577f4e487b7100000000000000000000000000000000000000000000000000000000600052603260045260246000fd5b602002015181525081604001819052506000600367ffffffffffffffff811115610414577f4e487b7100000000000000000000000000000000000000000000000000000000600052604160045260246000fd5b6040519080825280602002602001820160405280156104425781602001602082028036833780820191505090505b50905060005b60038110156104e75784816003811061048a577f4e487b7100000000000000000000000000000000000000000000000000000000600052603260045260246000fd5b60200201518282815181106104c8577f4e487b7100000000000000000000000000000000000000000000000000000000600052603260045260246000fd5b60200260200101818152505080806104df90612185565b915050610448565b5060006104f48284610514565b14156105055760019250505061050c565b6000925050505b949350505050565b6000807f30644e72e131a029b85045b68181585d2833e84879b9709143e1f593f00000019050600061054461079f565b90508060800151516001865161055a919061205a565b1461059a576040517f08c379a000000000000000000000000000000000000000000000000000000000815260040161059190611ef2565b60405180910390fd5b60006040518060400160405280600081526020016000815250905060005b86518110156106fb57838782815181106105fb577f4e487b7100000000000000000000000000000000000000000000000000000000600052603260045260246000fd5b602002602001015110610643576040517f08c379a000000000000000000000000000000000000000000000000000000000815260040161063a90611f32565b60405180910390fd5b6106e6826106e1856080015160018561065c919061205a565b81518110610693577f4e487b7100000000000000000000000000000000000000000000000000000000600052603260045260246000fd5b60200260200101518a85815181106106d4577f4e487b7100000000000000000000000000000000000000000000000000000000600052603260045260246000fd5b6020026020010151610d51565b610ea0565b915080806106f390612185565b9150506105b8565b5061074b81836080015160008151811061073e577f4e487b7100000000000000000000000000000000000000000000000000000000600052603260045260246000fd5b6020026020010151610ea0565b905061078161075d866000015161103b565b8660200151846000015185602001518587604001518b6040015189606001516110e0565b6107915760019350505050610799565b600093505050505b92915050565b6107a7611acf565b60405180604001604052807f2d4d9aa7e302d9df41749d5507949d05dbea33fbb16c643b22f599a2be6df2e281526020017f14bedd503c37ceb061d8ec60209fe345ce89830a19230301f076caff004d19268152508160000181905250604051806040016040528060405180604001604052807f0967032fcbf776d1afc985f88877f182d38480a653f2decaa9794cbc3bf3060c81526020017f0e187847ad4c798374d0d6732bf501847dd68bc0e071241e0213bc7fc13db7ab815250815260200160405180604001604052807f304cfbd1e08a704a99f5e847d93f8c3caafddec46b7a0d379da69a4d112346a781526020017f1739c1b1a457a8c7313123d24d2f9192f896b7c63eea05a9d57f06547ad0cec88152508152508160200181905250604051806040016040528060405180604001604052807f198e9393920d483a7260bfb731fb5d25f1aa493335a9e71297e485b7aef312c281526020017f1800deef121f1e76426a00665e5c4479674322d4f75edadd46debd5cd992f6ed815250815260200160405180604001604052807f090689d0585ff075ec9e99ad690c3395bc4b313370b38ef355acdadcd122975b81526020017f12c85ea5db8c6deb4aab71808dcb408fe3d1e7690c43d37b4ce6cc0166fa7daa8152508152508160400181905250604051806040016040528060405180604001604052807f2fac5316915362ac1d74ef187481d78da78a2e862766de41d494e45449555ed281526020017f0ded1fd55faffa5f126efb95d2ce4fa28264424f4786f64449515f7d7d8c4fe9815250815260200160405180604001604052807f2f49cb3b9dfadf6f39af89547c7d96c458c1c90d5dbc74969e7d47c24155c9b381526020017f05b61bda71f761927cd0dc36f531b6e434cbd4ebdfc18da0f3f063ea34eae9838152508152508160600181905250600467ffffffffffffffff811115610a94577f4e487b7100000000000000000000000000000000000000000000000000000000600052604160045260246000fd5b604051908082528060200260200182016040528015610acd57816020015b610aba611b16565b815260200190600190039081610ab25790505b50816080018190525060405180604001604052807f127ccfe7dda19f18a551b1a428e2ebfbb8061646585fc49fe01ff41f98c1b4a081526020017f1d233b0fe69de4e45c571ebad7162970d38361bde846169ffd3f48e3ebda15f98152508160800151600081518110610b69577f4e487b7100000000000000000000000000000000000000000000000000000000600052603260045260246000fd5b602002602001018190525060405180604001604052807f0ce6a61bb9a77aa0e6f42087eafdb34ab2e793e4b14159725d8367d4d0d84b8681526020017f17eb925fc935fe8a3ea37b35be36f75668133ac4391b41b74f1180d4a07bd1ad8152508160800151600181518110610c07577f4e487b7100000000000000000000000000000000000000000000000000000000600052603260045260246000fd5b602002602001018190525060405180604001604052807f035765c4f28ffb11f202b818ff0e9f9acfdf276b88bbd01636dfa3502b60653881526020017f2af05c3b567d1e240989d8edffc21b1d227f89aacaa8e470cc7e6780cbfb9fd18152508160800151600281518110610ca5577f4e487b7100000000000000000000000000000000000000000000000000000000600052603260045260246000fd5b602002602001018190525060405180604001604052807f281e2fca67cd06fc02e7523ee9a41b4af2909077627443b2f02e7304b6390e4481526020017f20b9380c0523074d5ffb0f717327b4cebf2fdc9e493d8cf60b3200a5abaded298152508160800151600381518110610d43577f4e487b7100000000000000000000000000000000000000000000000000000000600052603260045260246000fd5b602002602001018190525090565b610d59611b16565b610d61611b30565b836000015181600060038110610da0577f4e487b7100000000000000000000000000000000000000000000000000000000600052603260045260246000fd5b602002018181525050836020015181600160038110610de8577f4e487b7100000000000000000000000000000000000000000000000000000000600052603260045260246000fd5b6020020181815250508281600260038110610e2c577f4e487b7100000000000000000000000000000000000000000000000000000000600052603260045260246000fd5b602002018181525050600060608360808460076107d05a03fa90508060008114610e5557610e57565bfe5b5080610e98576040517f08c379a0000000000000000000000000000000000000000000000000000000008152600401610e8f90611f12565b60405180910390fd5b505092915050565b610ea8611b16565b610eb0611b52565b836000015181600060048110610eef577f4e487b7100000000000000000000000000000000000000000000000000000000600052603260045260246000fd5b602002018181525050836020015181600160048110610f37577f4e487b7100000000000000000000000000000000000000000000000000000000600052603260045260246000fd5b602002018181525050826000015181600260048110610f7f577f4e487b7100000000000000000000000000000000000000000000000000000000600052603260045260246000fd5b602002018181525050826020015181600360048110610fc7577f4e487b7100000000000000000000000000000000000000000000000000000000600052603260045260246000fd5b602002018181525050600060608360c08460066107d05a03fa90508060008114610ff057610ff2565bfe5b5080611033576040517f08c379a000000000000000000000000000000000000000000000000000000000815260040161102a90611f72565b60405180910390fd5b505092915050565b611043611b16565b60007f30644e72e131a029b85045b68181585d97816a916871ca8d3c208c16d87cfd47905060008360000151148015611080575060008360200151145b156110a45760405180604001604052806000815260200160008152509150506110db565b6040518060400160405280846000015181526020018285602001516110c991906121ce565b836110d4919061210a565b8152509150505b919050565b600080600467ffffffffffffffff811115611124577f4e487b7100000000000000000000000000000000000000000000000000000000600052604160045260246000fd5b60405190808252806020026020018201604052801561115d57816020015b61114a611b16565b8152602001906001900390816111425790505b5090506000600467ffffffffffffffff8111156111a3577f4e487b7100000000000000000000000000000000000000000000000000000000600052604160045260246000fd5b6040519080825280602002602001820160405280156111dc57816020015b6111c9611b74565b8152602001906001900390816111c15790505b5090508a8260008151811061121a577f4e487b7100000000000000000000000000000000000000000000000000000000600052603260045260246000fd5b60200260200101819052508882600181518110611260577f4e487b7100000000000000000000000000000000000000000000000000000000600052603260045260246000fd5b602002602001018190525086826002815181106112a6577f4e487b7100000000000000000000000000000000000000000000000000000000600052603260045260246000fd5b602002602001018190525084826003815181106112ec577f4e487b7100000000000000000000000000000000000000000000000000000000600052603260045260246000fd5b60200260200101819052508981600081518110611332577f4e487b7100000000000000000000000000000000000000000000000000000000600052603260045260246000fd5b60200260200101819052508781600181518110611378577f4e487b7100000000000000000000000000000000000000000000000000000000600052603260045260246000fd5b602002602001018190525085816002815181106113be577f4e487b7100000000000000000000000000000000000000000000000000000000600052603260045260246000fd5b60200260200101819052508381600381518110611404577f4e487b7100000000000000000000000000000000000000000000000000000000600052603260045260246000fd5b60200260200101819052506114198282611429565b9250505098975050505050505050565b6000815183511461146f576040517f08c379a000000000000000000000000000000000000000000000000000000000815260040161146690611f52565b60405180910390fd5b600083519050600060068261148491906120b0565b905060008167ffffffffffffffff8111156114c8577f4e487b7100000000000000000000000000000000000000000000000000000000600052604160045260246000fd5b6040519080825280602002602001820160405280156114f65781602001602082028036833780820191505090505b50905060005b838110156119db5786818151811061153d577f4e487b7100000000000000000000000000000000000000000000000000000000600052603260045260246000fd5b60200260200101516000015182600060068461155991906120b0565b611563919061205a565b8151811061159a577f4e487b7100000000000000000000000000000000000000000000000000000000600052603260045260246000fd5b6020026020010181815250508681815181106115df577f4e487b7100000000000000000000000000000000000000000000000000000000600052603260045260246000fd5b6020026020010151602001518260016006846115fb91906120b0565b611605919061205a565b8151811061163c577f4e487b7100000000000000000000000000000000000000000000000000000000600052603260045260246000fd5b602002602001018181525050858181518110611681577f4e487b7100000000000000000000000000000000000000000000000000000000600052603260045260246000fd5b6020026020010151600001516000600281106116c6577f4e487b7100000000000000000000000000000000000000000000000000000000600052603260045260246000fd5b60200201518260026006846116db91906120b0565b6116e5919061205a565b8151811061171c577f4e487b7100000000000000000000000000000000000000000000000000000000600052603260045260246000fd5b602002602001018181525050858181518110611761577f4e487b7100000000000000000000000000000000000000000000000000000000600052603260045260246000fd5b6020026020010151600001516001600281106117a6577f4e487b7100000000000000000000000000000000000000000000000000000000600052603260045260246000fd5b60200201518260036006846117bb91906120b0565b6117c5919061205a565b815181106117fc577f4e487b7100000000000000000000000000000000000000000000000000000000600052603260045260246000fd5b602002602001018181525050858181518110611841577f4e487b7100000000000000000000000000000000000000000000000000000000600052603260045260246000fd5b602002602001015160200151600060028110611886577f4e487b7100000000000000000000000000000000000000000000000000000000600052603260045260246000fd5b602002015182600460068461189b91906120b0565b6118a5919061205a565b815181106118dc577f4e487b7100000000000000000000000000000000000000000000000000000000600052603260045260246000fd5b602002602001018181525050858181518110611921577f4e487b7100000000000000000000000000000000000000000000000000000000600052603260045260246000fd5b602002602001015160200151600160028110611966577f4e487b7100000000000000000000000000000000000000000000000000000000600052603260045260246000fd5b602002015182600560068461197b91906120b0565b611985919061205a565b815181106119bc577f4e487b7100000000000000000000000000000000000000000000000000000000600052603260045260246000fd5b60200260200101818152505080806119d390612185565b9150506114fc565b506119e4611b9a565b6000602082602086026020860160086107d05a03fa90508060008114611a0957611a0b565bfe5b5080611a4c576040517f08c379a0000000000000000000000000000000000000000000000000000000008152600401611a4390611f92565b60405180910390fd5b600082600060018110611a88577f4e487b7100000000000000000000000000000000000000000000000000000000600052603260045260246000fd5b602002015114159550505050505092915050565b6040518060600160405280611aaf611b16565b8152602001611abc611b74565b8152602001611ac9611b16565b81525090565b6040518060a00160405280611ae2611b16565b8152602001611aef611b74565b8152602001611afc611b74565b8152602001611b09611b74565b8152602001606081525090565b604051806040016040528060008152602001600081525090565b6040518060600160405280600390602082028036833780820191505090505090565b6040518060800160405280600490602082028036833780820191505090505090565b6040518060400160405280611b87611bbc565b8152602001611b94611bbc565b81525090565b6040518060200160405280600190602082028036833780820191505090505090565b6040518060400160405280600290602082028036833780820191505090505090565b6000611bf1611bec84611fd7565b611fb2565b90508082856040860282011115611c0757600080fd5b60005b85811015611c375781611c1d8882611d2e565b845260208401935060408301925050600181019050611c0a565b5050509392505050565b6000611c54611c4f84611ffd565b611fb2565b90508082856020860282011115611c6a57600080fd5b60005b85811015611c9a5781611c808882611d7c565b845260208401935060208301925050600181019050611c6d565b5050509392505050565b6000611cb7611cb284612023565b611fb2565b90508082856020860282011115611ccd57600080fd5b60005b85811015611cfd5781611ce38882611d7c565b845260208401935060208301925050600181019050611cd0565b5050509392505050565b600082601f830112611d1857600080fd5b6002611d25848285611bde565b91505092915050565b600082601f830112611d3f57600080fd5b6002611d4c848285611c41565b91505092915050565b600082601f830112611d6657600080fd5b6003611d73848285611ca4565b91505092915050565b600081359050611d8b81612393565b92915050565b6000806000806101608587031215611da857600080fd5b6000611db687828801611d2e565b9450506040611dc787828801611d07565b93505060c0611dd887828801611d2e565b925050610100611dea87828801611d55565b91505092959194509250565b611dff8161213e565b82525050565b6000611e12601283612049565b9150611e1d8261229d565b602082019050919050565b6000611e35601283612049565b9150611e40826122c6565b602082019050919050565b6000611e58601f83612049565b9150611e63826122ef565b602082019050919050565b6000611e7b601683612049565b9150611e8682612318565b602082019050919050565b6000611e9e601283612049565b9150611ea982612341565b602082019050919050565b6000611ec1601583612049565b9150611ecc8261236a565b602082019050919050565b6000602082019050611eec6000830184611df6565b92915050565b60006020820190508181036000830152611f0b81611e05565b9050919050565b60006020820190508181036000830152611f2b81611e28565b9050919050565b60006020820190508181036000830152611f4b81611e4b565b9050919050565b60006020820190508181036000830152611f6b81611e6e565b9050919050565b60006020820190508181036000830152611f8b81611e91565b9050919050565b60006020820190508181036000830152611fab81611eb4565b9050919050565b6000611fbc611fcd565b9050611fc88282612154565b919050565b6000604051905090565b600067ffffffffffffffff821115611ff257611ff161225d565b5b602082029050919050565b600067ffffffffffffffff8211156120185761201761225d565b5b602082029050919050565b600067ffffffffffffffff82111561203e5761203d61225d565b5b602082029050919050565b600082825260208201905092915050565b60006120658261214a565b91506120708361214a565b9250827fffffffffffffffffffffffffffffffffffffffffffffffffffffffffffffffff038211156120a5576120a46121ff565b5b828201905092915050565b60006120bb8261214a565b91506120c68361214a565b9250817fffffffffffffffffffffffffffffffffffffffffffffffffffffffffffffffff04831182151516156120ff576120fe6121ff565b5b828202905092915050565b60006121158261214a565b91506121208361214a565b925082821015612133576121326121ff565b5b828203905092915050565b60008115159050919050565b6000819050919050565b61215d8261228c565b810181811067ffffffffffffffff8211171561217c5761217b61225d565b5b80604052505050565b60006121908261214a565b91507fffffffffffffffffffffffffffffffffffffffffffffffffffffffffffffffff8214156121c3576121c26121ff565b5b600182019050919050565b60006121d98261214a565b91506121e48361214a565b9250826121f4576121f361222e565b5b828206905092915050565b7f4e487b7100000000000000000000000000000000000000000000000000000000600052601160045260246000fd5b7f4e487b7100000000000000000000000000000000000000000000000000000000600052601260045260246000fd5b7f4e487b7100000000000000000000000000000000000000000000000000000000600052604160045260246000fd5b6000601f19601f8301169050919050565b7f76657269666965722d6261642d696e7075740000000000000000000000000000600082015250565b7f70616972696e672d6d756c2d6661696c65640000000000000000000000000000600082015250565b7f76657269666965722d6774652d736e61726b2d7363616c61722d6669656c6400600082015250565b7f70616972696e672d6c656e677468732d6661696c656400000000000000000000600082015250565b7f70616972696e672d6164642d6661696c65640000000000000000000000000000600082015250565b7f70616972696e672d6f70636f64652d6661696c65640000000000000000000000600082015250565b61239c8161214a565b81146123a757600080fd5b5056fea26469706673582212206896e0f9b41c0c64ac8f379a4611e781b6d3525740d6f1f8751e8ffa8790796164736f6c63430008040033",
  "linkReferences": {},
  "deployedLinkReferences": {}
}