{
  "_format": "hh-sol-artifact-1",
  "contractName": "VerifyPlacementVerifier",
  "sourceName": "contracts/verifyPlacement_verifier.sol",
  "abi": [
    {
      "inputs": [
        {
          "internalType": "uint256[2]",
          "name": "a",
          "type": "uint256[2]"
        },
        {
          "internalType": "uint256[2][2]",
          "name": "b",
          "type": "uint256[2][2]"
        },
        {
          "internalType": "uint256[2]",
          "name": "c",
          "type": "uint256[2]"
        },
        {
          "internalType": "uint256[4]",
          "name": "input",
          "type": "uint256[4]"
        }
      ],
      "name": "verifyProof",
      "outputs": [
        {
          "internalType": "bool",
          "name": "r",
          "type": "bool"
        }
      ],
      "stateMutability": "view",
      "type": "function"
    }
  ],
  "bytecode": "0x608060405234801561001057600080fd5b5061247c806100206000396000f3fe608060405234801561001057600080fd5b506004361061002b5760003560e01c80635fe8c13b14610030575b600080fd5b61004a60048036038101906100459190611e2d565b610060565b6040516100579190611f73565b60405180910390f35b600061006a611b38565b6040518060400160405280876000600281106100af577f4e487b7100000000000000000000000000000000000000000000000000000000600052603260045260246000fd5b60200201518152602001876001600281106100f3577f4e487b7100000000000000000000000000000000000000000000000000000000600052603260045260246000fd5b602002015181525081600001819052506040518060400160405280604051806040016040528088600060028110610153577f4e487b7100000000000000000000000000000000000000000000000000000000600052603260045260246000fd5b6020020151600060028110610191577f4e487b7100000000000000000000000000000000000000000000000000000000600052603260045260246000fd5b60200201518152602001886000600281106101d5577f4e487b7100000000000000000000000000000000000000000000000000000000600052603260045260246000fd5b6020020151600160028110610213577f4e487b7100000000000000000000000000000000000000000000000000000000600052603260045260246000fd5b60200201518152508152602001604051806040016040528088600160028110610265577f4e487b7100000000000000000000000000000000000000000000000000000000600052603260045260246000fd5b60200201516000600281106102a3577f4e487b7100000000000000000000000000000000000000000000000000000000600052603260045260246000fd5b60200201518152602001886001600281106102e7577f4e487b7100000000000000000000000000000000000000000000000000000000600052603260045260246000fd5b6020020151600160028110610325577f4e487b7100000000000000000000000000000000000000000000000000000000600052603260045260246000fd5b6020020151815250815250816020018190525060405180604001604052808560006002811061037d577f4e487b7100000000000000000000000000000000000000000000000000000000600052603260045260246000fd5b60200201518152602001856001600281106103c1577f4e487b7100000000000000000000000000000000000000000000000000000000600052603260045260246000fd5b602002015181525081604001819052506000600467ffffffffffffffff811115610414577f4e487b7100000000000000000000000000000000000000000000000000000000600052604160045260246000fd5b6040519080825280602002602001820160405280156104425781602001602082028036833780820191505090505b50905060005b60048110156104e75784816004811061048a577f4e487b7100000000000000000000000000000000000000000000000000000000600052603260045260246000fd5b60200201518282815181106104c8577f4e487b7100000000000000000000000000000000000000000000000000000000600052603260045260246000fd5b60200260200101818152505080806104df90612221565b915050610448565b5060006104f48284610514565b14156105055760019250505061050c565b6000925050505b949350505050565b6000807f30644e72e131a029b85045b68181585d2833e84879b9709143e1f593f00000019050600061054461079f565b90508060800151516001865161055a91906120f6565b1461059a576040517f08c379a000000000000000000000000000000000000000000000000000000000815260040161059190611f8e565b60405180910390fd5b60006040518060400160405280600081526020016000815250905060005b86518110156106fb57838782815181106105fb577f4e487b7100000000000000000000000000000000000000000000000000000000600052603260045260246000fd5b602002602001015110610643576040517f08c379a000000000000000000000000000000000000000000000000000000000815260040161063a90611fce565b60405180910390fd5b6106e6826106e1856080015160018561065c91906120f6565b81518110610693577f4e487b7100000000000000000000000000000000000000000000000000000000600052603260045260246000fd5b60200260200101518a85815181106106d4577f4e487b7100000000000000000000000000000000000000000000000000000000600052603260045260246000fd5b6020026020010151610ded565b610f3c565b915080806106f390612221565b9150506105b8565b5061074b81836080015160008151811061073e577f4e487b7100000000000000000000000000000000000000000000000000000000600052603260045260246000fd5b6020026020010151610f3c565b905061078161075d86600001516110d7565b8660200151846000015185602001518587604001518b60400151896060015161117c565b6107915760019350505050610799565b600093505050505b92915050565b6107a7611b6b565b60405180604001604052807f2d4d9aa7e302d9df41749d5507949d05dbea33fbb16c643b22f599a2be6df2e281526020017f14bedd503c37ceb061d8ec60209fe345ce89830a19230301f076caff004d19268152508160000181905250604051806040016040528060405180604001604052807f0967032fcbf776d1afc985f88877f182d38480a653f2decaa9794cbc3bf3060c81526020017f0e187847ad4c798374d0d6732bf501847dd68bc0e071241e0213bc7fc13db7ab815250815260200160405180604001604052807f304cfbd1e08a704a99f5e847d93f8c3caafddec46b7a0d379da69a4d112346a781526020017f1739c1b1a457a8c7313123d24d2f9192f896b7c63eea05a9d57f06547ad0cec88152508152508160200181905250604051806040016040528060405180604001604052807f198e9393920d483a7260bfb731fb5d25f1aa493335a9e71297e485b7aef312c281526020017f1800deef121f1e76426a00665e5c4479674322d4f75edadd46debd5cd992f6ed815250815260200160405180604001604052807f090689d0585ff075ec9e99ad690c3395bc4b313370b38ef355acdadcd122975b81526020017f12c85ea5db8c6deb4aab71808dcb408fe3d1e7690c43d37b4ce6cc0166fa7daa8152508152508160400181905250604051806040016040528060405180604001604052807f2600cfc05c5188fd53af26afdb3fc9aea06fe8f5ccd9762222ceca3b7faecf2b81526020017e0bba666bc46b347f7cdc7036d66162e8d353533610c596819a40253124ec95815250815260200160405180604001604052807f2ace44d89e045bce26a0d23573b646c6f452cf463f634a3b3a07060cb4fb6e5b81526020017f0cfcab8043c85ef0c0dc20d302407e9c034ac41bff8fcc0122deded0efa0054d8152508152508160600181905250600567ffffffffffffffff811115610a93577f4e487b7100000000000000000000000000000000000000000000000000000000600052604160045260246000fd5b604051908082528060200260200182016040528015610acc57816020015b610ab9611bb2565b815260200190600190039081610ab15790505b50816080018190525060405180604001604052807f0684c0c66b19922e0945210053e8adc9275c84cddc3daed6f72c4bec939f557781526020017f21b9024b24193eeb09590b1e1647fa5d2f0c143ed60486a1c883fbd8eafd6c0b8152508160800151600081518110610b68577f4e487b7100000000000000000000000000000000000000000000000000000000600052603260045260246000fd5b602002602001018190525060405180604001604052807f071d29b0bd4e3b4507b16d42eb3d43c07c83c91aae370405132bfb897d68e9b581526020017f1c13c9d0e9500ee7a662ae170a0e2880a950a34d67881f578b9538a9d38a34e48152508160800151600181518110610c06577f4e487b7100000000000000000000000000000000000000000000000000000000600052603260045260246000fd5b602002602001018190525060405180604001604052807f0e53a095db57e616b992f8f6925f3ae4b873a98cbf9076ad5fefdd93a5ae843c81526020017f231a9c0955ead05c8c8329ab172e057d8d61d5a0fda92ff9ec447aedca6b48ec8152508160800151600281518110610ca4577f4e487b7100000000000000000000000000000000000000000000000000000000600052603260045260246000fd5b602002602001018190525060405180604001604052807f04ea935b38a23e3c0a3f201998a76a2a7e517c075c40a095f53caec9ba699e2d81526020017f0cd216cb89ce1267b97020a7002ffb88d65a974287be7e6a7c0fc0f2ae21e6de8152508160800151600381518110610d42577f4e487b7100000000000000000000000000000000000000000000000000000000600052603260045260246000fd5b602002602001018190525060405180604001604052807f2d15946ca228e25eed5df6c0030f8423f129bf98c54fe922a5483a804700fccd81526020017edc905ff4084248f660471d01994f2c11a046239503be193662d67f3c039a538152508160800151600481518110610ddf577f4e487b7100000000000000000000000000000000000000000000000000000000600052603260045260246000fd5b602002602001018190525090565b610df5611bb2565b610dfd611bcc565b836000015181600060038110610e3c577f4e487b7100000000000000000000000000000000000000000000000000000000600052603260045260246000fd5b602002018181525050836020015181600160038110610e84577f4e487b7100000000000000000000000000000000000000000000000000000000600052603260045260246000fd5b6020020181815250508281600260038110610ec8577f4e487b7100000000000000000000000000000000000000000000000000000000600052603260045260246000fd5b602002018181525050600060608360808460076107d05a03fa90508060008114610ef157610ef3565bfe5b5080610f34576040517f08c379a0000000000000000000000000000000000000000000000000000000008152600401610f2b90611fae565b60405180910390fd5b505092915050565b610f44611bb2565b610f4c611bee565b836000015181600060048110610f8b577f4e487b7100000000000000000000000000000000000000000000000000000000600052603260045260246000fd5b602002018181525050836020015181600160048110610fd3577f4e487b7100000000000000000000000000000000000000000000000000000000600052603260045260246000fd5b60200201818152505082600001518160026004811061101b577f4e487b7100000000000000000000000000000000000000000000000000000000600052603260045260246000fd5b602002018181525050826020015181600360048110611063577f4e487b7100000000000000000000000000000000000000000000000000000000600052603260045260246000fd5b602002018181525050600060608360c08460066107d05a03fa9050806000811461108c5761108e565bfe5b50806110cf576040517f08c379a00000000000000000000000000000000000000000000000000000000081526004016110c69061200e565b60405180910390fd5b505092915050565b6110df611bb2565b60007f30644e72e131a029b85045b68181585d97816a916871ca8d3c208c16d87cfd4790506000836000015114801561111c575060008360200151145b15611140576040518060400160405280600081526020016000815250915050611177565b604051806040016040528084600001518152602001828560200151611165919061226a565b8361117091906121a6565b8152509150505b919050565b600080600467ffffffffffffffff8111156111c0577f4e487b7100000000000000000000000000000000000000000000000000000000600052604160045260246000fd5b6040519080825280602002602001820160405280156111f957816020015b6111e6611bb2565b8152602001906001900390816111de5790505b5090506000600467ffffffffffffffff81111561123f577f4e487b7100000000000000000000000000000000000000000000000000000000600052604160045260246000fd5b60405190808252806020026020018201604052801561127857816020015b611265611c10565b81526020019060019003908161125d5790505b5090508a826000815181106112b6577f4e487b7100000000000000000000000000000000000000000000000000000000600052603260045260246000fd5b602002602001018190525088826001815181106112fc577f4e487b7100000000000000000000000000000000000000000000000000000000600052603260045260246000fd5b60200260200101819052508682600281518110611342577f4e487b7100000000000000000000000000000000000000000000000000000000600052603260045260246000fd5b60200260200101819052508482600381518110611388577f4e487b7100000000000000000000000000000000000000000000000000000000600052603260045260246000fd5b602002602001018190525089816000815181106113ce577f4e487b7100000000000000000000000000000000000000000000000000000000600052603260045260246000fd5b60200260200101819052508781600181518110611414577f4e487b7100000000000000000000000000000000000000000000000000000000600052603260045260246000fd5b6020026020010181905250858160028151811061145a577f4e487b7100000000000000000000000000000000000000000000000000000000600052603260045260246000fd5b602002602001018190525083816003815181106114a0577f4e487b7100000000000000000000000000000000000000000000000000000000600052603260045260246000fd5b60200260200101819052506114b582826114c5565b9250505098975050505050505050565b6000815183511461150b576040517f08c379a000000000000000000000000000000000000000000000000000000000815260040161150290611fee565b60405180910390fd5b6000835190506000600682611520919061214c565b905060008167ffffffffffffffff811115611564577f4e487b7100000000000000000000000000000000000000000000000000000000600052604160045260246000fd5b6040519080825280602002602001820160405280156115925781602001602082028036833780820191505090505b50905060005b83811015611a77578681815181106115d9577f4e487b7100000000000000000000000000000000000000000000000000000000600052603260045260246000fd5b6020026020010151600001518260006006846115f5919061214c565b6115ff91906120f6565b81518110611636577f4e487b7100000000000000000000000000000000000000000000000000000000600052603260045260246000fd5b60200260200101818152505086818151811061167b577f4e487b7100000000000000000000000000000000000000000000000000000000600052603260045260246000fd5b602002602001015160200151826001600684611697919061214c565b6116a191906120f6565b815181106116d8577f4e487b7100000000000000000000000000000000000000000000000000000000600052603260045260246000fd5b60200260200101818152505085818151811061171d577f4e487b7100000000000000000000000000000000000000000000000000000000600052603260045260246000fd5b602002602001015160000151600060028110611762577f4e487b7100000000000000000000000000000000000000000000000000000000600052603260045260246000fd5b6020020151826002600684611777919061214c565b61178191906120f6565b815181106117b8577f4e487b7100000000000000000000000000000000000000000000000000000000600052603260045260246000fd5b6020026020010181815250508581815181106117fd577f4e487b7100000000000000000000000000000000000000000000000000000000600052603260045260246000fd5b602002602001015160000151600160028110611842577f4e487b7100000000000000000000000000000000000000000000000000000000600052603260045260246000fd5b6020020151826003600684611857919061214c565b61186191906120f6565b81518110611898577f4e487b7100000000000000000000000000000000000000000000000000000000600052603260045260246000fd5b6020026020010181815250508581815181106118dd577f4e487b7100000000000000000000000000000000000000000000000000000000600052603260045260246000fd5b602002602001015160200151600060028110611922577f4e487b7100000000000000000000000000000000000000000000000000000000600052603260045260246000fd5b6020020151826004600684611937919061214c565b61194191906120f6565b81518110611978577f4e487b7100000000000000000000000000000000000000000000000000000000600052603260045260246000fd5b6020026020010181815250508581815181106119bd577f4e487b7100000000000000000000000000000000000000000000000000000000600052603260045260246000fd5b602002602001015160200151600160028110611a02577f4e487b7100000000000000000000000000000000000000000000000000000000600052603260045260246000fd5b6020020151826005600684611a17919061214c565b611a2191906120f6565b81518110611a58577f4e487b7100000000000000000000000000000000000000000000000000000000600052603260045260246000fd5b6020026020010181815250508080611a6f90612221565b915050611598565b50611a80611c36565b6000602082602086026020860160086107d05a03fa90508060008114611aa557611aa7565bfe5b5080611ae8576040517f08c379a0000000000000000000000000000000000000000000000000000000008152600401611adf9061202e565b60405180910390fd5b600082600060018110611b24577f4e487b7100000000000000000000000000000000000000000000000000000000600052603260045260246000fd5b602002015114159550505050505092915050565b6040518060600160405280611b4b611bb2565b8152602001611b58611c10565b8152602001611b65611bb2565b81525090565b6040518060a00160405280611b7e611bb2565b8152602001611b8b611c10565b8152602001611b98611c10565b8152602001611ba5611c10565b8152602001606081525090565b604051806040016040528060008152602001600081525090565b6040518060600160405280600390602082028036833780820191505090505090565b6040518060800160405280600490602082028036833780820191505090505090565b6040518060400160405280611c23611c58565b8152602001611c30611c58565b81525090565b6040518060200160405280600190602082028036833780820191505090505090565b6040518060400160405280600290602082028036833780820191505090505090565b6000611c8d611c8884612073565b61204e565b90508082856040860282011115611ca357600080fd5b60005b85811015611cd35781611cb98882611dca565b845260208401935060408301925050600181019050611ca6565b5050509392505050565b6000611cf0611ceb84612099565b61204e565b90508082856020860282011115611d0657600080fd5b60005b85811015611d365781611d1c8882611e18565b845260208401935060208301925050600181019050611d09565b5050509392505050565b6000611d53611d4e846120bf565b61204e565b90508082856020860282011115611d6957600080fd5b60005b85811015611d995781611d7f8882611e18565b845260208401935060208301925050600181019050611d6c565b5050509392505050565b600082601f830112611db457600080fd5b6002611dc1848285611c7a565b91505092915050565b600082601f830112611ddb57600080fd5b6002611de8848285611cdd565b91505092915050565b600082601f830112611e0257600080fd5b6004611e0f848285611d40565b91505092915050565b600081359050611e278161242f565b92915050565b6000806000806101808587031215611e4457600080fd5b6000611e5287828801611dca565b9450506040611e6387828801611da3565b93505060c0611e7487828801611dca565b925050610100611e8687828801611df1565b91505092959194509250565b611e9b816121da565b82525050565b6000611eae6012836120e5565b9150611eb982612339565b602082019050919050565b6000611ed16012836120e5565b9150611edc82612362565b602082019050919050565b6000611ef4601f836120e5565b9150611eff8261238b565b602082019050919050565b6000611f176016836120e5565b9150611f22826123b4565b602082019050919050565b6000611f3a6012836120e5565b9150611f45826123dd565b602082019050919050565b6000611f5d6015836120e5565b9150611f6882612406565b602082019050919050565b6000602082019050611f886000830184611e92565b92915050565b60006020820190508181036000830152611fa781611ea1565b9050919050565b60006020820190508181036000830152611fc781611ec4565b9050919050565b60006020820190508181036000830152611fe781611ee7565b9050919050565b6000602082019050818103600083015261200781611f0a565b9050919050565b6000602082019050818103600083015261202781611f2d565b9050919050565b6000602082019050818103600083015261204781611f50565b9050919050565b6000612058612069565b905061206482826121f0565b919050565b6000604051905090565b600067ffffffffffffffff82111561208e5761208d6122f9565b5b602082029050919050565b600067ffffffffffffffff8211156120b4576120b36122f9565b5b602082029050919050565b600067ffffffffffffffff8211156120da576120d96122f9565b5b602082029050919050565b600082825260208201905092915050565b6000612101826121e6565b915061210c836121e6565b9250827fffffffffffffffffffffffffffffffffffffffffffffffffffffffffffffffff038211156121415761214061229b565b5b828201905092915050565b6000612157826121e6565b9150612162836121e6565b9250817fffffffffffffffffffffffffffffffffffffffffffffffffffffffffffffffff048311821515161561219b5761219a61229b565b5b828202905092915050565b60006121b1826121e6565b91506121bc836121e6565b9250828210156121cf576121ce61229b565b5b828203905092915050565b60008115159050919050565b6000819050919050565b6121f982612328565b810181811067ffffffffffffffff82111715612218576122176122f9565b5b80604052505050565b600061222c826121e6565b91507fffffffffffffffffffffffffffffffffffffffffffffffffffffffffffffffff82141561225f5761225e61229b565b5b600182019050919050565b6000612275826121e6565b9150612280836121e6565b9250826122905761228f6122ca565b5b828206905092915050565b7f4e487b7100000000000000000000000000000000000000000000000000000000600052601160045260246000fd5b7f4e487b7100000000000000000000000000000000000000000000000000000000600052601260045260246000fd5b7f4e487b7100000000000000000000000000000000000000000000000000000000600052604160045260246000fd5b6000601f19601f8301169050919050565b7f76657269666965722d6261642d696e7075740000000000000000000000000000600082015250565b7f70616972696e672d6d756c2d6661696c65640000000000000000000000000000600082015250565b7f76657269666965722d6774652d736e61726b2d7363616c61722d6669656c6400600082015250565b7f70616972696e672d6c656e677468732d6661696c656400000000000000000000600082015250565b7f70616972696e672d6164642d6661696c65640000000000000000000000000000600082015250565b7f70616972696e672d6f70636f64652d6661696c65640000000000000000000000600082015250565b612438816121e6565b811461244357600080fd5b5056fea264697066735822122090dbe2dd31601dbf42d939d28b9a65f45cd11c29fc1fbcd1409538946a8d864364736f6c63430008040033",
  "linkReferences": {},
  "deployedLinkReferences": {}
}