{
  "_format": "hh-sol-artifact-1",
  "contractName": "VerifyMoveVerifier",
  "sourceName": "contracts/verifyMove_verifier.sol",
  "abi": [
    {
      "inputs": [
        {
          "internalType": "uint256[2]",
          "name": "a",
          "type": "uint256[2]"
        },
        {
          "internalType": "uint256[2][2]",
          "name": "b",
          "type": "uint256[2][2]"
        },
        {
          "internalType": "uint256[2]",
          "name": "c",
          "type": "uint256[2]"
        },
        {
          "internalType": "uint256[9]",
          "name": "input",
          "type": "uint256[9]"
        }
      ],
      "name": "verifyProof",
      "outputs": [
        {
          "internalType": "bool",
          "name": "r",
          "type": "bool"
        }
      ],
      "stateMutability": "view",
      "type": "function"
    }
  ],
  "bytecode": "0x608060405234801561001057600080fd5b50612793806100206000396000f3fe608060405234801561001057600080fd5b506004361061002b5760003560e01c8063c542c93b14610030575b600080fd5b61004a60048036038101906100459190612144565b610060565b604051610057919061228a565b60405180910390f35b600061006a611e4f565b6040518060400160405280876000600281106100af577f4e487b7100000000000000000000000000000000000000000000000000000000600052603260045260246000fd5b60200201518152602001876001600281106100f3577f4e487b7100000000000000000000000000000000000000000000000000000000600052603260045260246000fd5b602002015181525081600001819052506040518060400160405280604051806040016040528088600060028110610153577f4e487b7100000000000000000000000000000000000000000000000000000000600052603260045260246000fd5b6020020151600060028110610191577f4e487b7100000000000000000000000000000000000000000000000000000000600052603260045260246000fd5b60200201518152602001886000600281106101d5577f4e487b7100000000000000000000000000000000000000000000000000000000600052603260045260246000fd5b6020020151600160028110610213577f4e487b7100000000000000000000000000000000000000000000000000000000600052603260045260246000fd5b60200201518152508152602001604051806040016040528088600160028110610265577f4e487b7100000000000000000000000000000000000000000000000000000000600052603260045260246000fd5b60200201516000600281106102a3577f4e487b7100000000000000000000000000000000000000000000000000000000600052603260045260246000fd5b60200201518152602001886001600281106102e7577f4e487b7100000000000000000000000000000000000000000000000000000000600052603260045260246000fd5b6020020151600160028110610325577f4e487b7100000000000000000000000000000000000000000000000000000000600052603260045260246000fd5b6020020151815250815250816020018190525060405180604001604052808560006002811061037d577f4e487b7100000000000000000000000000000000000000000000000000000000600052603260045260246000fd5b60200201518152602001856001600281106103c1577f4e487b7100000000000000000000000000000000000000000000000000000000600052603260045260246000fd5b602002015181525081604001819052506000600967ffffffffffffffff811115610414577f4e487b7100000000000000000000000000000000000000000000000000000000600052604160045260246000fd5b6040519080825280602002602001820160405280156104425781602001602082028036833780820191505090505b50905060005b60098110156104e75784816009811061048a577f4e487b7100000000000000000000000000000000000000000000000000000000600052603260045260246000fd5b60200201518282815181106104c8577f4e487b7100000000000000000000000000000000000000000000000000000000600052603260045260246000fd5b60200260200101818152505080806104df90612538565b915050610448565b5060006104f48284610514565b14156105055760019250505061050c565b6000925050505b949350505050565b6000807f30644e72e131a029b85045b68181585d2833e84879b9709143e1f593f00000019050600061054461079f565b90508060800151516001865161055a919061240d565b1461059a576040517f08c379a0000000000000000000000000000000000000000000000000000000008152600401610591906122a5565b60405180910390fd5b60006040518060400160405280600081526020016000815250905060005b86518110156106fb57838782815181106105fb577f4e487b7100000000000000000000000000000000000000000000000000000000600052603260045260246000fd5b602002602001015110610643576040517f08c379a000000000000000000000000000000000000000000000000000000000815260040161063a906122e5565b60405180910390fd5b6106e6826106e1856080015160018561065c919061240d565b81518110610693577f4e487b7100000000000000000000000000000000000000000000000000000000600052603260045260246000fd5b60200260200101518a85815181106106d4577f4e487b7100000000000000000000000000000000000000000000000000000000600052603260045260246000fd5b6020026020010151611104565b611253565b915080806106f390612538565b9150506105b8565b5061074b81836080015160008151811061073e577f4e487b7100000000000000000000000000000000000000000000000000000000600052603260045260246000fd5b6020026020010151611253565b905061078161075d86600001516113ee565b8660200151846000015185602001518587604001518b604001518960600151611493565b6107915760019350505050610799565b600093505050505b92915050565b6107a7611e82565b60405180604001604052807f2d4d9aa7e302d9df41749d5507949d05dbea33fbb16c643b22f599a2be6df2e281526020017f14bedd503c37ceb061d8ec60209fe345ce89830a19230301f076caff004d19268152508160000181905250604051806040016040528060405180604001604052807f0967032fcbf776d1afc985f88877f182d38480a653f2decaa9794cbc3bf3060c81526020017f0e187847ad4c798374d0d6732bf501847dd68bc0e071241e0213bc7fc13db7ab815250815260200160405180604001604052807f304cfbd1e08a704a99f5e847d93f8c3caafddec46b7a0d379da69a4d112346a781526020017f1739c1b1a457a8c7313123d24d2f9192f896b7c63eea05a9d57f06547ad0cec88152508152508160200181905250604051806040016040528060405180604001604052807f198e9393920d483a7260bfb731fb5d25f1aa493335a9e71297e485b7aef312c281526020017f1800deef121f1e76426a00665e5c4479674322d4f75edadd46debd5cd992f6ed815250815260200160405180604001604052807f090689d0585ff075ec9e99ad690c3395bc4b313370b38ef355acdadcd122975b81526020017f12c85ea5db8c6deb4aab71808dcb408fe3d1e7690c43d37b4ce6cc0166fa7daa8152508152508160400181905250604051806040016040528060405180604001604052807f090117fe5189f68efae3a3e4d0bb3376ceafcf74694a6a6ea8d3d0a78e805eda81526020017f0cd26157c17ea9dc9f2499ad529c4e8f2a573899b4f2122c9eb266421c57f21f815250815260200160405180604001604052807f027bd78ea10ac1e78e2fed860835b14f6572b4649cf911dffc09d2f5a0cc971d81526020017f217ede3776859cb18ea2b1a98e203a93b158f96aa8645f988f4fe301b3094e128152508152508160600181905250600a67ffffffffffffffff811115610a94577f4e487b7100000000000000000000000000000000000000000000000000000000600052604160045260246000fd5b604051908082528060200260200182016040528015610acd57816020015b610aba611ec9565b815260200190600190039081610ab25790505b50816080018190525060405180604001604052807f2a0892e280538f4d577c1182d978eec59e8ab9b7b1c95f2a878d7a02003257f181526020017f01622be484573161251d0dc3932cd6908969e4c4320d5340711e200887f90d598152508160800151600081518110610b69577f4e487b7100000000000000000000000000000000000000000000000000000000600052603260045260246000fd5b602002602001018190525060405180604001604052807f18ed5f8f212aa86a5f0b5a0098d8c1d5d4086780544d3f0f605f4762113acb7181526020017f08b1affdb4e9e72a7541aeca41a03d27f5647ef5537a5d31aa3b93a4930920328152508160800151600181518110610c07577f4e487b7100000000000000000000000000000000000000000000000000000000600052603260045260246000fd5b602002602001018190525060405180604001604052807f26867488c304898c6144ff6d594766e4f3aa793ca893a3daad32a3272235f23081526020017f2d02eee76cb607b1b82fbda3526b3d680f2b3086043d9f1596ebfd7af205b9098152508160800151600281518110610ca5577f4e487b7100000000000000000000000000000000000000000000000000000000600052603260045260246000fd5b602002602001018190525060405180604001604052807f1c0ef8b6c1af5b8cf3c79340d5ea4bd3ae089863cf2ab84dff0f0989242b5f7b81526020017f186638952a78b2266f0ddc11c533c184a9eb8a83f856f49b7f20f07eaebae39c8152508160800151600381518110610d43577f4e487b7100000000000000000000000000000000000000000000000000000000600052603260045260246000fd5b602002602001018190525060405180604001604052807f1a34fec41ad2108a5646f33b8c22fd8e00836ab7c9db4d981e2e9ecdc8a2624581526020017f1f6eedf1400fd0f32d3d89f4500e643708ce54e229014c04b7c907fb2a911f6a8152508160800151600481518110610de1577f4e487b7100000000000000000000000000000000000000000000000000000000600052603260045260246000fd5b602002602001018190525060405180604001604052807e6cf818a79bc65176172deacae305eb5ddcde1991ab063fc40567b18a27624d81526020017f1875d04e4912bb634edd982962fc2f9ced95b5521b06dce43266a67dda6cfeb18152508160800151600581518110610e7e577f4e487b7100000000000000000000000000000000000000000000000000000000600052603260045260246000fd5b602002602001018190525060405180604001604052807f1af1c66de5b78c619b95d2169e53a186f683f844f746d4f0c06cb48202d7c86481526020017f204b596bd7c876a4791637792dc0917a0ef6c792e4726fc382f480b653a4a6008152508160800151600681518110610f1c577f4e487b7100000000000000000000000000000000000000000000000000000000600052603260045260246000fd5b602002602001018190525060405180604001604052807f26ce1afe454b5098715e52f52a1a6061aa5829944f67762764659233d8e3252f81526020017f17954abdc7c98305bd67722fbd4b62c7779cd2c52f96782e8bb7f145ffca74a48152508160800151600781518110610fba577f4e487b7100000000000000000000000000000000000000000000000000000000600052603260045260246000fd5b602002602001018190525060405180604001604052807f04f1aea0a0b4b589c03e3719d01d70fcdd41f016fb9663a9f235049eca5eb28c81526020017f1326185ed5d6e0226229471e07c08e8c7386a5f6174ddb8b68f870cb2cddcd978152508160800151600881518110611058577f4e487b7100000000000000000000000000000000000000000000000000000000600052603260045260246000fd5b602002602001018190525060405180604001604052807f08fb624ca692a74d178aa9460c28549d5722111a44777d730a4ac0cd5e66aa4a81526020017f277082c4f3aabeab0ae64c168e1b54c45b9f93a47ed7f6c44a0a5eb78c4ba16a81525081608001516009815181106110f6577f4e487b7100000000000000000000000000000000000000000000000000000000600052603260045260246000fd5b602002602001018190525090565b61110c611ec9565b611114611ee3565b836000015181600060038110611153577f4e487b7100000000000000000000000000000000000000000000000000000000600052603260045260246000fd5b60200201818152505083602001518160016003811061119b577f4e487b7100000000000000000000000000000000000000000000000000000000600052603260045260246000fd5b60200201818152505082816002600381106111df577f4e487b7100000000000000000000000000000000000000000000000000000000600052603260045260246000fd5b602002018181525050600060608360808460076107d05a03fa905080600081146112085761120a565bfe5b508061124b576040517f08c379a0000000000000000000000000000000000000000000000000000000008152600401611242906122c5565b60405180910390fd5b505092915050565b61125b611ec9565b611263611f05565b8360000151816000600481106112a2577f4e487b7100000000000000000000000000000000000000000000000000000000600052603260045260246000fd5b6020020181815250508360200151816001600481106112ea577f4e487b7100000000000000000000000000000000000000000000000000000000600052603260045260246000fd5b602002018181525050826000015181600260048110611332577f4e487b7100000000000000000000000000000000000000000000000000000000600052603260045260246000fd5b60200201818152505082602001518160036004811061137a577f4e487b7100000000000000000000000000000000000000000000000000000000600052603260045260246000fd5b602002018181525050600060608360c08460066107d05a03fa905080600081146113a3576113a5565bfe5b50806113e6576040517f08c379a00000000000000000000000000000000000000000000000000000000081526004016113dd90612325565b60405180910390fd5b505092915050565b6113f6611ec9565b60007f30644e72e131a029b85045b68181585d97816a916871ca8d3c208c16d87cfd47905060008360000151148015611433575060008360200151145b1561145757604051806040016040528060008152602001600081525091505061148e565b60405180604001604052808460000151815260200182856020015161147c9190612581565b8361148791906124bd565b8152509150505b919050565b600080600467ffffffffffffffff8111156114d7577f4e487b7100000000000000000000000000000000000000000000000000000000600052604160045260246000fd5b60405190808252806020026020018201604052801561151057816020015b6114fd611ec9565b8152602001906001900390816114f55790505b5090506000600467ffffffffffffffff811115611556577f4e487b7100000000000000000000000000000000000000000000000000000000600052604160045260246000fd5b60405190808252806020026020018201604052801561158f57816020015b61157c611f27565b8152602001906001900390816115745790505b5090508a826000815181106115cd577f4e487b7100000000000000000000000000000000000000000000000000000000600052603260045260246000fd5b60200260200101819052508882600181518110611613577f4e487b7100000000000000000000000000000000000000000000000000000000600052603260045260246000fd5b60200260200101819052508682600281518110611659577f4e487b7100000000000000000000000000000000000000000000000000000000600052603260045260246000fd5b6020026020010181905250848260038151811061169f577f4e487b7100000000000000000000000000000000000000000000000000000000600052603260045260246000fd5b602002602001018190525089816000815181106116e5577f4e487b7100000000000000000000000000000000000000000000000000000000600052603260045260246000fd5b6020026020010181905250878160018151811061172b577f4e487b7100000000000000000000000000000000000000000000000000000000600052603260045260246000fd5b60200260200101819052508581600281518110611771577f4e487b7100000000000000000000000000000000000000000000000000000000600052603260045260246000fd5b602002602001018190525083816003815181106117b7577f4e487b7100000000000000000000000000000000000000000000000000000000600052603260045260246000fd5b60200260200101819052506117cc82826117dc565b9250505098975050505050505050565b60008151835114611822576040517f08c379a000000000000000000000000000000000000000000000000000000000815260040161181990612305565b60405180910390fd5b60008351905060006006826118379190612463565b905060008167ffffffffffffffff81111561187b577f4e487b7100000000000000000000000000000000000000000000000000000000600052604160045260246000fd5b6040519080825280602002602001820160405280156118a95781602001602082028036833780820191505090505b50905060005b83811015611d8e578681815181106118f0577f4e487b7100000000000000000000000000000000000000000000000000000000600052603260045260246000fd5b60200260200101516000015182600060068461190c9190612463565b611916919061240d565b8151811061194d577f4e487b7100000000000000000000000000000000000000000000000000000000600052603260045260246000fd5b602002602001018181525050868181518110611992577f4e487b7100000000000000000000000000000000000000000000000000000000600052603260045260246000fd5b6020026020010151602001518260016006846119ae9190612463565b6119b8919061240d565b815181106119ef577f4e487b7100000000000000000000000000000000000000000000000000000000600052603260045260246000fd5b602002602001018181525050858181518110611a34577f4e487b7100000000000000000000000000000000000000000000000000000000600052603260045260246000fd5b602002602001015160000151600060028110611a79577f4e487b7100000000000000000000000000000000000000000000000000000000600052603260045260246000fd5b6020020151826002600684611a8e9190612463565b611a98919061240d565b81518110611acf577f4e487b7100000000000000000000000000000000000000000000000000000000600052603260045260246000fd5b602002602001018181525050858181518110611b14577f4e487b7100000000000000000000000000000000000000000000000000000000600052603260045260246000fd5b602002602001015160000151600160028110611b59577f4e487b7100000000000000000000000000000000000000000000000000000000600052603260045260246000fd5b6020020151826003600684611b6e9190612463565b611b78919061240d565b81518110611baf577f4e487b7100000000000000000000000000000000000000000000000000000000600052603260045260246000fd5b602002602001018181525050858181518110611bf4577f4e487b7100000000000000000000000000000000000000000000000000000000600052603260045260246000fd5b602002602001015160200151600060028110611c39577f4e487b7100000000000000000000000000000000000000000000000000000000600052603260045260246000fd5b6020020151826004600684611c4e9190612463565b611c58919061240d565b81518110611c8f577f4e487b7100000000000000000000000000000000000000000000000000000000600052603260045260246000fd5b602002602001018181525050858181518110611cd4577f4e487b7100000000000000000000000000000000000000000000000000000000600052603260045260246000fd5b602002602001015160200151600160028110611d19577f4e487b7100000000000000000000000000000000000000000000000000000000600052603260045260246000fd5b6020020151826005600684611d2e9190612463565b611d38919061240d565b81518110611d6f577f4e487b7100000000000000000000000000000000000000000000000000000000600052603260045260246000fd5b6020026020010181815250508080611d8690612538565b9150506118af565b50611d97611f4d565b6000602082602086026020860160086107d05a03fa90508060008114611dbc57611dbe565bfe5b5080611dff576040517f08c379a0000000000000000000000000000000000000000000000000000000008152600401611df690612345565b60405180910390fd5b600082600060018110611e3b577f4e487b7100000000000000000000000000000000000000000000000000000000600052603260045260246000fd5b602002015114159550505050505092915050565b6040518060600160405280611e62611ec9565b8152602001611e6f611f27565b8152602001611e7c611ec9565b81525090565b6040518060a00160405280611e95611ec9565b8152602001611ea2611f27565b8152602001611eaf611f27565b8152602001611ebc611f27565b8152602001606081525090565b604051806040016040528060008152602001600081525090565b6040518060600160405280600390602082028036833780820191505090505090565b6040518060800160405280600490602082028036833780820191505090505090565b6040518060400160405280611f3a611f6f565b8152602001611f47611f6f565b81525090565b6040518060200160405280600190602082028036833780820191505090505090565b6040518060400160405280600290602082028036833780820191505090505090565b6000611fa4611f9f8461238a565b612365565b90508082856040860282011115611fba57600080fd5b60005b85811015611fea5781611fd088826120e1565b845260208401935060408301925050600181019050611fbd565b5050509392505050565b6000612007612002846123b0565b612365565b9050808285602086028201111561201d57600080fd5b60005b8581101561204d5781612033888261212f565b845260208401935060208301925050600181019050612020565b5050509392505050565b600061206a612065846123d6565b612365565b9050808285602086028201111561208057600080fd5b60005b858110156120b05781612096888261212f565b845260208401935060208301925050600181019050612083565b5050509392505050565b600082601f8301126120cb57600080fd5b60026120d8848285611f91565b91505092915050565b600082601f8301126120f257600080fd5b60026120ff848285611ff4565b91505092915050565b600082601f83011261211957600080fd5b6009612126848285612057565b91505092915050565b60008135905061213e81612746565b92915050565b600080600080610220858703121561215b57600080fd5b6000612169878288016120e1565b945050604061217a878288016120ba565b93505060c061218b878288016120e1565b92505061010061219d87828801612108565b91505092959194509250565b6121b2816124f1565b82525050565b60006121c56012836123fc565b91506121d082612650565b602082019050919050565b60006121e86012836123fc565b91506121f382612679565b602082019050919050565b600061220b601f836123fc565b9150612216826126a2565b602082019050919050565b600061222e6016836123fc565b9150612239826126cb565b602082019050919050565b60006122516012836123fc565b915061225c826126f4565b602082019050919050565b60006122746015836123fc565b915061227f8261271d565b602082019050919050565b600060208201905061229f60008301846121a9565b92915050565b600060208201905081810360008301526122be816121b8565b9050919050565b600060208201905081810360008301526122de816121db565b9050919050565b600060208201905081810360008301526122fe816121fe565b9050919050565b6000602082019050818103600083015261231e81612221565b9050919050565b6000602082019050818103600083015261233e81612244565b9050919050565b6000602082019050818103600083015261235e81612267565b9050919050565b600061236f612380565b905061237b8282612507565b919050565b6000604051905090565b600067ffffffffffffffff8211156123a5576123a4612610565b5b602082029050919050565b600067ffffffffffffffff8211156123cb576123ca612610565b5b602082029050919050565b600067ffffffffffffffff8211156123f1576123f0612610565b5b602082029050919050565b600082825260208201905092915050565b6000612418826124fd565b9150612423836124fd565b9250827fffffffffffffffffffffffffffffffffffffffffffffffffffffffffffffffff03821115612458576124576125b2565b5b828201905092915050565b600061246e826124fd565b9150612479836124fd565b9250817fffffffffffffffffffffffffffffffffffffffffffffffffffffffffffffffff04831182151516156124b2576124b16125b2565b5b828202905092915050565b60006124c8826124fd565b91506124d3836124fd565b9250828210156124e6576124e56125b2565b5b828203905092915050565b60008115159050919050565b6000819050919050565b6125108261263f565b810181811067ffffffffffffffff8211171561252f5761252e612610565b5b80604052505050565b6000612543826124fd565b91507fffffffffffffffffffffffffffffffffffffffffffffffffffffffffffffffff821415612576576125756125b2565b5b600182019050919050565b600061258c826124fd565b9150612597836124fd565b9250826125a7576125a66125e1565b5b828206905092915050565b7f4e487b7100000000000000000000000000000000000000000000000000000000600052601160045260246000fd5b7f4e487b7100000000000000000000000000000000000000000000000000000000600052601260045260246000fd5b7f4e487b7100000000000000000000000000000000000000000000000000000000600052604160045260246000fd5b6000601f19601f8301169050919050565b7f76657269666965722d6261642d696e7075740000000000000000000000000000600082015250565b7f70616972696e672d6d756c2d6661696c65640000000000000000000000000000600082015250565b7f76657269666965722d6774652d736e61726b2d7363616c61722d6669656c6400600082015250565b7f70616972696e672d6c656e677468732d6661696c656400000000000000000000600082015250565b7f70616972696e672d6164642d6661696c65640000000000000000000000000000600082015250565b7f70616972696e672d6f70636f64652d6661696c65640000000000000000000000600082015250565b61274f816124fd565b811461275a57600080fd5b5056fea264697066735822122001d5b0bccb5b5e9c3da7b245bcdc8875d15722a284bb930c54350f048c6d497a64736f6c63430008040033",
  "linkReferences": {},
  "deployedLinkReferences": {}
}