{
  "_format": "hh-sol-artifact-1",
  "contractName": "zkFischer",
  "sourceName": "contracts/zkFischer.sol",
  "abi": [
    {
      "inputs": [
        {
          "internalType": "address",
          "name": "_placementVerifier",
          "type": "address"
        },
        {
          "internalType": "address",
          "name": "_moveVerifier",
          "type": "address"
        }
      ],
      "stateMutability": "nonpayable",
      "type": "constructor"
    },
    {
      "anonymous": false,
      "inputs": [
        {
          "indexed": true,
          "internalType": "address",
          "name": "winner",
          "type": "address"
        }
      ],
      "name": "GameEnd",
      "type": "event"
    },
    {
      "anonymous": false,
      "inputs": [],
      "name": "Initialize",
      "type": "event"
    },
    {
      "anonymous": false,
      "inputs": [
        {
          "indexed": true,
          "internalType": "address",
          "name": "player",
          "type": "address"
        }
      ],
      "name": "Move",
      "type": "event"
    },
    {
      "anonymous": false,
      "inputs": [
        {
          "indexed": false,
          "internalType": "enum zkFischer.GamePhase",
          "name": "phase",
          "type": "uint8"
        }
      ],
      "name": "PhaseChange",
      "type": "event"
    },
    {
      "anonymous": false,
      "inputs": [
        {
          "indexed": true,
          "internalType": "address",
          "name": "player",
          "type": "address"
        }
      ],
      "name": "Register",
      "type": "event"
    },
    {
      "anonymous": false,
      "inputs": [
        {
          "indexed": true,
          "internalType": "address",
          "name": "player",
          "type": "address"
        }
      ],
      "name": "SetupBoard",
      "type": "event"
    },
    {
      "inputs": [
        {
          "internalType": "uint256",
          "name": "",
          "type": "uint256"
        }
      ],
      "name": "gameHistory",
      "outputs": [
        {
          "internalType": "uint256",
          "name": "",
          "type": "uint256"
        }
      ],
      "stateMutability": "view",
      "type": "function"
    },
    {
      "inputs": [],
      "name": "gameKey",
      "outputs": [
        {
          "internalType": "uint256",
          "name": "",
          "type": "uint256"
        }
      ],
      "stateMutability": "view",
      "type": "function"
    },
    {
      "inputs": [
        {
          "internalType": "uint256",
          "name": "moveCmd",
          "type": "uint256"
        },
        {
          "internalType": "uint256[2]",
          "name": "a",
          "type": "uint256[2]"
        },
        {
          "internalType": "uint256[2][2]",
          "name": "b",
          "type": "uint256[2][2]"
        },
        {
          "internalType": "uint256[2]",
          "name": "c",
          "type": "uint256[2]"
        },
        {
          "internalType": "uint256[9]",
          "name": "input",
          "type": "uint256[9]"
        }
      ],
      "name": "move",
      "outputs": [],
      "stateMutability": "nonpayable",
      "type": "function"
    },
    {
      "inputs": [],
      "name": "moveVerifier",
      "outputs": [
        {
          "internalType": "address",
          "name": "",
          "type": "address"
        }
      ],
      "stateMutability": "view",
      "type": "function"
    },
    {
      "inputs": [],
      "name": "phase",
      "outputs": [
        {
          "internalType": "enum zkFischer.GamePhase",
          "name": "",
          "type": "uint8"
        }
      ],
      "stateMutability": "view",
      "type": "function"
    },
    {
      "inputs": [],
      "name": "placementVerifier",
      "outputs": [
        {
          "internalType": "address",
          "name": "",
          "type": "address"
        }
      ],
      "stateMutability": "view",
      "type": "function"
    },
    {
      "inputs": [
        {
          "internalType": "uint256",
          "name": "",
          "type": "uint256"
        }
      ],
      "name": "players",
      "outputs": [
        {
          "internalType": "address",
          "name": "",
          "type": "address"
        }
      ],
      "stateMutability": "view",
      "type": "function"
    },
    {
      "inputs": [],
      "name": "register",
      "outputs": [],
      "stateMutability": "nonpayable",
      "type": "function"
    },
    {
      "inputs": [
        {
          "internalType": "uint256",
          "name": "setupHash",
          "type": "uint256"
        },
        {
          "internalType": "uint256[2]",
          "name": "a",
          "type": "uint256[2]"
        },
        {
          "internalType": "uint256[2][2]",
          "name": "b",
          "type": "uint256[2][2]"
        },
        {
          "internalType": "uint256[2]",
          "name": "c",
          "type": "uint256[2]"
        },
        {
          "internalType": "uint256[3]",
          "name": "input",
          "type": "uint256[3]"
        }
      ],
      "name": "setupBoard",
      "outputs": [],
      "stateMutability": "nonpayable",
      "type": "function"
    },
    {
      "inputs": [
        {
          "internalType": "uint256",
          "name": "",
          "type": "uint256"
        }
      ],
      "name": "setupHashes",
      "outputs": [
        {
          "internalType": "uint256",
          "name": "",
          "type": "uint256"
        }
      ],
      "stateMutability": "view",
      "type": "function"
    }
  ],
  "bytecode": "0x60806040526000600760146101000a81548160ff0219169083600381111562000051577f4e487b7100000000000000000000000000000000000000000000000000000000600052602160045260246000fd5b02179055503480156200006357600080fd5b506040516200284838038062002848833981810160405281019062000089919062000131565b81600660006101000a81548173ffffffffffffffffffffffffffffffffffffffff021916908373ffffffffffffffffffffffffffffffffffffffff16021790555080600760006101000a81548173ffffffffffffffffffffffffffffffffffffffff021916908373ffffffffffffffffffffffffffffffffffffffff160217905550600080819055505050620001c0565b6000815190506200012b81620001a6565b92915050565b600080604083850312156200014557600080fd5b600062000155858286016200011a565b925050602062000168858286016200011a565b9150509250929050565b60006200017f8262000186565b9050919050565b600073ffffffffffffffffffffffffffffffffffffffff82169050919050565b620001b18162000172565b8114620001bd57600080fd5b50565b61267880620001d06000396000f3fe608060405234801561001057600080fd5b506004361061009e5760003560e01c8063d173bf9c11610066578063d173bf9c14610121578063d1958b411461013f578063d3438aa21461016f578063e693e41b1461019f578063f71d96cb146101bd5761009e565b80631aa3a008146100a35780631e9f1d7c146100ad57806333d4a797146100c95780635bb4948f146100e7578063b1c9fe6e14610103575b600080fd5b6100ab6101ed565b005b6100c760048036038101906100c29190611909565b6105c9565b005b6100d1610af2565b6040516100de9190611fcc565b60405180910390f35b61010160048036038101906100fc9190611890565b610af8565b005b61010b6110a9565b6040516101189190611e11565b60405180910390f35b6101296110bc565b6040516101369190611d68565b60405180910390f35b61015960048036038101906101549190611867565b6110e2565b6040516101669190611fcc565b60405180910390f35b61018960048036038101906101849190611867565b6110fd565b6040516101969190611fcc565b60405180910390f35b6101a7611121565b6040516101b49190611d68565b60405180910390f35b6101d760048036038101906101d29190611867565b611147565b6040516101e49190611d68565b60405180910390f35b6000806003811115610228577f4e487b7100000000000000000000000000000000000000000000000000000000600052602160045260246000fd5b600760149054906101000a900460ff166003811115610270577f4e487b7100000000000000000000000000000000000000000000000000000000600052602160045260246000fd5b146102b0576040517f08c379a00000000000000000000000000000000000000000000000000000000081526004016102a790611f8c565b60405180910390fd5b600073ffffffffffffffffffffffffffffffffffffffff166002600060028110610303577f4e487b7100000000000000000000000000000000000000000000000000000000600052603260045260246000fd5b0160009054906101000a900473ffffffffffffffffffffffffffffffffffffffff1673ffffffffffffffffffffffffffffffffffffffff1614156104045733600260006002811061037d577f4e487b7100000000000000000000000000000000000000000000000000000000600052603260045260246000fd5b0160006101000a81548173ffffffffffffffffffffffffffffffffffffffff021916908373ffffffffffffffffffffffffffffffffffffffff1602179055503373ffffffffffffffffffffffffffffffffffffffff167feeda149c76076b34d4b9d8896c2f7efc0d33d1c7b53ea3c5db490d64613f603a60405160405180910390a26105c6565b3373ffffffffffffffffffffffffffffffffffffffff166002600060028110610456577f4e487b7100000000000000000000000000000000000000000000000000000000600052603260045260246000fd5b0160009054906101000a900473ffffffffffffffffffffffffffffffffffffffff1673ffffffffffffffffffffffffffffffffffffffff1614156104cf576040517f08c379a00000000000000000000000000000000000000000000000000000000081526004016104c690611eac565b60405180910390fd5b33600260016002811061050b577f4e487b7100000000000000000000000000000000000000000000000000000000600052603260045260246000fd5b0160006101000a81548173ffffffffffffffffffffffffffffffffffffffff021916908373ffffffffffffffffffffffffffffffffffffffff1602179055503373ffffffffffffffffffffffffffffffffffffffff167feeda149c76076b34d4b9d8896c2f7efc0d33d1c7b53ea3c5db490d64613f603a60405160405180910390a27fed606d544c2202d032d2626c390923e6f260ca5d89625bba0cfe70d2bdda4e8f60016040516105bd9190611e11565b60405180910390a15b50565b6002806003811115610604577f4e487b7100000000000000000000000000000000000000000000000000000000600052602160045260246000fd5b600760149054906101000a900460ff16600381111561064c577f4e487b7100000000000000000000000000000000000000000000000000000000600052602160045260246000fd5b1461068c576040517f08c379a000000000000000000000000000000000000000000000000000000000815260040161068390611f8c565b60405180910390fd5b60026000600281106106c7577f4e487b7100000000000000000000000000000000000000000000000000000000600052603260045260246000fd5b0160009054906101000a900473ffffffffffffffffffffffffffffffffffffffff1673ffffffffffffffffffffffffffffffffffffffff163373ffffffffffffffffffffffffffffffffffffffff1614806107a957506002600160028110610758577f4e487b7100000000000000000000000000000000000000000000000000000000600052603260045260246000fd5b0160009054906101000a900473ffffffffffffffffffffffffffffffffffffffff1673ffffffffffffffffffffffffffffffffffffffff163373ffffffffffffffffffffffffffffffffffffffff16145b6107e8576040517f08c379a00000000000000000000000000000000000000000000000000000000081526004016107df90611ecc565b60405180910390fd5b6002600060028110610823577f4e487b7100000000000000000000000000000000000000000000000000000000600052603260045260246000fd5b0160009054906101000a900473ffffffffffffffffffffffffffffffffffffffff1673ffffffffffffffffffffffffffffffffffffffff163373ffffffffffffffffffffffffffffffffffffffff16141561094b576000600260018054905061088c9190612212565b146108cc576040517f08c379a00000000000000000000000000000000000000000000000000000000081526004016108c390611f6c565b60405180910390fd5b6108da60008686868661117d565b60018690806001815401808255809150506001900390600052602060002001600090919091909150553373ffffffffffffffffffffffffffffffffffffffff167f2faa250a40ee7ae6e526f286912b032fc352944ea55943cf3a6c38c42ca364d860405160405180910390a2610aea565b6002600160028110610986577f4e487b7100000000000000000000000000000000000000000000000000000000600052603260045260246000fd5b0160009054906101000a900473ffffffffffffffffffffffffffffffffffffffff1673ffffffffffffffffffffffffffffffffffffffff163373ffffffffffffffffffffffffffffffffffffffff161415610aae57600160026001805490506109ef9190612212565b14610a2f576040517f08c379a0000000000000000000000000000000000000000000000000000000008152600401610a2690611e6c565b60405180910390fd5b610a3d60018686868661117d565b60018690806001815401808255809150506001900390600052602060002001600090919091909150553373ffffffffffffffffffffffffffffffffffffffff167f2faa250a40ee7ae6e526f286912b032fc352944ea55943cf3a6c38c42ca364d860405160405180910390a2610ae9565b6040517f08c379a0000000000000000000000000000000000000000000000000000000008152600401610ae090611f2c565b60405180910390fd5b5b505050505050565b60005481565b6002600060028110610b33577f4e487b7100000000000000000000000000000000000000000000000000000000600052603260045260246000fd5b0160009054906101000a900473ffffffffffffffffffffffffffffffffffffffff1673ffffffffffffffffffffffffffffffffffffffff163373ffffffffffffffffffffffffffffffffffffffff161480610c1557506002600160028110610bc4577f4e487b7100000000000000000000000000000000000000000000000000000000600052603260045260246000fd5b0160009054906101000a900473ffffffffffffffffffffffffffffffffffffffff1673ffffffffffffffffffffffffffffffffffffffff163373ffffffffffffffffffffffffffffffffffffffff16145b610c54576040517f08c379a0000000000000000000000000000000000000000000000000000000008152600401610c4b90611ecc565b60405180910390fd5b6002600060028110610c8f577f4e487b7100000000000000000000000000000000000000000000000000000000600052603260045260246000fd5b0160009054906101000a900473ffffffffffffffffffffffffffffffffffffffff1673ffffffffffffffffffffffffffffffffffffffff163373ffffffffffffffffffffffffffffffffffffffff161415610df95760006004600060028110610d21577f4e487b7100000000000000000000000000000000000000000000000000000000600052603260045260246000fd5b015414610d63576040517f08c379a0000000000000000000000000000000000000000000000000000000008152600401610d5a90611eec565b60405180910390fd5b610d7085858585856113f3565b846004600060028110610dac577f4e487b7100000000000000000000000000000000000000000000000000000000600052603260045260246000fd5b01819055503373ffffffffffffffffffffffffffffffffffffffff167faf4d9c446642b35d7ee8febf856e561aab055caad19b4fcf9e632edca55c6c9f60405160405180910390a2610fda565b6002600160028110610e34577f4e487b7100000000000000000000000000000000000000000000000000000000600052603260045260246000fd5b0160009054906101000a900473ffffffffffffffffffffffffffffffffffffffff1673ffffffffffffffffffffffffffffffffffffffff163373ffffffffffffffffffffffffffffffffffffffff161415610f9e5760006004600160028110610ec6577f4e487b7100000000000000000000000000000000000000000000000000000000600052603260045260246000fd5b015414610f08576040517f08c379a0000000000000000000000000000000000000000000000000000000008152600401610eff90611f4c565b60405180910390fd5b610f1585858585856113f3565b846004600160028110610f51577f4e487b7100000000000000000000000000000000000000000000000000000000600052603260045260246000fd5b01819055503373ffffffffffffffffffffffffffffffffffffffff167faf4d9c446642b35d7ee8febf856e561aab055caad19b4fcf9e632edca55c6c9f60405160405180910390a2610fd9565b6040517f08c379a0000000000000000000000000000000000000000000000000000000008152600401610fd090611f2c565b60405180910390fd5b5b60006004600060028110611017577f4e487b7100000000000000000000000000000000000000000000000000000000600052603260045260246000fd5b01541415801561106457506000600460016002811061105f577f4e487b7100000000000000000000000000000000000000000000000000000000600052603260045260246000fd5b015414155b156110a2577fed606d544c2202d032d2626c390923e6f260ca5d89625bba0cfe70d2bdda4e8f60026040516110999190611e11565b60405180910390a15b5050505050565b600760149054906101000a900460ff1681565b600760009054906101000a900473ffffffffffffffffffffffffffffffffffffffff1681565b600481600281106110f257600080fd5b016000915090505481565b6001818154811061110d57600080fd5b906000526020600020016000915090505481565b600660009054906101000a900473ffffffffffffffffffffffffffffffffffffffff1681565b6002816002811061115757600080fd5b016000915054906101000a900473ffffffffffffffffffffffffffffffffffffffff1681565b600085148061118c5750600185145b6111bf577f4e487b7100000000000000000000000000000000000000000000000000000000600052600160045260246000fd5b600485600281106111f9577f4e487b7100000000000000000000000000000000000000000000000000000000600052603260045260246000fd5b015481600460098110611235577f4e487b7100000000000000000000000000000000000000000000000000000000600052603260045260246000fd5b60200201511461127a576040517f08c379a000000000000000000000000000000000000000000000000000000000815260040161127190611e4c565b60405180910390fd5b600054816008600981106112b7577f4e487b7100000000000000000000000000000000000000000000000000000000600052603260045260246000fd5b6020020151146112fc576040517f08c379a00000000000000000000000000000000000000000000000000000000081526004016112f390611f0c565b60405180910390fd5b600760009054906101000a900473ffffffffffffffffffffffffffffffffffffffff1673ffffffffffffffffffffffffffffffffffffffff1663c542c93b858585856040518563ffffffff1660e01b815260040161135d9493929190611dca565b60206040518083038186803b15801561137557600080fd5b505afa158015611389573d6000803e3d6000fd5b505050506040513d601f19601f820116820180604052508101906113ad919061183e565b6113ec576040517f08c379a00000000000000000000000000000000000000000000000000000000081526004016113e390611e2c565b60405180910390fd5b5050505050565b848160016003811061142e577f4e487b7100000000000000000000000000000000000000000000000000000000600052603260045260246000fd5b602002015114611473576040517f08c379a000000000000000000000000000000000000000000000000000000000815260040161146a90611fac565b60405180910390fd5b600054816002600381106114b0577f4e487b7100000000000000000000000000000000000000000000000000000000600052603260045260246000fd5b6020020151146114f5576040517f08c379a00000000000000000000000000000000000000000000000000000000081526004016114ec90611f0c565b60405180910390fd5b600660009054906101000a900473ffffffffffffffffffffffffffffffffffffffff1673ffffffffffffffffffffffffffffffffffffffff166311479fea858585856040518563ffffffff1660e01b81526004016115569493929190611d83565b60206040518083038186803b15801561156e57600080fd5b505afa158015611582573d6000803e3d6000fd5b505050506040513d601f19601f820116820180604052508101906115a6919061183e565b6115e5576040517f08c379a00000000000000000000000000000000000000000000000000000000081526004016115dc90611e8c565b60405180910390fd5b5050505050565b60006115ff6115fa8461200c565b611fe7565b9050808285604086028201111561161557600080fd5b60005b85811015611645578161162b888261179f565b845260208401935060408301925050600181019050611618565b5050509392505050565b600061166261165d84612032565b611fe7565b9050808285602086028201111561167857600080fd5b60005b858110156116a8578161168e8882611829565b84526020840193506020830192505060018101905061167b565b5050509392505050565b60006116c56116c084612058565b611fe7565b905080828560208602820111156116db57600080fd5b60005b8581101561170b57816116f18882611829565b8452602084019350602083019250506001810190506116de565b5050509392505050565b60006117286117238461207e565b611fe7565b9050808285602086028201111561173e57600080fd5b60005b8581101561176e57816117548882611829565b845260208401935060208301925050600181019050611741565b5050509392505050565b600082601f83011261178957600080fd5b60026117968482856115ec565b91505092915050565b600082601f8301126117b057600080fd5b60026117bd84828561164f565b91505092915050565b600082601f8301126117d757600080fd5b60036117e48482856116b2565b91505092915050565b600082601f8301126117fe57600080fd5b600961180b848285611715565b91505092915050565b60008151905061182381612614565b92915050565b6000813590506118388161262b565b92915050565b60006020828403121561185057600080fd5b600061185e84828501611814565b91505092915050565b60006020828403121561187957600080fd5b600061188784828501611829565b91505092915050565b600080600080600061018086880312156118a957600080fd5b60006118b788828901611829565b95505060206118c88882890161179f565b94505060606118d988828901611778565b93505060e06118ea8882890161179f565b9250506101206118fc888289016117c6565b9150509295509295909350565b6000806000806000610240868803121561192257600080fd5b600061193088828901611829565b95505060206119418882890161179f565b945050606061195288828901611778565b93505060e06119638882890161179f565b925050610120611975888289016117ed565b9150509295509295909350565b600061198e8383611a18565b60408301905092915050565b60006119a68383611d4a565b60208301905092915050565b6119bb81612174565b82525050565b6119ca816120cc565b6119d4818461212c565b92506119df826120a4565b8060005b83811015611a105781516119f78782611982565b9650611a02836120f8565b9250506001810190506119e3565b505050505050565b611a21816120d7565b611a2b8184612137565b9250611a36826120ae565b8060005b83811015611a67578151611a4e878261199a565b9650611a5983612105565b925050600181019050611a3a565b505050505050565b611a78816120d7565b611a828184612142565b9250611a8d826120ae565b8060005b83811015611abe578151611aa5878261199a565b9650611ab083612105565b925050600181019050611a91565b505050505050565b611acf816120e2565b611ad9818461214d565b9250611ae4826120b8565b8060005b83811015611b15578151611afc878261199a565b9650611b0783612112565b925050600181019050611ae8565b505050505050565b611b26816120ed565b611b308184612158565b9250611b3b826120c2565b8060005b83811015611b6c578151611b53878261199a565b9650611b5e8361211f565b925050600181019050611b3f565b505050505050565b611b7d816121cf565b82525050565b6000611b90601d83612163565b9150611b9b826122e1565b602082019050919050565b6000611bb3602783612163565b9150611bbe8261230a565b604082019050919050565b6000611bd6601683612163565b9150611be182612359565b602082019050919050565b6000611bf9602283612163565b9150611c0482612382565b604082019050919050565b6000611c1c601d83612163565b9150611c27826123d1565b602082019050919050565b6000611c3f602183612163565b9150611c4a826123fa565b604082019050919050565b6000611c62602883612163565b9150611c6d82612449565b604082019050919050565b6000611c85602283612163565b9150611c9082612498565b604082019050919050565b6000611ca8601083612163565b9150611cb3826124e7565b602082019050919050565b6000611ccb602883612163565b9150611cd682612510565b604082019050919050565b6000611cee601683612163565b9150611cf98261255f565b602082019050919050565b6000611d11601583612163565b9150611d1c82612588565b602082019050919050565b6000611d34602483612163565b9150611d3f826125b1565b604082019050919050565b611d53816121c5565b82525050565b611d62816121c5565b82525050565b6000602082019050611d7d60008301846119b2565b92915050565b600061016082019050611d996000830187611a6f565b611da660408301866119c1565b611db360c0830185611a6f565b611dc1610100830184611ac6565b95945050505050565b600061022082019050611de06000830187611a6f565b611ded60408301866119c1565b611dfa60c0830185611a6f565b611e08610100830184611b1d565b95945050505050565b6000602082019050611e266000830184611b74565b92915050565b60006020820190508181036000830152611e4581611b83565b9050919050565b60006020820190508181036000830152611e6581611ba6565b9050919050565b60006020820190508181036000830152611e8581611bc9565b9050919050565b60006020820190508181036000830152611ea581611bec565b9050919050565b60006020820190508181036000830152611ec581611c0f565b9050919050565b60006020820190508181036000830152611ee581611c32565b9050919050565b60006020820190508181036000830152611f0581611c55565b9050919050565b60006020820190508181036000830152611f2581611c78565b9050919050565b60006020820190508181036000830152611f4581611c9b565b9050919050565b60006020820190508181036000830152611f6581611cbe565b9050919050565b60006020820190508181036000830152611f8581611ce1565b9050919050565b60006020820190508181036000830152611fa581611d04565b9050919050565b60006020820190508181036000830152611fc581611d27565b9050919050565b6000602082019050611fe16000830184611d59565b92915050565b6000611ff1612002565b9050611ffd82826121e1565b919050565b6000604051905090565b600067ffffffffffffffff821115612027576120266122a1565b5b602082029050919050565b600067ffffffffffffffff82111561204d5761204c6122a1565b5b602082029050919050565b600067ffffffffffffffff821115612073576120726122a1565b5b602082029050919050565b600067ffffffffffffffff821115612099576120986122a1565b5b602082029050919050565b6000819050919050565b6000819050919050565b6000819050919050565b6000819050919050565b600060029050919050565b600060029050919050565b600060039050919050565b600060099050919050565b6000602082019050919050565b6000602082019050919050565b6000602082019050919050565b6000602082019050919050565b600081905092915050565b600081905092915050565b600081905092915050565b600081905092915050565b600081905092915050565b600082825260208201905092915050565b600061217f826121a5565b9050919050565b60008115159050919050565b60008190506121a082612600565b919050565b600073ffffffffffffffffffffffffffffffffffffffff82169050919050565b6000819050919050565b60006121da82612192565b9050919050565b6121ea826122d0565b810181811067ffffffffffffffff82111715612209576122086122a1565b5b80604052505050565b600061221d826121c5565b9150612228836121c5565b92508261223857612237612243565b5b828206905092915050565b7f4e487b7100000000000000000000000000000000000000000000000000000000600052601260045260246000fd5b7f4e487b7100000000000000000000000000000000000000000000000000000000600052602160045260246000fd5b7f4e487b7100000000000000000000000000000000000000000000000000000000600052604160045260246000fd5b6000601f19601f8301169050919050565b7f6d6f76652070726f6f6620766572696669636174696f6e206572726f72000000600082015250565b7f7075626c69632072657175697265644861736820696e70757420646f65736e2760008201527f74206d6174636800000000000000000000000000000000000000000000000000602082015250565b7f6974277320706c6179657220312f322773207475726e00000000000000000000600082015250565b7f706c6163656d656e742070726f6f6620766572696669636174696f6e2065727260008201527f6f72000000000000000000000000000000000000000000000000000000000000602082015250565b7f706c617965722068617320616c72656164792072656769737465726564000000600082015250565b7f63616c6c6572206973206e6f742061207265676973746572656420706c61796560008201527f7200000000000000000000000000000000000000000000000000000000000000602082015250565b7f706c6179657220312f322068617320616c72656164792063616c6c656420736560008201527f747570426f617264000000000000000000000000000000000000000000000000602082015250565b7f7075626c69632067616d654b657920696e70757420646f65736e2774206d617460008201527f6368000000000000000000000000000000000000000000000000000000000000602082015250565b7f756e6578706563746564206572726f7200000000000000000000000000000000600082015250565b7f706c6179657220322f322068617320616c72656164792063616c6c656420736560008201527f747570426f617264000000000000000000000000000000000000000000000000602082015250565b7f6974277320706c6179657220322f322773207475726e00000000000000000000600082015250565b7f696e76616c69642063616c6c2061742070686173650000000000000000000000600082015250565b7f7075626c69632073657475704861736820696e70757420646f65736e2774206d60008201527f6174636800000000000000000000000000000000000000000000000000000000602082015250565b6004811061261157612610612272565b5b50565b61261d81612186565b811461262857600080fd5b50565b612634816121c5565b811461263f57600080fd5b5056fea26469706673582212200ee6c4cade04298104a7671e167efea6e342b5e84c95417d20306c54c8e040f064736f6c63430008040033",
  "linkReferences": {},
  "deployedLinkReferences": {}
}