{
  "_format": "hh-sol-artifact-1",
  "contractName": "ZkFischerUtils",
  "sourceName": "contracts/ZkFischerUtils.sol",
  "abi": [
    {
      "inputs": [
        {
          "internalType": "uint256[8][8]",
          "name": "board",
          "type": "uint256[8][8]"
        },
        {
          "internalType": "uint256[2]",
          "name": "fromSq",
          "type": "uint256[2]"
        },
        {
          "internalType": "uint256[2]",
          "name": "toSq",
          "type": "uint256[2]"
        }
      ],
      "name": "isPawnPromotion",
      "outputs": [
        {
          "internalType": "bool",
          "name": "",
          "type": "bool"
        }
      ],
      "stateMutability": "pure",
      "type": "function"
    },
    {
      "inputs": [
        {
          "internalType": "uint256[8][8]",
          "name": "board",
          "type": "uint256[8][8]"
        },
        {
          "internalType": "uint256[2]",
          "name": "fromSq",
          "type": "uint256[2]"
        },
        {
          "internalType": "uint256[2]",
          "name": "toSq",
          "type": "uint256[2]"
        },
        {
          "internalType": "bool",
          "name": "isWhiteMove",
          "type": "bool"
        }
      ],
      "name": "validateHiddenMove",
      "outputs": [
        {
          "internalType": "uint8[3]",
          "name": "",
          "type": "uint8[3]"
        }
      ],
      "stateMutability": "pure",
      "type": "function"
    },
    {
      "inputs": [
        {
          "internalType": "uint256[8][8]",
          "name": "board",
          "type": "uint256[8][8]"
        },
        {
          "internalType": "uint256[2]",
          "name": "fromSq",
          "type": "uint256[2]"
        },
        {
          "internalType": "uint256[2]",
          "name": "toSq",
          "type": "uint256[2]"
        },
        {
          "internalType": "bool",
          "name": "isWhiteMove",
          "type": "bool"
        }
      ],
      "name": "validateRevealedMove",
      "outputs": [],
      "stateMutability": "pure",
      "type": "function"
    }
  ],
  "bytecode": "0x608060405234801561001057600080fd5b506127ca806100206000396000f3fe608060405234801561001057600080fd5b50600436106100415760003560e01c806326d1386f146100465780636d06946e14610062578063c55b92eb14610092575b600080fd5b610060600480360381019061005b9190611d76565b6100c2565b005b61007c60048036038101906100779190611d24565b610e85565b604051610089919061204c565b60405180910390f35b6100ac60048036038101906100a79190611d76565b61103d565b6040516100b99190612031565b60405180910390f35b6100ce848484846114ca565b6000848460006002811061010b577f4e487b7100000000000000000000000000000000000000000000000000000000600052603260045260246000fd5b602002013560088110610147577f4e487b7100000000000000000000000000000000000000000000000000000000600052603260045260246000fd5b610100020184600160028110610186577f4e487b7100000000000000000000000000000000000000000000000000000000600052603260045260246000fd5b6020020135600881106101c2577f4e487b7100000000000000000000000000000000000000000000000000000000600052603260045260246000fd5b60200201359050600084600060028110610205577f4e487b7100000000000000000000000000000000000000000000000000000000600052603260045260246000fd5b602002013584600060028110610244577f4e487b7100000000000000000000000000000000000000000000000000000000600052603260045260246000fd5b602002013561025391906123f0565b9050600085600160028110610291577f4e487b7100000000000000000000000000000000000000000000000000000000600052603260045260246000fd5b6020020135856001600281106102d0577f4e487b7100000000000000000000000000000000000000000000000000000000600052603260045260246000fd5b60200201356102df91906123f0565b905060058314806102f05750600f83145b1561035b57600161030083611bca565b111580156103175750600161031482611bca565b11155b610356576040517f08c379a000000000000000000000000000000000000000000000000000000000815260040161034d90612087565b60405180910390fd5b610e7c565b600683148061036a5750601083145b15610c0557600161037a82611bca565b14156106b857831561052e577fffffffffffffffffffffffffffffffffffffffffffffffffffffffffffffffff82146103e8576040517f08c379a00000000000000000000000000000000000000000000000000000000081526004016103df906120c7565b60405180910390fd5b60026104e98887600060028110610428577f4e487b7100000000000000000000000000000000000000000000000000000000600052603260045260246000fd5b602002013560088110610464577f4e487b7100000000000000000000000000000000000000000000000000000000600052603260045260246000fd5b6101000201876001600281106104a3577f4e487b7100000000000000000000000000000000000000000000000000000000600052603260045260246000fd5b6020020135600881106104df577f4e487b7100000000000000000000000000000000000000000000000000000000600052603260045260246000fd5b6020020135611bec565b14610529576040517f08c379a0000000000000000000000000000000000000000000000000000000008152600401610520906120c7565b60405180910390fd5b6106b3565b60018214610571576040517f08c379a0000000000000000000000000000000000000000000000000000000008152600401610568906120c7565b60405180910390fd5b600161067288876000600281106105b1577f4e487b7100000000000000000000000000000000000000000000000000000000600052603260045260246000fd5b6020020135600881106105ed577f4e487b7100000000000000000000000000000000000000000000000000000000600052603260045260246000fd5b61010002018760016002811061062c577f4e487b7100000000000000000000000000000000000000000000000000000000600052603260045260246000fd5b602002013560088110610668577f4e487b7100000000000000000000000000000000000000000000000000000000600052603260045260246000fd5b6020020135611bec565b146106b2576040517f08c379a00000000000000000000000000000000000000000000000000000000081526004016106a9906120c7565b60405180910390fd5b5b610c00565b6000811415610bc4576000846106cf5760016106f1565b7fffffffffffffffffffffffffffffffffffffffffffffffffffffffffffffffff5b9050600085610701576001610704565b60065b60ff16905081600261071691906122d9565b841415610a36578088600060028110610758577f4e487b7100000000000000000000000000000000000000000000000000000000600052603260045260246000fd5b60200201351461079d576040517f08c379a0000000000000000000000000000000000000000000000000000000008152600401610794906120c7565b60405180910390fd5b600089838a6000600281106107db577f4e487b7100000000000000000000000000000000000000000000000000000000600052603260045260246000fd5b60200201356107ea9190612245565b60088110610821577f4e487b7100000000000000000000000000000000000000000000000000000000600052603260045260246000fd5b610100020189600160028110610860577f4e487b7100000000000000000000000000000000000000000000000000000000600052603260045260246000fd5b60200201356008811061089c577f4e487b7100000000000000000000000000000000000000000000000000000000600052603260045260246000fd5b6020020135146108e1576040517f08c379a00000000000000000000000000000000000000000000000000000000081526004016108d8906121a7565b60405180910390fd5b6000898360026108f191906122d9565b8a60006002811061092b577f4e487b7100000000000000000000000000000000000000000000000000000000600052603260045260246000fd5b602002013561093a9190612245565b60088110610971577f4e487b7100000000000000000000000000000000000000000000000000000000600052603260045260246000fd5b6101000201896001600281106109b0577f4e487b7100000000000000000000000000000000000000000000000000000000600052603260045260246000fd5b6020020135600881106109ec577f4e487b7100000000000000000000000000000000000000000000000000000000600052603260045260246000fd5b602002013514610a31576040517f08c379a0000000000000000000000000000000000000000000000000000000008152600401610a28906121a7565b60405180910390fd5b610bbd565b818414610a78576040517f08c379a0000000000000000000000000000000000000000000000000000000008152600401610a6f906120c7565b60405180910390fd5b600089838a600060028110610ab6577f4e487b7100000000000000000000000000000000000000000000000000000000600052603260045260246000fd5b6020020135610ac59190612245565b60088110610afc577f4e487b7100000000000000000000000000000000000000000000000000000000600052603260045260246000fd5b610100020189600160028110610b3b577f4e487b7100000000000000000000000000000000000000000000000000000000600052603260045260246000fd5b602002013560088110610b77577f4e487b7100000000000000000000000000000000000000000000000000000000600052603260045260246000fd5b602002013514610bbc576040517f08c379a0000000000000000000000000000000000000000000000000000000008152600401610bb3906121a7565b60405180910390fd5b5b5050610bff565b6040517f08c379a0000000000000000000000000000000000000000000000000000000008152600401610bf6906120c7565b60405180910390fd5b5b610e7b565b6004831480610c145750600e83145b15610e3f576000610c2483611bca565b90506000610c3183611bca565b905080821480610c415750600082145b80610c4c5750600081145b610c8b576040517f08c379a0000000000000000000000000000000000000000000000000000000008152600401610c82906120e7565b60405180910390fd5b6000610c9685611c4e565b90506000610ca385611c4e565b90506000600190505b610cb68585611c97565b811215610e355760008c8285610ccc91906122d9565b8d600060028110610d06577f4e487b7100000000000000000000000000000000000000000000000000000000600052603260045260246000fd5b6020020135610d159190612245565b60088110610d4c577f4e487b7100000000000000000000000000000000000000000000000000000000600052603260045260246000fd5b61010002018284610d5d91906122d9565b8d600160028110610d97577f4e487b7100000000000000000000000000000000000000000000000000000000600052603260045260246000fd5b6020020135610da69190612245565b60088110610ddd577f4e487b7100000000000000000000000000000000000000000000000000000000600052603260045260246000fd5b602002013514610e22576040517f08c379a0000000000000000000000000000000000000000000000000000000008152600401610e1990612107565b60405180910390fd5b8080610e2d906124a7565b915050610cac565b5050505050610e7a565b6040517f08c379a0000000000000000000000000000000000000000000000000000000008152600401610e71906121c7565b60405180910390fd5b5b5b50505050505050565b6000808484600060028110610ec3577f4e487b7100000000000000000000000000000000000000000000000000000000600052603260045260246000fd5b602002013560088110610eff577f4e487b7100000000000000000000000000000000000000000000000000000000600052603260045260246000fd5b610100020184600160028110610f3e577f4e487b7100000000000000000000000000000000000000000000000000000000600052603260045260246000fd5b602002013560088110610f7a577f4e487b7100000000000000000000000000000000000000000000000000000000600052603260045260246000fd5b602002013590506006811480610f905750601081145b1561103057600083600060028110610fd1577f4e487b7100000000000000000000000000000000000000000000000000000000600052603260045260246000fd5b602002013514806110205750600783600060028110611019577f4e487b7100000000000000000000000000000000000000000000000000000000600052603260045260246000fd5b6020020135145b1561102f576001915050611036565b5b60009150505b9392505050565b611045611cb0565b611051858585856114ca565b60008460006002811061108d577f4e487b7100000000000000000000000000000000000000000000000000000000600052603260045260246000fd5b6020020135846000600281106110cc577f4e487b7100000000000000000000000000000000000000000000000000000000600052603260045260246000fd5b60200201356110db91906123f0565b9050600085600160028110611119577f4e487b7100000000000000000000000000000000000000000000000000000000600052603260045260246000fd5b602002013585600160028110611158577f4e487b7100000000000000000000000000000000000000000000000000000000600052603260045260246000fd5b602002013561116791906123f0565b9050600061117483611bca565b9050600061118183611bca565b9050600061118d611cb0565b60018414801561119d5750600283145b806111b457506002841480156111b35750600183145b5b156111eb57600291506040518060600160405280600260ff168152602001600060ff168152602001600060ff1681525090506112a8565b60008414806111fa5750600083145b1561123157600191506040518060600160405280600160ff168152602001600460ff168152602001600060ff1681525090506112a7565b8284141561126b57600091506040518060600160405280600360ff168152602001600460ff168152602001600060ff1681525090506112a6565b6040517f08c379a000000000000000000000000000000000000000000000000000000000815260040161129d90612127565b60405180910390fd5b5b5b60028214156112bf578096505050505050506114c2565b828414806112cd5750600084145b806112d85750600083145b61130b577f4e487b7100000000000000000000000000000000000000000000000000000000600052600160045260246000fd5b600061131687611c4e565b9050600061132387611c4e565b90506000600190505b6113368787611c97565b8112156114b55760008e828561134c91906122d9565b8f600060028110611386577f4e487b7100000000000000000000000000000000000000000000000000000000600052603260045260246000fd5b60200201356113959190612245565b600881106113cc577f4e487b7100000000000000000000000000000000000000000000000000000000600052603260045260246000fd5b610100020182846113dd91906122d9565b8f600160028110611417577f4e487b7100000000000000000000000000000000000000000000000000000000600052603260045260246000fd5b60200201356114269190612245565b6008811061145d577f4e487b7100000000000000000000000000000000000000000000000000000000600052603260045260246000fd5b6020020135146114a2576040517f08c379a000000000000000000000000000000000000000000000000000000000815260040161149990612107565b60405180910390fd5b80806114ad906124a7565b91505061132c565b5082985050505050505050505b949350505050565b82600060028110611504577f4e487b7100000000000000000000000000000000000000000000000000000000600052603260045260246000fd5b602002013560001115801561155857508260016002811061154e577f4e487b7100000000000000000000000000000000000000000000000000000000600052603260045260246000fd5b6020020135600011155b80156115a2575060088360006002811061159b577f4e487b7100000000000000000000000000000000000000000000000000000000600052603260045260246000fd5b6020020135105b80156115ec57506008836001600281106115e5577f4e487b7100000000000000000000000000000000000000000000000000000000600052603260045260246000fd5b6020020135105b61162b576040517f08c379a0000000000000000000000000000000000000000000000000000000008152600401611622906121e7565b60405180910390fd5b81600060028110611665577f4e487b7100000000000000000000000000000000000000000000000000000000600052603260045260246000fd5b60200201356000111580156116b95750816001600281106116af577f4e487b7100000000000000000000000000000000000000000000000000000000600052603260045260246000fd5b6020020135600011155b801561170357506008826000600281106116fc577f4e487b7100000000000000000000000000000000000000000000000000000000600052603260045260246000fd5b6020020135105b801561174d5750600882600160028110611746577f4e487b7100000000000000000000000000000000000000000000000000000000600052603260045260246000fd5b6020020135105b61178c576040517f08c379a000000000000000000000000000000000000000000000000000000000815260040161178390612147565b60405180910390fd5b816000600281106117c6577f4e487b7100000000000000000000000000000000000000000000000000000000600052603260045260246000fd5b602002013583600060028110611805577f4e487b7100000000000000000000000000000000000000000000000000000000600052603260045260246000fd5b602002013514158061189357508160016002811061184c577f4e487b7100000000000000000000000000000000000000000000000000000000600052603260045260246000fd5b60200201358360016002811061188b577f4e487b7100000000000000000000000000000000000000000000000000000000600052603260045260246000fd5b602002013514155b6118d2576040517f08c379a00000000000000000000000000000000000000000000000000000000081526004016118c990612167565b60405180910390fd5b60006119d38585600060028110611912577f4e487b7100000000000000000000000000000000000000000000000000000000600052603260045260246000fd5b60200201356008811061194e577f4e487b7100000000000000000000000000000000000000000000000000000000600052603260045260246000fd5b61010002018560016002811061198d577f4e487b7100000000000000000000000000000000000000000000000000000000600052603260045260246000fd5b6020020135600881106119c9577f4e487b7100000000000000000000000000000000000000000000000000000000600052603260045260246000fd5b6020020135611bec565b90506000611ad68685600060028110611a15577f4e487b7100000000000000000000000000000000000000000000000000000000600052603260045260246000fd5b602002013560088110611a51577f4e487b7100000000000000000000000000000000000000000000000000000000600052603260045260246000fd5b610100020185600160028110611a90577f4e487b7100000000000000000000000000000000000000000000000000000000600052603260045260246000fd5b602002013560088110611acc577f4e487b7100000000000000000000000000000000000000000000000000000000600052603260045260246000fd5b6020020135611bec565b90506000821415611b1c576040517f08c379a0000000000000000000000000000000000000000000000000000000008152600401611b1390612187565b60405180910390fd5b82611b2a5760028214611b2f565b600182145b611b6e576040517f08c379a0000000000000000000000000000000000000000000000000000000008152600401611b65906120a7565b60405180910390fd5b82611b7d576002811415611b83565b60018114155b611bc2576040517f08c379a0000000000000000000000000000000000000000000000000000000008152600401611bb990612067565b60405180910390fd5b505050505050565b600080821215611be35781611bde906124f0565b611be5565b815b9050919050565b600081600111158015611c00575060068211155b80611c0b5750600982145b15611c195760019050611c49565b81600b11158015611c2b575060108211155b80611c365750601382145b15611c445760029050611c49565b600090505b919050565b6000808214611c8d5760008213611c85577fffffffffffffffffffffffffffffffffffffffffffffffffffffffffffffffff611c88565b60015b611c90565b60005b9050919050565b6000818311611ca65781611ca8565b825b905092915050565b6040518060600160405280600390602082028036833780820191505090505090565b60008190508261010060080282011115611ceb57600080fd5b92915050565b600081905082602060020282011115611d0957600080fd5b92915050565b600081359050611d1e8161277d565b92915050565b60008060006108808486031215611d3a57600080fd5b6000611d4886828701611cd2565b935050610800611d5a86828701611cf1565b925050610840611d6c86828701611cf1565b9150509250925092565b6000806000806108a08587031215611d8d57600080fd5b6000611d9b87828801611cd2565b945050610800611dad87828801611cf1565b935050610840611dbf87828801611cf1565b925050610880611dd187828801611d0f565b91505092959194509250565b6000611de98383612022565b60208301905092915050565b611dfe81612211565b611e088184612229565b9250611e1382612207565b8060005b83811015611e44578151611e2b8782611ddd565b9650611e368361221c565b925050600181019050611e17565b505050505050565b611e5581612484565b82525050565b6000611e68601083612234565b9150611e7382612568565b602082019050919050565b6000611e8b600d83612234565b9150611e9682612591565b602082019050919050565b6000611eae601283612234565b9150611eb9826125ba565b602082019050919050565b6000611ed1600d83612234565b9150611edc826125e3565b602082019050919050565b6000611ef4600e83612234565b9150611eff8261260c565b602082019050919050565b6000611f17601983612234565b9150611f2282612635565b602082019050919050565b6000611f3a600c83612234565b9150611f458261265e565b602082019050919050565b6000611f5d601283612234565b9150611f6882612687565b602082019050919050565b6000611f80600983612234565b9150611f8b826126b0565b602082019050919050565b6000611fa3600c83612234565b9150611fae826126d9565b602082019050919050565b6000611fc6601283612234565b9150611fd182612702565b602082019050919050565b6000611fe9601183612234565b9150611ff48261272b565b602082019050919050565b600061200c601483612234565b915061201782612754565b602082019050919050565b61202b8161249a565b82525050565b60006060820190506120466000830184611df5565b92915050565b60006020820190506120616000830184611e4c565b92915050565b6000602082019050818103600083015261208081611e5b565b9050919050565b600060208201905081810360008301526120a081611e7e565b9050919050565b600060208201905081810360008301526120c081611ea1565b9050919050565b600060208201905081810360008301526120e081611ec4565b9050919050565b6000602082019050818103600083015261210081611ee7565b9050919050565b6000602082019050818103600083015261212081611f0a565b9050919050565b6000602082019050818103600083015261214081611f2d565b9050919050565b6000602082019050818103600083015261216081611f50565b9050919050565b6000602082019050818103600083015261218081611f73565b9050919050565b600060208201905081810360008301526121a081611f96565b9050919050565b600060208201905081810360008301526121c081611fb9565b9050919050565b600060208201905081810360008301526121e081611fdc565b9050919050565b6000602082019050818103600083015261220081611fff565b9050919050565b6000819050919050565b600060039050919050565b6000602082019050919050565b600081905092915050565b600082825260208201905092915050565b600061225082612490565b915061225b83612490565b9250817f7fffffffffffffffffffffffffffffffffffffffffffffffffffffffffffffff0383136000831215161561229657612295612539565b5b817f80000000000000000000000000000000000000000000000000000000000000000383126000831216156122ce576122cd612539565b5b828201905092915050565b60006122e482612490565b91506122ef83612490565b9250827f7fffffffffffffffffffffffffffffffffffffffffffffffffffffffffffffff048211600084136000841316161561232e5761232d612539565b5b817f8000000000000000000000000000000000000000000000000000000000000000058312600084126000841316161561236b5761236a612539565b5b827f800000000000000000000000000000000000000000000000000000000000000005821260008413600084121616156123a8576123a7612539565b5b827f7fffffffffffffffffffffffffffffffffffffffffffffffffffffffffffffff05821260008412600084121616156123e5576123e4612539565b5b828202905092915050565b60006123fb82612490565b915061240683612490565b9250827f80000000000000000000000000000000000000000000000000000000000000000182126000841215161561244157612440612539565b5b827f7fffffffffffffffffffffffffffffffffffffffffffffffffffffffffffffff01821360008412161561247957612478612539565b5b828203905092915050565b60008115159050919050565b6000819050919050565b600060ff82169050919050565b60006124b282612490565b91507f7fffffffffffffffffffffffffffffffffffffffffffffffffffffffffffffff8214156124e5576124e4612539565b5b600182019050919050565b60006124fb82612490565b91507f800000000000000000000000000000000000000000000000000000000000000082141561252e5761252d612539565b5b816000039050919050565b7f4e487b7100000000000000000000000000000000000000000000000000000000600052601160045260246000fd5b7f746f53712077726f6e6720636f6c6f7200000000000000000000000000000000600082015250565b7f426164206b696e67206d6f766500000000000000000000000000000000000000600082015250565b7f66726f6d53712077726f6e6720636f6c6f720000000000000000000000000000600082015250565b7f426164207061776e206d6f766500000000000000000000000000000000000000600082015250565b7f42616420717565656e206d6f7665000000000000000000000000000000000000600082015250565b7f43616e2774206d6f7665207468726f7567682070696563657300000000000000600082015250565b7f496e76616c6964206d6f76650000000000000000000000000000000000000000600082015250565b7f4f75742d6f662d626f756e647320746f53710000000000000000000000000000600082015250565b7f4e6f206368616e67650000000000000000000000000000000000000000000000600082015250565b7f66726f6d537120656d7074790000000000000000000000000000000000000000600082015250565b7f506965636520696e207061776e20706174680000000000000000000000000000600082015250565b7f556e737570706f72746564207069656365000000000000000000000000000000600082015250565b7f4f75742d6f662d626f756e64732066726f6d5371000000000000000000000000600082015250565b61278681612484565b811461279157600080fd5b5056fea2646970667358221220d2998b3a5e98eb5879b4d336e9055d830716155ba8e5367ef3e6257c7ccbed4864736f6c63430008040033",
  "linkReferences": {},
  "deployedLinkReferences": {}
}