{
  "_format": "hh-sol-artifact-1",
  "contractName": "zkFischer",
  "sourceName": "contracts/zkFischer.sol",
  "abi": [
    {
      "inputs": [
        {
          "internalType": "address",
          "name": "_placementVerifier",
          "type": "address"
        },
        {
          "internalType": "address",
          "name": "_moveVerifier",
          "type": "address"
        }
      ],
      "stateMutability": "nonpayable",
      "type": "constructor"
    },
    {
      "anonymous": false,
      "inputs": [
        {
          "indexed": true,
          "internalType": "address",
          "name": "winner",
          "type": "address"
        }
      ],
      "name": "GameEnd",
      "type": "event"
    },
    {
      "anonymous": false,
      "inputs": [],
      "name": "Initialize",
      "type": "event"
    },
    {
      "anonymous": false,
      "inputs": [
        {
          "indexed": true,
          "internalType": "address",
          "name": "player",
          "type": "address"
        }
      ],
      "name": "Move",
      "type": "event"
    },
    {
      "anonymous": false,
      "inputs": [
        {
          "indexed": false,
          "internalType": "enum zkFischer.GamePhase",
          "name": "phase",
          "type": "uint8"
        }
      ],
      "name": "PhaseChange",
      "type": "event"
    },
    {
      "anonymous": false,
      "inputs": [
        {
          "indexed": true,
          "internalType": "address",
          "name": "player",
          "type": "address"
        }
      ],
      "name": "Register",
      "type": "event"
    },
    {
      "anonymous": false,
      "inputs": [
        {
          "indexed": true,
          "internalType": "address",
          "name": "player",
          "type": "address"
        }
      ],
      "name": "SetupBoard",
      "type": "event"
    },
    {
      "inputs": [
        {
          "internalType": "uint256",
          "name": "",
          "type": "uint256"
        }
      ],
      "name": "gameHistory",
      "outputs": [
        {
          "internalType": "uint256",
          "name": "",
          "type": "uint256"
        }
      ],
      "stateMutability": "view",
      "type": "function"
    },
    {
      "inputs": [],
      "name": "gameKey",
      "outputs": [
        {
          "internalType": "uint256",
          "name": "",
          "type": "uint256"
        }
      ],
      "stateMutability": "view",
      "type": "function"
    },
    {
      "inputs": [
        {
          "internalType": "uint256",
          "name": "moveCmd",
          "type": "uint256"
        },
        {
          "internalType": "uint256[2]",
          "name": "a",
          "type": "uint256[2]"
        },
        {
          "internalType": "uint256[2][2]",
          "name": "b",
          "type": "uint256[2][2]"
        },
        {
          "internalType": "uint256[2]",
          "name": "c",
          "type": "uint256[2]"
        },
        {
          "internalType": "uint256[9]",
          "name": "input",
          "type": "uint256[9]"
        }
      ],
      "name": "move",
      "outputs": [],
      "stateMutability": "nonpayable",
      "type": "function"
    },
    {
      "inputs": [],
      "name": "moveVerifier",
      "outputs": [
        {
          "internalType": "address",
          "name": "",
          "type": "address"
        }
      ],
      "stateMutability": "view",
      "type": "function"
    },
    {
      "inputs": [],
      "name": "phase",
      "outputs": [
        {
          "internalType": "enum zkFischer.GamePhase",
          "name": "",
          "type": "uint8"
        }
      ],
      "stateMutability": "view",
      "type": "function"
    },
    {
      "inputs": [],
      "name": "placementVerifier",
      "outputs": [
        {
          "internalType": "address",
          "name": "",
          "type": "address"
        }
      ],
      "stateMutability": "view",
      "type": "function"
    },
    {
      "inputs": [
        {
          "internalType": "uint256",
          "name": "",
          "type": "uint256"
        }
      ],
      "name": "players",
      "outputs": [
        {
          "internalType": "address",
          "name": "",
          "type": "address"
        }
      ],
      "stateMutability": "view",
      "type": "function"
    },
    {
      "inputs": [],
      "name": "register",
      "outputs": [],
      "stateMutability": "nonpayable",
      "type": "function"
    },
    {
      "inputs": [
        {
          "internalType": "uint256[2]",
          "name": "a",
          "type": "uint256[2]"
        },
        {
          "internalType": "uint256[2][2]",
          "name": "b",
          "type": "uint256[2][2]"
        },
        {
          "internalType": "uint256[2]",
          "name": "c",
          "type": "uint256[2]"
        },
        {
          "internalType": "uint256[3]",
          "name": "input",
          "type": "uint256[3]"
        }
      ],
      "name": "setupBoard",
      "outputs": [],
      "stateMutability": "nonpayable",
      "type": "function"
    },
    {
      "inputs": [
        {
          "internalType": "uint256",
          "name": "",
          "type": "uint256"
        }
      ],
      "name": "setupHashes",
      "outputs": [
        {
          "internalType": "uint256",
          "name": "",
          "type": "uint256"
        }
      ],
      "stateMutability": "view",
      "type": "function"
    }
  ],
  "bytecode": "0x60806040526000600760146101000a81548160ff0219169083600381111562000051577f4e487b7100000000000000000000000000000000000000000000000000000000600052602160045260246000fd5b02179055503480156200006357600080fd5b5060405162002b3238038062002b32833981810160405281019062000089919062000131565b81600660006101000a81548173ffffffffffffffffffffffffffffffffffffffff021916908373ffffffffffffffffffffffffffffffffffffffff16021790555080600760006101000a81548173ffffffffffffffffffffffffffffffffffffffff021916908373ffffffffffffffffffffffffffffffffffffffff160217905550600080819055505050620001c0565b6000815190506200012b81620001a6565b92915050565b600080604083850312156200014557600080fd5b600062000155858286016200011a565b925050602062000168858286016200011a565b9150509250929050565b60006200017f8262000186565b9050919050565b600073ffffffffffffffffffffffffffffffffffffffff82169050919050565b620001b18162000172565b8114620001bd57600080fd5b50565b61296280620001d06000396000f3fe608060405234801561001057600080fd5b506004361061009e5760003560e01c8063d173bf9c11610066578063d173bf9c14610121578063d1958b411461013f578063d3438aa21461016f578063e693e41b1461019f578063f71d96cb146101bd5761009e565b806301c76e88146100a35780631aa3a008146100bf5780631e9f1d7c146100c957806333d4a797146100e5578063b1c9fe6e14610103575b600080fd5b6100bd60048036038101906100b891906119dc565b6101ed565b005b6100c76109c6565b005b6100e360048036038101906100de9190611a93565b610da2565b005b6100ed61168b565b6040516100fa9190612199565b60405180910390f35b61010b611691565b6040516101189190611fbe565b60405180910390f35b6101296116a4565b6040516101369190611f15565b60405180910390f35b61015960048036038101906101549190611a6a565b6116ca565b6040516101669190612199565b60405180910390f35b61018960048036038101906101849190611a6a565b6116e5565b6040516101969190612199565b60405180910390f35b6101a7611709565b6040516101b49190611f15565b60405180910390f35b6101d760048036038101906101d29190611a6a565b61172f565b6040516101e49190611f15565b60405180910390f35b6002600060028110610228577f4e487b7100000000000000000000000000000000000000000000000000000000600052603260045260246000fd5b0160009054906101000a900473ffffffffffffffffffffffffffffffffffffffff1673ffffffffffffffffffffffffffffffffffffffff163373ffffffffffffffffffffffffffffffffffffffff16148061030a575060026001600281106102b9577f4e487b7100000000000000000000000000000000000000000000000000000000600052603260045260246000fd5b0160009054906101000a900473ffffffffffffffffffffffffffffffffffffffff1673ffffffffffffffffffffffffffffffffffffffff163373ffffffffffffffffffffffffffffffffffffffff16145b610349576040517f08c379a000000000000000000000000000000000000000000000000000000000815260040161034090612179565b60405180910390fd5b600081600060038110610385577f4e487b7100000000000000000000000000000000000000000000000000000000600052603260045260246000fd5b602002015190506000826001600381106103c8577f4e487b7100000000000000000000000000000000000000000000000000000000600052603260045260246000fd5b6020020151905060008360026003811061040b577f4e487b7100000000000000000000000000000000000000000000000000000000600052603260045260246000fd5b6020020151905060018314610455576040517f08c379a000000000000000000000000000000000000000000000000000000000815260040161044c90611ff9565b60405180910390fd5b6000548114610499576040517f08c379a000000000000000000000000000000000000000000000000000000000815260040161049090612039565b60405180910390fd5b600660009054906101000a900473ffffffffffffffffffffffffffffffffffffffff1673ffffffffffffffffffffffffffffffffffffffff166311479fea888888886040518563ffffffff1660e01b81526004016104fa9493929190611f30565b60206040518083038186803b15801561051257600080fd5b505afa158015610526573d6000803e3d6000fd5b505050506040513d601f19601f8201168201806040525081019061054a9190611a41565b610589576040517f08c379a0000000000000000000000000000000000000000000000000000000008152600401610580906120f9565b60405180910390fd5b60026000600281106105c4577f4e487b7100000000000000000000000000000000000000000000000000000000600052603260045260246000fd5b0160009054906101000a900473ffffffffffffffffffffffffffffffffffffffff1673ffffffffffffffffffffffffffffffffffffffff163373ffffffffffffffffffffffffffffffffffffffff1614156107215760006004600060028110610656577f4e487b7100000000000000000000000000000000000000000000000000000000600052603260045260246000fd5b015414610698576040517f08c379a000000000000000000000000000000000000000000000000000000000815260040161068f906120b9565b60405180910390fd5b8160046000600281106106d4577f4e487b7100000000000000000000000000000000000000000000000000000000600052603260045260246000fd5b01819055503373ffffffffffffffffffffffffffffffffffffffff167faf4d9c446642b35d7ee8febf856e561aab055caad19b4fcf9e632edca55c6c9f60405160405180910390a26108f5565b600260016002811061075c577f4e487b7100000000000000000000000000000000000000000000000000000000600052603260045260246000fd5b0160009054906101000a900473ffffffffffffffffffffffffffffffffffffffff1673ffffffffffffffffffffffffffffffffffffffff163373ffffffffffffffffffffffffffffffffffffffff1614156108b957600060046001600281106107ee577f4e487b7100000000000000000000000000000000000000000000000000000000600052603260045260246000fd5b015414610830576040517f08c379a000000000000000000000000000000000000000000000000000000000815260040161082790612139565b60405180910390fd5b81600460016002811061086c577f4e487b7100000000000000000000000000000000000000000000000000000000600052603260045260246000fd5b01819055503373ffffffffffffffffffffffffffffffffffffffff167faf4d9c446642b35d7ee8febf856e561aab055caad19b4fcf9e632edca55c6c9f60405160405180910390a26108f4565b6040517f08c379a00000000000000000000000000000000000000000000000000000000081526004016108eb906120d9565b60405180910390fd5b5b60006004600060028110610932577f4e487b7100000000000000000000000000000000000000000000000000000000600052603260045260246000fd5b01541415801561097f57506000600460016002811061097a577f4e487b7100000000000000000000000000000000000000000000000000000000600052603260045260246000fd5b015414155b156109bd577fed606d544c2202d032d2626c390923e6f260ca5d89625bba0cfe70d2bdda4e8f60026040516109b49190611fbe565b60405180910390a15b50505050505050565b6000806003811115610a01577f4e487b7100000000000000000000000000000000000000000000000000000000600052602160045260246000fd5b600760149054906101000a900460ff166003811115610a49577f4e487b7100000000000000000000000000000000000000000000000000000000600052602160045260246000fd5b14610a89576040517f08c379a0000000000000000000000000000000000000000000000000000000008152600401610a8090612059565b60405180910390fd5b600073ffffffffffffffffffffffffffffffffffffffff166002600060028110610adc577f4e487b7100000000000000000000000000000000000000000000000000000000600052603260045260246000fd5b0160009054906101000a900473ffffffffffffffffffffffffffffffffffffffff1673ffffffffffffffffffffffffffffffffffffffff161415610bdd57336002600060028110610b56577f4e487b7100000000000000000000000000000000000000000000000000000000600052603260045260246000fd5b0160006101000a81548173ffffffffffffffffffffffffffffffffffffffff021916908373ffffffffffffffffffffffffffffffffffffffff1602179055503373ffffffffffffffffffffffffffffffffffffffff167feeda149c76076b34d4b9d8896c2f7efc0d33d1c7b53ea3c5db490d64613f603a60405160405180910390a2610d9f565b3373ffffffffffffffffffffffffffffffffffffffff166002600060028110610c2f577f4e487b7100000000000000000000000000000000000000000000000000000000600052603260045260246000fd5b0160009054906101000a900473ffffffffffffffffffffffffffffffffffffffff1673ffffffffffffffffffffffffffffffffffffffff161415610ca8576040517f08c379a0000000000000000000000000000000000000000000000000000000008152600401610c9f90612159565b60405180910390fd5b336002600160028110610ce4577f4e487b7100000000000000000000000000000000000000000000000000000000600052603260045260246000fd5b0160006101000a81548173ffffffffffffffffffffffffffffffffffffffff021916908373ffffffffffffffffffffffffffffffffffffffff1602179055503373ffffffffffffffffffffffffffffffffffffffff167feeda149c76076b34d4b9d8896c2f7efc0d33d1c7b53ea3c5db490d64613f603a60405160405180910390a27fed606d544c2202d032d2626c390923e6f260ca5d89625bba0cfe70d2bdda4e8f6001604051610d969190611fbe565b60405180910390a15b50565b6002600060028110610ddd577f4e487b7100000000000000000000000000000000000000000000000000000000600052603260045260246000fd5b0160009054906101000a900473ffffffffffffffffffffffffffffffffffffffff1673ffffffffffffffffffffffffffffffffffffffff163373ffffffffffffffffffffffffffffffffffffffff161480610ebf57506002600160028110610e6e577f4e487b7100000000000000000000000000000000000000000000000000000000600052603260045260246000fd5b0160009054906101000a900473ffffffffffffffffffffffffffffffffffffffff1673ffffffffffffffffffffffffffffffffffffffff163373ffffffffffffffffffffffffffffffffffffffff16145b610efe576040517f08c379a0000000000000000000000000000000000000000000000000000000008152600401610ef590612179565b60405180910390fd5b60006002600060028110610f3b577f4e487b7100000000000000000000000000000000000000000000000000000000600052603260045260246000fd5b0160009054906101000a900473ffffffffffffffffffffffffffffffffffffffff1673ffffffffffffffffffffffffffffffffffffffff163373ffffffffffffffffffffffffffffffffffffffff1614156110285760006002600180549050610fa4919061247e565b14610fe4576040517f08c379a0000000000000000000000000000000000000000000000000000000008152600401610fdb90612099565b60405180910390fd5b600460006002811061101f577f4e487b7100000000000000000000000000000000000000000000000000000000600052603260045260246000fd5b0154905061118c565b6002600160028110611063577f4e487b7100000000000000000000000000000000000000000000000000000000600052603260045260246000fd5b0160009054906101000a900473ffffffffffffffffffffffffffffffffffffffff1673ffffffffffffffffffffffffffffffffffffffff163373ffffffffffffffffffffffffffffffffffffffff16141561115057600160026001805490506110cc919061247e565b1461110c576040517f08c379a000000000000000000000000000000000000000000000000000000000815260040161110390612019565b60405180910390fd5b6004600060028110611147577f4e487b7100000000000000000000000000000000000000000000000000000000600052603260045260246000fd5b0154905061118b565b6040517f08c379a0000000000000000000000000000000000000000000000000000000008152600401611182906120d9565b60405180910390fd5b5b611194611768565b61119c611768565b6111a588611765565b836000600981106111df577f4e487b7100000000000000000000000000000000000000000000000000000000600052603260045260246000fd5b6020020151600114611226576040517f08c379a000000000000000000000000000000000000000000000000000000000815260040161121d90612119565b60405180910390fd5b600084600060098110611262577f4e487b7100000000000000000000000000000000000000000000000000000000600052603260045260246000fd5b60200201519050611271611768565b60005b600381101561131c578681600161128b9190612341565b600981106112c2577f4e487b7100000000000000000000000000000000000000000000000000000000600052603260045260246000fd5b6020020151828260038110611300577f4e487b7100000000000000000000000000000000000000000000000000000000600052603260045260246000fd5b602002018181525050808061131490612435565b915050611274565b50600086600460098110611359577f4e487b7100000000000000000000000000000000000000000000000000000000600052603260045260246000fd5b60200201519050611368611768565b60005b600381101561141357888160056113829190612341565b600981106113b9577f4e487b7100000000000000000000000000000000000000000000000000000000600052603260045260246000fd5b60200201518282600381106113f7577f4e487b7100000000000000000000000000000000000000000000000000000000600052603260045260246000fd5b602002018181525050808061140b90612435565b91505061136b565b50600088600860098110611450577f4e487b7100000000000000000000000000000000000000000000000000000000600052603260045260246000fd5b602002015190506001851461149a576040517f08c379a000000000000000000000000000000000000000000000000000000000815260040161149190611ff9565b60405180910390fd5b8783146114dc576040517f08c379a00000000000000000000000000000000000000000000000000000000081526004016114d390611fd9565b60405180910390fd5b6000548114611520576040517f08c379a000000000000000000000000000000000000000000000000000000000815260040161151790612039565b60405180910390fd5b600760009054906101000a900473ffffffffffffffffffffffffffffffffffffffff1673ffffffffffffffffffffffffffffffffffffffff1663c542c93b8d8d8d8d6040518563ffffffff1660e01b81526004016115819493929190611f77565b60206040518083038186803b15801561159957600080fd5b505afa1580156115ad573d6000803e3d6000fd5b505050506040513d601f19601f820116820180604052508101906115d19190611a41565b611610576040517f08c379a000000000000000000000000000000000000000000000000000000000815260040161160790612079565b60405180910390fd5b60018d90806001815401808255809150506001900390600052602060002001600090919091909150553373ffffffffffffffffffffffffffffffffffffffff167f2faa250a40ee7ae6e526f286912b032fc352944ea55943cf3a6c38c42ca364d860405160405180910390a250505050505050505050505050565b60005481565b600760149054906101000a900460ff1681565b600760009054906101000a900473ffffffffffffffffffffffffffffffffffffffff1681565b600481600281106116da57600080fd5b016000915090505481565b600181815481106116f557600080fd5b906000526020600020016000915090505481565b600660009054906101000a900473ffffffffffffffffffffffffffffffffffffffff1681565b6002816002811061173f57600080fd5b016000915054906101000a900473ffffffffffffffffffffffffffffffffffffffff1681565b50565b6040518060600160405280600390602082028036833780820191505090505090565b600061179d611798846121d9565b6121b4565b905080828560408602820111156117b357600080fd5b60005b858110156117e357816117c9888261193d565b8452602084019350604083019250506001810190506117b6565b5050509392505050565b60006118006117fb846121ff565b6121b4565b9050808285602086028201111561181657600080fd5b60005b85811015611846578161182c88826119c7565b845260208401935060208301925050600181019050611819565b5050509392505050565b600061186361185e84612225565b6121b4565b9050808285602086028201111561187957600080fd5b60005b858110156118a9578161188f88826119c7565b84526020840193506020830192505060018101905061187c565b5050509392505050565b60006118c66118c18461224b565b6121b4565b905080828560208602820111156118dc57600080fd5b60005b8581101561190c57816118f288826119c7565b8452602084019350602083019250506001810190506118df565b5050509392505050565b600082601f83011261192757600080fd5b600261193484828561178a565b91505092915050565b600082601f83011261194e57600080fd5b600261195b8482856117ed565b91505092915050565b600082601f83011261197557600080fd5b6003611982848285611850565b91505092915050565b600082601f83011261199c57600080fd5b60096119a98482856118b3565b91505092915050565b6000815190506119c1816128fe565b92915050565b6000813590506119d681612915565b92915050565b60008060008061016085870312156119f357600080fd5b6000611a018782880161193d565b9450506040611a1287828801611916565b93505060c0611a238782880161193d565b925050610100611a3587828801611964565b91505092959194509250565b600060208284031215611a5357600080fd5b6000611a61848285016119b2565b91505092915050565b600060208284031215611a7c57600080fd5b6000611a8a848285016119c7565b91505092915050565b60008060008060006102408688031215611aac57600080fd5b6000611aba888289016119c7565b9550506020611acb8882890161193d565b9450506060611adc88828901611916565b93505060e0611aed8882890161193d565b925050610120611aff8882890161198b565b9150509295509295909350565b6000611b188383611ba2565b60408301905092915050565b6000611b308383611ef7565b60208301905092915050565b611b4581612397565b82525050565b611b5481612299565b611b5e81846122f9565b9250611b6982612271565b8060005b83811015611b9a578151611b818782611b0c565b9650611b8c836122c5565b925050600181019050611b6d565b505050505050565b611bab816122a4565b611bb58184612304565b9250611bc08261227b565b8060005b83811015611bf1578151611bd88782611b24565b9650611be3836122d2565b925050600181019050611bc4565b505050505050565b611c02816122a4565b611c0c818461230f565b9250611c178261227b565b8060005b83811015611c48578151611c2f8782611b24565b9650611c3a836122d2565b925050600181019050611c1b565b505050505050565b611c59816122af565b611c63818461231a565b9250611c6e82612285565b8060005b83811015611c9f578151611c868782611b24565b9650611c91836122df565b925050600181019050611c72565b505050505050565b611cb0816122ba565b611cba8184612325565b9250611cc58261228f565b8060005b83811015611cf6578151611cdd8782611b24565b9650611ce8836122ec565b925050600181019050611cc9565b505050505050565b611d07816123f2565b82525050565b6000611d1a603483612330565b9150611d258261257c565b604082019050919050565b6000611d3d603483612330565b9150611d48826125cb565b604082019050919050565b6000611d60601983612330565b9150611d6b8261261a565b602082019050919050565b6000611d83602683612330565b9150611d8e82612643565b604082019050919050565b6000611da6601683612330565b9150611db182612692565b602082019050919050565b6000611dc9601f83612330565b9150611dd4826126bb565b602082019050919050565b6000611dec601983612330565b9150611df7826126e4565b602082019050919050565b6000611e0f602783612330565b9150611e1a8261270d565b604082019050919050565b6000611e32601083612330565b9150611e3d8261275c565b602082019050919050565b6000611e55602483612330565b9150611e6082612785565b604082019050919050565b6000611e78602f83612330565b9150611e83826127d4565b604082019050919050565b6000611e9b602783612330565b9150611ea682612823565b604082019050919050565b6000611ebe601e83612330565b9150611ec982612872565b602082019050919050565b6000611ee1602283612330565b9150611eec8261289b565b604082019050919050565b611f00816123e8565b82525050565b611f0f816123e8565b82525050565b6000602082019050611f2a6000830184611b3c565b92915050565b600061016082019050611f466000830187611bf9565b611f536040830186611b4b565b611f6060c0830185611bf9565b611f6e610100830184611c50565b95945050505050565b600061022082019050611f8d6000830187611bf9565b611f9a6040830186611b4b565b611fa760c0830185611bf9565b611fb5610100830184611ca7565b95945050505050565b6000602082019050611fd36000830184611cfe565b92915050565b60006020820190508181036000830152611ff281611d0d565b9050919050565b6000602082019050818103600083015261201281611d30565b9050919050565b6000602082019050818103600083015261203281611d53565b9050919050565b6000602082019050818103600083015261205281611d76565b9050919050565b6000602082019050818103600083015261207281611d99565b9050919050565b6000602082019050818103600083015261209281611dbc565b9050919050565b600060208201905081810360008301526120b281611ddf565b9050919050565b600060208201905081810360008301526120d281611e02565b9050919050565b600060208201905081810360008301526120f281611e25565b9050919050565b6000602082019050818103600083015261211281611e48565b9050919050565b6000602082019050818103600083015261213281611e6b565b9050919050565b6000602082019050818103600083015261215281611e8e565b9050919050565b6000602082019050818103600083015261217281611eb1565b9050919050565b6000602082019050818103600083015261219281611ed4565b9050919050565b60006020820190506121ae6000830184611f06565b92915050565b60006121be6121cf565b90506121ca8282612404565b919050565b6000604051905090565b600067ffffffffffffffff8211156121f4576121f361253c565b5b602082029050919050565b600067ffffffffffffffff82111561221a5761221961253c565b5b602082029050919050565b600067ffffffffffffffff8211156122405761223f61253c565b5b602082029050919050565b600067ffffffffffffffff8211156122665761226561253c565b5b602082029050919050565b6000819050919050565b6000819050919050565b6000819050919050565b6000819050919050565b600060029050919050565b600060029050919050565b600060039050919050565b600060099050919050565b6000602082019050919050565b6000602082019050919050565b6000602082019050919050565b6000602082019050919050565b600081905092915050565b600081905092915050565b600081905092915050565b600081905092915050565b600081905092915050565b600082825260208201905092915050565b600061234c826123e8565b9150612357836123e8565b9250827fffffffffffffffffffffffffffffffffffffffffffffffffffffffffffffffff0382111561238c5761238b6124af565b5b828201905092915050565b60006123a2826123c8565b9050919050565b60008115159050919050565b60008190506123c3826128ea565b919050565b600073ffffffffffffffffffffffffffffffffffffffff82169050919050565b6000819050919050565b60006123fd826123b5565b9050919050565b61240d8261256b565b810181811067ffffffffffffffff8211171561242c5761242b61253c565b5b80604052505050565b6000612440826123e8565b91507fffffffffffffffffffffffffffffffffffffffffffffffffffffffffffffffff821415612473576124726124af565b5b600182019050919050565b6000612489826123e8565b9150612494836123e8565b9250826124a4576124a36124de565b5b828206905092915050565b7f4e487b7100000000000000000000000000000000000000000000000000000000600052601160045260246000fd5b7f4e487b7100000000000000000000000000000000000000000000000000000000600052601260045260246000fd5b7f4e487b7100000000000000000000000000000000000000000000000000000000600052602160045260246000fd5b7f4e487b7100000000000000000000000000000000000000000000000000000000600052604160045260246000fd5b6000601f19601f8301169050919050565b7f72657175697265644861736820696e70757420646f65736e2774206d6174636860008201527f206561726c69657220636f6d6d69746d656e742e000000000000000000000000602082015250565b7f50726f6f66206f757470757420646f65736e277420617373657274207468617460008201527f20706c6163656d656e742069732076616c69642e000000000000000000000000602082015250565b7f49742773206e6f7420706c6179657220322773207475726e2e00000000000000600082015250565b7f67616d654b657920696e70757420696e636f727265637420666f72207468697360008201527f2067616d652e0000000000000000000000000000000000000000000000000000602082015250565b7f496e76616c69642063616c6c2061742070686173652e00000000000000000000600082015250565b7f4d6f76652070726f6f6620766572696669636174696f6e206661696c65642e00600082015250565b7f49742773206e6f7420706c6179657220312773207475726e2e00000000000000600082015250565b7f506c6179657220312068617320616c72656164792063616c6c6564207365747560008201527f70426f6172642e00000000000000000000000000000000000000000000000000602082015250565b7f756e6578706563746564206572726f7200000000000000000000000000000000600082015250565b7f506c6163656d656e742070726f6f6620766572696669636174696f6e2066616960008201527f6c65642e00000000000000000000000000000000000000000000000000000000602082015250565b7f50726f6f66206f757470757420646f65736e277420617373657274207468617460008201527f206d6f76652069732076616c69642e0000000000000000000000000000000000602082015250565b7f506c6179657220322068617320616c72656164792063616c6c6564207365747560008201527f70426f6172642e00000000000000000000000000000000000000000000000000602082015250565b7f506c617965722068617320616c726561647920726567697374657265642e0000600082015250565b7f43616c6c6572206973206e6f742061207265676973746572656420706c61796560008201527f722e000000000000000000000000000000000000000000000000000000000000602082015250565b600481106128fb576128fa61250d565b5b50565b612907816123a9565b811461291257600080fd5b50565b61291e816123e8565b811461292957600080fd5b5056fea2646970667358221220d1d91e47dd89f675541cd40c698d7c057882f16ba1b87dc8cb2508a2fae024ff64736f6c63430008040033",
  "linkReferences": {},
  "deployedLinkReferences": {}
}