{
  "_format": "hh-sol-artifact-1",
  "contractName": "zkFischer",
  "sourceName": "contracts/zkFischer.sol",
  "abi": [
    {
      "inputs": [
        {
          "internalType": "address",
          "name": "_placementVerifier",
          "type": "address"
        },
        {
          "internalType": "address",
          "name": "_moveVerifier",
          "type": "address"
        }
      ],
      "stateMutability": "nonpayable",
      "type": "constructor"
    },
    {
      "anonymous": false,
      "inputs": [
        {
          "indexed": true,
          "internalType": "address",
          "name": "winner",
          "type": "address"
        }
      ],
      "name": "GameEnd",
      "type": "event"
    },
    {
      "anonymous": false,
      "inputs": [],
      "name": "Initialize",
      "type": "event"
    },
    {
      "anonymous": false,
      "inputs": [
        {
          "indexed": true,
          "internalType": "address",
          "name": "player",
          "type": "address"
        }
      ],
      "name": "Move",
      "type": "event"
    },
    {
      "anonymous": false,
      "inputs": [
        {
          "indexed": false,
          "internalType": "enum zkFischer.GamePhase",
          "name": "phase",
          "type": "uint8"
        }
      ],
      "name": "PhaseChange",
      "type": "event"
    },
    {
      "anonymous": false,
      "inputs": [
        {
          "indexed": true,
          "internalType": "address",
          "name": "player",
          "type": "address"
        }
      ],
      "name": "Register",
      "type": "event"
    },
    {
      "anonymous": false,
      "inputs": [
        {
          "indexed": true,
          "internalType": "address",
          "name": "player",
          "type": "address"
        }
      ],
      "name": "SetupBoard",
      "type": "event"
    },
    {
      "anonymous": false,
      "inputs": [
        {
          "indexed": false,
          "internalType": "uint256[2]",
          "name": "param",
          "type": "uint256[2]"
        }
      ],
      "name": "TE",
      "type": "event"
    },
    {
      "inputs": [
        {
          "internalType": "uint256",
          "name": "",
          "type": "uint256"
        },
        {
          "internalType": "uint256",
          "name": "",
          "type": "uint256"
        }
      ],
      "name": "board",
      "outputs": [
        {
          "internalType": "uint256",
          "name": "",
          "type": "uint256"
        }
      ],
      "stateMutability": "view",
      "type": "function"
    },
    {
      "inputs": [],
      "name": "gameKey",
      "outputs": [
        {
          "internalType": "uint256",
          "name": "",
          "type": "uint256"
        }
      ],
      "stateMutability": "view",
      "type": "function"
    },
    {
      "inputs": [
        {
          "internalType": "uint256[2]",
          "name": "fromSq",
          "type": "uint256[2]"
        },
        {
          "internalType": "uint256[2]",
          "name": "toSq",
          "type": "uint256[2]"
        },
        {
          "internalType": "uint256[2]",
          "name": "a",
          "type": "uint256[2]"
        },
        {
          "internalType": "uint256[2][2]",
          "name": "b",
          "type": "uint256[2][2]"
        },
        {
          "internalType": "uint256[2]",
          "name": "c",
          "type": "uint256[2]"
        },
        {
          "internalType": "uint256[9]",
          "name": "input",
          "type": "uint256[9]"
        }
      ],
      "name": "move",
      "outputs": [],
      "stateMutability": "nonpayable",
      "type": "function"
    },
    {
      "inputs": [],
      "name": "moveVerifier",
      "outputs": [
        {
          "internalType": "address",
          "name": "",
          "type": "address"
        }
      ],
      "stateMutability": "view",
      "type": "function"
    },
    {
      "inputs": [
        {
          "internalType": "uint256[2]",
          "name": "fromSq",
          "type": "uint256[2]"
        },
        {
          "internalType": "uint256[2]",
          "name": "toSq",
          "type": "uint256[2]"
        },
        {
          "internalType": "bool",
          "name": "whiteMove",
          "type": "bool"
        }
      ],
      "name": "parseMove",
      "outputs": [
        {
          "internalType": "uint256",
          "name": "",
          "type": "uint256"
        },
        {
          "internalType": "uint8[3]",
          "name": "",
          "type": "uint8[3]"
        }
      ],
      "stateMutability": "nonpayable",
      "type": "function"
    },
    {
      "inputs": [],
      "name": "phase",
      "outputs": [
        {
          "internalType": "enum zkFischer.GamePhase",
          "name": "",
          "type": "uint8"
        }
      ],
      "stateMutability": "view",
      "type": "function"
    },
    {
      "inputs": [],
      "name": "phasingPlayer",
      "outputs": [
        {
          "internalType": "uint256",
          "name": "",
          "type": "uint256"
        }
      ],
      "stateMutability": "view",
      "type": "function"
    },
    {
      "inputs": [],
      "name": "placementVerifier",
      "outputs": [
        {
          "internalType": "address",
          "name": "",
          "type": "address"
        }
      ],
      "stateMutability": "view",
      "type": "function"
    },
    {
      "inputs": [
        {
          "internalType": "uint256",
          "name": "",
          "type": "uint256"
        }
      ],
      "name": "players",
      "outputs": [
        {
          "internalType": "address",
          "name": "",
          "type": "address"
        }
      ],
      "stateMutability": "view",
      "type": "function"
    },
    {
      "inputs": [],
      "name": "register",
      "outputs": [],
      "stateMutability": "nonpayable",
      "type": "function"
    },
    {
      "inputs": [
        {
          "internalType": "uint256[2]",
          "name": "a",
          "type": "uint256[2]"
        },
        {
          "internalType": "uint256[2][2]",
          "name": "b",
          "type": "uint256[2][2]"
        },
        {
          "internalType": "uint256[2]",
          "name": "c",
          "type": "uint256[2]"
        },
        {
          "internalType": "uint256[3]",
          "name": "input",
          "type": "uint256[3]"
        }
      ],
      "name": "setupBoard",
      "outputs": [],
      "stateMutability": "nonpayable",
      "type": "function"
    },
    {
      "inputs": [
        {
          "internalType": "uint256",
          "name": "",
          "type": "uint256"
        }
      ],
      "name": "setupHashes",
      "outputs": [
        {
          "internalType": "uint256",
          "name": "",
          "type": "uint256"
        }
      ],
      "stateMutability": "view",
      "type": "function"
    },
    {
      "inputs": [
        {
          "internalType": "uint256",
          "name": "",
          "type": "uint256"
        },
        {
          "internalType": "uint256",
          "name": "",
          "type": "uint256"
        }
      ],
      "name": "startingFiles",
      "outputs": [
        {
          "internalType": "uint256",
          "name": "",
          "type": "uint256"
        }
      ],
      "stateMutability": "view",
      "type": "function"
    }
  ],
  "bytecode": "0x6080604052604051806101000160405280604051806101000160405280601360ff168152602001601360ff168152602001601360ff168152602001601360ff168152602001601360ff168152602001601360ff168152602001601360ff168152602001601360ff168152508152602001604051806101000160405280600b60ff168152602001600b60ff168152602001600b60ff168152602001600b60ff168152602001600b60ff168152602001600b60ff168152602001600b60ff168152602001600b60ff168152508152602001604051806101000160405280606360ff168152602001606360ff168152602001606360ff168152602001606360ff168152602001606360ff168152602001606360ff168152602001606360ff168152602001606360ff168152508152602001604051806101000160405280606360ff168152602001606360ff168152602001606360ff168152602001606360ff168152602001606360ff168152602001606360ff168152602001606360ff168152602001606360ff168152508152602001604051806101000160405280606360ff168152602001606360ff168152602001606360ff168152602001606360ff168152602001606360ff168152602001606360ff168152602001606360ff168152602001606360ff168152508152602001604051806101000160405280606360ff168152602001606360ff168152602001606360ff168152602001606360ff168152602001606360ff168152602001606360ff168152602001606360ff168152602001606360ff168152508152602001604051806101000160405280600160ff168152602001600160ff168152602001600160ff168152602001600160ff168152602001600160ff168152602001600160ff168152602001600160ff168152602001600160ff168152508152602001604051806101000160405280600960ff168152602001600960ff168152602001600960ff168152602001600960ff168152602001600960ff168152602001600960ff168152602001600960ff168152602001600960ff1681525081525060049060086200031892919062000a1e565b50604051806101000160405280604051806101000160405280600060ff168152602001600160ff168152602001600260ff168152602001600360ff168152602001600460ff168152602001600560ff168152602001600660ff168152602001600760ff168152508152602001604051806101000160405280600060ff168152602001600160ff168152602001600260ff168152602001600360ff168152602001600460ff168152602001600560ff168152602001600660ff168152602001600760ff168152508152602001604051806101000160405280606360ff168152602001606360ff168152602001606360ff168152602001606360ff168152602001606360ff168152602001606360ff168152602001606360ff168152602001606360ff168152508152602001604051806101000160405280606360ff168152602001606360ff168152602001606360ff168152602001606360ff168152602001606360ff168152602001606360ff168152602001606360ff168152602001606360ff168152508152602001604051806101000160405280606360ff168152602001606360ff168152602001606360ff168152602001606360ff168152602001606360ff168152602001606360ff168152602001606360ff168152602001606360ff168152508152602001604051806101000160405280606360ff168152602001606360ff168152602001606360ff168152602001606360ff168152602001606360ff168152602001606360ff168152602001606360ff168152602001606360ff168152508152602001604051806101000160405280600060ff168152602001600160ff168152602001600260ff168152602001600360ff168152602001600460ff168152602001600560ff168152602001600660ff168152602001600760ff168152508152602001604051806101000160405280600060ff168152602001600160ff168152602001600260ff168152602001600360ff168152602001600460ff168152602001600560ff168152602001600660ff168152602001600760ff1681525081525060449060086200062d92919062000a1e565b506000608960146101000a81548160ff021916908360038111156200067b577f4e487b7100000000000000000000000000000000000000000000000000000000600052602160045260246000fd5b02179055503480156200068d57600080fd5b506040516200554f3803806200554f8339818101604052810190620006b3919062000b7c565b81608860006101000a81548173ffffffffffffffffffffffffffffffffffffffff021916908373ffffffffffffffffffffffffffffffffffffffff16021790555080608960006101000a81548173ffffffffffffffffffffffffffffffffffffffff021916908373ffffffffffffffffffffffffffffffffffffffff16021790555060016002604051620007479062000ef3565b9081526020016040518091039020819055506002806040516200076a9062000e0d565b908152602001604051809103902081905550600360026040516200078e9062000eae565b90815260200160405180910390208190555060046002604051620007b29062000e24565b90815260200160405180910390208190555060056002604051620007d69062000e69565b90815260200160405180910390208190555060066002604051620007fa9062000ddf565b908152602001604051809103902081905550600960026040516200081e9062000df6565b908152602001604051809103902081905550600b6002604051620008429062000e80565b908152602001604051809103902081905550600c6002604051620008669062000e52565b908152602001604051809103902081905550600d60026040516200088a9062000ec5565b908152602001604051809103902081905550600e6002604051620008ae9062000e3b565b908152602001604051809103902081905550600f6002604051620008d29062000edc565b90815260200160405180910390208190555060106002604051620008f69062000f0a565b908152602001604051809103902081905550601360026040516200091a9062000e97565b9081526020016040518091039020819055506040518060600160405280600360ff168152602001600460ff168152602001600060ff16815250600360008081526020019081526020016000209060036200097692919062000a75565b506040518060600160405280600160ff168152602001600460ff168152602001600060ff168152506003600060018152602001908152602001600020906003620009c292919062000a75565b506040518060600160405280600260ff168152602001600060ff168152602001600060ff16815250600360006002815260200190815260200160002090600362000a0e92919062000a75565b50600080819055505050620011b8565b8260088002810192821562000a62579160200282015b8281111562000a615782518290600862000a5092919062000abf565b509160200191906008019062000a34565b5b50905062000a71919062000b09565b5090565b826003810192821562000aac579160200282015b8281111562000aab578251829060ff1690559160200191906001019062000a89565b5b50905062000abb919062000b31565b5090565b826008810192821562000af6579160200282015b8281111562000af5578251829060ff1690559160200191906001019062000ad3565b5b50905062000b05919062000b31565b5090565b5b8082111562000b2d576000818162000b23919062000b50565b5060080162000b0a565b5090565b5b8082111562000b4c57600081600090555060010162000b32565b5090565b50806008019062000b62919062000b31565b50565b60008151905062000b76816200119e565b92915050565b6000806040838503121562000b9057600080fd5b600062000ba08582860162000b65565b925050602062000bb38582860162000b65565b9150509250929050565b600062000bcc60028362000f21565b915062000bd98262000f60565b600282019050919050565b600062000bf360028362000f21565b915062000c008262000f89565b600282019050919050565b600062000c1a60028362000f21565b915062000c278262000fb2565b600282019050919050565b600062000c4160028362000f21565b915062000c4e8262000fdb565b600282019050919050565b600062000c6860028362000f21565b915062000c758262001004565b600282019050919050565b600062000c8f60028362000f21565b915062000c9c826200102d565b600282019050919050565b600062000cb660028362000f21565b915062000cc38262001056565b600282019050919050565b600062000cdd60028362000f21565b915062000cea826200107f565b600282019050919050565b600062000d0460028362000f21565b915062000d1182620010a8565b600282019050919050565b600062000d2b60028362000f21565b915062000d3882620010d1565b600282019050919050565b600062000d5260028362000f21565b915062000d5f82620010fa565b600282019050919050565b600062000d7960028362000f21565b915062000d868262001123565b600282019050919050565b600062000da060028362000f21565b915062000dad826200114c565b600282019050919050565b600062000dc760028362000f21565b915062000dd48262001175565b600282019050919050565b600062000dec8262000bbd565b9150819050919050565b600062000e038262000be4565b9150819050919050565b600062000e1a8262000c0b565b9150819050919050565b600062000e318262000c32565b9150819050919050565b600062000e488262000c59565b9150819050919050565b600062000e5f8262000c80565b9150819050919050565b600062000e768262000ca7565b9150819050919050565b600062000e8d8262000cce565b9150819050919050565b600062000ea48262000cf5565b9150819050919050565b600062000ebb8262000d1c565b9150819050919050565b600062000ed28262000d43565b9150819050919050565b600062000ee98262000d6a565b9150819050919050565b600062000f008262000d91565b9150819050919050565b600062000f178262000db8565b9150819050919050565b600081905092915050565b600062000f398262000f40565b9050919050565b600073ffffffffffffffffffffffffffffffffffffffff82169050919050565b7f7750000000000000000000000000000000000000000000000000000000000000600082015250565b7f775a000000000000000000000000000000000000000000000000000000000000600082015250565b7f774e000000000000000000000000000000000000000000000000000000000000600082015250565b7f7751000000000000000000000000000000000000000000000000000000000000600082015250565b7f6251000000000000000000000000000000000000000000000000000000000000600082015250565b7f624e000000000000000000000000000000000000000000000000000000000000600082015250565b7f774b000000000000000000000000000000000000000000000000000000000000600082015250565b7f6252000000000000000000000000000000000000000000000000000000000000600082015250565b7f625a000000000000000000000000000000000000000000000000000000000000600082015250565b7f7742000000000000000000000000000000000000000000000000000000000000600082015250565b7f6242000000000000000000000000000000000000000000000000000000000000600082015250565b7f624b000000000000000000000000000000000000000000000000000000000000600082015250565b7f7752000000000000000000000000000000000000000000000000000000000000600082015250565b7f6250000000000000000000000000000000000000000000000000000000000000600082015250565b620011a98162000f2c565b8114620011b557600080fd5b50565b61438780620011c86000396000f3fe608060405234801561001057600080fd5b50600436106100cf5760003560e01c80638ca49cb71161008c578063d173bf9c11610066578063d173bf9c14610201578063d1958b411461021f578063e693e41b1461024f578063f71d96cb1461026d576100cf565b80638ca49cb7146101825780638dce9a11146101b2578063b1c9fe6e146101e3576100cf565b806301c76e88146100d45780631aa3a008146100f057806333d4a797146100fa5780637cb2fd05146101185780638086a92a146101365780638c26874d14610166575b600080fd5b6100ee60048036038101906100e99190612d3d565b61029d565b005b6100f8610a76565b005b610102610d8e565b60405161010f9190613871565b60405180910390f35b610120610d94565b60405161012d9190613871565b60405180910390f35b610150600480360381019061014b9190612ecf565b610d9a565b60405161015d9190613871565b60405180910390f35b610180600480360381019061017b9190612da2565b610dc8565b005b61019c60048036038101906101979190612ecf565b6117fa565b6040516101a99190613871565b60405180910390f35b6101cc60048036038101906101c79190612e2e565b611828565b6040516101da92919061388c565b60405180910390f35b6101eb612961565b6040516101f89190613576565b60405180910390f35b610209612974565b60405161021691906134cd565b60405180910390f35b61023960048036038101906102349190612ea6565b61299a565b6040516102469190613871565b60405180910390f35b6102576129b5565b60405161026491906134cd565b60405180910390f35b61028760048036038101906102829190612ea6565b6129db565b60405161029491906134cd565b60405180910390f35b60846000600281106102d8577f4e487b7100000000000000000000000000000000000000000000000000000000600052603260045260246000fd5b0160009054906101000a900473ffffffffffffffffffffffffffffffffffffffff1673ffffffffffffffffffffffffffffffffffffffff163373ffffffffffffffffffffffffffffffffffffffff1614806103ba57506084600160028110610369577f4e487b7100000000000000000000000000000000000000000000000000000000600052603260045260246000fd5b0160009054906101000a900473ffffffffffffffffffffffffffffffffffffffff1673ffffffffffffffffffffffffffffffffffffffff163373ffffffffffffffffffffffffffffffffffffffff16145b6103f9576040517f08c379a00000000000000000000000000000000000000000000000000000000081526004016103f090613831565b60405180910390fd5b600081600060038110610435577f4e487b7100000000000000000000000000000000000000000000000000000000600052603260045260246000fd5b60200201519050600082600160038110610478577f4e487b7100000000000000000000000000000000000000000000000000000000600052603260045260246000fd5b602002015190506000836002600381106104bb577f4e487b7100000000000000000000000000000000000000000000000000000000600052603260045260246000fd5b6020020151905060018314610505576040517f08c379a00000000000000000000000000000000000000000000000000000000081526004016104fc90613611565b60405180910390fd5b6000548114610549576040517f08c379a000000000000000000000000000000000000000000000000000000000815260040161054090613651565b60405180910390fd5b608860009054906101000a900473ffffffffffffffffffffffffffffffffffffffff1673ffffffffffffffffffffffffffffffffffffffff166311479fea888888886040518563ffffffff1660e01b81526004016105aa94939291906134e8565b60206040518083038186803b1580156105c257600080fd5b505afa1580156105d6573d6000803e3d6000fd5b505050506040513d601f19601f820116820180604052508101906105fa9190612e7d565b610639576040517f08c379a000000000000000000000000000000000000000000000000000000000815260040161063090613771565b60405180910390fd5b6084600060028110610674577f4e487b7100000000000000000000000000000000000000000000000000000000600052603260045260246000fd5b0160009054906101000a900473ffffffffffffffffffffffffffffffffffffffff1673ffffffffffffffffffffffffffffffffffffffff163373ffffffffffffffffffffffffffffffffffffffff1614156107d15760006086600060028110610706577f4e487b7100000000000000000000000000000000000000000000000000000000600052603260045260246000fd5b015414610748576040517f08c379a000000000000000000000000000000000000000000000000000000000815260040161073f90613711565b60405180910390fd5b816086600060028110610784577f4e487b7100000000000000000000000000000000000000000000000000000000600052603260045260246000fd5b01819055503373ffffffffffffffffffffffffffffffffffffffff167faf4d9c446642b35d7ee8febf856e561aab055caad19b4fcf9e632edca55c6c9f60405160405180910390a26109a5565b608460016002811061080c577f4e487b7100000000000000000000000000000000000000000000000000000000600052603260045260246000fd5b0160009054906101000a900473ffffffffffffffffffffffffffffffffffffffff1673ffffffffffffffffffffffffffffffffffffffff163373ffffffffffffffffffffffffffffffffffffffff161415610969576000608660016002811061089e577f4e487b7100000000000000000000000000000000000000000000000000000000600052603260045260246000fd5b0154146108e0576040517f08c379a00000000000000000000000000000000000000000000000000000000081526004016108d7906137d1565b60405180910390fd5b81608660016002811061091c577f4e487b7100000000000000000000000000000000000000000000000000000000600052603260045260246000fd5b01819055503373ffffffffffffffffffffffffffffffffffffffff167faf4d9c446642b35d7ee8febf856e561aab055caad19b4fcf9e632edca55c6c9f60405160405180910390a26109a4565b6040517f08c379a000000000000000000000000000000000000000000000000000000000815260040161099b90613751565b60405180910390fd5b5b600060866000600281106109e2577f4e487b7100000000000000000000000000000000000000000000000000000000600052603260045260246000fd5b015414158015610a2f575060006086600160028110610a2a577f4e487b7100000000000000000000000000000000000000000000000000000000600052603260045260246000fd5b015414155b15610a6d577fed606d544c2202d032d2626c390923e6f260ca5d89625bba0cfe70d2bdda4e8f6002604051610a649190613576565b60405180910390a15b50505050505050565b600073ffffffffffffffffffffffffffffffffffffffff166084600060028110610ac9577f4e487b7100000000000000000000000000000000000000000000000000000000600052603260045260246000fd5b0160009054906101000a900473ffffffffffffffffffffffffffffffffffffffff1673ffffffffffffffffffffffffffffffffffffffff161415610bca57336084600060028110610b43577f4e487b7100000000000000000000000000000000000000000000000000000000600052603260045260246000fd5b0160006101000a81548173ffffffffffffffffffffffffffffffffffffffff021916908373ffffffffffffffffffffffffffffffffffffffff1602179055503373ffffffffffffffffffffffffffffffffffffffff167feeda149c76076b34d4b9d8896c2f7efc0d33d1c7b53ea3c5db490d64613f603a60405160405180910390a2610d8c565b3373ffffffffffffffffffffffffffffffffffffffff166084600060028110610c1c577f4e487b7100000000000000000000000000000000000000000000000000000000600052603260045260246000fd5b0160009054906101000a900473ffffffffffffffffffffffffffffffffffffffff1673ffffffffffffffffffffffffffffffffffffffff161415610c95576040517f08c379a0000000000000000000000000000000000000000000000000000000008152600401610c8c90613811565b60405180910390fd5b336084600160028110610cd1577f4e487b7100000000000000000000000000000000000000000000000000000000600052603260045260246000fd5b0160006101000a81548173ffffffffffffffffffffffffffffffffffffffff021916908373ffffffffffffffffffffffffffffffffffffffff1602179055503373ffffffffffffffffffffffffffffffffffffffff167feeda149c76076b34d4b9d8896c2f7efc0d33d1c7b53ea3c5db490d64613f603a60405160405180910390a27fed606d544c2202d032d2626c390923e6f260ca5d89625bba0cfe70d2bdda4e8f6001604051610d839190613576565b60405180910390a15b565b60005481565b60015481565b60048260088110610daa57600080fd5b600802018160088110610dbc57600080fd5b01600091509150505481565b6084600060028110610e03577f4e487b7100000000000000000000000000000000000000000000000000000000600052603260045260246000fd5b0160009054906101000a900473ffffffffffffffffffffffffffffffffffffffff1673ffffffffffffffffffffffffffffffffffffffff163373ffffffffffffffffffffffffffffffffffffffff161480610ee557506084600160028110610e94577f4e487b7100000000000000000000000000000000000000000000000000000000600052603260045260246000fd5b0160009054906101000a900473ffffffffffffffffffffffffffffffffffffffff1673ffffffffffffffffffffffffffffffffffffffff163373ffffffffffffffffffffffffffffffffffffffff16145b610f24576040517f08c379a0000000000000000000000000000000000000000000000000000000008152600401610f1b90613831565b60405180910390fd5b6000806084600060028110610f62577f4e487b7100000000000000000000000000000000000000000000000000000000600052603260045260246000fd5b0160009054906101000a900473ffffffffffffffffffffffffffffffffffffffff1673ffffffffffffffffffffffffffffffffffffffff163373ffffffffffffffffffffffffffffffffffffffff16141561104457600060015414610ffc576040517f08c379a0000000000000000000000000000000000000000000000000000000008152600401610ff3906136f1565b60405180910390fd5b6086600060028110611037577f4e487b7100000000000000000000000000000000000000000000000000000000600052603260045260246000fd5b015491506001905061119c565b608460016002811061107f577f4e487b7100000000000000000000000000000000000000000000000000000000600052603260045260246000fd5b0160009054906101000a900473ffffffffffffffffffffffffffffffffffffffff1673ffffffffffffffffffffffffffffffffffffffff163373ffffffffffffffffffffffffffffffffffffffff161415611160576001805414611118576040517f08c379a000000000000000000000000000000000000000000000000000000000815260040161110f90613631565b60405180910390fd5b6086600060028110611153577f4e487b7100000000000000000000000000000000000000000000000000000000600052603260045260246000fd5b015491506000905061119b565b6040517f08c379a000000000000000000000000000000000000000000000000000000000815260040161119290613751565b60405180910390fd5b5b60006111a6612ab4565b6111b18a8a85611828565b8092508193505050846000600981106111f3577f4e487b7100000000000000000000000000000000000000000000000000000000600052603260045260246000fd5b602002015160011461123a576040517f08c379a0000000000000000000000000000000000000000000000000000000008152600401611231906137b1565b60405180910390fd5b600085600060098110611276577f4e487b7100000000000000000000000000000000000000000000000000000000600052603260045260246000fd5b602002015190506000866003600981106112b9577f4e487b7100000000000000000000000000000000000000000000000000000000600052603260045260246000fd5b60200201516002886002600981106112fa577f4e487b7100000000000000000000000000000000000000000000000000000000600052603260045260246000fd5b60200201516113099190613ac5565b600489600160098110611345577f4e487b7100000000000000000000000000000000000000000000000000000000600052603260045260246000fd5b60200201516113549190613ac5565b61135e9190613a6f565b6113689190613a6f565b90506000876004600981106113a6577f4e487b7100000000000000000000000000000000000000000000000000000000600052603260045260246000fd5b602002015190506113b5612ab4565b60005b600381101561146857898160056113cf9190613a6f565b60098110611406577f4e487b7100000000000000000000000000000000000000000000000000000000600052603260045260246000fd5b6020020151828260038110611444577f4e487b7100000000000000000000000000000000000000000000000000000000600052603260045260246000fd5b602002019060ff16908160ff1681525050808061146090613c68565b9150506113b8565b506000896008600981106114a5577f4e487b7100000000000000000000000000000000000000000000000000000000600052603260045260246000fd5b60200201519050600185146114ef576040517f08c379a00000000000000000000000000000000000000000000000000000000081526004016114e690613611565b60405180910390fd5b868414611531576040517f08c379a0000000000000000000000000000000000000000000000000000000008152600401611528906137f1565b60405180910390fd5b888314611573576040517f08c379a000000000000000000000000000000000000000000000000000000000815260040161156a906135b1565b60405180910390fd5b60005b6003811015611654578681600381106115b8577f4e487b7100000000000000000000000000000000000000000000000000000000600052603260045260246000fd5b602002015160ff168382600381106115f9577f4e487b7100000000000000000000000000000000000000000000000000000000600052603260045260246000fd5b602002015160ff1614611641576040517f08c379a000000000000000000000000000000000000000000000000000000000815260040161163890613671565b60405180910390fd5b808061164c90613c68565b915050611576565b506000548114611699576040517f08c379a000000000000000000000000000000000000000000000000000000000815260040161169090613651565b60405180910390fd5b608960009054906101000a900473ffffffffffffffffffffffffffffffffffffffff1673ffffffffffffffffffffffffffffffffffffffff1663c542c93b8e8e8e8e6040518563ffffffff1660e01b81526004016116fa949392919061352f565b60206040518083038186803b15801561171257600080fd5b505afa158015611726573d6000803e3d6000fd5b505050506040513d601f19601f8201168201806040525081019061174a9190612e7d565b611789576040517f08c379a000000000000000000000000000000000000000000000000000000000815260040161178090613691565b60405180910390fd5b60006001541461179a57600061179d565b60015b60ff166001819055503373ffffffffffffffffffffffffffffffffffffffff167f2faa250a40ee7ae6e526f286912b032fc352944ea55943cf3a6c38c42ca364d860405160405180910390a2505050505050505050505050505050565b6044826008811061180a57600080fd5b60080201816008811061181c57600080fd5b01600091509150505481565b6000611832612ab4565b8460006002811061186c577f4e487b7100000000000000000000000000000000000000000000000000000000600052603260045260246000fd5b60200201516000111580156118c05750846001600281106118b6577f4e487b7100000000000000000000000000000000000000000000000000000000600052603260045260246000fd5b6020020151600011155b801561190a5750600885600060028110611903577f4e487b7100000000000000000000000000000000000000000000000000000000600052603260045260246000fd5b6020020151105b8015611954575060088560016002811061194d577f4e487b7100000000000000000000000000000000000000000000000000000000600052603260045260246000fd5b6020020151105b611993576040517f08c379a000000000000000000000000000000000000000000000000000000000815260040161198a906136b1565b60405180910390fd5b836000600281106119cd577f4e487b7100000000000000000000000000000000000000000000000000000000600052603260045260246000fd5b6020020151600011158015611a21575083600160028110611a17577f4e487b7100000000000000000000000000000000000000000000000000000000600052603260045260246000fd5b6020020151600011155b8015611a6b5750600884600060028110611a64577f4e487b7100000000000000000000000000000000000000000000000000000000600052603260045260246000fd5b6020020151105b8015611ab55750600884600160028110611aae577f4e487b7100000000000000000000000000000000000000000000000000000000600052603260045260246000fd5b6020020151105b611af4576040517f08c379a0000000000000000000000000000000000000000000000000000000008152600401611aeb90613791565b60405180910390fd5b83600060028110611b2e577f4e487b7100000000000000000000000000000000000000000000000000000000600052603260045260246000fd5b602002015185600060028110611b6d577f4e487b7100000000000000000000000000000000000000000000000000000000600052603260045260246000fd5b6020020151141580611bfb575083600160028110611bb4577f4e487b7100000000000000000000000000000000000000000000000000000000600052603260045260246000fd5b602002015185600160028110611bf3577f4e487b7100000000000000000000000000000000000000000000000000000000600052603260045260246000fd5b602002015114155b611c3a576040517f08c379a0000000000000000000000000000000000000000000000000000000008152600401611c31906135f1565b60405180910390fd5b6000611d38600487600060028110611c7b577f4e487b7100000000000000000000000000000000000000000000000000000000600052603260045260246000fd5b602002015160088110611cb7577f4e487b7100000000000000000000000000000000000000000000000000000000600052603260045260246000fd5b6008020187600160028110611cf5577f4e487b7100000000000000000000000000000000000000000000000000000000600052603260045260246000fd5b602002015160088110611d31577f4e487b7100000000000000000000000000000000000000000000000000000000600052603260045260246000fd5b0154612a11565b90506000611e38600487600060028110611d7b577f4e487b7100000000000000000000000000000000000000000000000000000000600052603260045260246000fd5b602002015160088110611db7577f4e487b7100000000000000000000000000000000000000000000000000000000600052603260045260246000fd5b6008020187600160028110611df5577f4e487b7100000000000000000000000000000000000000000000000000000000600052603260045260246000fd5b602002015160088110611e31577f4e487b7100000000000000000000000000000000000000000000000000000000600052603260045260246000fd5b0154612a11565b90507fffffffffffffffffffffffffffffffffffffffffffffffffffffffffffffffff821415611e9d576040517f08c379a0000000000000000000000000000000000000000000000000000000008152600401611e9490613731565b60405180910390fd5b84611eab5760018214611eb0565b600082145b611eef576040517f08c379a0000000000000000000000000000000000000000000000000000000008152600401611ee6906135d1565b60405180910390fd5b84611efe576001811415611f04565b60008114155b611f43576040517f08c379a0000000000000000000000000000000000000000000000000000000008152600401611f3a90613851565b60405180910390fd5b6000611fd588600060028110611f82577f4e487b7100000000000000000000000000000000000000000000000000000000600052603260045260246000fd5b602002015188600060028110611fc1577f4e487b7100000000000000000000000000000000000000000000000000000000600052603260045260246000fd5b6020020151611fd09190613b1f565b612a92565b9050600061206989600160028110612016577f4e487b7100000000000000000000000000000000000000000000000000000000600052603260045260246000fd5b602002015189600160028110612055577f4e487b7100000000000000000000000000000000000000000000000000000000600052603260045260246000fd5b60200201516120649190613b1f565b612a92565b9050600060018314801561207d5750600282145b8061209457506002831480156120935750600182145b5b156120a2576002905061210d565b60008314806120b15750600082145b156120bf576001905061210c565b818314156120d0576000905061210b565b6040517f08c379a0000000000000000000000000000000000000000000000000000000008152600401612102906136d1565b60405180910390fd5b5b5b6002811461254c576000806000808c600060028110612155577f4e487b7100000000000000000000000000000000000000000000000000000000600052603260045260246000fd5b60200201518e600060028110612194577f4e487b7100000000000000000000000000000000000000000000000000000000600052603260045260246000fd5b602002015111612225578d6000600281106121d8577f4e487b7100000000000000000000000000000000000000000000000000000000600052603260045260246000fd5b602002015193508c600060028110612219577f4e487b7100000000000000000000000000000000000000000000000000000000600052603260045260246000fd5b602002015192506122a8565b8c60006002811061225f577f4e487b7100000000000000000000000000000000000000000000000000000000600052603260045260246000fd5b602002015193508d6000600281106122a0577f4e487b7100000000000000000000000000000000000000000000000000000000600052603260045260246000fd5b602002015192505b8c6001600281106122e2577f4e487b7100000000000000000000000000000000000000000000000000000000600052603260045260246000fd5b60200201518e600160028110612321577f4e487b7100000000000000000000000000000000000000000000000000000000600052603260045260246000fd5b6020020151116123b2578d600160028110612365577f4e487b7100000000000000000000000000000000000000000000000000000000600052603260045260246000fd5b602002015191508c6001600281106123a6577f4e487b7100000000000000000000000000000000000000000000000000000000600052603260045260246000fd5b60200201519050612435565b8c6001600281106123ec577f4e487b7100000000000000000000000000000000000000000000000000000000600052603260045260246000fd5b602002015191508d60016002811061242d577f4e487b7100000000000000000000000000000000000000000000000000000000600052603260045260246000fd5b602002015190505b60008490505b8381116125465760008390505b8281116125325760636004836008811061248b577f4e487b7100000000000000000000000000000000000000000000000000000000600052603260045260246000fd5b6008020182600881106124c7577f4e487b7100000000000000000000000000000000000000000000000000000000600052603260045260246000fd5b01541461251f578582141580156124de5750838114155b1561251e576040517f08c379a000000000000000000000000000000000000000000000000000000000815260040161251590613591565b60405180910390fd5b5b808061252a90613c68565b915050612448565b50808061253e90613c68565b91505061243b565b50505050505b600060448b60006002811061258a577f4e487b7100000000000000000000000000000000000000000000000000000000600052603260045260246000fd5b6020020151600881106125c6577f4e487b7100000000000000000000000000000000000000000000000000000000600052603260045260246000fd5b600802018b600160028110612604577f4e487b7100000000000000000000000000000000000000000000000000000000600052603260045260246000fd5b602002015160088110612640577f4e487b7100000000000000000000000000000000000000000000000000000000600052603260045260246000fd5b0154905060048b600060028110612680577f4e487b7100000000000000000000000000000000000000000000000000000000600052603260045260246000fd5b6020020151600881106126bc577f4e487b7100000000000000000000000000000000000000000000000000000000600052603260045260246000fd5b600802018b6001600281106126fa577f4e487b7100000000000000000000000000000000000000000000000000000000600052603260045260246000fd5b602002015160088110612736577f4e487b7100000000000000000000000000000000000000000000000000000000600052603260045260246000fd5b015460048b600060028110612774577f4e487b7100000000000000000000000000000000000000000000000000000000600052603260045260246000fd5b6020020151600881106127b0577f4e487b7100000000000000000000000000000000000000000000000000000000600052603260045260246000fd5b600802018b6001600281106127ee577f4e487b7100000000000000000000000000000000000000000000000000000000600052603260045260246000fd5b60200201516008811061282a577f4e487b7100000000000000000000000000000000000000000000000000000000600052603260045260246000fd5b01819055508060448b60006002811061286c577f4e487b7100000000000000000000000000000000000000000000000000000000600052603260045260246000fd5b6020020151600881106128a8577f4e487b7100000000000000000000000000000000000000000000000000000000600052603260045260246000fd5b600802018b6001600281106128e6577f4e487b7100000000000000000000000000000000000000000000000000000000600052603260045260246000fd5b602002015160088110612922577f4e487b7100000000000000000000000000000000000000000000000000000000600052603260045260246000fd5b0181905550806040518060600160405280600060ff168152602001600160ff168152602001600260ff1681525097509750505050505050935093915050565b608960149054906101000a900460ff1681565b608960009054906101000a900473ffffffffffffffffffffffffffffffffffffffff1681565b608681600281106129aa57600080fd5b016000915090505481565b608860009054906101000a900473ffffffffffffffffffffffffffffffffffffffff1681565b608481600281106129eb57600080fd5b016000915054906101000a900473ffffffffffffffffffffffffffffffffffffffff1681565b600081600111158015612a25575060068211155b80612a305750600982145b15612a3e5760009050612a8d565b81600b11158015612a50575060108211155b80612a5b5750601382145b15612a695760019050612a8d565b7fffffffffffffffffffffffffffffffffffffffffffffffffffffffffffffffff90505b919050565b600080821215612aab5781612aa690613cb1565b612aad565b815b9050919050565b6040518060600160405280600390602082028036833780820191505090505090565b6000612ae9612ae4846138da565b6138b5565b90508082856040860282011115612aff57600080fd5b60005b85811015612b2f5781612b158882612c89565b845260208401935060408301925050600181019050612b02565b5050509392505050565b6000612b4c612b4784613900565b6138b5565b90508082856020860282011115612b6257600080fd5b60005b85811015612b925781612b788882612d28565b845260208401935060208301925050600181019050612b65565b5050509392505050565b6000612baf612baa84613926565b6138b5565b90508082856020860282011115612bc557600080fd5b60005b85811015612bf55781612bdb8882612d28565b845260208401935060208301925050600181019050612bc8565b5050509392505050565b6000612c12612c0d8461394c565b6138b5565b90508082856020860282011115612c2857600080fd5b60005b85811015612c585781612c3e8882612d28565b845260208401935060208301925050600181019050612c2b565b5050509392505050565b600082601f830112612c7357600080fd5b6002612c80848285612ad6565b91505092915050565b600082601f830112612c9a57600080fd5b6002612ca7848285612b39565b91505092915050565b600082601f830112612cc157600080fd5b6003612cce848285612b9c565b91505092915050565b600082601f830112612ce857600080fd5b6009612cf5848285612bff565b91505092915050565b600081359050612d0d81614323565b92915050565b600081519050612d2281614323565b92915050565b600081359050612d378161433a565b92915050565b6000806000806101608587031215612d5457600080fd5b6000612d6287828801612c89565b9450506040612d7387828801612c62565b93505060c0612d8487828801612c89565b925050610100612d9687828801612cb0565b91505092959194509250565b6000806000806000806102a08789031215612dbc57600080fd5b6000612dca89828a01612c89565b9650506040612ddb89828a01612c89565b9550506080612dec89828a01612c89565b94505060c0612dfd89828a01612c62565b935050610140612e0f89828a01612c89565b925050610180612e2189828a01612cd7565b9150509295509295509295565b600080600060a08486031215612e4357600080fd5b6000612e5186828701612c89565b9350506040612e6286828701612c89565b9250506080612e7386828701612cfe565b9150509250925092565b600060208284031215612e8f57600080fd5b6000612e9d84828501612d13565b91505092915050565b600060208284031215612eb857600080fd5b6000612ec684828501612d28565b91505092915050565b60008060408385031215612ee257600080fd5b6000612ef085828601612d28565b9250506020612f0185828601612d28565b9150509250929050565b6000612f178383612fb9565b60408301905092915050565b6000612f2f83836134a0565b60208301905092915050565b6000612f4783836134be565b60208301905092915050565b612f5c81613bb3565b82525050565b612f6b816139a4565b612f758184613a1c565b9250612f8082613972565b8060005b83811015612fb1578151612f988782612f0b565b9650612fa3836139db565b925050600181019050612f84565b505050505050565b612fc2816139af565b612fcc8184613a27565b9250612fd78261397c565b8060005b83811015613008578151612fef8782612f23565b9650612ffa836139e8565b925050600181019050612fdb565b505050505050565b613019816139af565b6130238184613a32565b925061302e8261397c565b8060005b8381101561305f5781516130468782612f23565b9650613051836139e8565b925050600181019050613032565b505050505050565b613070816139ba565b61307a8184613a3d565b925061308582613986565b8060005b838110156130b657815161309d8782612f23565b96506130a8836139f5565b925050600181019050613089565b505050505050565b6130c7816139c5565b6130d18184613a48565b92506130dc82613990565b8060005b8381101561310d5781516130f48782612f23565b96506130ff83613a02565b9250506001810190506130e0565b505050505050565b61311e816139d0565b6131288184613a53565b92506131338261399a565b8060005b8381101561316457815161314b8782612f3b565b965061315683613a0f565b925050600181019050613137565b505050505050565b61317581613c25565b82525050565b6000613188602883613a5e565b915061319382613d98565b604082019050919050565b60006131ab603483613a5e565b91506131b682613de7565b604082019050919050565b60006131ce602f83613a5e565b91506131d982613e36565b604082019050919050565b60006131f1601483613a5e565b91506131fc82613e85565b602082019050919050565b6000613214603483613a5e565b915061321f82613eae565b604082019050919050565b6000613237601983613a5e565b915061324282613efd565b602082019050919050565b600061325a602683613a5e565b915061326582613f26565b604082019050919050565b600061327d603383613a5e565b915061328882613f75565b604082019050919050565b60006132a0601f83613a5e565b91506132ab82613fc4565b602082019050919050565b60006132c3601583613a5e565b91506132ce82613fed565b602082019050919050565b60006132e6600c83613a5e565b91506132f182614016565b602082019050919050565b6000613309601983613a5e565b91506133148261403f565b602082019050919050565b600061332c602783613a5e565b915061333782614068565b604082019050919050565b600061334f601383613a5e565b915061335a826140b7565b602082019050919050565b6000613372601083613a5e565b915061337d826140e0565b602082019050919050565b6000613395602483613a5e565b91506133a082614109565b604082019050919050565b60006133b8601383613a5e565b91506133c382614158565b602082019050919050565b60006133db602f83613a5e565b91506133e682614181565b604082019050919050565b60006133fe602783613a5e565b9150613409826141d0565b604082019050919050565b6000613421602f83613a5e565b915061342c8261421f565b604082019050919050565b6000613444601e83613a5e565b915061344f8261426e565b602082019050919050565b6000613467602283613a5e565b915061347282614297565b604082019050919050565b600061348a601883613a5e565b9150613495826142e6565b602082019050919050565b6134a981613c0e565b82525050565b6134b881613c0e565b82525050565b6134c781613c18565b82525050565b60006020820190506134e26000830184612f53565b92915050565b6000610160820190506134fe6000830187613010565b61350b6040830186612f62565b61351860c0830185613010565b613526610100830184613067565b95945050505050565b6000610220820190506135456000830187613010565b6135526040830186612f62565b61355f60c0830185613010565b61356d6101008301846130be565b95945050505050565b600060208201905061358b600083018461316c565b92915050565b600060208201905081810360008301526135aa8161317b565b9050919050565b600060208201905081810360008301526135ca8161319e565b9050919050565b600060208201905081810360008301526135ea816131c1565b9050919050565b6000602082019050818103600083015261360a816131e4565b9050919050565b6000602082019050818103600083015261362a81613207565b9050919050565b6000602082019050818103600083015261364a8161322a565b9050919050565b6000602082019050818103600083015261366a8161324d565b9050919050565b6000602082019050818103600083015261368a81613270565b9050919050565b600060208201905081810360008301526136aa81613293565b9050919050565b600060208201905081810360008301526136ca816132b6565b9050919050565b600060208201905081810360008301526136ea816132d9565b9050919050565b6000602082019050818103600083015261370a816132fc565b9050919050565b6000602082019050818103600083015261372a8161331f565b9050919050565b6000602082019050818103600083015261374a81613342565b9050919050565b6000602082019050818103600083015261376a81613365565b9050919050565b6000602082019050818103600083015261378a81613388565b9050919050565b600060208201905081810360008301526137aa816133ab565b9050919050565b600060208201905081810360008301526137ca816133ce565b9050919050565b600060208201905081810360008301526137ea816133f1565b9050919050565b6000602082019050818103600083015261380a81613414565b9050919050565b6000602082019050818103600083015261382a81613437565b9050919050565b6000602082019050818103600083015261384a8161345a565b9050919050565b6000602082019050818103600083015261386a8161347d565b9050919050565b600060208201905061388660008301846134af565b92915050565b60006080820190506138a160008301856134af565b6138ae6020830184613115565b9392505050565b60006138bf6138d0565b90506138cb8282613c37565b919050565b6000604051905090565b600067ffffffffffffffff8211156138f5576138f4613d58565b5b602082029050919050565b600067ffffffffffffffff82111561391b5761391a613d58565b5b602082029050919050565b600067ffffffffffffffff82111561394157613940613d58565b5b602082029050919050565b600067ffffffffffffffff82111561396757613966613d58565b5b602082029050919050565b6000819050919050565b6000819050919050565b6000819050919050565b6000819050919050565b6000819050919050565b600060029050919050565b600060029050919050565b600060039050919050565b600060099050919050565b600060039050919050565b6000602082019050919050565b6000602082019050919050565b6000602082019050919050565b6000602082019050919050565b6000602082019050919050565b600081905092915050565b600081905092915050565b600081905092915050565b600081905092915050565b600081905092915050565b600081905092915050565b600082825260208201905092915050565b6000613a7a82613c0e565b9150613a8583613c0e565b9250827fffffffffffffffffffffffffffffffffffffffffffffffffffffffffffffffff03821115613aba57613ab9613cfa565b5b828201905092915050565b6000613ad082613c0e565b9150613adb83613c0e565b9250817fffffffffffffffffffffffffffffffffffffffffffffffffffffffffffffffff0483118215151615613b1457613b13613cfa565b5b828202905092915050565b6000613b2a82613be4565b9150613b3583613be4565b9250827f800000000000000000000000000000000000000000000000000000000000000001821260008412151615613b7057613b6f613cfa565b5b827f7fffffffffffffffffffffffffffffffffffffffffffffffffffffffffffffff018213600084121615613ba857613ba7613cfa565b5b828203905092915050565b6000613bbe82613bee565b9050919050565b60008115159050919050565b6000819050613bdf8261430f565b919050565b6000819050919050565b600073ffffffffffffffffffffffffffffffffffffffff82169050919050565b6000819050919050565b600060ff82169050919050565b6000613c3082613bd1565b9050919050565b613c4082613d87565b810181811067ffffffffffffffff82111715613c5f57613c5e613d58565b5b80604052505050565b6000613c7382613c0e565b91507fffffffffffffffffffffffffffffffffffffffffffffffffffffffffffffffff821415613ca657613ca5613cfa565b5b600182019050919050565b6000613cbc82613be4565b91507f8000000000000000000000000000000000000000000000000000000000000000821415613cef57613cee613cfa565b5b816000039050919050565b7f4e487b7100000000000000000000000000000000000000000000000000000000600052601160045260246000fd5b7f4e487b7100000000000000000000000000000000000000000000000000000000600052602160045260246000fd5b7f4e487b7100000000000000000000000000000000000000000000000000000000600052604160045260246000fd5b6000601f19601f8301169050919050565b7f43616e2774206d6f7665207468726f75676820706965636573206173206e6f6e60008201527f2d6b6e696768742e000000000000000000000000000000000000000000000000602082015250565b7f72657175697265644861736820696e70757420646f65736e2774206d6174636860008201527f206561726c69657220636f6d6d69746d656e742e000000000000000000000000602082015250565b7f53717561726520646f65736e277420636f6e7461696e20636f72726563746c7960008201527f20636f6c6f7265642070696563652e0000000000000000000000000000000000602082015250565b7f66726f6d53712073616d6520617320746f53712e000000000000000000000000600082015250565b7f50726f6f66206f757470757420646f65736e277420617373657274207468617460008201527f20706c6163656d656e742069732076616c69642e000000000000000000000000602082015250565b7f49742773206e6f7420706c6179657220322773207475726e2e00000000000000600082015250565b7f67616d654b657920696e70757420696e636f727265637420666f72207468697360008201527f2067616d652e0000000000000000000000000000000000000000000000000000602082015250565b7f4369726375697420616c6c6f77656450696563657320696e70757420646f657360008201527f6e2774206d617463682065787065637465642e00000000000000000000000000602082015250565b7f4d6f76652070726f6f6620766572696669636174696f6e206661696c65642e00600082015250565b7f4f7574206f6620626f756e64732066726f6d53712e0000000000000000000000600082015250565b7f496e76616c6964206d6f76650000000000000000000000000000000000000000600082015250565b7f49742773206e6f7420706c6179657220312773207475726e2e00000000000000600082015250565b7f506c6179657220312068617320616c72656164792063616c6c6564207365747560008201527f70426f6172642e00000000000000000000000000000000000000000000000000602082015250565b7f4e6f2070696563652061742066726f6d53712e00000000000000000000000000600082015250565b7f756e6578706563746564206572726f7200000000000000000000000000000000600082015250565b7f506c6163656d656e742070726f6f6620766572696669636174696f6e2066616960008201527f6c65642e00000000000000000000000000000000000000000000000000000000602082015250565b7f4f7574206f6620626f756e647320746f53712e00000000000000000000000000600082015250565b7f50726f6f66206f757470757420646f65736e277420617373657274207468617460008201527f206d6f76652069732076616c69642e0000000000000000000000000000000000602082015250565b7f506c6179657220322068617320616c72656164792063616c6c6564207365747560008201527f70426f6172642e00000000000000000000000000000000000000000000000000602082015250565b7f4369726375697420706965636546696c6520696e70757420646f65736e27742060008201527f6d617463682065787065637465642e0000000000000000000000000000000000602082015250565b7f506c617965722068617320616c726561647920726567697374657265642e0000600082015250565b7f43616c6c6572206973206e6f742061207265676973746572656420706c61796560008201527f722e000000000000000000000000000000000000000000000000000000000000602082015250565b7f746f537120636f6e7461696e73206f776e2070696563652e0000000000000000600082015250565b600481106143205761431f613d29565b5b50565b61432c81613bc5565b811461433757600080fd5b50565b61434381613c0e565b811461434e57600080fd5b5056fea26469706673582212208eaac4831a32c2256cce820662894edda657f7d7ac66233bffde5e61ffb6901764736f6c63430008040033",
  "linkReferences": {},
  "deployedLinkReferences": {}
}