{
  "_format": "hh-sol-artifact-1",
  "contractName": "zkFischer",
  "sourceName": "contracts/zkFischer.sol",
  "abi": [
    {
      "inputs": [
        {
          "internalType": "address",
          "name": "_placementVerifier",
          "type": "address"
        },
        {
          "internalType": "address",
          "name": "_moveVerifier",
          "type": "address"
        }
      ],
      "stateMutability": "nonpayable",
      "type": "constructor"
    },
    {
      "anonymous": false,
      "inputs": [
        {
          "indexed": true,
          "internalType": "address",
          "name": "winner",
          "type": "address"
        }
      ],
      "name": "GameEnd",
      "type": "event"
    },
    {
      "anonymous": false,
      "inputs": [],
      "name": "Initialize",
      "type": "event"
    },
    {
      "anonymous": false,
      "inputs": [
        {
          "indexed": true,
          "internalType": "address",
          "name": "player",
          "type": "address"
        }
      ],
      "name": "Move",
      "type": "event"
    },
    {
      "anonymous": false,
      "inputs": [
        {
          "indexed": false,
          "internalType": "enum zkFischer.GamePhase",
          "name": "phase",
          "type": "uint8"
        }
      ],
      "name": "PhaseChange",
      "type": "event"
    },
    {
      "anonymous": false,
      "inputs": [
        {
          "indexed": true,
          "internalType": "address",
          "name": "player",
          "type": "address"
        }
      ],
      "name": "Register",
      "type": "event"
    },
    {
      "anonymous": false,
      "inputs": [
        {
          "indexed": true,
          "internalType": "address",
          "name": "player",
          "type": "address"
        }
      ],
      "name": "SetupBoard",
      "type": "event"
    },
    {
      "inputs": [
        {
          "internalType": "uint256",
          "name": "",
          "type": "uint256"
        },
        {
          "internalType": "uint256",
          "name": "",
          "type": "uint256"
        }
      ],
      "name": "board",
      "outputs": [
        {
          "internalType": "uint256",
          "name": "",
          "type": "uint256"
        }
      ],
      "stateMutability": "view",
      "type": "function"
    },
    {
      "inputs": [],
      "name": "gameKey",
      "outputs": [
        {
          "internalType": "uint256",
          "name": "",
          "type": "uint256"
        }
      ],
      "stateMutability": "view",
      "type": "function"
    },
    {
      "inputs": [
        {
          "internalType": "uint256[2]",
          "name": "fromSq",
          "type": "uint256[2]"
        },
        {
          "internalType": "uint256[2]",
          "name": "toSq",
          "type": "uint256[2]"
        },
        {
          "internalType": "uint256[2]",
          "name": "a",
          "type": "uint256[2]"
        },
        {
          "internalType": "uint256[2][2]",
          "name": "b",
          "type": "uint256[2][2]"
        },
        {
          "internalType": "uint256[2]",
          "name": "c",
          "type": "uint256[2]"
        },
        {
          "internalType": "uint256[9]",
          "name": "input",
          "type": "uint256[9]"
        }
      ],
      "name": "move",
      "outputs": [],
      "stateMutability": "nonpayable",
      "type": "function"
    },
    {
      "inputs": [],
      "name": "moveVerifier",
      "outputs": [
        {
          "internalType": "address",
          "name": "",
          "type": "address"
        }
      ],
      "stateMutability": "view",
      "type": "function"
    },
    {
      "inputs": [],
      "name": "phase",
      "outputs": [
        {
          "internalType": "enum zkFischer.GamePhase",
          "name": "",
          "type": "uint8"
        }
      ],
      "stateMutability": "view",
      "type": "function"
    },
    {
      "inputs": [],
      "name": "phasingPlayer",
      "outputs": [
        {
          "internalType": "uint256",
          "name": "",
          "type": "uint256"
        }
      ],
      "stateMutability": "view",
      "type": "function"
    },
    {
      "inputs": [],
      "name": "placementVerifier",
      "outputs": [
        {
          "internalType": "address",
          "name": "",
          "type": "address"
        }
      ],
      "stateMutability": "view",
      "type": "function"
    },
    {
      "inputs": [
        {
          "internalType": "uint256",
          "name": "",
          "type": "uint256"
        }
      ],
      "name": "players",
      "outputs": [
        {
          "internalType": "address",
          "name": "",
          "type": "address"
        }
      ],
      "stateMutability": "view",
      "type": "function"
    },
    {
      "inputs": [],
      "name": "register",
      "outputs": [],
      "stateMutability": "nonpayable",
      "type": "function"
    },
    {
      "inputs": [
        {
          "internalType": "uint256[2]",
          "name": "a",
          "type": "uint256[2]"
        },
        {
          "internalType": "uint256[2][2]",
          "name": "b",
          "type": "uint256[2][2]"
        },
        {
          "internalType": "uint256[2]",
          "name": "c",
          "type": "uint256[2]"
        },
        {
          "internalType": "uint256[4]",
          "name": "input",
          "type": "uint256[4]"
        }
      ],
      "name": "setupBoard",
      "outputs": [],
      "stateMutability": "nonpayable",
      "type": "function"
    },
    {
      "inputs": [
        {
          "internalType": "uint256",
          "name": "",
          "type": "uint256"
        }
      ],
      "name": "setupHashes",
      "outputs": [
        {
          "internalType": "uint256",
          "name": "",
          "type": "uint256"
        }
      ],
      "stateMutability": "view",
      "type": "function"
    },
    {
      "inputs": [
        {
          "internalType": "uint256",
          "name": "",
          "type": "uint256"
        },
        {
          "internalType": "uint256",
          "name": "",
          "type": "uint256"
        }
      ],
      "name": "startingFiles",
      "outputs": [
        {
          "internalType": "uint256",
          "name": "",
          "type": "uint256"
        }
      ],
      "stateMutability": "view",
      "type": "function"
    }
  ],
  "bytecode": "0x60806040526000600155604051806101000160405280604051806101000160405280600060ff168152602001600160ff168152602001600260ff168152602001600360ff168152602001600460ff168152602001600560ff168152602001600660ff168152602001600760ff168152508152602001604051806101000160405280600060ff168152602001600160ff168152602001600260ff168152602001600360ff168152602001600460ff168152602001600560ff168152602001600660ff168152602001600760ff168152508152602001604051806101000160405280606360ff168152602001606360ff168152602001606360ff168152602001606360ff168152602001606360ff168152602001606360ff168152602001606360ff168152602001606360ff168152508152602001604051806101000160405280606360ff168152602001606360ff168152602001606360ff168152602001606360ff168152602001606360ff168152602001606360ff168152602001606360ff168152602001606360ff168152508152602001604051806101000160405280606360ff168152602001606360ff168152602001606360ff168152602001606360ff168152602001606360ff168152602001606360ff168152602001606360ff168152602001606360ff168152508152602001604051806101000160405280606360ff168152602001606360ff168152602001606360ff168152602001606360ff168152602001606360ff168152602001606360ff168152602001606360ff168152602001606360ff168152508152602001604051806101000160405280600060ff168152602001600160ff168152602001600260ff168152602001600360ff168152602001600460ff168152602001600560ff168152602001600660ff168152602001600760ff168152508152602001604051806101000160405280600060ff168152602001600160ff168152602001600260ff168152602001600360ff168152602001600460ff168152602001600560ff168152602001600660ff168152602001600760ff1681525081525060049060086200031d92919062000c66565b50604051806101000160405280604051806101000160405280601360ff168152602001601360ff168152602001601360ff168152602001601360ff168152602001601360ff168152602001601360ff168152602001601360ff168152602001601360ff168152508152602001604051806101000160405280601060ff168152602001601060ff168152602001601060ff168152602001601060ff168152602001601060ff168152602001601060ff168152602001601060ff168152602001601060ff168152508152602001604051806101000160405280600060ff168152602001600060ff168152602001600060ff168152602001600060ff168152602001600060ff168152602001600060ff168152602001600060ff168152602001600060ff168152508152602001604051806101000160405280600060ff168152602001600060ff168152602001600060ff168152602001600060ff168152602001600060ff168152602001600060ff168152602001600060ff168152602001600060ff168152508152602001604051806101000160405280600060ff168152602001600060ff168152602001600060ff168152602001600060ff168152602001600060ff168152602001600060ff168152602001600060ff168152602001600060ff168152508152602001604051806101000160405280600060ff168152602001600060ff168152602001600060ff168152602001600060ff168152602001600060ff168152602001600060ff168152602001600060ff168152602001600060ff168152508152602001604051806101000160405280600660ff168152602001600660ff168152602001600660ff168152602001600660ff168152602001600660ff168152602001600660ff168152602001600660ff168152602001600660ff168152508152602001604051806101000160405280600960ff168152602001600960ff168152602001600960ff168152602001600960ff168152602001600960ff168152602001600960ff168152602001600960ff168152602001600960ff1681525081525060449060086200063292919062000c66565b506000608960146101000a81548160ff0219169083600381111562000680577f4e487b7100000000000000000000000000000000000000000000000000000000600052602160045260246000fd5b02179055503480156200069257600080fd5b50604051620072a4380380620072a48339818101604052810190620006b8919062000d7a565b81608860006101000a81548173ffffffffffffffffffffffffffffffffffffffff021916908373ffffffffffffffffffffffffffffffffffffffff16021790555080608960006101000a81548173ffffffffffffffffffffffffffffffffffffffff021916908373ffffffffffffffffffffffffffffffffffffffff160217905550600160026040516200074c906200112f565b9081526020016040518091039020819055506002806040516200076f9062001032565b908152602001604051809103902081905550600360026040516200079390620010d3565b90815260200160405180910390208190555060046002604051620007b79062001049565b90815260200160405180910390208190555060056002604051620007db906200108e565b90815260200160405180910390208190555060066002604051620007ff9062001004565b9081526020016040518091039020819055506009600260405162000823906200101b565b908152602001604051809103902081905550600b60026040516200084790620010a5565b908152602001604051809103902081905550600c60026040516200086b9062001077565b908152602001604051809103902081905550600d60026040516200088f90620010ea565b908152602001604051809103902081905550600e6002604051620008b39062001060565b908152602001604051809103902081905550600f6002604051620008d79062001101565b90815260200160405180910390208190555060106002604051620008fb9062001146565b908152602001604051809103902081905550601360026040516200091f90620010bc565b90815260200160405180910390208190555060006002604051620009439062001118565b90815260200160405180910390208190555060016003600060026040516200096b906200112f565b9081526020016040518091039020548152602001908152602001600020819055506001600360006002604051620009a29062001032565b9081526020016040518091039020548152602001908152602001600020819055506001600360006002604051620009d990620010d3565b908152602001604051809103902054815260200190815260200160002081905550600160036000600260405162000a109062001049565b908152602001604051809103902054815260200190815260200160002081905550600160036000600260405162000a47906200108e565b908152602001604051809103902054815260200190815260200160002081905550600160036000600260405162000a7e9062001004565b908152602001604051809103902054815260200190815260200160002081905550600160036000600260405162000ab5906200101b565b908152602001604051809103902054815260200190815260200160002081905550600260036000600260405162000aec90620010a5565b908152602001604051809103902054815260200190815260200160002081905550600260036000600260405162000b239062001077565b908152602001604051809103902054815260200190815260200160002081905550600260036000600260405162000b5a90620010ea565b908152602001604051809103902054815260200190815260200160002081905550600260036000600260405162000b919062001060565b908152602001604051809103902054815260200190815260200160002081905550600260036000600260405162000bc89062001101565b908152602001604051809103902054815260200190815260200160002081905550600260036000600260405162000bff9062001146565b908152602001604051809103902054815260200190815260200160002081905550600260036000600260405162000c3690620010bc565b9081526020016040518091039020548152602001908152602001600020819055506000808190555050506200141d565b8260088002810192821562000caa579160200282015b8281111562000ca95782518290600862000c9892919062000cbd565b509160200191906008019062000c7c565b5b50905062000cb9919062000d07565b5090565b826008810192821562000cf4579160200282015b8281111562000cf3578251829060ff1690559160200191906001019062000cd1565b5b50905062000d03919062000d2f565b5090565b5b8082111562000d2b576000818162000d21919062000d4e565b5060080162000d08565b5090565b5b8082111562000d4a57600081600090555060010162000d30565b5090565b50806008019062000d60919062000d2f565b50565b60008151905062000d748162001403565b92915050565b6000806040838503121562000d8e57600080fd5b600062000d9e8582860162000d63565b925050602062000db18582860162000d63565b9150509250929050565b600062000dca6002836200115d565b915062000dd7826200119c565b600282019050919050565b600062000df16002836200115d565b915062000dfe82620011c5565b600282019050919050565b600062000e186002836200115d565b915062000e2582620011ee565b600282019050919050565b600062000e3f6002836200115d565b915062000e4c8262001217565b600282019050919050565b600062000e666002836200115d565b915062000e738262001240565b600282019050919050565b600062000e8d6002836200115d565b915062000e9a8262001269565b600282019050919050565b600062000eb46002836200115d565b915062000ec18262001292565b600282019050919050565b600062000edb6002836200115d565b915062000ee882620012bb565b600282019050919050565b600062000f026002836200115d565b915062000f0f82620012e4565b600282019050919050565b600062000f296002836200115d565b915062000f36826200130d565b600282019050919050565b600062000f506002836200115d565b915062000f5d8262001336565b600282019050919050565b600062000f776002836200115d565b915062000f84826200135f565b600282019050919050565b600062000f9e6002836200115d565b915062000fab8262001388565b600282019050919050565b600062000fc56002836200115d565b915062000fd282620013b1565b600282019050919050565b600062000fec6002836200115d565b915062000ff982620013da565b600282019050919050565b6000620010118262000dbb565b9150819050919050565b6000620010288262000de2565b9150819050919050565b60006200103f8262000e09565b9150819050919050565b6000620010568262000e30565b9150819050919050565b60006200106d8262000e57565b9150819050919050565b6000620010848262000e7e565b9150819050919050565b60006200109b8262000ea5565b9150819050919050565b6000620010b28262000ecc565b9150819050919050565b6000620010c98262000ef3565b9150819050919050565b6000620010e08262000f1a565b9150819050919050565b6000620010f78262000f41565b9150819050919050565b60006200110e8262000f68565b9150819050919050565b6000620011258262000f8f565b9150819050919050565b60006200113c8262000fb6565b9150819050919050565b6000620011538262000fdd565b9150819050919050565b600081905092915050565b600062001175826200117c565b9050919050565b600073ffffffffffffffffffffffffffffffffffffffff82169050919050565b7f7750000000000000000000000000000000000000000000000000000000000000600082015250565b7f775a000000000000000000000000000000000000000000000000000000000000600082015250565b7f774e000000000000000000000000000000000000000000000000000000000000600082015250565b7f7751000000000000000000000000000000000000000000000000000000000000600082015250565b7f6251000000000000000000000000000000000000000000000000000000000000600082015250565b7f624e000000000000000000000000000000000000000000000000000000000000600082015250565b7f774b000000000000000000000000000000000000000000000000000000000000600082015250565b7f6252000000000000000000000000000000000000000000000000000000000000600082015250565b7f625a000000000000000000000000000000000000000000000000000000000000600082015250565b7f7742000000000000000000000000000000000000000000000000000000000000600082015250565b7f6242000000000000000000000000000000000000000000000000000000000000600082015250565b7f624b000000000000000000000000000000000000000000000000000000000000600082015250565b7f4e41000000000000000000000000000000000000000000000000000000000000600082015250565b7f7752000000000000000000000000000000000000000000000000000000000000600082015250565b7f6250000000000000000000000000000000000000000000000000000000000000600082015250565b6200140e8162001168565b81146200141a57600080fd5b50565b615e77806200142d6000396000f3fe608060405234801561001057600080fd5b50600436106100b45760003560e01c80638ca49cb7116100715780638ca49cb714610167578063b1c9fe6e14610197578063d173bf9c146101b5578063d1958b41146101d3578063e693e41b14610203578063f71d96cb14610221576100b4565b806304c05644146100b95780631aa3a008146100d557806333d4a797146100df5780637cb2fd05146100fd5780638086a92a1461011b5780638c26874d1461014b575b600080fd5b6100d360048036038101906100ce919061415d565b610251565b005b6100dd610d19565b005b6100e7611146565b6040516100f49190614fa7565b60405180910390f35b61010561114c565b6040516101129190614fa7565b60405180910390f35b610135600480360381019061013091906142a0565b611152565b6040516101429190614fa7565b60405180910390f35b610165600480360381019061016091906141c2565b611180565b005b610181600480360381019061017c91906142a0565b612576565b60405161018e9190614fa7565b60405180910390f35b61019f6125a4565b6040516101ac9190614b8c565b60405180910390f35b6101bd6125b7565b6040516101ca9190614ae3565b60405180910390f35b6101ed60048036038101906101e89190614277565b6125dd565b6040516101fa9190614fa7565b60405180910390f35b61020b6125f8565b6040516102189190614ae3565b60405180910390f35b61023b60048036038101906102369190614277565b61261e565b6040516102489190614ae3565b60405180910390f35b600180600381111561028c577f4e487b7100000000000000000000000000000000000000000000000000000000600052602160045260246000fd5b608960149054906101000a900460ff1660038111156102d4577f4e487b7100000000000000000000000000000000000000000000000000000000600052602160045260246000fd5b14610314576040517f08c379a000000000000000000000000000000000000000000000000000000000815260040161030b90614da7565b60405180910390fd5b608460006002811061034f577f4e487b7100000000000000000000000000000000000000000000000000000000600052603260045260246000fd5b0160009054906101000a900473ffffffffffffffffffffffffffffffffffffffff1673ffffffffffffffffffffffffffffffffffffffff163373ffffffffffffffffffffffffffffffffffffffff161480610431575060846001600281106103e0577f4e487b7100000000000000000000000000000000000000000000000000000000600052603260045260246000fd5b0160009054906101000a900473ffffffffffffffffffffffffffffffffffffffff1673ffffffffffffffffffffffffffffffffffffffff163373ffffffffffffffffffffffffffffffffffffffff16145b610470576040517f08c379a000000000000000000000000000000000000000000000000000000000815260040161046790614c07565b60405180910390fd5b6001826000600481106104ac577f4e487b7100000000000000000000000000000000000000000000000000000000600052603260045260246000fd5b6020020151146104f1576040517f08c379a00000000000000000000000000000000000000000000000000000000081526004016104e890614f87565b60405180910390fd5b6000548260036004811061052e577f4e487b7100000000000000000000000000000000000000000000000000000000600052603260045260246000fd5b602002015114610573576040517f08c379a000000000000000000000000000000000000000000000000000000000815260040161056a90614ec7565b60405180910390fd5b608860009054906101000a900473ffffffffffffffffffffffffffffffffffffffff1673ffffffffffffffffffffffffffffffffffffffff16635fe8c13b868686866040518563ffffffff1660e01b81526004016105d49493929190614afe565b60206040518083038186803b1580156105ec57600080fd5b505afa158015610600573d6000803e3d6000fd5b505050506040513d601f19601f82011682018060405250810190610624919061424e565b610663576040517f08c379a000000000000000000000000000000000000000000000000000000000815260040161065a90614d87565b60405180910390fd5b608460006002811061069e577f4e487b7100000000000000000000000000000000000000000000000000000000600052603260045260246000fd5b0160009054906101000a900473ffffffffffffffffffffffffffffffffffffffff1673ffffffffffffffffffffffffffffffffffffffff163373ffffffffffffffffffffffffffffffffffffffff1614156109105760006086600060028110610730577f4e487b7100000000000000000000000000000000000000000000000000000000600052603260045260246000fd5b015414610772576040517f08c379a000000000000000000000000000000000000000000000000000000000815260040161076990614d27565b60405180910390fd5b816001600481106107ac577f4e487b7100000000000000000000000000000000000000000000000000000000600052603260045260246000fd5b602002015160866000600281106107ec577f4e487b7100000000000000000000000000000000000000000000000000000000600052603260045260246000fd5b018190555060026040516107ff90614a7a565b9081526020016040518091039020546044600760088110610849577f4e487b7100000000000000000000000000000000000000000000000000000000600052603260045260246000fd5b6008020183600260048110610887577f4e487b7100000000000000000000000000000000000000000000000000000000600052603260045260246000fd5b6020020151600881106108c3577f4e487b7100000000000000000000000000000000000000000000000000000000600052603260045260246000fd5b01819055503373ffffffffffffffffffffffffffffffffffffffff167faf4d9c446642b35d7ee8febf856e561aab055caad19b4fcf9e632edca55c6c9f60405160405180910390a2610bf9565b608460016002811061094b577f4e487b7100000000000000000000000000000000000000000000000000000000600052603260045260246000fd5b0160009054906101000a900473ffffffffffffffffffffffffffffffffffffffff1673ffffffffffffffffffffffffffffffffffffffff163373ffffffffffffffffffffffffffffffffffffffff161415610bbd57600060866001600281106109dd577f4e487b7100000000000000000000000000000000000000000000000000000000600052603260045260246000fd5b015414610a1f576040517f08c379a0000000000000000000000000000000000000000000000000000000008152600401610a1690614d07565b60405180910390fd5b81600160048110610a59577f4e487b7100000000000000000000000000000000000000000000000000000000600052603260045260246000fd5b60200201516086600160028110610a99577f4e487b7100000000000000000000000000000000000000000000000000000000600052603260045260246000fd5b01819055506002604051610aac90614aa4565b9081526020016040518091039020546044600060088110610af6577f4e487b7100000000000000000000000000000000000000000000000000000000600052603260045260246000fd5b6008020183600260048110610b34577f4e487b7100000000000000000000000000000000000000000000000000000000600052603260045260246000fd5b602002015160088110610b70577f4e487b7100000000000000000000000000000000000000000000000000000000600052603260045260246000fd5b01819055503373ffffffffffffffffffffffffffffffffffffffff167faf4d9c446642b35d7ee8febf856e561aab055caad19b4fcf9e632edca55c6c9f60405160405180910390a2610bf8565b6040517f08c379a0000000000000000000000000000000000000000000000000000000008152600401610bef90614c47565b60405180910390fd5b5b60006086600060028110610c36577f4e487b7100000000000000000000000000000000000000000000000000000000600052603260045260246000fd5b015414158015610c83575060006086600160028110610c7e577f4e487b7100000000000000000000000000000000000000000000000000000000600052603260045260246000fd5b015414155b15610d12576002608960146101000a81548160ff02191690836003811115610cd4577f4e487b7100000000000000000000000000000000000000000000000000000000600052602160045260246000fd5b02179055507fed606d544c2202d032d2626c390923e6f260ca5d89625bba0cfe70d2bdda4e8f6002604051610d099190614b8c565b60405180910390a15b5050505050565b6000806003811115610d54577f4e487b7100000000000000000000000000000000000000000000000000000000600052602160045260246000fd5b608960149054906101000a900460ff166003811115610d9c577f4e487b7100000000000000000000000000000000000000000000000000000000600052602160045260246000fd5b14610ddc576040517f08c379a0000000000000000000000000000000000000000000000000000000008152600401610dd390614da7565b60405180910390fd5b600073ffffffffffffffffffffffffffffffffffffffff166084600060028110610e2f577f4e487b7100000000000000000000000000000000000000000000000000000000600052603260045260246000fd5b0160009054906101000a900473ffffffffffffffffffffffffffffffffffffffff1673ffffffffffffffffffffffffffffffffffffffff161415610f3057336084600060028110610ea9577f4e487b7100000000000000000000000000000000000000000000000000000000600052603260045260246000fd5b0160006101000a81548173ffffffffffffffffffffffffffffffffffffffff021916908373ffffffffffffffffffffffffffffffffffffffff1602179055503373ffffffffffffffffffffffffffffffffffffffff167feeda149c76076b34d4b9d8896c2f7efc0d33d1c7b53ea3c5db490d64613f603a60405160405180910390a2611143565b3373ffffffffffffffffffffffffffffffffffffffff166084600060028110610f82577f4e487b7100000000000000000000000000000000000000000000000000000000600052603260045260246000fd5b0160009054906101000a900473ffffffffffffffffffffffffffffffffffffffff1673ffffffffffffffffffffffffffffffffffffffff161415610ffb576040517f08c379a0000000000000000000000000000000000000000000000000000000008152600401610ff290614be7565b60405180910390fd5b336084600160028110611037577f4e487b7100000000000000000000000000000000000000000000000000000000600052603260045260246000fd5b0160006101000a81548173ffffffffffffffffffffffffffffffffffffffff021916908373ffffffffffffffffffffffffffffffffffffffff1602179055503373ffffffffffffffffffffffffffffffffffffffff167feeda149c76076b34d4b9d8896c2f7efc0d33d1c7b53ea3c5db490d64613f603a60405160405180910390a26001608960146101000a81548160ff02191690836003811115611105577f4e487b7100000000000000000000000000000000000000000000000000000000600052602160045260246000fd5b02179055507fed606d544c2202d032d2626c390923e6f260ca5d89625bba0cfe70d2bdda4e8f600160405161113a9190614b8c565b60405180910390a15b50565b60005481565b60015481565b6044826008811061116257600080fd5b60080201816008811061117457600080fd5b01600091509150505481565b60028060038111156111bb577f4e487b7100000000000000000000000000000000000000000000000000000000600052602160045260246000fd5b608960149054906101000a900460ff166003811115611203577f4e487b7100000000000000000000000000000000000000000000000000000000600052602160045260246000fd5b14611243576040517f08c379a000000000000000000000000000000000000000000000000000000000815260040161123a90614da7565b60405180910390fd5b6000806084600060028110611281577f4e487b7100000000000000000000000000000000000000000000000000000000600052603260045260246000fd5b0160009054906101000a900473ffffffffffffffffffffffffffffffffffffffff1673ffffffffffffffffffffffffffffffffffffffff163373ffffffffffffffffffffffffffffffffffffffff1614156113635760006001541461131b576040517f08c379a000000000000000000000000000000000000000000000000000000000815260040161131290614cc7565b60405180910390fd5b6086600060028110611356577f4e487b7100000000000000000000000000000000000000000000000000000000600052603260045260246000fd5b01549150600190506114bb565b608460016002811061139e577f4e487b7100000000000000000000000000000000000000000000000000000000600052603260045260246000fd5b0160009054906101000a900473ffffffffffffffffffffffffffffffffffffffff1673ffffffffffffffffffffffffffffffffffffffff163373ffffffffffffffffffffffffffffffffffffffff16141561147f576001805414611437576040517f08c379a000000000000000000000000000000000000000000000000000000000815260040161142e90614c67565b60405180910390fd5b6086600160028110611472577f4e487b7100000000000000000000000000000000000000000000000000000000600052603260045260246000fd5b01549150600090506114ba565b6040517f08c379a00000000000000000000000000000000000000000000000000000000081526004016114b190614f47565b60405180910390fd5b5b600060448a6000600281106114f9577f4e487b7100000000000000000000000000000000000000000000000000000000600052603260045260246000fd5b602002015160088110611535577f4e487b7100000000000000000000000000000000000000000000000000000000600052603260045260246000fd5b600802018a600160028110611573577f4e487b7100000000000000000000000000000000000000000000000000000000600052603260045260246000fd5b6020020151600881106115af577f4e487b7100000000000000000000000000000000000000000000000000000000600052603260045260246000fd5b0154905060026040516115c190614a65565b90815260200160405180910390205481141580156115fb575060026040516115e890614a8f565b9081526020016040518091039020548114155b156116105761160b8a8a84612654565b611c5c565b611618613ee9565b6116238b8b856132b3565b9050600086600360098110611661577f4e487b7100000000000000000000000000000000000000000000000000000000600052603260045260246000fd5b60200201516002886002600981106116a2577f4e487b7100000000000000000000000000000000000000000000000000000000600052603260045260246000fd5b60200201516116b1919061535b565b6004896001600981106116ed577f4e487b7100000000000000000000000000000000000000000000000000000000600052603260045260246000fd5b60200201516116fc919061535b565b61170691906151ee565b61171091906151ee565b905061171a613ee9565b60005b60038110156117cd578881600561173491906151ee565b6009811061176b577f4e487b7100000000000000000000000000000000000000000000000000000000600052603260045260246000fd5b60200201518282600381106117a9577f4e487b7100000000000000000000000000000000000000000000000000000000600052603260045260246000fd5b602002019060ff16908160ff168152505080806117c59061553a565b91505061171d565b5060018860006009811061180a577f4e487b7100000000000000000000000000000000000000000000000000000000600052603260045260246000fd5b60200201511461184f576040517f08c379a000000000000000000000000000000000000000000000000000000000815260040161184690614f07565b60405180910390fd5b60048d60006002811061188b577f4e487b7100000000000000000000000000000000000000000000000000000000600052603260045260246000fd5b6020020151600881106118c7577f4e487b7100000000000000000000000000000000000000000000000000000000600052603260045260246000fd5b600802018d600160028110611905577f4e487b7100000000000000000000000000000000000000000000000000000000600052603260045260246000fd5b602002015160088110611941577f4e487b7100000000000000000000000000000000000000000000000000000000600052603260045260246000fd5b01548214611984576040517f08c379a000000000000000000000000000000000000000000000000000000000815260040161197b90614e07565b60405180910390fd5b85886004600981106119bf577f4e487b7100000000000000000000000000000000000000000000000000000000600052603260045260246000fd5b602002015114611a04576040517f08c379a00000000000000000000000000000000000000000000000000000000081526004016119fb90614ce7565b60405180910390fd5b60005b6003811015611ae557838160038110611a49577f4e487b7100000000000000000000000000000000000000000000000000000000600052603260045260246000fd5b602002015160ff16828260038110611a8a577f4e487b7100000000000000000000000000000000000000000000000000000000600052603260045260246000fd5b602002015160ff1614611ad2576040517f08c379a0000000000000000000000000000000000000000000000000000000008152600401611ac990614d47565b60405180910390fd5b8080611add9061553a565b915050611a07565b5060005488600860098110611b23577f4e487b7100000000000000000000000000000000000000000000000000000000600052603260045260246000fd5b602002015114611b68576040517f08c379a0000000000000000000000000000000000000000000000000000000008152600401611b5f90614e27565b60405180910390fd5b608960009054906101000a900473ffffffffffffffffffffffffffffffffffffffff1673ffffffffffffffffffffffffffffffffffffffff1663c542c93b8c8c8c8c6040518563ffffffff1660e01b8152600401611bc99493929190614b45565b60206040518083038186803b158015611be157600080fd5b505afa158015611bf5573d6000803e3d6000fd5b505050506040513d601f19601f82011682018060405250810190611c19919061424e565b611c58576040517f08c379a0000000000000000000000000000000000000000000000000000000008152600401611c4f90614c87565b60405180910390fd5b5050505b60006002604051611c6c90614a7a565b90815260200160405180910390205460448b600060028110611cb7577f4e487b7100000000000000000000000000000000000000000000000000000000600052603260045260246000fd5b602002015160088110611cf3577f4e487b7100000000000000000000000000000000000000000000000000000000600052603260045260246000fd5b600802018b600160028110611d31577f4e487b7100000000000000000000000000000000000000000000000000000000600052603260045260246000fd5b602002015160088110611d6d577f4e487b7100000000000000000000000000000000000000000000000000000000600052603260045260246000fd5b01541480611e8957506002604051611d8490614aa4565b90815260200160405180910390205460448b600060028110611dcf577f4e487b7100000000000000000000000000000000000000000000000000000000600052603260045260246000fd5b602002015160088110611e0b577f4e487b7100000000000000000000000000000000000000000000000000000000600052603260045260246000fd5b600802018b600160028110611e49577f4e487b7100000000000000000000000000000000000000000000000000000000600052603260045260246000fd5b602002015160088110611e85577f4e487b7100000000000000000000000000000000000000000000000000000000600052603260045260246000fd5b0154145b905060448b600060028110611ec7577f4e487b7100000000000000000000000000000000000000000000000000000000600052603260045260246000fd5b602002015160088110611f03577f4e487b7100000000000000000000000000000000000000000000000000000000600052603260045260246000fd5b600802018b600160028110611f41577f4e487b7100000000000000000000000000000000000000000000000000000000600052603260045260246000fd5b602002015160088110611f7d577f4e487b7100000000000000000000000000000000000000000000000000000000600052603260045260246000fd5b015460448b600060028110611fbb577f4e487b7100000000000000000000000000000000000000000000000000000000600052603260045260246000fd5b602002015160088110611ff7577f4e487b7100000000000000000000000000000000000000000000000000000000600052603260045260246000fd5b600802018b600160028110612035577f4e487b7100000000000000000000000000000000000000000000000000000000600052603260045260246000fd5b602002015160088110612071577f4e487b7100000000000000000000000000000000000000000000000000000000600052603260045260246000fd5b0181905550600260405161208490614ab9565b90815260200160405180910390205460448c6000600281106120cf577f4e487b7100000000000000000000000000000000000000000000000000000000600052603260045260246000fd5b60200201516008811061210b577f4e487b7100000000000000000000000000000000000000000000000000000000600052603260045260246000fd5b600802018c600160028110612149577f4e487b7100000000000000000000000000000000000000000000000000000000600052603260045260246000fd5b602002015160088110612185577f4e487b7100000000000000000000000000000000000000000000000000000000600052603260045260246000fd5b018190555060048b6000600281106121c6577f4e487b7100000000000000000000000000000000000000000000000000000000600052603260045260246000fd5b602002015160088110612202577f4e487b7100000000000000000000000000000000000000000000000000000000600052603260045260246000fd5b600802018b600160028110612240577f4e487b7100000000000000000000000000000000000000000000000000000000600052603260045260246000fd5b60200201516008811061227c577f4e487b7100000000000000000000000000000000000000000000000000000000600052603260045260246000fd5b015460048b6000600281106122ba577f4e487b7100000000000000000000000000000000000000000000000000000000600052603260045260246000fd5b6020020151600881106122f6577f4e487b7100000000000000000000000000000000000000000000000000000000600052603260045260246000fd5b600802018b600160028110612334577f4e487b7100000000000000000000000000000000000000000000000000000000600052603260045260246000fd5b602002015160088110612370577f4e487b7100000000000000000000000000000000000000000000000000000000600052603260045260246000fd5b0181905550606360048c6000600281106123b3577f4e487b7100000000000000000000000000000000000000000000000000000000600052603260045260246000fd5b6020020151600881106123ef577f4e487b7100000000000000000000000000000000000000000000000000000000600052603260045260246000fd5b600802018c60016002811061242d577f4e487b7100000000000000000000000000000000000000000000000000000000600052603260045260246000fd5b602002015160088110612469577f4e487b7100000000000000000000000000000000000000000000000000000000600052603260045260246000fd5b018190555060006001541461247f576000612482565b60015b60ff166001819055503373ffffffffffffffffffffffffffffffffffffffff167f2faa250a40ee7ae6e526f286912b032fc352944ea55943cf3a6c38c42ca364d860405160405180910390a28015612569576003608960146101000a81548160ff02191690836003811115612520577f4e487b7100000000000000000000000000000000000000000000000000000000600052602160045260246000fd5b02179055503373ffffffffffffffffffffffffffffffffffffffff167fb67620889a46b45c8fb14b148cd35a53f19434107ee6fae801472351c39a545d60405160405180910390a25b5050505050505050505050565b6004826008811061258657600080fd5b60080201816008811061259857600080fd5b01600091509150505481565b608960149054906101000a900460ff1681565b608960009054906101000a900473ffffffffffffffffffffffffffffffffffffffff1681565b608681600281106125ed57600080fd5b016000915090505481565b608860009054906101000a900473ffffffffffffffffffffffffffffffffffffffff1681565b6084816002811061262e57600080fd5b016000915054906101000a900473ffffffffffffffffffffffffffffffffffffffff1681565b61265f838383613756565b600060448460006002811061269d577f4e487b7100000000000000000000000000000000000000000000000000000000600052603260045260246000fd5b6020020151600881106126d9577f4e487b7100000000000000000000000000000000000000000000000000000000600052603260045260246000fd5b6008020184600160028110612717577f4e487b7100000000000000000000000000000000000000000000000000000000600052603260045260246000fd5b602002015160088110612753577f4e487b7100000000000000000000000000000000000000000000000000000000600052603260045260246000fd5b01549050600084600060028110612793577f4e487b7100000000000000000000000000000000000000000000000000000000600052603260045260246000fd5b6020020151846000600281106127d2577f4e487b7100000000000000000000000000000000000000000000000000000000600052603260045260246000fd5b60200201516127e191906153b5565b905060008560016002811061281f577f4e487b7100000000000000000000000000000000000000000000000000000000600052603260045260246000fd5b60200201518560016002811061285e577f4e487b7100000000000000000000000000000000000000000000000000000000600052603260045260246000fd5b602002015161286d91906153b5565b9050600260405161287d90614a7a565b9081526020016040518091039020548314806128b4575060026040516128a290614aa4565b90815260200160405180910390205483145b1561291f5760016128c483613e65565b111580156128db575060016128d882613e65565b11155b61291a576040517f08c379a000000000000000000000000000000000000000000000000000000000815260040161291190614e87565b60405180910390fd5b6132ab565b600260405161292d90614a50565b9081526020016040518091039020548314806129645750600260405161295290614ace565b90815260200160405180910390205483145b1561326f57600161297482613e65565b1415612cc2578315612b30577fffffffffffffffffffffffffffffffffffffffffffffffffffffffffffffffff82146129e2576040517f08c379a00000000000000000000000000000000000000000000000000000000081526004016129d990614e67565b60405180910390fd5b600260036000604488600060028110612a24577f4e487b7100000000000000000000000000000000000000000000000000000000600052603260045260246000fd5b602002015160088110612a60577f4e487b7100000000000000000000000000000000000000000000000000000000600052603260045260246000fd5b6008020188600160028110612a9e577f4e487b7100000000000000000000000000000000000000000000000000000000600052603260045260246000fd5b602002015160088110612ada577f4e487b7100000000000000000000000000000000000000000000000000000000600052603260045260246000fd5b015481526020019081526020016000205414612b2b576040517f08c379a0000000000000000000000000000000000000000000000000000000008152600401612b2290614dc7565b60405180910390fd5b612cbd565b60018214612b73576040517f08c379a0000000000000000000000000000000000000000000000000000000008152600401612b6a90614e67565b60405180910390fd5b600160036000604488600060028110612bb5577f4e487b7100000000000000000000000000000000000000000000000000000000600052603260045260246000fd5b602002015160088110612bf1577f4e487b7100000000000000000000000000000000000000000000000000000000600052603260045260246000fd5b6008020188600160028110612c2f577f4e487b7100000000000000000000000000000000000000000000000000000000600052603260045260246000fd5b602002015160088110612c6b577f4e487b7100000000000000000000000000000000000000000000000000000000600052603260045260246000fd5b015481526020019081526020016000205414612cbc576040517f08c379a0000000000000000000000000000000000000000000000000000000008152600401612cb390614dc7565b60405180910390fd5b5b61326a565b600081141561322e57600084612cd9576001612cfb565b7fffffffffffffffffffffffffffffffffffffffffffffffffffffffffffffffff5b9050600085612d0b576001612d0e565b60065b60ff169050816002612d209190615244565b84141561307c578088600060028110612d62577f4e487b7100000000000000000000000000000000000000000000000000000000600052603260045260246000fd5b602002015114612da7576040517f08c379a0000000000000000000000000000000000000000000000000000000008152600401612d9e90614ea7565b60405180910390fd5b6002604051612db590614ab9565b9081526020016040518091039020546044836001612dd39190615244565b8a600060028110612e0d577f4e487b7100000000000000000000000000000000000000000000000000000000600052603260045260246000fd5b6020020151612e1c919061515a565b60088110612e53577f4e487b7100000000000000000000000000000000000000000000000000000000600052603260045260246000fd5b6008020189600160028110612e91577f4e487b7100000000000000000000000000000000000000000000000000000000600052603260045260246000fd5b602002015160088110612ecd577f4e487b7100000000000000000000000000000000000000000000000000000000600052603260045260246000fd5b015414612f0f576040517f08c379a0000000000000000000000000000000000000000000000000000000008152600401612f0690614de7565b60405180910390fd5b6002604051612f1d90614ab9565b9081526020016040518091039020546044836002612f3b9190615244565b8a600060028110612f75577f4e487b7100000000000000000000000000000000000000000000000000000000600052603260045260246000fd5b6020020151612f84919061515a565b60088110612fbb577f4e487b7100000000000000000000000000000000000000000000000000000000600052603260045260246000fd5b6008020189600160028110612ff9577f4e487b7100000000000000000000000000000000000000000000000000000000600052603260045260246000fd5b602002015160088110613035577f4e487b7100000000000000000000000000000000000000000000000000000000600052603260045260246000fd5b015414613077576040517f08c379a000000000000000000000000000000000000000000000000000000000815260040161306e90614de7565b60405180910390fd5b613227565b8184146130be576040517f08c379a00000000000000000000000000000000000000000000000000000000081526004016130b590614e67565b60405180910390fd5b60026040516130cc90614ab9565b90815260200160405180910390205460448360016130ea9190615244565b8a600060028110613124577f4e487b7100000000000000000000000000000000000000000000000000000000600052603260045260246000fd5b6020020151613133919061515a565b6008811061316a577f4e487b7100000000000000000000000000000000000000000000000000000000600052603260045260246000fd5b60080201896001600281106131a8577f4e487b7100000000000000000000000000000000000000000000000000000000600052603260045260246000fd5b6020020151600881106131e4577f4e487b7100000000000000000000000000000000000000000000000000000000600052603260045260246000fd5b015414613226576040517f08c379a000000000000000000000000000000000000000000000000000000000815260040161321d90614de7565b60405180910390fd5b5b5050613269565b6040517f08c379a000000000000000000000000000000000000000000000000000000000815260040161326090614e67565b60405180910390fd5b5b6132aa565b6040517f08c379a00000000000000000000000000000000000000000000000000000000081526004016132a190614f27565b60405180910390fd5b5b505050505050565b6132bb613ee9565b6132c6848484613756565b600084600060028110613302577f4e487b7100000000000000000000000000000000000000000000000000000000600052603260045260246000fd5b602002015184600060028110613341577f4e487b7100000000000000000000000000000000000000000000000000000000600052603260045260246000fd5b602002015161335091906153b5565b905060008560016002811061338e577f4e487b7100000000000000000000000000000000000000000000000000000000600052603260045260246000fd5b6020020151856001600281106133cd577f4e487b7100000000000000000000000000000000000000000000000000000000600052603260045260246000fd5b60200201516133dc91906153b5565b905060006133e983613e65565b905060006133f683613e65565b90506000613402613ee9565b6001841480156134125750600283145b8061342957506002841480156134285750600183145b5b1561346057600291506040518060600160405280600260ff168152602001600060ff168152602001600060ff16815250905061351d565b600084148061346f5750600083145b156134a657600191506040518060600160405280600160ff168152602001600460ff168152602001600060ff16815250905061351c565b828414156134e057600091506040518060600160405280600360ff168152602001600460ff168152602001600060ff16815250905061351b565b6040517f08c379a000000000000000000000000000000000000000000000000000000000815260040161351290614ca7565b60405180910390fd5b5b5b60028214156135345780965050505050505061374f565b828414806135425750600084145b8061354d5750600083145b613580577f4e487b7100000000000000000000000000000000000000000000000000000000600052600160045260246000fd5b600061358b87613e87565b9050600061359887613e87565b90506000600190505b6135ab8787613ed0565b8112156137425760026040516135c090614ab9565b908152602001604051809103902054604482856135dd9190615244565b8f600060028110613617577f4e487b7100000000000000000000000000000000000000000000000000000000600052603260045260246000fd5b6020020151613626919061515a565b6008811061365d577f4e487b7100000000000000000000000000000000000000000000000000000000600052603260045260246000fd5b60080201828461366d9190615244565b8f6001600281106136a7577f4e487b7100000000000000000000000000000000000000000000000000000000600052603260045260246000fd5b60200201516136b6919061515a565b600881106136ed577f4e487b7100000000000000000000000000000000000000000000000000000000600052603260045260246000fd5b01541461372f576040517f08c379a000000000000000000000000000000000000000000000000000000000815260040161372690614ba7565b60405180910390fd5b808061373a906154f1565b9150506135a1565b5082985050505050505050505b9392505050565b82600060028110613790577f4e487b7100000000000000000000000000000000000000000000000000000000600052603260045260246000fd5b60200201516000111580156137e45750826001600281106137da577f4e487b7100000000000000000000000000000000000000000000000000000000600052603260045260246000fd5b6020020151600011155b801561382e5750600883600060028110613827577f4e487b7100000000000000000000000000000000000000000000000000000000600052603260045260246000fd5b6020020151105b80156138785750600883600160028110613871577f4e487b7100000000000000000000000000000000000000000000000000000000600052603260045260246000fd5b6020020151105b6138b7576040517f08c379a00000000000000000000000000000000000000000000000000000000081526004016138ae90614bc7565b60405180910390fd5b816000600281106138f1577f4e487b7100000000000000000000000000000000000000000000000000000000600052603260045260246000fd5b602002015160001115801561394557508160016002811061393b577f4e487b7100000000000000000000000000000000000000000000000000000000600052603260045260246000fd5b6020020151600011155b801561398f5750600882600060028110613988577f4e487b7100000000000000000000000000000000000000000000000000000000600052603260045260246000fd5b6020020151105b80156139d957506008826001600281106139d2577f4e487b7100000000000000000000000000000000000000000000000000000000600052603260045260246000fd5b6020020151105b613a18576040517f08c379a0000000000000000000000000000000000000000000000000000000008152600401613a0f90614ee7565b60405180910390fd5b81600060028110613a52577f4e487b7100000000000000000000000000000000000000000000000000000000600052603260045260246000fd5b602002015183600060028110613a91577f4e487b7100000000000000000000000000000000000000000000000000000000600052603260045260246000fd5b6020020151141580613b1f575081600160028110613ad8577f4e487b7100000000000000000000000000000000000000000000000000000000600052603260045260246000fd5b602002015183600160028110613b17577f4e487b7100000000000000000000000000000000000000000000000000000000600052603260045260246000fd5b602002015114155b613b5e576040517f08c379a0000000000000000000000000000000000000000000000000000000008152600401613b5590614c27565b60405180910390fd5b600060036000604486600060028110613ba0577f4e487b7100000000000000000000000000000000000000000000000000000000600052603260045260246000fd5b602002015160088110613bdc577f4e487b7100000000000000000000000000000000000000000000000000000000600052603260045260246000fd5b6008020186600160028110613c1a577f4e487b7100000000000000000000000000000000000000000000000000000000600052603260045260246000fd5b602002015160088110613c56577f4e487b7100000000000000000000000000000000000000000000000000000000600052603260045260246000fd5b01548152602001908152602001600020549050600060036000604486600060028110613cab577f4e487b7100000000000000000000000000000000000000000000000000000000600052603260045260246000fd5b602002015160088110613ce7577f4e487b7100000000000000000000000000000000000000000000000000000000600052603260045260246000fd5b6008020186600160028110613d25577f4e487b7100000000000000000000000000000000000000000000000000000000600052603260045260246000fd5b602002015160088110613d61577f4e487b7100000000000000000000000000000000000000000000000000000000600052603260045260246000fd5b015481526020019081526020016000205490506000821415613db8576040517f08c379a0000000000000000000000000000000000000000000000000000000008152600401613daf90614d67565b60405180910390fd5b82613dc65760028214613dcb565b600182145b613e0a576040517f08c379a0000000000000000000000000000000000000000000000000000000008152600401613e0190614e47565b60405180910390fd5b82613e19576002811415613e1f565b60018114155b613e5e576040517f08c379a0000000000000000000000000000000000000000000000000000000008152600401613e5590614f67565b60405180910390fd5b5050505050565b600080821215613e7e5781613e7990615583565b613e80565b815b9050919050565b6000808214613ec65760008213613ebe577fffffffffffffffffffffffffffffffffffffffffffffffffffffffffffffffff613ec1565b60015b613ec9565b60005b9050919050565b6000818311613edf5781613ee1565b825b905092915050565b6040518060600160405280600390602082028036833780820191505090505090565b6000613f1e613f1984614fe7565b614fc2565b90508082856040860282011115613f3457600080fd5b60005b85811015613f645781613f4a88826140be565b845260208401935060408301925050600181019050613f37565b5050509392505050565b6000613f81613f7c8461500d565b614fc2565b90508082856020860282011115613f9757600080fd5b60005b85811015613fc75781613fad8882614148565b845260208401935060208301925050600181019050613f9a565b5050509392505050565b6000613fe4613fdf84615033565b614fc2565b90508082856020860282011115613ffa57600080fd5b60005b8581101561402a57816140108882614148565b845260208401935060208301925050600181019050613ffd565b5050509392505050565b600061404761404284615059565b614fc2565b9050808285602086028201111561405d57600080fd5b60005b8581101561408d57816140738882614148565b845260208401935060208301925050600181019050614060565b5050509392505050565b600082601f8301126140a857600080fd5b60026140b5848285613f0b565b91505092915050565b600082601f8301126140cf57600080fd5b60026140dc848285613f6e565b91505092915050565b600082601f8301126140f657600080fd5b6004614103848285613fd1565b91505092915050565b600082601f83011261411d57600080fd5b600961412a848285614034565b91505092915050565b60008151905061414281615e13565b92915050565b60008135905061415781615e2a565b92915050565b600080600080610180858703121561417457600080fd5b6000614182878288016140be565b945050604061419387828801614097565b93505060c06141a4878288016140be565b9250506101006141b6878288016140e5565b91505092959194509250565b6000806000806000806102a087890312156141dc57600080fd5b60006141ea89828a016140be565b96505060406141fb89828a016140be565b955050608061420c89828a016140be565b94505060c061421d89828a01614097565b93505061014061422f89828a016140be565b92505061018061424189828a0161410c565b9150509295509295509295565b60006020828403121561426057600080fd5b600061426e84828501614133565b91505092915050565b60006020828403121561428957600080fd5b600061429784828501614148565b91505092915050565b600080604083850312156142b357600080fd5b60006142c185828601614148565b92505060206142d285828601614148565b9150509250929050565b60006142e88383614372565b60408301905092915050565b60006143008383614a32565b60208301905092915050565b61431581615449565b82525050565b614324816150a7565b61432e8184615107565b92506143398261507f565b8060005b8381101561436a57815161435187826142dc565b965061435c836150d3565b92505060018101905061433d565b505050505050565b61437b816150b2565b6143858184615112565b925061439082615089565b8060005b838110156143c15781516143a887826142f4565b96506143b3836150e0565b925050600181019050614394565b505050505050565b6143d2816150b2565b6143dc818461511d565b92506143e782615089565b8060005b838110156144185781516143ff87826142f4565b965061440a836150e0565b9250506001810190506143eb565b505050505050565b614429816150bd565b6144338184615128565b925061443e82615093565b8060005b8381101561446f57815161445687826142f4565b9650614461836150ed565b925050600181019050614442565b505050505050565b614480816150c8565b61448a8184615133565b92506144958261509d565b8060005b838110156144c65781516144ad87826142f4565b96506144b8836150fa565b925050600181019050614499565b505050505050565b6144d7816154ae565b82525050565b60006144ea60288361513e565b91506144f58261566a565b604082019050919050565b600061450d60028361514f565b9150614518826156b9565b600282019050919050565b600061453060028361514f565b915061453b826156e2565b600282019050919050565b6000614553600b8361513e565b915061455e8261570b565b602082019050919050565b600061457660138361513e565b915061458182615734565b602082019050919050565b600061459960168361513e565b91506145a48261575d565b602082019050919050565b60006145bc60148361513e565b91506145c782615786565b602082019050919050565b60006145df60178361513e565b91506145ea826157af565b602082019050919050565b600061460260198361513e565b915061460d826157d8565b602082019050919050565b6000614625601f8361513e565b915061463082615801565b602082019050919050565b600061464860028361514f565b91506146538261582a565b600282019050919050565b600061466b60028361514f565b915061467682615853565b600282019050919050565b600061468e600c8361513e565b91506146998261587c565b602082019050919050565b60006146b160198361513e565b91506146bc826158a5565b602082019050919050565b60006146d460198361513e565b91506146df826158ce565b602082019050919050565b60006146f760118361513e565b9150614702826158f7565b602082019050919050565b600061471a60118361513e565b915061472582615920565b602082019050919050565b600061473d60228361513e565b915061474882615949565b604082019050919050565b600061476060138361513e565b915061476b82615998565b602082019050919050565b600061478360248361513e565b915061478e826159c1565b604082019050919050565b60006147a6602c8361513e565b91506147b182615a10565b604082019050919050565b60006147c960298361513e565b91506147d482615a5f565b604082019050919050565b60006147ec60138361513e565b91506147f782615aae565b602082019050919050565b600061480f601e8361513e565b915061481a82615ad7565b602082019050919050565b600061483260148361513e565b915061483d82615b00565b602082019050919050565b600061485560218361513e565b915061486082615b29565b604082019050919050565b600061487860028361514f565b915061488382615b78565b600282019050919050565b600061489b60128361513e565b91506148a682615ba1565b602082019050919050565b60006148be60028361514f565b91506148c982615bca565b600282019050919050565b60006148e160128361513e565b91506148ec82615bf3565b602082019050919050565b600061490460338361513e565b915061490f82615c1c565b604082019050919050565b600061492760028361514f565b915061493282615c6b565b600282019050919050565b600061494a60188361513e565b915061495582615c94565b602082019050919050565b600061496d60098361513e565b915061497882615cbd565b602082019050919050565b6000614990602f8361513e565b915061499b82615ce6565b604082019050919050565b60006149b360128361513e565b91506149be82615d35565b602082019050919050565b60006149d660228361513e565b91506149e182615d5e565b604082019050919050565b60006149f960188361513e565b9150614a0482615dad565b602082019050919050565b6000614a1c601d8361513e565b9150614a2782615dd6565b602082019050919050565b614a3b816154a4565b82525050565b614a4a816154a4565b82525050565b6000614a5b82614500565b9150819050919050565b6000614a7082614523565b9150819050919050565b6000614a858261463b565b9150819050919050565b6000614a9a8261465e565b9150819050919050565b6000614aaf8261486b565b9150819050919050565b6000614ac4826148b1565b9150819050919050565b6000614ad98261491a565b9150819050919050565b6000602082019050614af8600083018461430c565b92915050565b600061018082019050614b1460008301876143c9565b614b21604083018661431b565b614b2e60c08301856143c9565b614b3c610100830184614420565b95945050505050565b600061022082019050614b5b60008301876143c9565b614b68604083018661431b565b614b7560c08301856143c9565b614b83610100830184614477565b95945050505050565b6000602082019050614ba160008301846144ce565b92915050565b60006020820190508181036000830152614bc0816144dd565b9050919050565b60006020820190508181036000830152614be081614546565b9050919050565b60006020820190508181036000830152614c0081614569565b9050919050565b60006020820190508181036000830152614c208161458c565b9050919050565b60006020820190508181036000830152614c40816145af565b9050919050565b60006020820190508181036000830152614c60816145d2565b9050919050565b60006020820190508181036000830152614c80816145f5565b9050919050565b60006020820190508181036000830152614ca081614618565b9050919050565b60006020820190508181036000830152614cc081614681565b9050919050565b60006020820190508181036000830152614ce0816146a4565b9050919050565b60006020820190508181036000830152614d00816146c7565b9050919050565b60006020820190508181036000830152614d20816146ea565b9050919050565b60006020820190508181036000830152614d408161470d565b9050919050565b60006020820190508181036000830152614d6081614730565b9050919050565b60006020820190508181036000830152614d8081614753565b9050919050565b60006020820190508181036000830152614da081614776565b9050919050565b60006020820190508181036000830152614dc081614799565b9050919050565b60006020820190508181036000830152614de0816147bc565b9050919050565b60006020820190508181036000830152614e00816147df565b9050919050565b60006020820190508181036000830152614e2081614802565b9050919050565b60006020820190508181036000830152614e4081614825565b9050919050565b60006020820190508181036000830152614e6081614848565b9050919050565b60006020820190508181036000830152614e808161488e565b9050919050565b60006020820190508181036000830152614ea0816148d4565b9050919050565b60006020820190508181036000830152614ec0816148f7565b9050919050565b60006020820190508181036000830152614ee08161493d565b9050919050565b60006020820190508181036000830152614f0081614960565b9050919050565b60006020820190508181036000830152614f2081614983565b9050919050565b60006020820190508181036000830152614f40816149a6565b9050919050565b60006020820190508181036000830152614f60816149c9565b9050919050565b60006020820190508181036000830152614f80816149ec565b9050919050565b60006020820190508181036000830152614fa081614a0f565b9050919050565b6000602082019050614fbc6000830184614a41565b92915050565b6000614fcc614fdd565b9050614fd882826154c0565b919050565b6000604051905090565b600067ffffffffffffffff8211156150025761500161562a565b5b602082029050919050565b600067ffffffffffffffff8211156150285761502761562a565b5b602082029050919050565b600067ffffffffffffffff82111561504e5761504d61562a565b5b602082029050919050565b600067ffffffffffffffff8211156150745761507361562a565b5b602082029050919050565b6000819050919050565b6000819050919050565b6000819050919050565b6000819050919050565b600060029050919050565b600060029050919050565b600060049050919050565b600060099050919050565b6000602082019050919050565b6000602082019050919050565b6000602082019050919050565b6000602082019050919050565b600081905092915050565b600081905092915050565b600081905092915050565b600081905092915050565b600081905092915050565b600082825260208201905092915050565b600081905092915050565b60006151658261547a565b91506151708361547a565b9250817f7fffffffffffffffffffffffffffffffffffffffffffffffffffffffffffffff038313600083121516156151ab576151aa6155cc565b5b817f80000000000000000000000000000000000000000000000000000000000000000383126000831216156151e3576151e26155cc565b5b828201905092915050565b60006151f9826154a4565b9150615204836154a4565b9250827fffffffffffffffffffffffffffffffffffffffffffffffffffffffffffffffff03821115615239576152386155cc565b5b828201905092915050565b600061524f8261547a565b915061525a8361547a565b9250827f7fffffffffffffffffffffffffffffffffffffffffffffffffffffffffffffff0482116000841360008413161615615299576152986155cc565b5b817f800000000000000000000000000000000000000000000000000000000000000005831260008412600084131616156152d6576152d56155cc565b5b827f80000000000000000000000000000000000000000000000000000000000000000582126000841360008412161615615313576153126155cc565b5b827f7fffffffffffffffffffffffffffffffffffffffffffffffffffffffffffffff05821260008412600084121616156153505761534f6155cc565b5b828202905092915050565b6000615366826154a4565b9150615371836154a4565b9250817fffffffffffffffffffffffffffffffffffffffffffffffffffffffffffffffff04831182151516156153aa576153a96155cc565b5b828202905092915050565b60006153c08261547a565b91506153cb8361547a565b9250827f800000000000000000000000000000000000000000000000000000000000000001821260008412151615615406576154056155cc565b5b827f7fffffffffffffffffffffffffffffffffffffffffffffffffffffffffffffff01821360008412161561543e5761543d6155cc565b5b828203905092915050565b600061545482615484565b9050919050565b60008115159050919050565b600081905061547582615dff565b919050565b6000819050919050565b600073ffffffffffffffffffffffffffffffffffffffff82169050919050565b6000819050919050565b60006154b982615467565b9050919050565b6154c982615659565b810181811067ffffffffffffffff821117156154e8576154e761562a565b5b80604052505050565b60006154fc8261547a565b91507f7fffffffffffffffffffffffffffffffffffffffffffffffffffffffffffffff82141561552f5761552e6155cc565b5b600182019050919050565b6000615545826154a4565b91507fffffffffffffffffffffffffffffffffffffffffffffffffffffffffffffffff821415615578576155776155cc565b5b600182019050919050565b600061558e8261547a565b91507f80000000000000000000000000000000000000000000000000000000000000008214156155c1576155c06155cc565b5b816000039050919050565b7f4e487b7100000000000000000000000000000000000000000000000000000000600052601160045260246000fd5b7f4e487b7100000000000000000000000000000000000000000000000000000000600052602160045260246000fd5b7f4e487b7100000000000000000000000000000000000000000000000000000000600052604160045260246000fd5b6000601f19601f8301169050919050565b7f43616e2774206d6f7665207468726f75676820706965636573206173206e6f6e60008201527f2d6b6e696768742e000000000000000000000000000000000000000000000000602082015250565b7f7750000000000000000000000000000000000000000000000000000000000000600082015250565b7f775a000000000000000000000000000000000000000000000000000000000000600082015250565b7f4f4f422066726f6d53712e000000000000000000000000000000000000000000600082015250565b7f416c726561647920726567697374657265642e00000000000000000000000000600082015250565b7f43616c6c6572206e6f7420726567697374657265642e00000000000000000000600082015250565b7f66726f6d53712073616d6520617320746f53712e000000000000000000000000600082015250565b7f556e6578706563746564207365747570206572726f722e000000000000000000600082015250565b7f49742773206e6f7420706c6179657220322773207475726e2e00000000000000600082015250565b7f4d6f76652070726f6f6620766572696669636174696f6e206661696c65642e00600082015250565b7f774b000000000000000000000000000000000000000000000000000000000000600082015250565b7f625a000000000000000000000000000000000000000000000000000000000000600082015250565b7f496e76616c6964206d6f76650000000000000000000000000000000000000000600082015250565b7f49742773206e6f7420706c6179657220312773207475726e2e00000000000000600082015250565b7f72657175697265644861736820696e7075742077726f6e672e00000000000000600082015250565b7f503220616c72656164792073657475702e000000000000000000000000000000600082015250565b7f503120616c72656164792073657475702e000000000000000000000000000000600082015250565b7f4369726375697420616c6c6f77656450696563657320696e7075742077726f6e60008201527f672e000000000000000000000000000000000000000000000000000000000000602082015250565b7f4e6f2070696563652061742066726f6d53712e00000000000000000000000000600082015250565b7f506c6163656d656e742070726f6f6620766572696669636174696f6e2066616960008201527f6c65642e00000000000000000000000000000000000000000000000000000000602082015250565b7f46756e6374696f6e2063616e27742062652063616c6c6564206174207468697360008201527f2067616d652070686173652e0000000000000000000000000000000000000000602082015250565b7f496e76616c6964207061776e206361707475726520286e6f20656e207061737360008201527f616e7420796574292e0000000000000000000000000000000000000000000000602082015250565b7f506965636520696e207061776e20706174682e00000000000000000000000000600082015250565b7f4369726375697420706965636546696c6520696e7075742077726f6e672e0000600082015250565b7f67616d654b657920696e7075742077726f6e672e000000000000000000000000600082015250565b7f66726f6d537120646f65736e277420636f6e7461696e206f776e20706965636560008201527f2e00000000000000000000000000000000000000000000000000000000000000602082015250565b7f624b000000000000000000000000000000000000000000000000000000000000600082015250565b7f496e76616c6964207061776e206d6f76652e0000000000000000000000000000600082015250565b7f4e41000000000000000000000000000000000000000000000000000000000000600082015250565b7f496e76616c6964206b696e67206d6f76652e0000000000000000000000000000600082015250565b7f5061776e2063616e206f6e6c79206d6f76652032207370616365732066726f6d60008201527f207374617274696e6720706f736974696f6e2e00000000000000000000000000602082015250565b7f6250000000000000000000000000000000000000000000000000000000000000600082015250565b7f67616d654b657920696e70757420696e636f72726563742e0000000000000000600082015250565b7f4f4f4220746f53712e0000000000000000000000000000000000000000000000600082015250565b7f50726f6f66206f757470757420646f65736e27742061737365727420706c616360008201527f656d656e742069732076616c69642e0000000000000000000000000000000000602082015250565b7f556e737570706f727465642070696563652e0000000000000000000000000000600082015250565b7f43616c6c6572206973206e6f742061207265676973746572656420706c61796560008201527f722e000000000000000000000000000000000000000000000000000000000000602082015250565b7f746f537120636f6e7461696e73206f776e2070696563652e0000000000000000600082015250565b7f50726f6f66206f75747075742077726f6e6720617373657274696f6e2e000000600082015250565b60048110615e1057615e0f6155fb565b5b50565b615e1c8161545b565b8114615e2757600080fd5b50565b615e33816154a4565b8114615e3e57600080fd5b5056fea2646970667358221220290400b41e7a280509deb0b8d0788e22c5503d5cf24d15f3441ff6e7b0c9808664736f6c63430008040033",
  "linkReferences": {},
  "deployedLinkReferences": {}
}