{
  "_format": "hh-sol-artifact-1",
  "contractName": "ZkFischerUtils",
  "sourceName": "contracts/ZkFischerUtils.sol",
  "abi": [
    {
      "inputs": [
        {
          "internalType": "uint256[8][8]",
          "name": "board",
          "type": "uint256[8][8]"
        },
        {
          "internalType": "uint256[2]",
          "name": "fromSq",
          "type": "uint256[2]"
        },
        {
          "internalType": "uint256[2]",
          "name": "toSq",
          "type": "uint256[2]"
        },
        {
          "internalType": "bool",
          "name": "isWhiteMove",
          "type": "bool"
        }
      ],
      "name": "validateHiddenMove",
      "outputs": [
        {
          "internalType": "uint8[3]",
          "name": "",
          "type": "uint8[3]"
        }
      ],
      "stateMutability": "pure",
      "type": "function"
    },
    {
      "inputs": [
        {
          "internalType": "uint256[8][8]",
          "name": "board",
          "type": "uint256[8][8]"
        },
        {
          "internalType": "uint256[2]",
          "name": "fromSq",
          "type": "uint256[2]"
        },
        {
          "internalType": "uint256[2]",
          "name": "toSq",
          "type": "uint256[2]"
        },
        {
          "internalType": "bool",
          "name": "isWhiteMove",
          "type": "bool"
        }
      ],
      "name": "validateRevealedMove",
      "outputs": [],
      "stateMutability": "pure",
      "type": "function"
    }
  ],
  "bytecode": "0x608060405234801561001057600080fd5b50612248806100206000396000f3fe608060405234801561001057600080fd5b50600436106100365760003560e01c806326d1386f1461003b578063c55b92eb14610057575b600080fd5b610055600480360381019061005091906118f6565b610087565b005b610071600480360381019061006c91906118f6565b610c0f565b60405161007e9190611b5c565b60405180910390f35b6100938484848461109c565b600084846000600281106100d0577f4e487b7100000000000000000000000000000000000000000000000000000000600052603260045260246000fd5b60200201356008811061010c577f4e487b7100000000000000000000000000000000000000000000000000000000600052603260045260246000fd5b61010002018460016002811061014b577f4e487b7100000000000000000000000000000000000000000000000000000000600052603260045260246000fd5b602002013560088110610187577f4e487b7100000000000000000000000000000000000000000000000000000000600052603260045260246000fd5b602002013590506000846000600281106101ca577f4e487b7100000000000000000000000000000000000000000000000000000000600052603260045260246000fd5b602002013584600060028110610209577f4e487b7100000000000000000000000000000000000000000000000000000000600052603260045260246000fd5b60200201356102189190611ec0565b9050600085600160028110610256577f4e487b7100000000000000000000000000000000000000000000000000000000600052603260045260246000fd5b602002013585600160028110610295577f4e487b7100000000000000000000000000000000000000000000000000000000600052603260045260246000fd5b60200201356102a49190611ec0565b905060058314806102b55750600f83145b156103205760016102c58361179c565b111580156102dc575060016102d98261179c565b11155b61031b576040517f08c379a000000000000000000000000000000000000000000000000000000000815260040161031290611bb7565b60405180910390fd5b610c06565b600683148061032f5750601083145b15610bca57600161033f8261179c565b141561067d5783156104f3577fffffffffffffffffffffffffffffffffffffffffffffffffffffffffffffffff82146103ad576040517f08c379a00000000000000000000000000000000000000000000000000000000081526004016103a490611c17565b60405180910390fd5b60026104ae88876000600281106103ed577f4e487b7100000000000000000000000000000000000000000000000000000000600052603260045260246000fd5b602002013560088110610429577f4e487b7100000000000000000000000000000000000000000000000000000000600052603260045260246000fd5b610100020187600160028110610468577f4e487b7100000000000000000000000000000000000000000000000000000000600052603260045260246000fd5b6020020135600881106104a4577f4e487b7100000000000000000000000000000000000000000000000000000000600052603260045260246000fd5b60200201356117be565b146104ee576040517f08c379a00000000000000000000000000000000000000000000000000000000081526004016104e590611c17565b60405180910390fd5b610678565b60018214610536576040517f08c379a000000000000000000000000000000000000000000000000000000000815260040161052d90611c17565b60405180910390fd5b60016106378887600060028110610576577f4e487b7100000000000000000000000000000000000000000000000000000000600052603260045260246000fd5b6020020135600881106105b2577f4e487b7100000000000000000000000000000000000000000000000000000000600052603260045260246000fd5b6101000201876001600281106105f1577f4e487b7100000000000000000000000000000000000000000000000000000000600052603260045260246000fd5b60200201356008811061062d577f4e487b7100000000000000000000000000000000000000000000000000000000600052603260045260246000fd5b60200201356117be565b14610677576040517f08c379a000000000000000000000000000000000000000000000000000000000815260040161066e90611c17565b60405180910390fd5b5b610bc5565b6000811415610b89576000846106945760016106b6565b7fffffffffffffffffffffffffffffffffffffffffffffffffffffffffffffffff5b90506000856106c65760016106c9565b60065b60ff1690508160026106db9190611da9565b8414156109fb57808860006002811061071d577f4e487b7100000000000000000000000000000000000000000000000000000000600052603260045260246000fd5b602002013514610762576040517f08c379a000000000000000000000000000000000000000000000000000000000815260040161075990611c17565b60405180910390fd5b600089838a6000600281106107a0577f4e487b7100000000000000000000000000000000000000000000000000000000600052603260045260246000fd5b60200201356107af9190611d15565b600881106107e6577f4e487b7100000000000000000000000000000000000000000000000000000000600052603260045260246000fd5b610100020189600160028110610825577f4e487b7100000000000000000000000000000000000000000000000000000000600052603260045260246000fd5b602002013560088110610861577f4e487b7100000000000000000000000000000000000000000000000000000000600052603260045260246000fd5b6020020135146108a6576040517f08c379a000000000000000000000000000000000000000000000000000000000815260040161089d90611c17565b60405180910390fd5b6000898360026108b69190611da9565b8a6000600281106108f0577f4e487b7100000000000000000000000000000000000000000000000000000000600052603260045260246000fd5b60200201356108ff9190611d15565b60088110610936577f4e487b7100000000000000000000000000000000000000000000000000000000600052603260045260246000fd5b610100020189600160028110610975577f4e487b7100000000000000000000000000000000000000000000000000000000600052603260045260246000fd5b6020020135600881106109b1577f4e487b7100000000000000000000000000000000000000000000000000000000600052603260045260246000fd5b6020020135146109f6576040517f08c379a00000000000000000000000000000000000000000000000000000000081526004016109ed90611c17565b60405180910390fd5b610b82565b818414610a3d576040517f08c379a0000000000000000000000000000000000000000000000000000000008152600401610a3490611c17565b60405180910390fd5b600089838a600060028110610a7b577f4e487b7100000000000000000000000000000000000000000000000000000000600052603260045260246000fd5b6020020135610a8a9190611d15565b60088110610ac1577f4e487b7100000000000000000000000000000000000000000000000000000000600052603260045260246000fd5b610100020189600160028110610b00577f4e487b7100000000000000000000000000000000000000000000000000000000600052603260045260246000fd5b602002013560088110610b3c577f4e487b7100000000000000000000000000000000000000000000000000000000600052603260045260246000fd5b602002013514610b81576040517f08c379a0000000000000000000000000000000000000000000000000000000008152600401610b7890611c17565b60405180910390fd5b5b5050610bc4565b6040517f08c379a0000000000000000000000000000000000000000000000000000000008152600401610bbb90611c17565b60405180910390fd5b5b610c05565b6040517f08c379a0000000000000000000000000000000000000000000000000000000008152600401610bfc90611c97565b60405180910390fd5b5b50505050505050565b610c17611882565b610c238585858561109c565b600084600060028110610c5f577f4e487b7100000000000000000000000000000000000000000000000000000000600052603260045260246000fd5b602002013584600060028110610c9e577f4e487b7100000000000000000000000000000000000000000000000000000000600052603260045260246000fd5b6020020135610cad9190611ec0565b9050600085600160028110610ceb577f4e487b7100000000000000000000000000000000000000000000000000000000600052603260045260246000fd5b602002013585600160028110610d2a577f4e487b7100000000000000000000000000000000000000000000000000000000600052603260045260246000fd5b6020020135610d399190611ec0565b90506000610d468361179c565b90506000610d538361179c565b90506000610d5f611882565b600184148015610d6f5750600283145b80610d865750600284148015610d855750600183145b5b15610dbd57600291506040518060600160405280600260ff168152602001600060ff168152602001600060ff168152509050610e7a565b6000841480610dcc5750600083145b15610e0357600191506040518060600160405280600160ff168152602001600460ff168152602001600060ff168152509050610e79565b82841415610e3d57600091506040518060600160405280600360ff168152602001600460ff168152602001600060ff168152509050610e78565b6040517f08c379a0000000000000000000000000000000000000000000000000000000008152600401610e6f90611bd7565b60405180910390fd5b5b5b6002821415610e9157809650505050505050611094565b82841480610e9f5750600084145b80610eaa5750600083145b610edd577f4e487b7100000000000000000000000000000000000000000000000000000000600052600160045260246000fd5b6000610ee887611820565b90506000610ef587611820565b90506000600190505b610f088787611869565b8112156110875760008e8285610f1e9190611da9565b8f600060028110610f58577f4e487b7100000000000000000000000000000000000000000000000000000000600052603260045260246000fd5b6020020135610f679190611d15565b60088110610f9e577f4e487b7100000000000000000000000000000000000000000000000000000000600052603260045260246000fd5b61010002018284610faf9190611da9565b8f600160028110610fe9577f4e487b7100000000000000000000000000000000000000000000000000000000600052603260045260246000fd5b6020020135610ff89190611d15565b6008811061102f577f4e487b7100000000000000000000000000000000000000000000000000000000600052603260045260246000fd5b602002013514611074576040517f08c379a000000000000000000000000000000000000000000000000000000000815260040161106b90611b97565b60405180910390fd5b808061107f90611f77565b915050610efe565b5082985050505050505050505b949350505050565b826000600281106110d6577f4e487b7100000000000000000000000000000000000000000000000000000000600052603260045260246000fd5b602002013560001115801561112a575082600160028110611120577f4e487b7100000000000000000000000000000000000000000000000000000000600052603260045260246000fd5b6020020135600011155b8015611174575060088360006002811061116d577f4e487b7100000000000000000000000000000000000000000000000000000000600052603260045260246000fd5b6020020135105b80156111be57506008836001600281106111b7577f4e487b7100000000000000000000000000000000000000000000000000000000600052603260045260246000fd5b6020020135105b6111fd576040517f08c379a00000000000000000000000000000000000000000000000000000000081526004016111f490611cb7565b60405180910390fd5b81600060028110611237577f4e487b7100000000000000000000000000000000000000000000000000000000600052603260045260246000fd5b602002013560001115801561128b575081600160028110611281577f4e487b7100000000000000000000000000000000000000000000000000000000600052603260045260246000fd5b6020020135600011155b80156112d557506008826000600281106112ce577f4e487b7100000000000000000000000000000000000000000000000000000000600052603260045260246000fd5b6020020135105b801561131f5750600882600160028110611318577f4e487b7100000000000000000000000000000000000000000000000000000000600052603260045260246000fd5b6020020135105b61135e576040517f08c379a000000000000000000000000000000000000000000000000000000000815260040161135590611c37565b60405180910390fd5b81600060028110611398577f4e487b7100000000000000000000000000000000000000000000000000000000600052603260045260246000fd5b6020020135836000600281106113d7577f4e487b7100000000000000000000000000000000000000000000000000000000600052603260045260246000fd5b602002013514158061146557508160016002811061141e577f4e487b7100000000000000000000000000000000000000000000000000000000600052603260045260246000fd5b60200201358360016002811061145d577f4e487b7100000000000000000000000000000000000000000000000000000000600052603260045260246000fd5b602002013514155b6114a4576040517f08c379a000000000000000000000000000000000000000000000000000000000815260040161149b90611c57565b60405180910390fd5b60006115a585856000600281106114e4577f4e487b7100000000000000000000000000000000000000000000000000000000600052603260045260246000fd5b602002013560088110611520577f4e487b7100000000000000000000000000000000000000000000000000000000600052603260045260246000fd5b61010002018560016002811061155f577f4e487b7100000000000000000000000000000000000000000000000000000000600052603260045260246000fd5b60200201356008811061159b577f4e487b7100000000000000000000000000000000000000000000000000000000600052603260045260246000fd5b60200201356117be565b905060006116a886856000600281106115e7577f4e487b7100000000000000000000000000000000000000000000000000000000600052603260045260246000fd5b602002013560088110611623577f4e487b7100000000000000000000000000000000000000000000000000000000600052603260045260246000fd5b610100020185600160028110611662577f4e487b7100000000000000000000000000000000000000000000000000000000600052603260045260246000fd5b60200201356008811061169e577f4e487b7100000000000000000000000000000000000000000000000000000000600052603260045260246000fd5b60200201356117be565b905060008214156116ee576040517f08c379a00000000000000000000000000000000000000000000000000000000081526004016116e590611c77565b60405180910390fd5b826116fc5760028214611701565b600182145b611740576040517f08c379a000000000000000000000000000000000000000000000000000000000815260040161173790611bf7565b60405180910390fd5b8261174f576002811415611755565b60018114155b611794576040517f08c379a000000000000000000000000000000000000000000000000000000000815260040161178b90611b77565b60405180910390fd5b505050505050565b6000808212156117b557816117b090611fc0565b6117b7565b815b9050919050565b6000816001111580156117d2575060068211155b806117dd5750600982145b156117eb576001905061181b565b81600b111580156117fd575060108211155b806118085750601382145b15611816576002905061181b565b600090505b919050565b600080821461185f5760008213611857577fffffffffffffffffffffffffffffffffffffffffffffffffffffffffffffffff61185a565b60015b611862565b60005b9050919050565b6000818311611878578161187a565b825b905092915050565b6040518060600160405280600390602082028036833780820191505090505090565b600081905082610100600802820111156118bd57600080fd5b92915050565b6000819050826020600202820111156118db57600080fd5b92915050565b6000813590506118f0816121fb565b92915050565b6000806000806108a0858703121561190d57600080fd5b600061191b878288016118a4565b94505061080061192d878288016118c3565b93505061084061193f878288016118c3565b925050610880611951878288016118e1565b91505092959194509250565b60006119698383611b4d565b60208301905092915050565b61197e81611ce1565b6119888184611cf9565b925061199382611cd7565b8060005b838110156119c45781516119ab878261195d565b96506119b683611cec565b925050600181019050611997565b505050505050565b60006119d9601083611d04565b91506119e482612038565b602082019050919050565b60006119fc600683611d04565b9150611a0782612061565b602082019050919050565b6000611a1f600d83611d04565b9150611a2a8261208a565b602082019050919050565b6000611a42600383611d04565b9150611a4d826120b3565b602082019050919050565b6000611a65601283611d04565b9150611a70826120dc565b602082019050919050565b6000611a88600d83611d04565b9150611a9382612105565b602082019050919050565b6000611aab601283611d04565b9150611ab68261212e565b602082019050919050565b6000611ace600983611d04565b9150611ad982612157565b602082019050919050565b6000611af1600c83611d04565b9150611afc82612180565b602082019050919050565b6000611b14601183611d04565b9150611b1f826121a9565b602082019050919050565b6000611b37601483611d04565b9150611b42826121d2565b602082019050919050565b611b5681611f6a565b82525050565b6000606082019050611b716000830184611975565b92915050565b60006020820190508181036000830152611b90816119cc565b9050919050565b60006020820190508181036000830152611bb0816119ef565b9050919050565b60006020820190508181036000830152611bd081611a12565b9050919050565b60006020820190508181036000830152611bf081611a35565b9050919050565b60006020820190508181036000830152611c1081611a58565b9050919050565b60006020820190508181036000830152611c3081611a7b565b9050919050565b60006020820190508181036000830152611c5081611a9e565b9050919050565b60006020820190508181036000830152611c7081611ac1565b9050919050565b60006020820190508181036000830152611c9081611ae4565b9050919050565b60006020820190508181036000830152611cb081611b07565b9050919050565b60006020820190508181036000830152611cd081611b2a565b9050919050565b6000819050919050565b600060039050919050565b6000602082019050919050565b600081905092915050565b600082825260208201905092915050565b6000611d2082611f60565b9150611d2b83611f60565b9250817f7fffffffffffffffffffffffffffffffffffffffffffffffffffffffffffffff03831360008312151615611d6657611d65612009565b5b817f8000000000000000000000000000000000000000000000000000000000000000038312600083121615611d9e57611d9d612009565b5b828201905092915050565b6000611db482611f60565b9150611dbf83611f60565b9250827f7fffffffffffffffffffffffffffffffffffffffffffffffffffffffffffffff0482116000841360008413161615611dfe57611dfd612009565b5b817f80000000000000000000000000000000000000000000000000000000000000000583126000841260008413161615611e3b57611e3a612009565b5b827f80000000000000000000000000000000000000000000000000000000000000000582126000841360008412161615611e7857611e77612009565b5b827f7fffffffffffffffffffffffffffffffffffffffffffffffffffffffffffffff0582126000841260008412161615611eb557611eb4612009565b5b828202905092915050565b6000611ecb82611f60565b9150611ed683611f60565b9250827f800000000000000000000000000000000000000000000000000000000000000001821260008412151615611f1157611f10612009565b5b827f7fffffffffffffffffffffffffffffffffffffffffffffffffffffffffffffff018213600084121615611f4957611f48612009565b5b828203905092915050565b60008115159050919050565b6000819050919050565b600060ff82169050919050565b6000611f8282611f60565b91507f7fffffffffffffffffffffffffffffffffffffffffffffffffffffffffffffff821415611fb557611fb4612009565b5b600182019050919050565b6000611fcb82611f60565b91507f8000000000000000000000000000000000000000000000000000000000000000821415611ffe57611ffd612009565b5b816000039050919050565b7f4e487b7100000000000000000000000000000000000000000000000000000000600052601160045260246000fd5b7f746f53712077726f6e6720636f6c6f7200000000000000000000000000000000600082015250565b7f426164204d320000000000000000000000000000000000000000000000000000600082015250565b7f426164206b696e67206d6f766500000000000000000000000000000000000000600082015250565b7f3430300000000000000000000000000000000000000000000000000000000000600082015250565b7f66726f6d53712077726f6e6720636f6c6f720000000000000000000000000000600082015250565b7f426164207061776e206d6f766500000000000000000000000000000000000000600082015250565b7f4f75742d6f662d626f756e647320746f53710000000000000000000000000000600082015250565b7f4e6f206368616e67650000000000000000000000000000000000000000000000600082015250565b7f66726f6d537120656d7074790000000000000000000000000000000000000000600082015250565b7f556e737570706f72746564207069656365000000000000000000000000000000600082015250565b7f4f75742d6f662d626f756e64732066726f6d5371000000000000000000000000600082015250565b61220481611f54565b811461220f57600080fd5b5056fea264697066735822122091ad3d27241a2c5cf01d17b0baf72b948245d73c36d9fce3adb44db26b7b60e764736f6c63430008040033",
  "linkReferences": {},
  "deployedLinkReferences": {}
}