{
  "_format": "hh-sol-artifact-1",
  "contractName": "ZkFischer",
  "sourceName": "contracts/ZkFischer.sol",
  "abi": [
    {
      "inputs": [
        {
          "internalType": "address",
          "name": "_placementVerifier",
          "type": "address"
        },
        {
          "internalType": "address",
          "name": "_moveVerifier",
          "type": "address"
        },
        {
          "internalType": "address",
          "name": "_zkFischerUtilsAddr",
          "type": "address"
        }
      ],
      "stateMutability": "nonpayable",
      "type": "constructor"
    },
    {
      "anonymous": false,
      "inputs": [
        {
          "indexed": false,
          "internalType": "uint256",
          "name": "gameId",
          "type": "uint256"
        },
        {
          "indexed": true,
          "internalType": "address",
          "name": "winner",
          "type": "address"
        }
      ],
      "name": "GameEnd",
      "type": "event"
    },
    {
      "anonymous": false,
      "inputs": [
        {
          "indexed": false,
          "internalType": "uint256",
          "name": "gameId",
          "type": "uint256"
        },
        {
          "indexed": true,
          "internalType": "address",
          "name": "player",
          "type": "address"
        }
      ],
      "name": "Move",
      "type": "event"
    },
    {
      "anonymous": false,
      "inputs": [
        {
          "indexed": false,
          "internalType": "uint256",
          "name": "gameId",
          "type": "uint256"
        },
        {
          "indexed": false,
          "internalType": "enum GamePhase",
          "name": "phase",
          "type": "uint8"
        }
      ],
      "name": "PhaseChange",
      "type": "event"
    },
    {
      "anonymous": false,
      "inputs": [
        {
          "indexed": false,
          "internalType": "uint256",
          "name": "gameId",
          "type": "uint256"
        },
        {
          "indexed": true,
          "internalType": "address",
          "name": "player",
          "type": "address"
        }
      ],
      "name": "Register",
      "type": "event"
    },
    {
      "anonymous": false,
      "inputs": [
        {
          "indexed": false,
          "internalType": "uint256",
          "name": "gameId",
          "type": "uint256"
        },
        {
          "indexed": true,
          "internalType": "address",
          "name": "player",
          "type": "address"
        }
      ],
      "name": "SetupBoard",
      "type": "event"
    },
    {
      "inputs": [
        {
          "internalType": "uint256",
          "name": "",
          "type": "uint256"
        }
      ],
      "name": "games",
      "outputs": [
        {
          "internalType": "address",
          "name": "player1",
          "type": "address"
        },
        {
          "internalType": "address",
          "name": "player2",
          "type": "address"
        },
        {
          "internalType": "uint256",
          "name": "setupHash1",
          "type": "uint256"
        },
        {
          "internalType": "uint256",
          "name": "setupHash2",
          "type": "uint256"
        },
        {
          "internalType": "uint256",
          "name": "gameKey",
          "type": "uint256"
        },
        {
          "internalType": "bool",
          "name": "isWhiteMove",
          "type": "bool"
        },
        {
          "internalType": "enum GamePhase",
          "name": "phase",
          "type": "uint8"
        }
      ],
      "stateMutability": "view",
      "type": "function"
    },
    {
      "inputs": [
        {
          "internalType": "uint256",
          "name": "gameId",
          "type": "uint256"
        }
      ],
      "name": "getBoard",
      "outputs": [
        {
          "internalType": "uint256[8][8]",
          "name": "",
          "type": "uint256[8][8]"
        }
      ],
      "stateMutability": "view",
      "type": "function"
    },
    {
      "inputs": [
        {
          "internalType": "uint256",
          "name": "gameId",
          "type": "uint256"
        },
        {
          "internalType": "uint256",
          "name": "i",
          "type": "uint256"
        },
        {
          "internalType": "uint256",
          "name": "j",
          "type": "uint256"
        }
      ],
      "name": "getStartingFile",
      "outputs": [
        {
          "internalType": "uint256",
          "name": "",
          "type": "uint256"
        }
      ],
      "stateMutability": "view",
      "type": "function"
    },
    {
      "inputs": [
        {
          "internalType": "uint256",
          "name": "gameId",
          "type": "uint256"
        },
        {
          "internalType": "uint256[2]",
          "name": "fromSq",
          "type": "uint256[2]"
        },
        {
          "internalType": "uint256[2]",
          "name": "toSq",
          "type": "uint256[2]"
        },
        {
          "components": [
            {
              "internalType": "uint256[2]",
              "name": "a",
              "type": "uint256[2]"
            },
            {
              "internalType": "uint256[2][2]",
              "name": "b",
              "type": "uint256[2][2]"
            },
            {
              "internalType": "uint256[2]",
              "name": "c",
              "type": "uint256[2]"
            },
            {
              "internalType": "uint256[9]",
              "name": "input",
              "type": "uint256[9]"
            }
          ],
          "internalType": "struct MoveVerifierInput",
          "name": "verifierInput",
          "type": "tuple"
        }
      ],
      "name": "move",
      "outputs": [],
      "stateMutability": "nonpayable",
      "type": "function"
    },
    {
      "inputs": [],
      "name": "moveVerifier",
      "outputs": [
        {
          "internalType": "address",
          "name": "",
          "type": "address"
        }
      ],
      "stateMutability": "view",
      "type": "function"
    },
    {
      "inputs": [],
      "name": "placementVerifier",
      "outputs": [
        {
          "internalType": "address",
          "name": "",
          "type": "address"
        }
      ],
      "stateMutability": "view",
      "type": "function"
    },
    {
      "inputs": [
        {
          "internalType": "uint256",
          "name": "gameId",
          "type": "uint256"
        }
      ],
      "name": "register",
      "outputs": [],
      "stateMutability": "nonpayable",
      "type": "function"
    },
    {
      "inputs": [
        {
          "internalType": "uint256",
          "name": "gameId",
          "type": "uint256"
        },
        {
          "components": [
            {
              "internalType": "uint256[2]",
              "name": "a",
              "type": "uint256[2]"
            },
            {
              "internalType": "uint256[2][2]",
              "name": "b",
              "type": "uint256[2][2]"
            },
            {
              "internalType": "uint256[2]",
              "name": "c",
              "type": "uint256[2]"
            },
            {
              "internalType": "uint256[4]",
              "name": "input",
              "type": "uint256[4]"
            }
          ],
          "internalType": "struct PlacementVerifierInput",
          "name": "verifierInput",
          "type": "tuple"
        }
      ],
      "name": "setupBoard",
      "outputs": [],
      "stateMutability": "nonpayable",
      "type": "function"
    },
    {
      "inputs": [],
      "name": "zkFischerUtils",
      "outputs": [
        {
          "internalType": "contract ZkFischerUtils",
          "name": "",
          "type": "address"
        }
      ],
      "stateMutability": "view",
      "type": "function"
    },
    {
      "inputs": [],
      "name": "zkFischerUtilsAddr",
      "outputs": [
        {
          "internalType": "address",
          "name": "",
          "type": "address"
        }
      ],
      "stateMutability": "view",
      "type": "function"
    }
  ],
  "bytecode": "0x60806040523480156200001157600080fd5b5060405162004cd338038062004cd383398181016040528101906200003791906200017a565b82600260006101000a81548173ffffffffffffffffffffffffffffffffffffffff021916908373ffffffffffffffffffffffffffffffffffffffff16021790555081600360006101000a81548173ffffffffffffffffffffffffffffffffffffffff021916908373ffffffffffffffffffffffffffffffffffffffff160217905550806000806101000a81548173ffffffffffffffffffffffffffffffffffffffff021916908373ffffffffffffffffffffffffffffffffffffffff16021790555060008054906101000a900473ffffffffffffffffffffffffffffffffffffffff16600160006101000a81548173ffffffffffffffffffffffffffffffffffffffff021916908373ffffffffffffffffffffffffffffffffffffffff1602179055505050506200021e565b600081519050620001748162000204565b92915050565b6000806000606084860312156200019057600080fd5b6000620001a08682870162000163565b9350506020620001b38682870162000163565b9250506040620001c68682870162000163565b9150509250925092565b6000620001dd82620001e4565b9050919050565b600073ffffffffffffffffffffffffffffffffffffffff82169050919050565b6200020f81620001d0565b81146200021b57600080fd5b50565b614aa5806200022e6000396000f3fe608060405234801561001057600080fd5b506004361061009e5760003560e01c8063c3d375b011610066578063c3d375b014610175578063d173bf9c14610191578063e693e41b146101af578063e841ab9b146101cd578063f207564e146101e95761009e565b80630e21ae25146100a3578063117a5b90146100c157806345e09e54146100f7578063531ac6b21461012757806391b8787414610157575b600080fd5b6100ab610205565b6040516100b89190613eaf565b60405180910390f35b6100db60048036038101906100d691906137a8565b610229565b6040516100ee9796959493929190613eca565b60405180910390f35b610111600480360381019061010c91906137a8565b6102c5565b60405161011e9190613f39565b60405180910390f35b610141600480360381019061013c9190613872565b61035e565b60405161014e9190614261565b60405180910390f35b61015f61045e565b60405161016c9190614066565b60405180910390f35b61018f600480360381019061018a9190613835565b610484565b005b610199610da4565b6040516101a69190613eaf565b60405180910390f35b6101b7610dca565b6040516101c49190613eaf565b60405180910390f35b6101e760048036038101906101e291906137d1565b610df0565b005b61020360048036038101906101fe91906137a8565b612694565b005b60008054906101000a900473ffffffffffffffffffffffffffffffffffffffff1681565b60046020528060005260406000206000915090508060000160009054906101000a900473ffffffffffffffffffffffffffffffffffffffff16908060010160009054906101000a900473ffffffffffffffffffffffffffffffffffffffff16908060020154908060030154908060040154908060850160009054906101000a900460ff16908060850160019054906101000a900460ff16905087565b6102cd6131ff565b60046000838152602001908152602001600020604501600880602002604051908101604052809291906000905b828210156103535783826008020160088060200260405190810160405280929190826008801561033f576020028201915b81548152602001906001019080831161032b575b5050505050815260200190600101906102fa565b505050509050919050565b6000826000111580156103715750600883105b801561037e575081600011155b801561038a5750600882105b6103c9576040517f08c379a00000000000000000000000000000000000000000000000000000000081526004016103c0906140c1565b60405180910390fd5b600460008581526020019081526020016000206005018360088110610417577f4e487b7100000000000000000000000000000000000000000000000000000000600052603260045260246000fd5b600802018260088110610453577f4e487b7100000000000000000000000000000000000000000000000000000000600052603260045260246000fd5b015490509392505050565b600160009054906101000a900473ffffffffffffffffffffffffffffffffffffffff1681565b8160018060038111156104c0577f4e487b7100000000000000000000000000000000000000000000000000000000600052602160045260246000fd5b6004600084815260200190815260200160002060850160019054906101000a900460ff16600381111561051c577f4e487b7100000000000000000000000000000000000000000000000000000000600052602160045260246000fd5b1461055c576040517f08c379a000000000000000000000000000000000000000000000000000000000815260040161055390614121565b60405180910390fd5b6004600085815260200190815260200160002060000160009054906101000a900473ffffffffffffffffffffffffffffffffffffffff1673ffffffffffffffffffffffffffffffffffffffff163373ffffffffffffffffffffffffffffffffffffffff16148061062d57506004600085815260200190815260200160002060010160009054906101000a900473ffffffffffffffffffffffffffffffffffffffff1673ffffffffffffffffffffffffffffffffffffffff163373ffffffffffffffffffffffffffffffffffffffff16145b61066c576040517f08c379a000000000000000000000000000000000000000000000000000000000815260040161066390614141565b60405180910390fd5b600183606001516000600481106106ac577f4e487b7100000000000000000000000000000000000000000000000000000000600052603260045260246000fd5b6020020151146106f1576040517f08c379a00000000000000000000000000000000000000000000000000000000081526004016106e890614101565b60405180910390fd5b600260009054906101000a900473ffffffffffffffffffffffffffffffffffffffff1673ffffffffffffffffffffffffffffffffffffffff16635fe8c13b84600001518560200151866040015187606001516040518563ffffffff1660e01b81526004016107629493929190613fd8565b60206040518083038186803b15801561077a57600080fd5b505afa15801561078e573d6000803e3d6000fd5b505050506040513d601f19601f820116820180604052508101906107b2919061377f565b6107f1576040517f08c379a00000000000000000000000000000000000000000000000000000000081526004016107e890614241565b60405180910390fd5b6004600085815260200190815260200160002060000160009054906101000a900473ffffffffffffffffffffffffffffffffffffffff1673ffffffffffffffffffffffffffffffffffffffff163373ffffffffffffffffffffffffffffffffffffffff161415610a385760006004600086815260200190815260200160002060020154146108b4576040517f08c379a00000000000000000000000000000000000000000000000000000000081526004016108ab90614081565b60405180910390fd5b82606001516001600481106108f2577f4e487b7100000000000000000000000000000000000000000000000000000000600052603260045260246000fd5b60200201516004600086815260200190815260200160002060020181905550600560046000868152602001908152602001600020604501600760088110610962577f4e487b7100000000000000000000000000000000000000000000000000000000600052603260045260246000fd5b6008020184606001516002600481106109a4577f4e487b7100000000000000000000000000000000000000000000000000000000600052603260045260246000fd5b6020020151600881106109e0577f4e487b7100000000000000000000000000000000000000000000000000000000600052603260045260246000fd5b01819055503373ffffffffffffffffffffffffffffffffffffffff167fc6efe3544b5ec219478d9fe63dd7485bc7e6f24e3b719aa82e5b20c384ab051785604051610a2b9190614261565b60405180910390a2610cbb565b6004600085815260200190815260200160002060010160009054906101000a900473ffffffffffffffffffffffffffffffffffffffff1673ffffffffffffffffffffffffffffffffffffffff163373ffffffffffffffffffffffffffffffffffffffff161415610c7f576000600460008681526020019081526020016000206003015414610afb576040517f08c379a0000000000000000000000000000000000000000000000000000000008152600401610af2906140e1565b60405180910390fd5b8260600151600160048110610b39577f4e487b7100000000000000000000000000000000000000000000000000000000600052603260045260246000fd5b60200201516004600086815260200190815260200160002060030181905550600f60046000868152602001908152602001600020604501600060088110610ba9577f4e487b7100000000000000000000000000000000000000000000000000000000600052603260045260246000fd5b600802018460600151600260048110610beb577f4e487b7100000000000000000000000000000000000000000000000000000000600052603260045260246000fd5b602002015160088110610c27577f4e487b7100000000000000000000000000000000000000000000000000000000600052603260045260246000fd5b01819055503373ffffffffffffffffffffffffffffffffffffffff167fc6efe3544b5ec219478d9fe63dd7485bc7e6f24e3b719aa82e5b20c384ab051785604051610c729190614261565b60405180910390a2610cba565b6040517f08c379a0000000000000000000000000000000000000000000000000000000008152600401610cb190614161565b60405180910390fd5b5b6000600460008681526020019081526020016000206003015414158015610cf957506000600460008681526020019081526020016000206002015414155b15610d9e5760026004600086815260200190815260200160002060850160016101000a81548160ff02191690836003811115610d5e577f4e487b7100000000000000000000000000000000000000000000000000000000600052602160045260246000fd5b02179055507fec35bf9b98a4fe496be4d0d90c57e4ff089d0fd239bd8653dfa3ef8b522a3dc9846002604051610d9592919061427c565b60405180910390a15b50505050565b600360009054906101000a900473ffffffffffffffffffffffffffffffffffffffff1681565b600260009054906101000a900473ffffffffffffffffffffffffffffffffffffffff1681565b836002806003811115610e2c577f4e487b7100000000000000000000000000000000000000000000000000000000600052602160045260246000fd5b6004600084815260200190815260200160002060850160019054906101000a900460ff166003811115610e88577f4e487b7100000000000000000000000000000000000000000000000000000000600052602160045260246000fd5b14610ec8576040517f08c379a0000000000000000000000000000000000000000000000000000000008152600401610ebf90614121565b60405180910390fd5b60006004600088815260200190815260200160002060000160009054906101000a900473ffffffffffffffffffffffffffffffffffffffff1673ffffffffffffffffffffffffffffffffffffffff163373ffffffffffffffffffffffffffffffffffffffff161415610fb5576004600088815260200190815260200160002060850160009054906101000a900460ff16610f97576040517f08c379a0000000000000000000000000000000000000000000000000000000008152600401610f8e90614221565b60405180910390fd5b600460008881526020019081526020016000206002015490506110dd565b6004600088815260200190815260200160002060010160009054906101000a900473ffffffffffffffffffffffffffffffffffffffff1673ffffffffffffffffffffffffffffffffffffffff163373ffffffffffffffffffffffffffffffffffffffff1614156110a1576004600088815260200190815260200160002060850160009054906101000a900460ff1615611083576040517f08c379a000000000000000000000000000000000000000000000000000000000815260040161107a906140a1565b60405180910390fd5b600460008881526020019081526020016000206003015490506110dc565b6040517f08c379a00000000000000000000000000000000000000000000000000000000081526004016110d390614141565b60405180910390fd5b5b6000600460008981526020019081526020016000206045018760006002811061112f577f4e487b7100000000000000000000000000000000000000000000000000000000600052603260045260246000fd5b60200201356008811061116b577f4e487b7100000000000000000000000000000000000000000000000000000000600052603260045260246000fd5b60080201876001600281106111a9577f4e487b7100000000000000000000000000000000000000000000000000000000600052603260045260246000fd5b6020020135600881106111e5577f4e487b7100000000000000000000000000000000000000000000000000000000600052603260045260246000fd5b01549050600981141580156111fb575060138114155b156112ce57600160009054906101000a900473ffffffffffffffffffffffffffffffffffffffff1673ffffffffffffffffffffffffffffffffffffffff166326d1386f600460008b81526020019081526020016000206045018989600460008e815260200190815260200160002060850160009054906101000a900460ff166040518563ffffffff1660e01b81526004016112999493929190613f8f565b60006040518083038186803b1580156112b157600080fd5b505afa1580156112c5573d6000803e3d6000fd5b505050506119b2565b6112d661322d565b600160009054906101000a900473ffffffffffffffffffffffffffffffffffffffff1673ffffffffffffffffffffffffffffffffffffffff1663c55b92eb600460008c81526020019081526020016000206045018a8a600460008f815260200190815260200160002060850160009054906101000a900460ff166040518563ffffffff1660e01b815260040161136f9493929190613f8f565b60606040518083038186803b15801561138757600080fd5b505afa15801561139b573d6000803e3d6000fd5b505050506040513d601f19601f820116820180604052508101906113bf9190613756565b905060008660600151600360098110611401577f4e487b7100000000000000000000000000000000000000000000000000000000600052603260045260246000fd5b602002015160028860600151600260098110611446577f4e487b7100000000000000000000000000000000000000000000000000000000600052603260045260246000fd5b6020020151611455919061454c565b60048960600151600160098110611495577f4e487b7100000000000000000000000000000000000000000000000000000000600052603260045260246000fd5b60200201516114a4919061454c565b6114ae91906144f6565b6114b891906144f6565b90506114c261322d565b60005b60038110156115795788606001518160056114e091906144f6565b60098110611517577f4e487b7100000000000000000000000000000000000000000000000000000000600052603260045260246000fd5b6020020151828260038110611555577f4e487b7100000000000000000000000000000000000000000000000000000000600052603260045260246000fd5b602002019060ff16908160ff16815250508080611571906146a8565b9150506114c5565b50600188606001516000600981106115ba577f4e487b7100000000000000000000000000000000000000000000000000000000600052603260045260246000fd5b6020020151146115ff576040517f08c379a00000000000000000000000000000000000000000000000000000000081526004016115f690614101565b60405180910390fd5b600460008c81526020019081526020016000206005018a60006002811061164f577f4e487b7100000000000000000000000000000000000000000000000000000000600052603260045260246000fd5b60200201356008811061168b577f4e487b7100000000000000000000000000000000000000000000000000000000600052603260045260246000fd5b600802018a6001600281106116c9577f4e487b7100000000000000000000000000000000000000000000000000000000600052603260045260246000fd5b602002013560088110611705577f4e487b7100000000000000000000000000000000000000000000000000000000600052603260045260246000fd5b01548214611748576040517f08c379a000000000000000000000000000000000000000000000000000000000815260040161173f90614181565b60405180910390fd5b848860600151600460098110611787577f4e487b7100000000000000000000000000000000000000000000000000000000600052603260045260246000fd5b6020020151146117cc576040517f08c379a00000000000000000000000000000000000000000000000000000000081526004016117c3906141e1565b60405180910390fd5b60005b60038110156118ad57838160038110611811577f4e487b7100000000000000000000000000000000000000000000000000000000600052603260045260246000fd5b602002015160ff16828260038110611852577f4e487b7100000000000000000000000000000000000000000000000000000000600052603260045260246000fd5b602002015160ff161461189a576040517f08c379a000000000000000000000000000000000000000000000000000000000815260040161189190614201565b60405180910390fd5b80806118a5906146a8565b9150506117cf565b50600360009054906101000a900473ffffffffffffffffffffffffffffffffffffffff1673ffffffffffffffffffffffffffffffffffffffff1663c542c93b89600001518a602001518b604001518c606001516040518563ffffffff1660e01b815260040161191f949392919061401f565b60206040518083038186803b15801561193757600080fd5b505afa15801561194b573d6000803e3d6000fd5b505050506040513d601f19601f8201168201806040525081019061196f919061377f565b6119ae576040517f08c379a00000000000000000000000000000000000000000000000000000000081526004016119a590614241565b60405180910390fd5b5050505b60006005600460008b815260200190815260200160002060450188600060028110611a06577f4e487b7100000000000000000000000000000000000000000000000000000000600052603260045260246000fd5b602002013560088110611a42577f4e487b7100000000000000000000000000000000000000000000000000000000600052603260045260246000fd5b6008020188600160028110611a80577f4e487b7100000000000000000000000000000000000000000000000000000000600052603260045260246000fd5b602002013560088110611abc577f4e487b7100000000000000000000000000000000000000000000000000000000600052603260045260246000fd5b01541480611bd15750600f600460008b815260200190815260200160002060450188600060028110611b17577f4e487b7100000000000000000000000000000000000000000000000000000000600052603260045260246000fd5b602002013560088110611b53577f4e487b7100000000000000000000000000000000000000000000000000000000600052603260045260246000fd5b6008020188600160028110611b91577f4e487b7100000000000000000000000000000000000000000000000000000000600052603260045260246000fd5b602002013560088110611bcd577f4e487b7100000000000000000000000000000000000000000000000000000000600052603260045260246000fd5b0154145b9050600160009054906101000a900473ffffffffffffffffffffffffffffffffffffffff1673ffffffffffffffffffffffffffffffffffffffff16636d06946e600460008c81526020019081526020016000206045018a8a6040518463ffffffff1660e01b8152600401611c4793929190613f55565b60206040518083038186803b158015611c5f57600080fd5b505afa158015611c73573d6000803e3d6000fd5b505050506040513d601f19601f82011682018060405250810190611c97919061377f565b15611ee957600460008a815260200190815260200160002060850160009054906101000a900460ff1615611dd65760048060008b815260200190815260200160002060450188600060028110611d16577f4e487b7100000000000000000000000000000000000000000000000000000000600052603260045260246000fd5b602002013560088110611d52577f4e487b7100000000000000000000000000000000000000000000000000000000600052603260045260246000fd5b6008020188600160028110611d90577f4e487b7100000000000000000000000000000000000000000000000000000000600052603260045260246000fd5b602002013560088110611dcc577f4e487b7100000000000000000000000000000000000000000000000000000000600052603260045260246000fd5b0181905550611ee4565b600e600460008b815260200190815260200160002060450188600060028110611e28577f4e487b7100000000000000000000000000000000000000000000000000000000600052603260045260246000fd5b602002013560088110611e64577f4e487b7100000000000000000000000000000000000000000000000000000000600052603260045260246000fd5b6008020188600160028110611ea2577f4e487b7100000000000000000000000000000000000000000000000000000000600052603260045260246000fd5b602002013560088110611ede577f4e487b7100000000000000000000000000000000000000000000000000000000600052603260045260246000fd5b01819055505b6120fd565b600460008a815260200190815260200160002060450188600060028110611f39577f4e487b7100000000000000000000000000000000000000000000000000000000600052603260045260246000fd5b602002013560088110611f75577f4e487b7100000000000000000000000000000000000000000000000000000000600052603260045260246000fd5b6008020188600160028110611fb3577f4e487b7100000000000000000000000000000000000000000000000000000000600052603260045260246000fd5b602002013560088110611fef577f4e487b7100000000000000000000000000000000000000000000000000000000600052603260045260246000fd5b0154600460008b815260200190815260200160002060450188600060028110612041577f4e487b7100000000000000000000000000000000000000000000000000000000600052603260045260246000fd5b60200201356008811061207d577f4e487b7100000000000000000000000000000000000000000000000000000000600052603260045260246000fd5b60080201886001600281106120bb577f4e487b7100000000000000000000000000000000000000000000000000000000600052603260045260246000fd5b6020020135600881106120f7577f4e487b7100000000000000000000000000000000000000000000000000000000600052603260045260246000fd5b01819055505b6000600460008b81526020019081526020016000206045018960006002811061214f577f4e487b7100000000000000000000000000000000000000000000000000000000600052603260045260246000fd5b60200201356008811061218b577f4e487b7100000000000000000000000000000000000000000000000000000000600052603260045260246000fd5b60080201896001600281106121c9577f4e487b7100000000000000000000000000000000000000000000000000000000600052603260045260246000fd5b602002013560088110612205577f4e487b7100000000000000000000000000000000000000000000000000000000600052603260045260246000fd5b0181905550600460008a81526020019081526020016000206005018860006002811061225a577f4e487b7100000000000000000000000000000000000000000000000000000000600052603260045260246000fd5b602002013560088110612296577f4e487b7100000000000000000000000000000000000000000000000000000000600052603260045260246000fd5b60080201886001600281106122d4577f4e487b7100000000000000000000000000000000000000000000000000000000600052603260045260246000fd5b602002013560088110612310577f4e487b7100000000000000000000000000000000000000000000000000000000600052603260045260246000fd5b0154600460008b815260200190815260200160002060050188600060028110612362577f4e487b7100000000000000000000000000000000000000000000000000000000600052603260045260246000fd5b60200201356008811061239e577f4e487b7100000000000000000000000000000000000000000000000000000000600052603260045260246000fd5b60080201886001600281106123dc577f4e487b7100000000000000000000000000000000000000000000000000000000600052603260045260246000fd5b602002013560088110612418577f4e487b7100000000000000000000000000000000000000000000000000000000600052603260045260246000fd5b01819055506000600460008b81526020019081526020016000206005018960006002811061246f577f4e487b7100000000000000000000000000000000000000000000000000000000600052603260045260246000fd5b6020020135600881106124ab577f4e487b7100000000000000000000000000000000000000000000000000000000600052603260045260246000fd5b60080201896001600281106124e9577f4e487b7100000000000000000000000000000000000000000000000000000000600052603260045260246000fd5b602002013560088110612525577f4e487b7100000000000000000000000000000000000000000000000000000000600052603260045260246000fd5b0181905550600460008a815260200190815260200160002060850160009054906101000a900460ff1615600460008b815260200190815260200160002060850160006101000a81548160ff021916908315150217905550801561263a576003600460008b815260200190815260200160002060850160016101000a81548160ff021916908360038111156125e2577f4e487b7100000000000000000000000000000000000000000000000000000000600052602160045260246000fd5b02179055503373ffffffffffffffffffffffffffffffffffffffff167f9718dbe118eb2ae68ab354f05d6bc7e40cfbb993a521bee9314324bec4dad6618a60405161262d9190614261565b60405180910390a2612689565b3373ffffffffffffffffffffffffffffffffffffffff167f8ceddd02f4fb8ef0d5d6212cf4c91d59d366e04b977e8b2b944168d2a6d850818a6040516126809190614261565b60405180910390a25b505050505050505050565b8060008060038111156126d0577f4e487b7100000000000000000000000000000000000000000000000000000000600052602160045260246000fd5b6004600084815260200190815260200160002060850160019054906101000a900460ff16600381111561272c577f4e487b7100000000000000000000000000000000000000000000000000000000600052602160045260246000fd5b1461276c576040517f08c379a000000000000000000000000000000000000000000000000000000000815260040161276390614121565b60405180910390fd5b600073ffffffffffffffffffffffffffffffffffffffff166004600085815260200190815260200160002060000160009054906101000a900473ffffffffffffffffffffffffffffffffffffffff1673ffffffffffffffffffffffffffffffffffffffff161415612888576127e083612b1a565b336004600085815260200190815260200160002060000160006101000a81548173ffffffffffffffffffffffffffffffffffffffff021916908373ffffffffffffffffffffffffffffffffffffffff1602179055503373ffffffffffffffffffffffffffffffffffffffff167fa902c0ee3df5ddb3d1ab80437a22cd86a19a2295f7c96c5e387ea29d9d0bfaad8460405161287b9190614261565b60405180910390a2612b15565b3373ffffffffffffffffffffffffffffffffffffffff166004600085815260200190815260200160002060000160009054906101000a900473ffffffffffffffffffffffffffffffffffffffff1673ffffffffffffffffffffffffffffffffffffffff16141561292d576040517f08c379a0000000000000000000000000000000000000000000000000000000008152600401612924906141a1565b60405180910390fd5b600073ffffffffffffffffffffffffffffffffffffffff166004600085815260200190815260200160002060010160009054906101000a900473ffffffffffffffffffffffffffffffffffffffff1673ffffffffffffffffffffffffffffffffffffffff16146129d2576040517f08c379a00000000000000000000000000000000000000000000000000000000081526004016129c9906141c1565b60405180910390fd5b336004600085815260200190815260200160002060010160006101000a81548173ffffffffffffffffffffffffffffffffffffffff021916908373ffffffffffffffffffffffffffffffffffffffff1602179055503373ffffffffffffffffffffffffffffffffffffffff167fa902c0ee3df5ddb3d1ab80437a22cd86a19a2295f7c96c5e387ea29d9d0bfaad84604051612a6d9190614261565b60405180910390a260016004600085815260200190815260200160002060850160016101000a81548160ff02191690836003811115612ad5577f4e487b7100000000000000000000000000000000000000000000000000000000600052602160045260246000fd5b02179055507fec35bf9b98a4fe496be4d0d90c57e4ff089d0fd239bd8653dfa3ef8b522a3dc9836001604051612b0c92919061427c565b60405180910390a15b505050565b604051806101000160405280604051806101000160405280600060ff168152602001600160ff168152602001600260ff168152602001600360ff168152602001600460ff168152602001600560ff168152602001600660ff168152602001600760ff168152508152602001604051806101000160405280600060ff168152602001600160ff168152602001600260ff168152602001600360ff168152602001600460ff168152602001600560ff168152602001600660ff168152602001600760ff168152508152602001604051806101000160405280606360ff168152602001606360ff168152602001606360ff168152602001606360ff168152602001606360ff168152602001606360ff168152602001606360ff168152602001606360ff168152508152602001604051806101000160405280606360ff168152602001606360ff168152602001606360ff168152602001606360ff168152602001606360ff168152602001606360ff168152602001606360ff168152602001606360ff168152508152602001604051806101000160405280606360ff168152602001606360ff168152602001606360ff168152602001606360ff168152602001606360ff168152602001606360ff168152602001606360ff168152602001606360ff168152508152602001604051806101000160405280606360ff168152602001606360ff168152602001606360ff168152602001606360ff168152602001606360ff168152602001606360ff168152602001606360ff168152602001606360ff168152508152602001604051806101000160405280600060ff168152602001600160ff168152602001600260ff168152602001600360ff168152602001600460ff168152602001600560ff168152602001600660ff168152602001600760ff168152508152602001604051806101000160405280600060ff168152602001600160ff168152602001600260ff168152602001600360ff168152602001600460ff168152602001600560ff168152602001600660ff168152602001600760ff1681525081525060046000838152602001908152602001600020600501906008612e4092919061324f565b50604051806101000160405280604051806101000160405280601360ff168152602001601360ff168152602001601360ff168152602001601360ff168152602001601360ff168152602001601360ff168152602001601360ff168152602001601360ff168152508152602001604051806101000160405280601060ff168152602001601060ff168152602001601060ff168152602001601060ff168152602001601060ff168152602001601060ff168152602001601060ff168152602001601060ff168152508152602001604051806101000160405280600060ff168152602001600060ff168152602001600060ff168152602001600060ff168152602001600060ff168152602001600060ff168152602001600060ff168152602001600060ff168152508152602001604051806101000160405280600060ff168152602001600060ff168152602001600060ff168152602001600060ff168152602001600060ff168152602001600060ff168152602001600060ff168152602001600060ff168152508152602001604051806101000160405280600060ff168152602001600060ff168152602001600060ff168152602001600060ff168152602001600060ff168152602001600060ff168152602001600060ff168152602001600060ff168152508152602001604051806101000160405280600060ff168152602001600060ff168152602001600060ff168152602001600060ff168152602001600060ff168152602001600060ff168152602001600060ff168152602001600060ff168152508152602001604051806101000160405280600660ff168152602001600660ff168152602001600660ff168152602001600660ff168152602001600660ff168152602001600660ff168152602001600660ff168152602001600660ff168152508152602001604051806101000160405280600960ff168152602001600960ff168152602001600960ff168152602001600960ff168152602001600960ff168152602001600960ff168152602001600960ff168152602001600960ff168152508152506004600083815260200190815260200160002060450190600861316792919061324f565b5060006004600083815260200190815260200160002060850160016101000a81548160ff021916908360038111156131c8577f4e487b7100000000000000000000000000000000000000000000000000000000600052602160045260246000fd5b021790555060016004600083815260200190815260200160002060850160006101000a81548160ff02191690831515021790555050565b6040518061010001604052806008905b61321761329f565b81526020019060019003908161320f5790505090565b6040518060600160405280600390602082028036833780820191505090505090565b8260088002810192821561328e579160200282015b8281111561328d5782518290600861327d9291906132c2565b5091602001919060080190613264565b5b50905061329b9190613307565b5090565b604051806101000160405280600890602082028036833780820191505090505090565b82600881019282156132f6579160200282015b828111156132f5578251829060ff169055916020019190600101906132d5565b5b509050613303919061332b565b5090565b5b80821115613327576000818161331e9190613348565b50600801613308565b5090565b5b8082111561334457600081600090555060010161332c565b5090565b508060080190613358919061332b565b50565b600061336e613369846142ca565b6142a5565b9050808285604086028201111561338457600080fd5b60005b858110156133b4578161339a888261358f565b845260208401935060408301925050600181019050613387565b5050509392505050565b60006133d16133cc846142f0565b6142a5565b905080828560208602820111156133e757600080fd5b60005b8581101561341757816133fd888261372c565b8452602084019350602083019250506001810190506133ea565b5050509392505050565b600061343461342f84614316565b6142a5565b9050808285602086028201111561344a57600080fd5b60005b8581101561347a5781613460888261372c565b84526020840193506020830192505060018101905061344d565b5050509392505050565b60006134976134928461433c565b6142a5565b905080828560208602820111156134ad57600080fd5b60005b858110156134dd57816134c3888261372c565b8452602084019350602083019250506001810190506134b0565b5050509392505050565b60006134fa6134f584614362565b6142a5565b9050808285602086028201111561351057600080fd5b60005b8581101561354057816135268882613741565b845260208401935060208301925050600181019050613513565b5050509392505050565b600082601f83011261355b57600080fd5b600261356884828561335b565b91505092915050565b60008190508260206002028201111561358957600080fd5b92915050565b600082601f8301126135a057600080fd5b60026135ad8482856133be565b91505092915050565b600082601f8301126135c757600080fd5b60046135d4848285613421565b91505092915050565b600082601f8301126135ee57600080fd5b60096135fb848285613484565b91505092915050565b600082601f83011261361557600080fd5b60036136228482856134e7565b91505092915050565b60008151905061363a81614a2a565b92915050565b6000610220828403121561365357600080fd5b61365d60806142a5565b9050600061366d8482850161358f565b60008301525060406136818482850161354a565b60208301525060c06136958482850161358f565b6040830152506101006136aa848285016135dd565b60608301525092915050565b600061018082840312156136c957600080fd5b6136d360806142a5565b905060006136e38482850161358f565b60008301525060406136f78482850161354a565b60208301525060c061370b8482850161358f565b604083015250610100613720848285016135b6565b60608301525092915050565b60008135905061373b81614a41565b92915050565b60008151905061375081614a58565b92915050565b60006060828403121561376857600080fd5b600061377684828501613604565b91505092915050565b60006020828403121561379157600080fd5b600061379f8482850161362b565b91505092915050565b6000602082840312156137ba57600080fd5b60006137c88482850161372c565b91505092915050565b6000806000806102c085870312156137e857600080fd5b60006137f68782880161372c565b945050602061380787828801613571565b935050606061381887828801613571565b92505060a061382987828801613640565b91505092959194509250565b6000806101a0838503121561384957600080fd5b60006138578582860161372c565b9250506020613868858286016136b6565b9150509250929050565b60008060006060848603121561388757600080fd5b60006138958682870161372c565b93505060206138a68682870161372c565b92505060406138b78682870161372c565b9150509250925092565b60006138cd8383613a46565b60408301905092915050565b60006138e58383613b4b565b6101008301905092915050565b60006138fe8383613ba2565b6101008301905092915050565b60006139178383613e91565b60208301905092915050565b61392c816145b0565b82525050565b61393b816143d8565b6139458184614498565b925061395082614388565b8060005b8381101561398157815161396887826138c1565b965061397383614430565b925050600181019050613954565b505050505050565b613992816143e3565b61399c81846144a3565b92506139a782614392565b8060005b838110156139d85781516139bf87826138d9565b96506139ca8361443d565b9250506001810190506139ab565b505050505050565b6139e9816143ee565b6139f381846144a3565b92506139fe8261439c565b8060005b83811015613a2e5781613a1587826138f2565b9650613a208361444a565b925050600181019050613a02565b505050505050565b613a426040838361464e565b5050565b613a4f816143f9565b613a5981846144ae565b9250613a64826143a6565b8060005b83811015613a95578151613a7c878261390b565b9650613a8783614457565b925050600181019050613a68565b505050505050565b613aa6816143f9565b613ab081846144b9565b9250613abb826143a6565b8060005b83811015613aec578151613ad3878261390b565b9650613ade83614457565b925050600181019050613abf565b505050505050565b613afd81614404565b613b0781846144c4565b9250613b12826143b0565b8060005b83811015613b43578151613b2a878261390b565b9650613b3583614464565b925050600181019050613b16565b505050505050565b613b548161440f565b613b5e81846144cf565b9250613b69826143ba565b8060005b83811015613b9a578151613b81878261390b565b9650613b8c83614471565b925050600181019050613b6d565b505050505050565b613bab8161441a565b613bb581846144cf565b9250613bc0826143c4565b8060005b83811015613bf857613bd58261477e565b613bdf878261390b565b9650613bea8361447e565b925050600181019050613bc4565b505050505050565b613c0981614425565b613c1381846144da565b9250613c1e826143ce565b8060005b83811015613c4f578151613c36878261390b565b9650613c418361448b565b925050600181019050613c22565b505050505050565b613c60816145c2565b82525050565b613c6f81614618565b82525050565b613c7e8161463c565b82525050565b6000613c916010836144e5565b9150613c9c826147af565b602082019050919050565b6000613cb4600e836144e5565b9150613cbf826147d8565b602082019050919050565b6000613cd76011836144e5565b9150613ce282614801565b602082019050919050565b6000613cfa6010836144e5565b9150613d058261482a565b602082019050919050565b6000613d1d6015836144e5565b9150613d2882614853565b602082019050919050565b6000613d40600c836144e5565b9150613d4b8261487c565b602082019050919050565b6000613d636019836144e5565b9150613d6e826148a5565b602082019050919050565b6000613d866010836144e5565b9150613d91826148ce565b602082019050919050565b6000613da9600f836144e5565b9150613db4826148f7565b602082019050919050565b6000613dcc600b836144e5565b9150613dd782614920565b602082019050919050565b6000613def6009836144e5565b9150613dfa82614949565b602082019050919050565b6000613e126012836144e5565b9150613e1d82614972565b602082019050919050565b6000613e356013836144e5565b9150613e408261499b565b602082019050919050565b6000613e58600e836144e5565b9150613e63826149c4565b602082019050919050565b6000613e7b6009836144e5565b9150613e86826149ed565b602082019050919050565b613e9a81614601565b82525050565b613ea981614601565b82525050565b6000602082019050613ec46000830184613923565b92915050565b600060e082019050613edf600083018a613923565b613eec6020830189613923565b613ef96040830188613ea0565b613f066060830187613ea0565b613f136080830186613ea0565b613f2060a0830185613c57565b613f2d60c0830184613c75565b98975050505050505050565b600061080082019050613f4f6000830184613989565b92915050565b600061088082019050613f6b60008301866139e0565b613f79610800830185613a36565b613f87610840830184613a36565b949350505050565b60006108a082019050613fa560008301876139e0565b613fb3610800830186613a36565b613fc1610840830185613a36565b613fcf610880830184613c57565b95945050505050565b600061018082019050613fee6000830187613a9d565b613ffb6040830186613932565b61400860c0830185613a9d565b614016610100830184613af4565b95945050505050565b6000610220820190506140356000830187613a9d565b6140426040830186613932565b61404f60c0830185613a9d565b61405d610100830184613c00565b95945050505050565b600060208201905061407b6000830184613c66565b92915050565b6000602082019050818103600083015261409a81613c84565b9050919050565b600060208201905081810360008301526140ba81613ca7565b9050919050565b600060208201905081810360008301526140da81613cca565b9050919050565b600060208201905081810360008301526140fa81613ced565b9050919050565b6000602082019050818103600083015261411a81613d10565b9050919050565b6000602082019050818103600083015261413a81613d33565b9050919050565b6000602082019050818103600083015261415a81613d56565b9050919050565b6000602082019050818103600083015261417a81613d79565b9050919050565b6000602082019050818103600083015261419a81613d9c565b9050919050565b600060208201905081810360008301526141ba81613dbf565b9050919050565b600060208201905081810360008301526141da81613de2565b9050919050565b600060208201905081810360008301526141fa81613e05565b9050919050565b6000602082019050818103600083015261421a81613e28565b9050919050565b6000602082019050818103600083015261423a81613e4b565b9050919050565b6000602082019050818103600083015261425a81613e6e565b9050919050565b60006020820190506142766000830184613ea0565b92915050565b60006040820190506142916000830185613ea0565b61429e6020830184613c75565b9392505050565b60006142af6142c0565b90506142bb8282614677565b919050565b6000604051905090565b600067ffffffffffffffff8211156142e5576142e461474f565b5b602082029050919050565b600067ffffffffffffffff82111561430b5761430a61474f565b5b602082029050919050565b600067ffffffffffffffff8211156143315761433061474f565b5b602082029050919050565b600067ffffffffffffffff8211156143575761435661474f565b5b602082029050919050565b600067ffffffffffffffff82111561437d5761437c61474f565b5b602082029050919050565b6000819050919050565b6000819050919050565b6000819050919050565b6000819050919050565b6000819050919050565b6000819050919050565b6000819050919050565b6000819050919050565b600060029050919050565b600060089050919050565b600060089050919050565b600060029050919050565b600060049050919050565b600060089050919050565b600060089050919050565b600060099050919050565b6000602082019050919050565b6000602082019050919050565b6000600882019050919050565b6000602082019050919050565b6000602082019050919050565b6000602082019050919050565b6000600182019050919050565b6000602082019050919050565b600081905092915050565b600081905092915050565b600081905092915050565b600081905092915050565b600081905092915050565b600081905092915050565b600081905092915050565b600082825260208201905092915050565b600061450182614601565b915061450c83614601565b9250827fffffffffffffffffffffffffffffffffffffffffffffffffffffffffffffffff03821115614541576145406146f1565b5b828201905092915050565b600061455782614601565b915061456283614601565b9250817fffffffffffffffffffffffffffffffffffffffffffffffffffffffffffffffff048311821515161561459b5761459a6146f1565b5b828202905092915050565b6000819050919050565b60006145bb826145e1565b9050919050565b60008115159050919050565b60008190506145dc82614a16565b919050565b600073ffffffffffffffffffffffffffffffffffffffff82169050919050565b6000819050919050565b600060ff82169050919050565b60006146238261462a565b9050919050565b6000614635826145e1565b9050919050565b6000614647826145ce565b9050919050565b82818337600083830152505050565b600061467061466b836147a2565b6145a6565b9050919050565b61468082614791565b810181811067ffffffffffffffff8211171561469f5761469e61474f565b5b80604052505050565b60006146b382614601565b91507fffffffffffffffffffffffffffffffffffffffffffffffffffffffffffffffff8214156146e6576146e56146f1565b5b600182019050919050565b7f4e487b7100000000000000000000000000000000000000000000000000000000600052601160045260246000fd5b7f4e487b7100000000000000000000000000000000000000000000000000000000600052602160045260246000fd5b7f4e487b7100000000000000000000000000000000000000000000000000000000600052604160045260246000fd5b600061478a825461465d565b9050919050565b6000601f19601f8301169050919050565b60008160001c9050919050565b7f503120616c726561647920736574757000000000000000000000000000000000600082015250565b7f497427732050312773207475726e000000000000000000000000000000000000600082015250565b7f696478206f75742d6f662d626f756e6473000000000000000000000000000000600082015250565b7f503220616c726561647920736574757000000000000000000000000000000000600082015250565b7f50726f6f662061737365727473206661696c7572650000000000000000000000600082015250565b7f57726f6e672070686173652e0000000000000000000000000000000000000000600082015250565b7f4e6f74207265676973746572656420666f722067616d65496400000000000000600082015250565b7f556e6578706563746564206572726f7200000000000000000000000000000000600082015250565b7f57726f6e6720706965636546696c650000000000000000000000000000000000600082015250565b7f416c726561647920726567000000000000000000000000000000000000000000600082015250565b7f47616d652066756c6c0000000000000000000000000000000000000000000000600082015250565b7f57726f6e67207265717569726564486173680000000000000000000000000000600082015250565b7f57726f6e6720616c6c6f77656450696563657300000000000000000000000000600082015250565b7f497427732050322773207475726e000000000000000000000000000000000000600082015250565b7f4261642070726f6f660000000000000000000000000000000000000000000000600082015250565b60048110614a2757614a26614720565b5b50565b614a33816145c2565b8114614a3e57600080fd5b50565b614a4a81614601565b8114614a5557600080fd5b50565b614a618161460b565b8114614a6c57600080fd5b5056fea2646970667358221220bc04a6fc936ab811dc4c2eba1d2011d39096a90f61085a66886087a30cda37ab64736f6c63430008040033",
  "linkReferences": {},
  "deployedLinkReferences": {}
}