{
  "_format": "hh-sol-artifact-1",
  "contractName": "ZkFischer",
  "sourceName": "contracts/ZkFischer.sol",
  "abi": [
    {
      "inputs": [
        {
          "internalType": "address",
          "name": "_placementVerifier",
          "type": "address"
        },
        {
          "internalType": "address",
          "name": "_moveVerifier",
          "type": "address"
        },
        {
          "internalType": "address",
          "name": "_zkFischerUtilsAddr",
          "type": "address"
        }
      ],
      "stateMutability": "nonpayable",
      "type": "constructor"
    },
    {
      "anonymous": false,
      "inputs": [
        {
          "indexed": true,
          "internalType": "address",
          "name": "winner",
          "type": "address"
        }
      ],
      "name": "GameEnd",
      "type": "event"
    },
    {
      "anonymous": false,
      "inputs": [],
      "name": "Initialize",
      "type": "event"
    },
    {
      "anonymous": false,
      "inputs": [
        {
          "indexed": true,
          "internalType": "address",
          "name": "player",
          "type": "address"
        }
      ],
      "name": "Move",
      "type": "event"
    },
    {
      "anonymous": false,
      "inputs": [
        {
          "indexed": false,
          "internalType": "enum GamePhase",
          "name": "phase",
          "type": "uint8"
        }
      ],
      "name": "PhaseChange",
      "type": "event"
    },
    {
      "anonymous": false,
      "inputs": [
        {
          "indexed": true,
          "internalType": "address",
          "name": "player",
          "type": "address"
        }
      ],
      "name": "Register",
      "type": "event"
    },
    {
      "anonymous": false,
      "inputs": [
        {
          "indexed": true,
          "internalType": "address",
          "name": "player",
          "type": "address"
        }
      ],
      "name": "SetupBoard",
      "type": "event"
    },
    {
      "inputs": [
        {
          "internalType": "uint256",
          "name": "",
          "type": "uint256"
        }
      ],
      "name": "games",
      "outputs": [
        {
          "internalType": "uint256",
          "name": "gameKey",
          "type": "uint256"
        },
        {
          "internalType": "uint256",
          "name": "phasingPlayer",
          "type": "uint256"
        },
        {
          "internalType": "enum GamePhase",
          "name": "phase",
          "type": "uint8"
        }
      ],
      "stateMutability": "view",
      "type": "function"
    },
    {
      "inputs": [
        {
          "internalType": "uint256",
          "name": "gameId",
          "type": "uint256"
        },
        {
          "internalType": "uint256[2]",
          "name": "fromSq",
          "type": "uint256[2]"
        },
        {
          "internalType": "uint256[2]",
          "name": "toSq",
          "type": "uint256[2]"
        },
        {
          "components": [
            {
              "internalType": "uint256[2]",
              "name": "a",
              "type": "uint256[2]"
            },
            {
              "internalType": "uint256[2][2]",
              "name": "b",
              "type": "uint256[2][2]"
            },
            {
              "internalType": "uint256[2]",
              "name": "c",
              "type": "uint256[2]"
            },
            {
              "internalType": "uint256[9]",
              "name": "input",
              "type": "uint256[9]"
            }
          ],
          "internalType": "struct MoveVerifierInput",
          "name": "verifierInput",
          "type": "tuple"
        }
      ],
      "name": "move",
      "outputs": [],
      "stateMutability": "nonpayable",
      "type": "function"
    },
    {
      "inputs": [],
      "name": "moveVerifier",
      "outputs": [
        {
          "internalType": "address",
          "name": "",
          "type": "address"
        }
      ],
      "stateMutability": "view",
      "type": "function"
    },
    {
      "inputs": [],
      "name": "placementVerifier",
      "outputs": [
        {
          "internalType": "address",
          "name": "",
          "type": "address"
        }
      ],
      "stateMutability": "view",
      "type": "function"
    },
    {
      "inputs": [
        {
          "internalType": "uint256",
          "name": "gameId",
          "type": "uint256"
        }
      ],
      "name": "register",
      "outputs": [],
      "stateMutability": "nonpayable",
      "type": "function"
    },
    {
      "inputs": [
        {
          "internalType": "uint256",
          "name": "gameId",
          "type": "uint256"
        },
        {
          "components": [
            {
              "internalType": "uint256[2]",
              "name": "a",
              "type": "uint256[2]"
            },
            {
              "internalType": "uint256[2][2]",
              "name": "b",
              "type": "uint256[2][2]"
            },
            {
              "internalType": "uint256[2]",
              "name": "c",
              "type": "uint256[2]"
            },
            {
              "internalType": "uint256[4]",
              "name": "input",
              "type": "uint256[4]"
            }
          ],
          "internalType": "struct PlacementVerifierInput",
          "name": "verifierInput",
          "type": "tuple"
        }
      ],
      "name": "setupBoard",
      "outputs": [],
      "stateMutability": "nonpayable",
      "type": "function"
    },
    {
      "inputs": [],
      "name": "zkFischerUtils",
      "outputs": [
        {
          "internalType": "contract ZkFischerUtils",
          "name": "",
          "type": "address"
        }
      ],
      "stateMutability": "view",
      "type": "function"
    },
    {
      "inputs": [],
      "name": "zkFischerUtilsAddr",
      "outputs": [
        {
          "internalType": "address",
          "name": "",
          "type": "address"
        }
      ],
      "stateMutability": "view",
      "type": "function"
    }
  ],
  "bytecode": "0x60806040523480156200001157600080fd5b50604051620048183803806200481883398181016040528101906200003791906200017a565b82600260006101000a81548173ffffffffffffffffffffffffffffffffffffffff021916908373ffffffffffffffffffffffffffffffffffffffff16021790555081600360006101000a81548173ffffffffffffffffffffffffffffffffffffffff021916908373ffffffffffffffffffffffffffffffffffffffff160217905550806000806101000a81548173ffffffffffffffffffffffffffffffffffffffff021916908373ffffffffffffffffffffffffffffffffffffffff16021790555060008054906101000a900473ffffffffffffffffffffffffffffffffffffffff16600160006101000a81548173ffffffffffffffffffffffffffffffffffffffff021916908373ffffffffffffffffffffffffffffffffffffffff1602179055505050506200021e565b600081519050620001748162000204565b92915050565b6000806000606084860312156200019057600080fd5b6000620001a08682870162000163565b9350506020620001b38682870162000163565b9250506040620001c68682870162000163565b9150509250925092565b6000620001dd82620001e4565b9050919050565b600073ffffffffffffffffffffffffffffffffffffffff82169050919050565b6200020f81620001d0565b81146200021b57600080fd5b50565b6145ea806200022e6000396000f3fe608060405234801561001057600080fd5b50600436106100885760003560e01c8063d173bf9c1161005b578063d173bf9c14610117578063e693e41b14610135578063e841ab9b14610153578063f207564e1461016f57610088565b80630e21ae251461008d578063117a5b90146100ab57806391b87874146100dd578063c3d375b0146100fb575b600080fd5b61009561018b565b6040516100a29190613b38565b60405180910390f35b6100c560048036038101906100c0919061356a565b6101af565b6040516100d493929190613e20565b60405180910390f35b6100e56101e6565b6040516100f29190613c2a565b60405180910390f35b610115600480360381019061011091906135f7565b61020c565b005b61011f610d58565b60405161012c9190613b38565b60405180910390f35b61013d610d7e565b60405161014a9190613b38565b60405180910390f35b61016d60048036038101906101689190613593565b610da4565b005b6101896004803603810190610184919061356a565b6123a0565b005b60008054906101000a900473ffffffffffffffffffffffffffffffffffffffff1681565b60046020528060005260406000206000915090508060000154908060010154908060860160009054906101000a900460ff16905083565b600160009054906101000a900473ffffffffffffffffffffffffffffffffffffffff1681565b816001806003811115610248577f4e487b7100000000000000000000000000000000000000000000000000000000600052602160045260246000fd5b6004600084815260200190815260200160002060860160009054906101000a900460ff1660038111156102a4577f4e487b7100000000000000000000000000000000000000000000000000000000600052602160045260246000fd5b146102e4576040517f08c379a00000000000000000000000000000000000000000000000000000000081526004016102db90613ce0565b60405180910390fd5b60046000858152602001908152602001600020608201600060028110610333577f4e487b7100000000000000000000000000000000000000000000000000000000600052603260045260246000fd5b0160009054906101000a900473ffffffffffffffffffffffffffffffffffffffff1673ffffffffffffffffffffffffffffffffffffffff163373ffffffffffffffffffffffffffffffffffffffff1614806104295750600460008581526020019081526020016000206082016001600281106103d8577f4e487b7100000000000000000000000000000000000000000000000000000000600052603260045260246000fd5b0160009054906101000a900473ffffffffffffffffffffffffffffffffffffffff1673ffffffffffffffffffffffffffffffffffffffff163373ffffffffffffffffffffffffffffffffffffffff16145b610468576040517f08c379a000000000000000000000000000000000000000000000000000000000815260040161045f90613d00565b60405180910390fd5b600183606001516000600481106104a8577f4e487b7100000000000000000000000000000000000000000000000000000000600052603260045260246000fd5b6020020151146104ed576040517f08c379a00000000000000000000000000000000000000000000000000000000081526004016104e490613cc0565b60405180910390fd5b600260009054906101000a900473ffffffffffffffffffffffffffffffffffffffff1673ffffffffffffffffffffffffffffffffffffffff16635fe8c13b84600001518560200151866040015187606001516040518563ffffffff1660e01b815260040161055e9493929190613b9c565b60206040518083038186803b15801561057657600080fd5b505afa15801561058a573d6000803e3d6000fd5b505050506040513d601f19601f820116820180604052508101906105ae9190613541565b6105ed576040517f08c379a00000000000000000000000000000000000000000000000000000000081526004016105e490613e00565b60405180910390fd5b6004600085815260200190815260200160002060820160006002811061063c577f4e487b7100000000000000000000000000000000000000000000000000000000600052603260045260246000fd5b0160009054906101000a900473ffffffffffffffffffffffffffffffffffffffff1673ffffffffffffffffffffffffffffffffffffffff163373ffffffffffffffffffffffffffffffffffffffff1614156108d7576000600460008681526020019081526020016000206084016000600281106106e2577f4e487b7100000000000000000000000000000000000000000000000000000000600052603260045260246000fd5b015414610724576040517f08c379a000000000000000000000000000000000000000000000000000000000815260040161071b90613c60565b60405180910390fd5b8260600151600160048110610762577f4e487b7100000000000000000000000000000000000000000000000000000000600052603260045260246000fd5b6020020151600460008681526020019081526020016000206084016000600281106107b6577f4e487b7100000000000000000000000000000000000000000000000000000000600052603260045260246000fd5b018190555060056004600086815260200190815260200160002060420160076008811061080c577f4e487b7100000000000000000000000000000000000000000000000000000000600052603260045260246000fd5b60080201846060015160026004811061084e577f4e487b7100000000000000000000000000000000000000000000000000000000600052603260045260246000fd5b60200201516008811061088a577f4e487b7100000000000000000000000000000000000000000000000000000000600052603260045260246000fd5b01819055503373ffffffffffffffffffffffffffffffffffffffff167faf4d9c446642b35d7ee8febf856e561aab055caad19b4fcf9e632edca55c6c9f60405160405180910390a2610bfd565b60046000858152602001908152602001600020608201600160028110610926577f4e487b7100000000000000000000000000000000000000000000000000000000600052603260045260246000fd5b0160009054906101000a900473ffffffffffffffffffffffffffffffffffffffff1673ffffffffffffffffffffffffffffffffffffffff163373ffffffffffffffffffffffffffffffffffffffff161415610bc1576000600460008681526020019081526020016000206084016001600281106109cc577f4e487b7100000000000000000000000000000000000000000000000000000000600052603260045260246000fd5b015414610a0e576040517f08c379a0000000000000000000000000000000000000000000000000000000008152600401610a0590613ca0565b60405180910390fd5b8260600151600160048110610a4c577f4e487b7100000000000000000000000000000000000000000000000000000000600052603260045260246000fd5b602002015160046000868152602001908152602001600020608401600160028110610aa0577f4e487b7100000000000000000000000000000000000000000000000000000000600052603260045260246000fd5b0181905550600f60046000868152602001908152602001600020604201600060088110610af6577f4e487b7100000000000000000000000000000000000000000000000000000000600052603260045260246000fd5b600802018460600151600260048110610b38577f4e487b7100000000000000000000000000000000000000000000000000000000600052603260045260246000fd5b602002015160088110610b74577f4e487b7100000000000000000000000000000000000000000000000000000000600052603260045260246000fd5b01819055503373ffffffffffffffffffffffffffffffffffffffff167faf4d9c446642b35d7ee8febf856e561aab055caad19b4fcf9e632edca55c6c9f60405160405180910390a2610bfc565b6040517f08c379a0000000000000000000000000000000000000000000000000000000008152600401610bf390613d20565b60405180910390fd5b5b600060046000868152602001908152602001600020608401600060028110610c4e577f4e487b7100000000000000000000000000000000000000000000000000000000600052603260045260246000fd5b015414158015610caf5750600060046000868152602001908152602001600020608401600160028110610caa577f4e487b7100000000000000000000000000000000000000000000000000000000600052603260045260246000fd5b015414155b15610d525760026004600086815260200190815260200160002060860160006101000a81548160ff02191690836003811115610d14577f4e487b7100000000000000000000000000000000000000000000000000000000600052602160045260246000fd5b02179055507fed606d544c2202d032d2626c390923e6f260ca5d89625bba0cfe70d2bdda4e8f6002604051610d499190613c45565b60405180910390a15b50505050565b600360009054906101000a900473ffffffffffffffffffffffffffffffffffffffff1681565b600260009054906101000a900473ffffffffffffffffffffffffffffffffffffffff1681565b836002806003811115610de0577f4e487b7100000000000000000000000000000000000000000000000000000000600052602160045260246000fd5b6004600084815260200190815260200160002060860160009054906101000a900460ff166003811115610e3c577f4e487b7100000000000000000000000000000000000000000000000000000000600052602160045260246000fd5b14610e7c576040517f08c379a0000000000000000000000000000000000000000000000000000000008152600401610e7390613ce0565b60405180910390fd5b60008060046000898152602001908152602001600020608201600060028110610ece577f4e487b7100000000000000000000000000000000000000000000000000000000600052603260045260246000fd5b0160009054906101000a900473ffffffffffffffffffffffffffffffffffffffff1673ffffffffffffffffffffffffffffffffffffffff163373ffffffffffffffffffffffffffffffffffffffff161415610fd8576000600460008a81526020019081526020016000206001015414610f7c576040517f08c379a0000000000000000000000000000000000000000000000000000000008152600401610f7390613de0565b60405180910390fd5b60046000898152602001908152602001600020608401600060028110610fcb577f4e487b7100000000000000000000000000000000000000000000000000000000600052603260045260246000fd5b015491506001905061116d565b60046000898152602001908152602001600020608201600160028110611027577f4e487b7100000000000000000000000000000000000000000000000000000000600052603260045260246000fd5b0160009054906101000a900473ffffffffffffffffffffffffffffffffffffffff1673ffffffffffffffffffffffffffffffffffffffff163373ffffffffffffffffffffffffffffffffffffffff161415611131576001600460008a815260200190815260200160002060010154146110d5576040517f08c379a00000000000000000000000000000000000000000000000000000000081526004016110cc90613c80565b60405180910390fd5b60046000898152602001908152602001600020608401600160028110611124577f4e487b7100000000000000000000000000000000000000000000000000000000600052603260045260246000fd5b015491506000905061116c565b6040517f08c379a000000000000000000000000000000000000000000000000000000000815260040161116390613d00565b60405180910390fd5b5b6000600460008a8152602001908152602001600020604201886000600281106111bf577f4e487b7100000000000000000000000000000000000000000000000000000000600052603260045260246000fd5b6020020135600881106111fb577f4e487b7100000000000000000000000000000000000000000000000000000000600052603260045260246000fd5b6008020188600160028110611239577f4e487b7100000000000000000000000000000000000000000000000000000000600052603260045260246000fd5b602002013560088110611275577f4e487b7100000000000000000000000000000000000000000000000000000000600052603260045260246000fd5b015490506009811415801561128b575060138114155b1561133b57600160009054906101000a900473ffffffffffffffffffffffffffffffffffffffff1673ffffffffffffffffffffffffffffffffffffffff166326d1386f600460008c81526020019081526020016000206042018a8a866040518563ffffffff1660e01b81526004016113069493929190613b53565b60006040518083038186803b15801561131e57600080fd5b505afa158015611332573d6000803e3d6000fd5b505050506119fc565b611343613012565b600160009054906101000a900473ffffffffffffffffffffffffffffffffffffffff1673ffffffffffffffffffffffffffffffffffffffff1663c55b92eb600460008d81526020019081526020016000206042018b8b876040518563ffffffff1660e01b81526004016113b99493929190613b53565b60606040518083038186803b1580156113d157600080fd5b505afa1580156113e5573d6000803e3d6000fd5b505050506040513d601f19601f820116820180604052508101906114099190613518565b90506000876060015160036009811061144b577f4e487b7100000000000000000000000000000000000000000000000000000000600052603260045260246000fd5b602002015160028960600151600260098110611490577f4e487b7100000000000000000000000000000000000000000000000000000000600052603260045260246000fd5b602002015161149f91906140ba565b60048a606001516001600981106114df577f4e487b7100000000000000000000000000000000000000000000000000000000600052603260045260246000fd5b60200201516114ee91906140ba565b6114f89190614064565b6115029190614064565b905061150c613012565b60005b60038110156115c357896060015181600561152a9190614064565b60098110611561577f4e487b7100000000000000000000000000000000000000000000000000000000600052603260045260246000fd5b602002015182826003811061159f577f4e487b7100000000000000000000000000000000000000000000000000000000600052603260045260246000fd5b602002019060ff16908160ff168152505080806115bb90614216565b91505061150f565b5060018960600151600060098110611604577f4e487b7100000000000000000000000000000000000000000000000000000000600052603260045260246000fd5b602002015114611649576040517f08c379a000000000000000000000000000000000000000000000000000000000815260040161164090613cc0565b60405180910390fd5b600460008d81526020019081526020016000206002018b600060028110611699577f4e487b7100000000000000000000000000000000000000000000000000000000600052603260045260246000fd5b6020020135600881106116d5577f4e487b7100000000000000000000000000000000000000000000000000000000600052603260045260246000fd5b600802018b600160028110611713577f4e487b7100000000000000000000000000000000000000000000000000000000600052603260045260246000fd5b60200201356008811061174f577f4e487b7100000000000000000000000000000000000000000000000000000000600052603260045260246000fd5b01548214611792576040517f08c379a000000000000000000000000000000000000000000000000000000000815260040161178990613d40565b60405180910390fd5b8589606001516004600981106117d1577f4e487b7100000000000000000000000000000000000000000000000000000000600052603260045260246000fd5b602002015114611816576040517f08c379a000000000000000000000000000000000000000000000000000000000815260040161180d90613da0565b60405180910390fd5b60005b60038110156118f75783816003811061185b577f4e487b7100000000000000000000000000000000000000000000000000000000600052603260045260246000fd5b602002015160ff1682826003811061189c577f4e487b7100000000000000000000000000000000000000000000000000000000600052603260045260246000fd5b602002015160ff16146118e4576040517f08c379a00000000000000000000000000000000000000000000000000000000081526004016118db90613dc0565b60405180910390fd5b80806118ef90614216565b915050611819565b50600360009054906101000a900473ffffffffffffffffffffffffffffffffffffffff1673ffffffffffffffffffffffffffffffffffffffff1663c542c93b8a600001518b602001518c604001518d606001516040518563ffffffff1660e01b81526004016119699493929190613be3565b60206040518083038186803b15801561198157600080fd5b505afa158015611995573d6000803e3d6000fd5b505050506040513d601f19601f820116820180604052508101906119b99190613541565b6119f8576040517f08c379a00000000000000000000000000000000000000000000000000000000081526004016119ef90613e00565b60405180910390fd5b5050505b60006005600460008c815260200190815260200160002060420189600060028110611a50577f4e487b7100000000000000000000000000000000000000000000000000000000600052603260045260246000fd5b602002013560088110611a8c577f4e487b7100000000000000000000000000000000000000000000000000000000600052603260045260246000fd5b6008020189600160028110611aca577f4e487b7100000000000000000000000000000000000000000000000000000000600052603260045260246000fd5b602002013560088110611b06577f4e487b7100000000000000000000000000000000000000000000000000000000600052603260045260246000fd5b01541480611c1b5750600f600460008c815260200190815260200160002060420189600060028110611b61577f4e487b7100000000000000000000000000000000000000000000000000000000600052603260045260246000fd5b602002013560088110611b9d577f4e487b7100000000000000000000000000000000000000000000000000000000600052603260045260246000fd5b6008020189600160028110611bdb577f4e487b7100000000000000000000000000000000000000000000000000000000600052603260045260246000fd5b602002013560088110611c17577f4e487b7100000000000000000000000000000000000000000000000000000000600052603260045260246000fd5b0154145b9050600460008b815260200190815260200160002060420189600060028110611c6d577f4e487b7100000000000000000000000000000000000000000000000000000000600052603260045260246000fd5b602002013560088110611ca9577f4e487b7100000000000000000000000000000000000000000000000000000000600052603260045260246000fd5b6008020189600160028110611ce7577f4e487b7100000000000000000000000000000000000000000000000000000000600052603260045260246000fd5b602002013560088110611d23577f4e487b7100000000000000000000000000000000000000000000000000000000600052603260045260246000fd5b0154600460008c815260200190815260200160002060420189600060028110611d75577f4e487b7100000000000000000000000000000000000000000000000000000000600052603260045260246000fd5b602002013560088110611db1577f4e487b7100000000000000000000000000000000000000000000000000000000600052603260045260246000fd5b6008020189600160028110611def577f4e487b7100000000000000000000000000000000000000000000000000000000600052603260045260246000fd5b602002013560088110611e2b577f4e487b7100000000000000000000000000000000000000000000000000000000600052603260045260246000fd5b01819055506000600460008c81526020019081526020016000206042018a600060028110611e82577f4e487b7100000000000000000000000000000000000000000000000000000000600052603260045260246000fd5b602002013560088110611ebe577f4e487b7100000000000000000000000000000000000000000000000000000000600052603260045260246000fd5b600802018a600160028110611efc577f4e487b7100000000000000000000000000000000000000000000000000000000600052603260045260246000fd5b602002013560088110611f38577f4e487b7100000000000000000000000000000000000000000000000000000000600052603260045260246000fd5b0181905550600460008b815260200190815260200160002060020189600060028110611f8d577f4e487b7100000000000000000000000000000000000000000000000000000000600052603260045260246000fd5b602002013560088110611fc9577f4e487b7100000000000000000000000000000000000000000000000000000000600052603260045260246000fd5b6008020189600160028110612007577f4e487b7100000000000000000000000000000000000000000000000000000000600052603260045260246000fd5b602002013560088110612043577f4e487b7100000000000000000000000000000000000000000000000000000000600052603260045260246000fd5b0154600460008c815260200190815260200160002060020189600060028110612095577f4e487b7100000000000000000000000000000000000000000000000000000000600052603260045260246000fd5b6020020135600881106120d1577f4e487b7100000000000000000000000000000000000000000000000000000000600052603260045260246000fd5b600802018960016002811061210f577f4e487b7100000000000000000000000000000000000000000000000000000000600052603260045260246000fd5b60200201356008811061214b577f4e487b7100000000000000000000000000000000000000000000000000000000600052603260045260246000fd5b01819055506000600460008c81526020019081526020016000206002018a6000600281106121a2577f4e487b7100000000000000000000000000000000000000000000000000000000600052603260045260246000fd5b6020020135600881106121de577f4e487b7100000000000000000000000000000000000000000000000000000000600052603260045260246000fd5b600802018a60016002811061221c577f4e487b7100000000000000000000000000000000000000000000000000000000600052603260045260246000fd5b602002013560088110612258577f4e487b7100000000000000000000000000000000000000000000000000000000600052603260045260246000fd5b01819055506000600460008c81526020019081526020016000206001015414612282576000612285565b60015b60ff16600460008c8152602001908152602001600020600101819055503373ffffffffffffffffffffffffffffffffffffffff167f2faa250a40ee7ae6e526f286912b032fc352944ea55943cf3a6c38c42ca364d860405160405180910390a28015612394576003600460008c815260200190815260200160002060860160006101000a81548160ff0219169083600381111561234b577f4e487b7100000000000000000000000000000000000000000000000000000000600052602160045260246000fd5b02179055503373ffffffffffffffffffffffffffffffffffffffff167fb67620889a46b45c8fb14b148cd35a53f19434107ee6fae801472351c39a545d60405160405180910390a25b50505050505050505050565b8060008060038111156123dc577f4e487b7100000000000000000000000000000000000000000000000000000000600052602160045260246000fd5b6004600084815260200190815260200160002060860160009054906101000a900460ff166003811115612438577f4e487b7100000000000000000000000000000000000000000000000000000000600052602160045260246000fd5b14612478576040517f08c379a000000000000000000000000000000000000000000000000000000000815260040161246f90613ce0565b60405180910390fd5b600073ffffffffffffffffffffffffffffffffffffffff16600460008581526020019081526020016000206082016000600281106124df577f4e487b7100000000000000000000000000000000000000000000000000000000600052603260045260246000fd5b0160009054906101000a900473ffffffffffffffffffffffffffffffffffffffff1673ffffffffffffffffffffffffffffffffffffffff1614156125fd5761252683612930565b3360046000858152602001908152602001600020608201600060028110612576577f4e487b7100000000000000000000000000000000000000000000000000000000600052603260045260246000fd5b0160006101000a81548173ffffffffffffffffffffffffffffffffffffffff021916908373ffffffffffffffffffffffffffffffffffffffff1602179055503373ffffffffffffffffffffffffffffffffffffffff167feeda149c76076b34d4b9d8896c2f7efc0d33d1c7b53ea3c5db490d64613f603a60405160405180910390a261292b565b3373ffffffffffffffffffffffffffffffffffffffff1660046000858152602001908152602001600020608201600060028110612663577f4e487b7100000000000000000000000000000000000000000000000000000000600052603260045260246000fd5b0160009054906101000a900473ffffffffffffffffffffffffffffffffffffffff1673ffffffffffffffffffffffffffffffffffffffff1614156126dc576040517f08c379a00000000000000000000000000000000000000000000000000000000081526004016126d390613d60565b60405180910390fd5b600073ffffffffffffffffffffffffffffffffffffffff1660046000858152602001908152602001600020608201600160028110612743577f4e487b7100000000000000000000000000000000000000000000000000000000600052603260045260246000fd5b0160009054906101000a900473ffffffffffffffffffffffffffffffffffffffff1673ffffffffffffffffffffffffffffffffffffffff16146127bb576040517f08c379a00000000000000000000000000000000000000000000000000000000081526004016127b290613d80565b60405180910390fd5b336004600085815260200190815260200160002060820160016002811061280b577f4e487b7100000000000000000000000000000000000000000000000000000000600052603260045260246000fd5b0160006101000a81548173ffffffffffffffffffffffffffffffffffffffff021916908373ffffffffffffffffffffffffffffffffffffffff1602179055503373ffffffffffffffffffffffffffffffffffffffff167feeda149c76076b34d4b9d8896c2f7efc0d33d1c7b53ea3c5db490d64613f603a60405160405180910390a260016004600085815260200190815260200160002060860160006101000a81548160ff021916908360038111156128ed577f4e487b7100000000000000000000000000000000000000000000000000000000600052602160045260246000fd5b02179055507fed606d544c2202d032d2626c390923e6f260ca5d89625bba0cfe70d2bdda4e8f60016040516129229190613c45565b60405180910390a15b505050565b604051806101000160405280604051806101000160405280600060ff168152602001600160ff168152602001600260ff168152602001600360ff168152602001600460ff168152602001600560ff168152602001600660ff168152602001600760ff168152508152602001604051806101000160405280600060ff168152602001600160ff168152602001600260ff168152602001600360ff168152602001600460ff168152602001600560ff168152602001600660ff168152602001600760ff168152508152602001604051806101000160405280606360ff168152602001606360ff168152602001606360ff168152602001606360ff168152602001606360ff168152602001606360ff168152602001606360ff168152602001606360ff168152508152602001604051806101000160405280606360ff168152602001606360ff168152602001606360ff168152602001606360ff168152602001606360ff168152602001606360ff168152602001606360ff168152602001606360ff168152508152602001604051806101000160405280606360ff168152602001606360ff168152602001606360ff168152602001606360ff168152602001606360ff168152602001606360ff168152602001606360ff168152602001606360ff168152508152602001604051806101000160405280606360ff168152602001606360ff168152602001606360ff168152602001606360ff168152602001606360ff168152602001606360ff168152602001606360ff168152602001606360ff168152508152602001604051806101000160405280600060ff168152602001600160ff168152602001600260ff168152602001600360ff168152602001600460ff168152602001600560ff168152602001600660ff168152602001600760ff168152508152602001604051806101000160405280600060ff168152602001600160ff168152602001600260ff168152602001600360ff168152602001600460ff168152602001600560ff168152602001600660ff168152602001600760ff1681525081525060046000838152602001908152602001600020600201906008612c56929190613034565b50604051806101000160405280604051806101000160405280601360ff168152602001601360ff168152602001601360ff168152602001601360ff168152602001601360ff168152602001601360ff168152602001601360ff168152602001601360ff168152508152602001604051806101000160405280601060ff168152602001601060ff168152602001601060ff168152602001601060ff168152602001601060ff168152602001601060ff168152602001601060ff168152602001601060ff168152508152602001604051806101000160405280600060ff168152602001600060ff168152602001600060ff168152602001600060ff168152602001600060ff168152602001600060ff168152602001600060ff168152602001600060ff168152508152602001604051806101000160405280600060ff168152602001600060ff168152602001600060ff168152602001600060ff168152602001600060ff168152602001600060ff168152602001600060ff168152602001600060ff168152508152602001604051806101000160405280600060ff168152602001600060ff168152602001600060ff168152602001600060ff168152602001600060ff168152602001600060ff168152602001600060ff168152602001600060ff168152508152602001604051806101000160405280600060ff168152602001600060ff168152602001600060ff168152602001600060ff168152602001600060ff168152602001600060ff168152602001600060ff168152602001600060ff168152508152602001604051806101000160405280600660ff168152602001600660ff168152602001600660ff168152602001600660ff168152602001600660ff168152602001600660ff168152602001600660ff168152602001600660ff168152508152602001604051806101000160405280600960ff168152602001600960ff168152602001600960ff168152602001600960ff168152602001600960ff168152602001600960ff168152602001600960ff168152602001600960ff1681525081525060046000838152602001908152602001600020604201906008612f7d929190613034565b5060006004600083815260200190815260200160002060860160006101000a81548160ff02191690836003811115612fde577f4e487b7100000000000000000000000000000000000000000000000000000000600052602160045260246000fd5b02179055507f80f860092ed8101278311dd6b10dda4920a40ea5dfcbacfe724e2accfaf63efc60405160405180910390a150565b6040518060600160405280600390602082028036833780820191505090505090565b82600880028101928215613073579160200282015b8281111561307257825182906008613062929190613084565b5091602001919060080190613049565b5b50905061308091906130c9565b5090565b82600881019282156130b8579160200282015b828111156130b7578251829060ff16905591602001919060010190613097565b5b5090506130c591906130ed565b5090565b5b808211156130e957600081816130e0919061310a565b506008016130ca565b5090565b5b808211156131065760008160009055506001016130ee565b5090565b50806008019061311a91906130ed565b50565b600061313061312b84613e7c565b613e57565b9050808285604086028201111561314657600080fd5b60005b85811015613176578161315c8882613351565b845260208401935060408301925050600181019050613149565b5050509392505050565b600061319361318e84613ea2565b613e57565b905080828560208602820111156131a957600080fd5b60005b858110156131d957816131bf88826134ee565b8452602084019350602083019250506001810190506131ac565b5050509392505050565b60006131f66131f184613ec8565b613e57565b9050808285602086028201111561320c57600080fd5b60005b8581101561323c578161322288826134ee565b84526020840193506020830192505060018101905061320f565b5050509392505050565b600061325961325484613eee565b613e57565b9050808285602086028201111561326f57600080fd5b60005b8581101561329f578161328588826134ee565b845260208401935060208301925050600181019050613272565b5050509392505050565b60006132bc6132b784613f14565b613e57565b905080828560208602820111156132d257600080fd5b60005b8581101561330257816132e88882613503565b8452602084019350602083019250506001810190506132d5565b5050509392505050565b600082601f83011261331d57600080fd5b600261332a84828561311d565b91505092915050565b60008190508260206002028201111561334b57600080fd5b92915050565b600082601f83011261336257600080fd5b600261336f848285613180565b91505092915050565b600082601f83011261338957600080fd5b60046133968482856131e3565b91505092915050565b600082601f8301126133b057600080fd5b60096133bd848285613246565b91505092915050565b600082601f8301126133d757600080fd5b60036133e48482856132a9565b91505092915050565b6000815190506133fc8161456f565b92915050565b6000610220828403121561341557600080fd5b61341f6080613e57565b9050600061342f84828501613351565b60008301525060406134438482850161330c565b60208301525060c061345784828501613351565b60408301525061010061346c8482850161339f565b60608301525092915050565b6000610180828403121561348b57600080fd5b6134956080613e57565b905060006134a584828501613351565b60008301525060406134b98482850161330c565b60208301525060c06134cd84828501613351565b6040830152506101006134e284828501613378565b60608301525092915050565b6000813590506134fd81614586565b92915050565b6000815190506135128161459d565b92915050565b60006060828403121561352a57600080fd5b6000613538848285016133c6565b91505092915050565b60006020828403121561355357600080fd5b6000613561848285016133ed565b91505092915050565b60006020828403121561357c57600080fd5b600061358a848285016134ee565b91505092915050565b6000806000806102c085870312156135aa57600080fd5b60006135b8878288016134ee565b94505060206135c987828801613333565b93505060606135da87828801613333565b92505060a06135eb87828801613402565b91505092959194509250565b6000806101a0838503121561360b57600080fd5b6000613619858286016134ee565b925050602061362a85828601613478565b9150509250929050565b60006136408383613749565b60408301905092915050565b6000613658838361384e565b6101008301905092915050565b60006136718383613b1a565b60208301905092915050565b6136868161411e565b82525050565b61369581613f76565b61369f8184614006565b92506136aa82613f3a565b8060005b838110156136db5781516136c28782613634565b96506136cd83613fb8565b9250506001810190506136ae565b505050505050565b6136ec81613f81565b6136f68184614011565b925061370182613f44565b8060005b838110156137315781613718878261364c565b965061372383613fc5565b925050600181019050613705565b505050505050565b613745604083836141bc565b5050565b61375281613f8c565b61375c818461401c565b925061376782613f4e565b8060005b8381101561379857815161377f8782613665565b965061378a83613fd2565b92505060018101905061376b565b505050505050565b6137a981613f8c565b6137b38184614027565b92506137be82613f4e565b8060005b838110156137ef5781516137d68782613665565b96506137e183613fd2565b9250506001810190506137c2565b505050505050565b61380081613f97565b61380a8184614032565b925061381582613f58565b8060005b8381101561384657815161382d8782613665565b965061383883613fdf565b925050600181019050613819565b505050505050565b61385781613fa2565b613861818461403d565b925061386c82613f62565b8060005b838110156138a457613881826142ec565b61388b8782613665565b965061389683613fec565b925050600181019050613870565b505050505050565b6138b581613fad565b6138bf8184614048565b92506138ca82613f6c565b8060005b838110156138fb5781516138e28782613665565b96506138ed83613ff9565b9250506001810190506138ce565b505050505050565b61390c81614130565b82525050565b61391b81614186565b82525050565b61392a816141aa565b82525050565b600061393d601083614053565b91506139488261431d565b602082019050919050565b6000613960600e83614053565b915061396b82614346565b602082019050919050565b6000613983601083614053565b915061398e8261436f565b602082019050919050565b60006139a6601583614053565b91506139b182614398565b602082019050919050565b60006139c9600c83614053565b91506139d4826143c1565b602082019050919050565b60006139ec601983614053565b91506139f7826143ea565b602082019050919050565b6000613a0f601083614053565b9150613a1a82614413565b602082019050919050565b6000613a32600f83614053565b9150613a3d8261443c565b602082019050919050565b6000613a55600b83614053565b9150613a6082614465565b602082019050919050565b6000613a78600983614053565b9150613a838261448e565b602082019050919050565b6000613a9b601283614053565b9150613aa6826144b7565b602082019050919050565b6000613abe601383614053565b9150613ac9826144e0565b602082019050919050565b6000613ae1600e83614053565b9150613aec82614509565b602082019050919050565b6000613b04600983614053565b9150613b0f82614532565b602082019050919050565b613b238161416f565b82525050565b613b328161416f565b82525050565b6000602082019050613b4d600083018461367d565b92915050565b60006108a082019050613b6960008301876136e3565b613b77610800830186613739565b613b85610840830185613739565b613b93610880830184613903565b95945050505050565b600061018082019050613bb260008301876137a0565b613bbf604083018661368c565b613bcc60c08301856137a0565b613bda6101008301846137f7565b95945050505050565b600061022082019050613bf960008301876137a0565b613c06604083018661368c565b613c1360c08301856137a0565b613c216101008301846138ac565b95945050505050565b6000602082019050613c3f6000830184613912565b92915050565b6000602082019050613c5a6000830184613921565b92915050565b60006020820190508181036000830152613c7981613930565b9050919050565b60006020820190508181036000830152613c9981613953565b9050919050565b60006020820190508181036000830152613cb981613976565b9050919050565b60006020820190508181036000830152613cd981613999565b9050919050565b60006020820190508181036000830152613cf9816139bc565b9050919050565b60006020820190508181036000830152613d19816139df565b9050919050565b60006020820190508181036000830152613d3981613a02565b9050919050565b60006020820190508181036000830152613d5981613a25565b9050919050565b60006020820190508181036000830152613d7981613a48565b9050919050565b60006020820190508181036000830152613d9981613a6b565b9050919050565b60006020820190508181036000830152613db981613a8e565b9050919050565b60006020820190508181036000830152613dd981613ab1565b9050919050565b60006020820190508181036000830152613df981613ad4565b9050919050565b60006020820190508181036000830152613e1981613af7565b9050919050565b6000606082019050613e356000830186613b29565b613e426020830185613b29565b613e4f6040830184613921565b949350505050565b6000613e61613e72565b9050613e6d82826141e5565b919050565b6000604051905090565b600067ffffffffffffffff821115613e9757613e966142bd565b5b602082029050919050565b600067ffffffffffffffff821115613ebd57613ebc6142bd565b5b602082029050919050565b600067ffffffffffffffff821115613ee357613ee26142bd565b5b602082029050919050565b600067ffffffffffffffff821115613f0957613f086142bd565b5b602082029050919050565b600067ffffffffffffffff821115613f2f57613f2e6142bd565b5b602082029050919050565b6000819050919050565b6000819050919050565b6000819050919050565b6000819050919050565b6000819050919050565b6000819050919050565b600060029050919050565b600060089050919050565b600060029050919050565b600060049050919050565b600060089050919050565b600060099050919050565b6000602082019050919050565b6000600882019050919050565b6000602082019050919050565b6000602082019050919050565b6000600182019050919050565b6000602082019050919050565b600081905092915050565b600081905092915050565b600081905092915050565b600081905092915050565b600081905092915050565b600081905092915050565b600081905092915050565b600082825260208201905092915050565b600061406f8261416f565b915061407a8361416f565b9250827fffffffffffffffffffffffffffffffffffffffffffffffffffffffffffffffff038211156140af576140ae61425f565b5b828201905092915050565b60006140c58261416f565b91506140d08361416f565b9250817fffffffffffffffffffffffffffffffffffffffffffffffffffffffffffffffff04831182151516156141095761410861425f565b5b828202905092915050565b6000819050919050565b60006141298261414f565b9050919050565b60008115159050919050565b600081905061414a8261455b565b919050565b600073ffffffffffffffffffffffffffffffffffffffff82169050919050565b6000819050919050565b600060ff82169050919050565b600061419182614198565b9050919050565b60006141a38261414f565b9050919050565b60006141b58261413c565b9050919050565b82818337600083830152505050565b60006141de6141d983614310565b614114565b9050919050565b6141ee826142ff565b810181811067ffffffffffffffff8211171561420d5761420c6142bd565b5b80604052505050565b60006142218261416f565b91507fffffffffffffffffffffffffffffffffffffffffffffffffffffffffffffffff8214156142545761425361425f565b5b600182019050919050565b7f4e487b7100000000000000000000000000000000000000000000000000000000600052601160045260246000fd5b7f4e487b7100000000000000000000000000000000000000000000000000000000600052602160045260246000fd5b7f4e487b7100000000000000000000000000000000000000000000000000000000600052604160045260246000fd5b60006142f882546141cb565b9050919050565b6000601f19601f8301169050919050565b60008160001c9050919050565b7f503120616c726561647920736574757000000000000000000000000000000000600082015250565b7f497427732050312773207475726e000000000000000000000000000000000000600082015250565b7f503220616c726561647920736574757000000000000000000000000000000000600082015250565b7f50726f6f662061737365727473206661696c7572650000000000000000000000600082015250565b7f57726f6e672070686173652e0000000000000000000000000000000000000000600082015250565b7f4e6f74207265676973746572656420666f722067616d65496400000000000000600082015250565b7f556e6578706563746564206572726f7200000000000000000000000000000000600082015250565b7f57726f6e6720706965636546696c650000000000000000000000000000000000600082015250565b7f416c726561647920726567000000000000000000000000000000000000000000600082015250565b7f47616d652066756c6c0000000000000000000000000000000000000000000000600082015250565b7f57726f6e67207265717569726564486173680000000000000000000000000000600082015250565b7f57726f6e6720616c6c6f77656450696563657300000000000000000000000000600082015250565b7f497427732050322773207475726e000000000000000000000000000000000000600082015250565b7f4261642070726f6f660000000000000000000000000000000000000000000000600082015250565b6004811061456c5761456b61428e565b5b50565b61457881614130565b811461458357600080fd5b50565b61458f8161416f565b811461459a57600080fd5b50565b6145a681614179565b81146145b157600080fd5b5056fea2646970667358221220cc6d6ee61143777f8f60980c561e666d8c74d86f4dd512fa9dbe78329f27a8c764736f6c63430008040033",
  "linkReferences": {},
  "deployedLinkReferences": {}
}