{
  "_format": "hh-sol-artifact-1",
  "contractName": "zkFischer",
  "sourceName": "contracts/zkFischer.sol",
  "abi": [
    {
      "inputs": [
        {
          "internalType": "address",
          "name": "_placementVerifier",
          "type": "address"
        },
        {
          "internalType": "address",
          "name": "_moveVerifier",
          "type": "address"
        }
      ],
      "stateMutability": "nonpayable",
      "type": "constructor"
    },
    {
      "anonymous": false,
      "inputs": [
        {
          "indexed": true,
          "internalType": "address",
          "name": "winner",
          "type": "address"
        }
      ],
      "name": "GameEnd",
      "type": "event"
    },
    {
      "anonymous": false,
      "inputs": [],
      "name": "Initialize",
      "type": "event"
    },
    {
      "anonymous": false,
      "inputs": [
        {
          "indexed": true,
          "internalType": "address",
          "name": "player",
          "type": "address"
        }
      ],
      "name": "Move",
      "type": "event"
    },
    {
      "anonymous": false,
      "inputs": [
        {
          "indexed": false,
          "internalType": "enum zkFischer.GamePhase",
          "name": "phase",
          "type": "uint8"
        }
      ],
      "name": "PhaseChange",
      "type": "event"
    },
    {
      "anonymous": false,
      "inputs": [
        {
          "indexed": true,
          "internalType": "address",
          "name": "player",
          "type": "address"
        }
      ],
      "name": "Register",
      "type": "event"
    },
    {
      "anonymous": false,
      "inputs": [
        {
          "indexed": true,
          "internalType": "address",
          "name": "player",
          "type": "address"
        }
      ],
      "name": "SetupBoard",
      "type": "event"
    },
    {
      "inputs": [
        {
          "internalType": "uint256",
          "name": "",
          "type": "uint256"
        },
        {
          "internalType": "uint256",
          "name": "",
          "type": "uint256"
        }
      ],
      "name": "board",
      "outputs": [
        {
          "internalType": "uint256",
          "name": "",
          "type": "uint256"
        }
      ],
      "stateMutability": "view",
      "type": "function"
    },
    {
      "inputs": [],
      "name": "gameKey",
      "outputs": [
        {
          "internalType": "uint256",
          "name": "",
          "type": "uint256"
        }
      ],
      "stateMutability": "view",
      "type": "function"
    },
    {
      "inputs": [
        {
          "internalType": "uint256[2]",
          "name": "fromSq",
          "type": "uint256[2]"
        },
        {
          "internalType": "uint256[2]",
          "name": "toSq",
          "type": "uint256[2]"
        },
        {
          "internalType": "uint256[2]",
          "name": "a",
          "type": "uint256[2]"
        },
        {
          "internalType": "uint256[2][2]",
          "name": "b",
          "type": "uint256[2][2]"
        },
        {
          "internalType": "uint256[2]",
          "name": "c",
          "type": "uint256[2]"
        },
        {
          "internalType": "uint256[9]",
          "name": "input",
          "type": "uint256[9]"
        }
      ],
      "name": "move",
      "outputs": [],
      "stateMutability": "nonpayable",
      "type": "function"
    },
    {
      "inputs": [],
      "name": "moveVerifier",
      "outputs": [
        {
          "internalType": "address",
          "name": "",
          "type": "address"
        }
      ],
      "stateMutability": "view",
      "type": "function"
    },
    {
      "inputs": [],
      "name": "phase",
      "outputs": [
        {
          "internalType": "enum zkFischer.GamePhase",
          "name": "",
          "type": "uint8"
        }
      ],
      "stateMutability": "view",
      "type": "function"
    },
    {
      "inputs": [],
      "name": "phasingPlayer",
      "outputs": [
        {
          "internalType": "uint256",
          "name": "",
          "type": "uint256"
        }
      ],
      "stateMutability": "view",
      "type": "function"
    },
    {
      "inputs": [],
      "name": "placementVerifier",
      "outputs": [
        {
          "internalType": "address",
          "name": "",
          "type": "address"
        }
      ],
      "stateMutability": "view",
      "type": "function"
    },
    {
      "inputs": [
        {
          "internalType": "uint256",
          "name": "",
          "type": "uint256"
        }
      ],
      "name": "players",
      "outputs": [
        {
          "internalType": "address",
          "name": "",
          "type": "address"
        }
      ],
      "stateMutability": "view",
      "type": "function"
    },
    {
      "inputs": [],
      "name": "register",
      "outputs": [],
      "stateMutability": "nonpayable",
      "type": "function"
    },
    {
      "inputs": [],
      "name": "resetGame",
      "outputs": [],
      "stateMutability": "nonpayable",
      "type": "function"
    },
    {
      "inputs": [
        {
          "internalType": "uint256[2]",
          "name": "a",
          "type": "uint256[2]"
        },
        {
          "internalType": "uint256[2][2]",
          "name": "b",
          "type": "uint256[2][2]"
        },
        {
          "internalType": "uint256[2]",
          "name": "c",
          "type": "uint256[2]"
        },
        {
          "internalType": "uint256[4]",
          "name": "input",
          "type": "uint256[4]"
        }
      ],
      "name": "setupBoard",
      "outputs": [],
      "stateMutability": "nonpayable",
      "type": "function"
    },
    {
      "inputs": [
        {
          "internalType": "uint256",
          "name": "",
          "type": "uint256"
        }
      ],
      "name": "setupHashes",
      "outputs": [
        {
          "internalType": "uint256",
          "name": "",
          "type": "uint256"
        }
      ],
      "stateMutability": "view",
      "type": "function"
    },
    {
      "inputs": [
        {
          "internalType": "uint256",
          "name": "",
          "type": "uint256"
        },
        {
          "internalType": "uint256",
          "name": "",
          "type": "uint256"
        }
      ],
      "name": "startingFiles",
      "outputs": [
        {
          "internalType": "uint256",
          "name": "",
          "type": "uint256"
        }
      ],
      "stateMutability": "view",
      "type": "function"
    }
  ],
  "bytecode": "0x60806040526000608760146101000a81548160ff0219169083600381111562000051577f4e487b7100000000000000000000000000000000000000000000000000000000600052602160045260246000fd5b02179055503480156200006357600080fd5b50604051620067893803806200678983398181016040528101906200008991906200075e565b81608660006101000a81548173ffffffffffffffffffffffffffffffffffffffff021916908373ffffffffffffffffffffffffffffffffffffffff16021790555080608760006101000a81548173ffffffffffffffffffffffffffffffffffffffff021916908373ffffffffffffffffffffffffffffffffffffffff1602179055506200011b6200012360201b60201c565b505062000874565b60006001819055506040518060400160405280600073ffffffffffffffffffffffffffffffffffffffff1673ffffffffffffffffffffffffffffffffffffffff168152602001600073ffffffffffffffffffffffffffffffffffffffff1673ffffffffffffffffffffffffffffffffffffffff168152506082906002620001ac92919062000617565b506040518060400160405280600060ff168152602001600060ff168152506084906002620001dc92919062000699565b506000604051806101000160405280600181526020016002815260200160038152602001600481526020016005815260200160068152602001600781526020016008815250905080600260006008811062000260577f4e487b7100000000000000000000000000000000000000000000000000000000600052603260045260246000fd5b6008020190600862000274929190620006e3565b50806002600160088110620002b2577f4e487b7100000000000000000000000000000000000000000000000000000000600052603260045260246000fd5b60080201906008620002c6929190620006e3565b5080600260066008811062000304577f4e487b7100000000000000000000000000000000000000000000000000000000600052603260045260246000fd5b6008020190600862000318929190620006e3565b5080600260076008811062000356577f4e487b7100000000000000000000000000000000000000000000000000000000600052603260045260246000fd5b600802019060086200036a929190620006e3565b5060005b60088110156200058e5760136042600060088110620003b6577f4e487b7100000000000000000000000000000000000000000000000000000000600052603260045260246000fd5b600802018260088110620003f3577f4e487b7100000000000000000000000000000000000000000000000000000000600052603260045260246000fd5b01819055506010604260016008811062000436577f4e487b7100000000000000000000000000000000000000000000000000000000600052603260045260246000fd5b60080201826008811062000473577f4e487b7100000000000000000000000000000000000000000000000000000000600052603260045260246000fd5b018190555060066042600660088110620004b6577f4e487b7100000000000000000000000000000000000000000000000000000000600052603260045260246000fd5b600802018260088110620004f3577f4e487b7100000000000000000000000000000000000000000000000000000000600052603260045260246000fd5b01819055506009604260076008811062000536577f4e487b7100000000000000000000000000000000000000000000000000000000600052603260045260246000fd5b60080201826008811062000573577f4e487b7100000000000000000000000000000000000000000000000000000000600052603260045260246000fd5b018190555080806200058590620007dd565b9150506200036e565b50600080819055506000608760146101000a81548160ff02191690836003811115620005e3577f4e487b7100000000000000000000000000000000000000000000000000000000600052602160045260246000fd5b02179055507f80f860092ed8101278311dd6b10dda4920a40ea5dfcbacfe724e2accfaf63efc60405160405180910390a150565b826002810192821562000686579160200282015b82811115620006855782518260006101000a81548173ffffffffffffffffffffffffffffffffffffffff021916908373ffffffffffffffffffffffffffffffffffffffff160217905550916020019190600101906200062b565b5b50905062000695919062000728565b5090565b8260028101928215620006d0579160200282015b82811115620006cf578251829060ff16905591602001919060010190620006ad565b5b509050620006df919062000728565b5090565b826008810192821562000715579160200282015b8281111562000714578251825591602001919060010190620006f7565b5b50905062000724919062000728565b5090565b5b808211156200074357600081600090555060010162000729565b5090565b60008151905062000758816200085a565b92915050565b600080604083850312156200077257600080fd5b6000620007828582860162000747565b9250506020620007958582860162000747565b9150509250929050565b6000620007ac82620007b3565b9050919050565b600073ffffffffffffffffffffffffffffffffffffffff82169050919050565b6000819050919050565b6000620007ea82620007d3565b91507fffffffffffffffffffffffffffffffffffffffffffffffffffffffffffffffff82141562000820576200081f6200082b565b5b600182019050919050565b7f4e487b7100000000000000000000000000000000000000000000000000000000600052601160045260246000fd5b62000865816200079f565b81146200087157600080fd5b50565b615f0580620008846000396000f3fe608060405234801561001057600080fd5b50600436106100cf5760003560e01c80638ca49cb71161008c578063d173bf9c11610066578063d173bf9c146101da578063d1958b41146101f8578063e693e41b14610228578063f71d96cb14610246576100cf565b80638ca49cb714610182578063b1c9fe6e146101b2578063bb472219146101d0576100cf565b806304c05644146100d45780631aa3a008146100f057806333d4a797146100fa5780637cb2fd05146101185780638086a92a146101365780638c26874d14610166575b600080fd5b6100ee60048036038101906100e9919061460d565b610276565b005b6100f8610d08565b005b610102611135565b60405161010f9190615249565b60405180910390f35b61012061113b565b60405161012d9190615249565b60405180910390f35b610150600480360381019061014b9190614750565b611141565b60405161015d9190615249565b60405180910390f35b610180600480360381019061017b9190614672565b61116f565b005b61019c60048036038101906101979190614750565b6124ea565b6040516101a99190615249565b60405180910390f35b6101ba612518565b6040516101c79190614e6e565b60405180910390f35b6101d861252b565b005b6101e2612a02565b6040516101ef9190614dc5565b60405180910390f35b610212600480360381019061020d9190614727565b612a28565b60405161021f9190615249565b60405180910390f35b610230612a43565b60405161023d9190614dc5565b60405180910390f35b610260600480360381019061025b9190614727565b612a69565b60405161026d9190614dc5565b60405180910390f35b60018060038111156102b1577f4e487b7100000000000000000000000000000000000000000000000000000000600052602160045260246000fd5b608760149054906101000a900460ff1660038111156102f9577f4e487b7100000000000000000000000000000000000000000000000000000000600052602160045260246000fd5b14610339576040517f08c379a0000000000000000000000000000000000000000000000000000000008152600401610330906150c9565b60405180910390fd5b6082600060028110610374577f4e487b7100000000000000000000000000000000000000000000000000000000600052603260045260246000fd5b0160009054906101000a900473ffffffffffffffffffffffffffffffffffffffff1673ffffffffffffffffffffffffffffffffffffffff163373ffffffffffffffffffffffffffffffffffffffff16148061045657506082600160028110610405577f4e487b7100000000000000000000000000000000000000000000000000000000600052603260045260246000fd5b0160009054906101000a900473ffffffffffffffffffffffffffffffffffffffff1673ffffffffffffffffffffffffffffffffffffffff163373ffffffffffffffffffffffffffffffffffffffff16145b610495576040517f08c379a000000000000000000000000000000000000000000000000000000000815260040161048c90614f09565b60405180910390fd5b6001826000600481106104d1577f4e487b7100000000000000000000000000000000000000000000000000000000600052603260045260246000fd5b602002015114610516576040517f08c379a000000000000000000000000000000000000000000000000000000000815260040161050d90615089565b60405180910390fd5b60005482600360048110610553577f4e487b7100000000000000000000000000000000000000000000000000000000600052603260045260246000fd5b602002015114610598576040517f08c379a000000000000000000000000000000000000000000000000000000000815260040161058f906151c9565b60405180910390fd5b608660009054906101000a900473ffffffffffffffffffffffffffffffffffffffff1673ffffffffffffffffffffffffffffffffffffffff16635fe8c13b868686866040518563ffffffff1660e01b81526004016105f99493929190614de0565b60206040518083038186803b15801561061157600080fd5b505afa158015610625573d6000803e3d6000fd5b505050506040513d601f19601f8201168201806040525081019061064991906146fe565b610688576040517f08c379a000000000000000000000000000000000000000000000000000000000815260040161067f90614f49565b60405180910390fd5b60826000600281106106c3577f4e487b7100000000000000000000000000000000000000000000000000000000600052603260045260246000fd5b0160009054906101000a900473ffffffffffffffffffffffffffffffffffffffff1673ffffffffffffffffffffffffffffffffffffffff163373ffffffffffffffffffffffffffffffffffffffff16141561091a5760006084600060028110610755577f4e487b7100000000000000000000000000000000000000000000000000000000600052603260045260246000fd5b015414610797576040517f08c379a000000000000000000000000000000000000000000000000000000000815260040161078e90615069565b60405180910390fd5b816001600481106107d1577f4e487b7100000000000000000000000000000000000000000000000000000000600052603260045260246000fd5b60200201516084600060028110610811577f4e487b7100000000000000000000000000000000000000000000000000000000600052603260045260246000fd5b018190555060056042600760088110610853577f4e487b7100000000000000000000000000000000000000000000000000000000600052603260045260246000fd5b6008020183600260048110610891577f4e487b7100000000000000000000000000000000000000000000000000000000600052603260045260246000fd5b6020020151600881106108cd577f4e487b7100000000000000000000000000000000000000000000000000000000600052603260045260246000fd5b01819055503373ffffffffffffffffffffffffffffffffffffffff167faf4d9c446642b35d7ee8febf856e561aab055caad19b4fcf9e632edca55c6c9f60405160405180910390a2610be8565b6082600160028110610955577f4e487b7100000000000000000000000000000000000000000000000000000000600052603260045260246000fd5b0160009054906101000a900473ffffffffffffffffffffffffffffffffffffffff1673ffffffffffffffffffffffffffffffffffffffff163373ffffffffffffffffffffffffffffffffffffffff161415610bac57600060846001600281106109e7577f4e487b7100000000000000000000000000000000000000000000000000000000600052603260045260246000fd5b015414610a29576040517f08c379a0000000000000000000000000000000000000000000000000000000008152600401610a2090615049565b60405180910390fd5b81600160048110610a63577f4e487b7100000000000000000000000000000000000000000000000000000000600052603260045260246000fd5b60200201516084600160028110610aa3577f4e487b7100000000000000000000000000000000000000000000000000000000600052603260045260246000fd5b0181905550600f6042600060088110610ae5577f4e487b7100000000000000000000000000000000000000000000000000000000600052603260045260246000fd5b6008020183600260048110610b23577f4e487b7100000000000000000000000000000000000000000000000000000000600052603260045260246000fd5b602002015160088110610b5f577f4e487b7100000000000000000000000000000000000000000000000000000000600052603260045260246000fd5b01819055503373ffffffffffffffffffffffffffffffffffffffff167faf4d9c446642b35d7ee8febf856e561aab055caad19b4fcf9e632edca55c6c9f60405160405180910390a2610be7565b6040517f08c379a0000000000000000000000000000000000000000000000000000000008152600401610bde90614f69565b60405180910390fd5b5b60006084600060028110610c25577f4e487b7100000000000000000000000000000000000000000000000000000000600052603260045260246000fd5b015414158015610c72575060006084600160028110610c6d577f4e487b7100000000000000000000000000000000000000000000000000000000600052603260045260246000fd5b015414155b15610d01576002608760146101000a81548160ff02191690836003811115610cc3577f4e487b7100000000000000000000000000000000000000000000000000000000600052602160045260246000fd5b02179055507fed606d544c2202d032d2626c390923e6f260ca5d89625bba0cfe70d2bdda4e8f6002604051610cf89190614e6e565b60405180910390a15b5050505050565b6000806003811115610d43577f4e487b7100000000000000000000000000000000000000000000000000000000600052602160045260246000fd5b608760149054906101000a900460ff166003811115610d8b577f4e487b7100000000000000000000000000000000000000000000000000000000600052602160045260246000fd5b14610dcb576040517f08c379a0000000000000000000000000000000000000000000000000000000008152600401610dc2906150c9565b60405180910390fd5b600073ffffffffffffffffffffffffffffffffffffffff166082600060028110610e1e577f4e487b7100000000000000000000000000000000000000000000000000000000600052603260045260246000fd5b0160009054906101000a900473ffffffffffffffffffffffffffffffffffffffff1673ffffffffffffffffffffffffffffffffffffffff161415610f1f57336082600060028110610e98577f4e487b7100000000000000000000000000000000000000000000000000000000600052603260045260246000fd5b0160006101000a81548173ffffffffffffffffffffffffffffffffffffffff021916908373ffffffffffffffffffffffffffffffffffffffff1602179055503373ffffffffffffffffffffffffffffffffffffffff167feeda149c76076b34d4b9d8896c2f7efc0d33d1c7b53ea3c5db490d64613f603a60405160405180910390a2611132565b3373ffffffffffffffffffffffffffffffffffffffff166082600060028110610f71577f4e487b7100000000000000000000000000000000000000000000000000000000600052603260045260246000fd5b0160009054906101000a900473ffffffffffffffffffffffffffffffffffffffff1673ffffffffffffffffffffffffffffffffffffffff161415610fea576040517f08c379a0000000000000000000000000000000000000000000000000000000008152600401610fe190614ee9565b60405180910390fd5b336082600160028110611026577f4e487b7100000000000000000000000000000000000000000000000000000000600052603260045260246000fd5b0160006101000a81548173ffffffffffffffffffffffffffffffffffffffff021916908373ffffffffffffffffffffffffffffffffffffffff1602179055503373ffffffffffffffffffffffffffffffffffffffff167feeda149c76076b34d4b9d8896c2f7efc0d33d1c7b53ea3c5db490d64613f603a60405160405180910390a26001608760146101000a81548160ff021916908360038111156110f4577f4e487b7100000000000000000000000000000000000000000000000000000000600052602160045260246000fd5b02179055507fed606d544c2202d032d2626c390923e6f260ca5d89625bba0cfe70d2bdda4e8f60016040516111299190614e6e565b60405180910390a15b50565b60005481565b60015481565b6042826008811061115157600080fd5b60080201816008811061116357600080fd5b01600091509150505481565b60028060038111156111aa577f4e487b7100000000000000000000000000000000000000000000000000000000600052602160045260246000fd5b608760149054906101000a900460ff1660038111156111f2577f4e487b7100000000000000000000000000000000000000000000000000000000600052602160045260246000fd5b14611232576040517f08c379a0000000000000000000000000000000000000000000000000000000008152600401611229906150c9565b60405180910390fd5b6000806082600060028110611270577f4e487b7100000000000000000000000000000000000000000000000000000000600052603260045260246000fd5b0160009054906101000a900473ffffffffffffffffffffffffffffffffffffffff1673ffffffffffffffffffffffffffffffffffffffff163373ffffffffffffffffffffffffffffffffffffffff1614156113525760006001541461130a576040517f08c379a000000000000000000000000000000000000000000000000000000000815260040161130190614fe9565b60405180910390fd5b6084600060028110611345577f4e487b7100000000000000000000000000000000000000000000000000000000600052603260045260246000fd5b01549150600190506114aa565b608260016002811061138d577f4e487b7100000000000000000000000000000000000000000000000000000000600052603260045260246000fd5b0160009054906101000a900473ffffffffffffffffffffffffffffffffffffffff1673ffffffffffffffffffffffffffffffffffffffff163373ffffffffffffffffffffffffffffffffffffffff16141561146e576001805414611426576040517f08c379a000000000000000000000000000000000000000000000000000000000815260040161141d90614fa9565b60405180910390fd5b6084600160028110611461577f4e487b7100000000000000000000000000000000000000000000000000000000600052603260045260246000fd5b01549150600090506114a9565b6040517f08c379a00000000000000000000000000000000000000000000000000000000081526004016114a090614f09565b60405180910390fd5b5b600060428a6000600281106114e8577f4e487b7100000000000000000000000000000000000000000000000000000000600052603260045260246000fd5b602002015160088110611524577f4e487b7100000000000000000000000000000000000000000000000000000000600052603260045260246000fd5b600802018a600160028110611562577f4e487b7100000000000000000000000000000000000000000000000000000000600052603260045260246000fd5b60200201516008811061159e577f4e487b7100000000000000000000000000000000000000000000000000000000600052603260045260246000fd5b01549050600981141580156115b4575060138114155b156115c9576115c48a8a84612a9f565b611c21565b6115d161427a565b6115dc8b8b85613613565b9050600060018760036009811061161c577f4e487b7100000000000000000000000000000000000000000000000000000000600052603260045260246000fd5b602002015160028960026009811061165d577f4e487b7100000000000000000000000000000000000000000000000000000000600052603260045260246000fd5b602002015161166c91906155f2565b60048a6001600981106116a8577f4e487b7100000000000000000000000000000000000000000000000000000000600052603260045260246000fd5b60200201516116b791906155f2565b6116c19190615485565b6116cb9190615485565b6116d59190615485565b90506116df61427a565b60005b600381101561179257888160056116f99190615485565b60098110611730577f4e487b7100000000000000000000000000000000000000000000000000000000600052603260045260246000fd5b602002015182826003811061176e577f4e487b7100000000000000000000000000000000000000000000000000000000600052603260045260246000fd5b602002019060ff16908160ff1681525050808061178a906157d1565b9150506116e2565b506001886000600981106117cf577f4e487b7100000000000000000000000000000000000000000000000000000000600052603260045260246000fd5b602002015114611814576040517f08c379a000000000000000000000000000000000000000000000000000000000815260040161180b90615089565b60405180910390fd5b60028d600060028110611850577f4e487b7100000000000000000000000000000000000000000000000000000000600052603260045260246000fd5b60200201516008811061188c577f4e487b7100000000000000000000000000000000000000000000000000000000600052603260045260246000fd5b600802018d6001600281106118ca577f4e487b7100000000000000000000000000000000000000000000000000000000600052603260045260246000fd5b602002015160088110611906577f4e487b7100000000000000000000000000000000000000000000000000000000600052603260045260246000fd5b01548214611949576040517f08c379a000000000000000000000000000000000000000000000000000000000815260040161194090614f89565b60405180910390fd5b8588600460098110611984577f4e487b7100000000000000000000000000000000000000000000000000000000600052603260045260246000fd5b6020020151146119c9576040517f08c379a00000000000000000000000000000000000000000000000000000000081526004016119c090615029565b60405180910390fd5b60005b6003811015611aaa57838160038110611a0e577f4e487b7100000000000000000000000000000000000000000000000000000000600052603260045260246000fd5b602002015160ff16828260038110611a4f577f4e487b7100000000000000000000000000000000000000000000000000000000600052603260045260246000fd5b602002015160ff1614611a97576040517f08c379a0000000000000000000000000000000000000000000000000000000008152600401611a8e90615009565b60405180910390fd5b8080611aa2906157d1565b9150506119cc565b5060005488600860098110611ae8577f4e487b7100000000000000000000000000000000000000000000000000000000600052603260045260246000fd5b602002015114611b2d576040517f08c379a0000000000000000000000000000000000000000000000000000000008152600401611b2490615129565b60405180910390fd5b608760009054906101000a900473ffffffffffffffffffffffffffffffffffffffff1673ffffffffffffffffffffffffffffffffffffffff1663c542c93b8c8c8c8c6040518563ffffffff1660e01b8152600401611b8e9493929190614e27565b60206040518083038186803b158015611ba657600080fd5b505afa158015611bba573d6000803e3d6000fd5b505050506040513d601f19601f82011682018060405250810190611bde91906146fe565b611c1d576040517f08c379a0000000000000000000000000000000000000000000000000000000008152600401611c1490614e89565b60405180910390fd5b5050505b6000600560428b600060028110611c61577f4e487b7100000000000000000000000000000000000000000000000000000000600052603260045260246000fd5b602002015160088110611c9d577f4e487b7100000000000000000000000000000000000000000000000000000000600052603260045260246000fd5b600802018b600160028110611cdb577f4e487b7100000000000000000000000000000000000000000000000000000000600052603260045260246000fd5b602002015160088110611d17577f4e487b7100000000000000000000000000000000000000000000000000000000600052603260045260246000fd5b01541480611e185750600f60428b600060028110611d5e577f4e487b7100000000000000000000000000000000000000000000000000000000600052603260045260246000fd5b602002015160088110611d9a577f4e487b7100000000000000000000000000000000000000000000000000000000600052603260045260246000fd5b600802018b600160028110611dd8577f4e487b7100000000000000000000000000000000000000000000000000000000600052603260045260246000fd5b602002015160088110611e14577f4e487b7100000000000000000000000000000000000000000000000000000000600052603260045260246000fd5b0154145b905060428b600060028110611e56577f4e487b7100000000000000000000000000000000000000000000000000000000600052603260045260246000fd5b602002015160088110611e92577f4e487b7100000000000000000000000000000000000000000000000000000000600052603260045260246000fd5b600802018b600160028110611ed0577f4e487b7100000000000000000000000000000000000000000000000000000000600052603260045260246000fd5b602002015160088110611f0c577f4e487b7100000000000000000000000000000000000000000000000000000000600052603260045260246000fd5b015460428b600060028110611f4a577f4e487b7100000000000000000000000000000000000000000000000000000000600052603260045260246000fd5b602002015160088110611f86577f4e487b7100000000000000000000000000000000000000000000000000000000600052603260045260246000fd5b600802018b600160028110611fc4577f4e487b7100000000000000000000000000000000000000000000000000000000600052603260045260246000fd5b602002015160088110612000577f4e487b7100000000000000000000000000000000000000000000000000000000600052603260045260246000fd5b0181905550600060428c600060028110612043577f4e487b7100000000000000000000000000000000000000000000000000000000600052603260045260246000fd5b60200201516008811061207f577f4e487b7100000000000000000000000000000000000000000000000000000000600052603260045260246000fd5b600802018c6001600281106120bd577f4e487b7100000000000000000000000000000000000000000000000000000000600052603260045260246000fd5b6020020151600881106120f9577f4e487b7100000000000000000000000000000000000000000000000000000000600052603260045260246000fd5b018190555060028b60006002811061213a577f4e487b7100000000000000000000000000000000000000000000000000000000600052603260045260246000fd5b602002015160088110612176577f4e487b7100000000000000000000000000000000000000000000000000000000600052603260045260246000fd5b600802018b6001600281106121b4577f4e487b7100000000000000000000000000000000000000000000000000000000600052603260045260246000fd5b6020020151600881106121f0577f4e487b7100000000000000000000000000000000000000000000000000000000600052603260045260246000fd5b015460028b60006002811061222e577f4e487b7100000000000000000000000000000000000000000000000000000000600052603260045260246000fd5b60200201516008811061226a577f4e487b7100000000000000000000000000000000000000000000000000000000600052603260045260246000fd5b600802018b6001600281106122a8577f4e487b7100000000000000000000000000000000000000000000000000000000600052603260045260246000fd5b6020020151600881106122e4577f4e487b7100000000000000000000000000000000000000000000000000000000600052603260045260246000fd5b0181905550600060028c600060028110612327577f4e487b7100000000000000000000000000000000000000000000000000000000600052603260045260246000fd5b602002015160088110612363577f4e487b7100000000000000000000000000000000000000000000000000000000600052603260045260246000fd5b600802018c6001600281106123a1577f4e487b7100000000000000000000000000000000000000000000000000000000600052603260045260246000fd5b6020020151600881106123dd577f4e487b7100000000000000000000000000000000000000000000000000000000600052603260045260246000fd5b01819055506000600154146123f35760006123f6565b60015b60ff166001819055503373ffffffffffffffffffffffffffffffffffffffff167f2faa250a40ee7ae6e526f286912b032fc352944ea55943cf3a6c38c42ca364d860405160405180910390a280156124dd576003608760146101000a81548160ff02191690836003811115612494577f4e487b7100000000000000000000000000000000000000000000000000000000600052602160045260246000fd5b02179055503373ffffffffffffffffffffffffffffffffffffffff167fb67620889a46b45c8fb14b148cd35a53f19434107ee6fae801472351c39a545d60405160405180910390a25b5050505050505050505050565b600282600881106124fa57600080fd5b60080201816008811061250c57600080fd5b01600091509150505481565b608760149054906101000a900460ff1681565b60006001819055506040518060400160405280600073ffffffffffffffffffffffffffffffffffffffff1673ffffffffffffffffffffffffffffffffffffffff168152602001600073ffffffffffffffffffffffffffffffffffffffff1673ffffffffffffffffffffffffffffffffffffffff1681525060829060026125b292919061429c565b506040518060400160405280600060ff168152602001600060ff1681525060849060026125e0929190614319565b5060006040518061010001604052806001815260200160028152602001600381526020016004815260200160058152602001600681526020016007815260200160088152509050806002600060088110612663577f4e487b7100000000000000000000000000000000000000000000000000000000600052603260045260246000fd5b6008020190600861267592919061435e565b508060026001600881106126b2577f4e487b7100000000000000000000000000000000000000000000000000000000600052603260045260246000fd5b600802019060086126c492919061435e565b50806002600660088110612701577f4e487b7100000000000000000000000000000000000000000000000000000000600052603260045260246000fd5b6008020190600861271392919061435e565b50806002600760088110612750577f4e487b7100000000000000000000000000000000000000000000000000000000600052603260045260246000fd5b6008020190600861276292919061435e565b5060005b600881101561297a57601360426000600881106127ac577f4e487b7100000000000000000000000000000000000000000000000000000000600052603260045260246000fd5b6008020182600881106127e8577f4e487b7100000000000000000000000000000000000000000000000000000000600052603260045260246000fd5b01819055506010604260016008811061282a577f4e487b7100000000000000000000000000000000000000000000000000000000600052603260045260246000fd5b600802018260088110612866577f4e487b7100000000000000000000000000000000000000000000000000000000600052603260045260246000fd5b0181905550600660426006600881106128a8577f4e487b7100000000000000000000000000000000000000000000000000000000600052603260045260246000fd5b6008020182600881106128e4577f4e487b7100000000000000000000000000000000000000000000000000000000600052603260045260246000fd5b018190555060096042600760088110612926577f4e487b7100000000000000000000000000000000000000000000000000000000600052603260045260246000fd5b600802018260088110612962577f4e487b7100000000000000000000000000000000000000000000000000000000600052603260045260246000fd5b01819055508080612972906157d1565b915050612766565b50600080819055506000608760146101000a81548160ff021916908360038111156129ce577f4e487b7100000000000000000000000000000000000000000000000000000000600052602160045260246000fd5b02179055507f80f860092ed8101278311dd6b10dda4920a40ea5dfcbacfe724e2accfaf63efc60405160405180910390a150565b608760009054906101000a900473ffffffffffffffffffffffffffffffffffffffff1681565b60848160028110612a3857600080fd5b016000915090505481565b608660009054906101000a900473ffffffffffffffffffffffffffffffffffffffff1681565b60828160028110612a7957600080fd5b016000915054906101000a900473ffffffffffffffffffffffffffffffffffffffff1681565b612aaa838383613a9b565b6000604284600060028110612ae8577f4e487b7100000000000000000000000000000000000000000000000000000000600052603260045260246000fd5b602002015160088110612b24577f4e487b7100000000000000000000000000000000000000000000000000000000600052603260045260246000fd5b6008020184600160028110612b62577f4e487b7100000000000000000000000000000000000000000000000000000000600052603260045260246000fd5b602002015160088110612b9e577f4e487b7100000000000000000000000000000000000000000000000000000000600052603260045260246000fd5b01549050600084600060028110612bde577f4e487b7100000000000000000000000000000000000000000000000000000000600052603260045260246000fd5b602002015184600060028110612c1d577f4e487b7100000000000000000000000000000000000000000000000000000000600052603260045260246000fd5b6020020151612c2c919061564c565b9050600085600160028110612c6a577f4e487b7100000000000000000000000000000000000000000000000000000000600052603260045260246000fd5b602002015185600160028110612ca9577f4e487b7100000000000000000000000000000000000000000000000000000000600052603260045260246000fd5b6020020151612cb8919061564c565b90506005831480612cc95750600f83145b15612d34576001612cd983614194565b11158015612cf057506001612ced82614194565b11155b612d2f576040517f08c379a0000000000000000000000000000000000000000000000000000000008152600401612d2690615189565b60405180910390fd5b61360b565b6006831480612d435750601083145b156135cf576001612d5382614194565b141561308b578315612f04577fffffffffffffffffffffffffffffffffffffffffffffffffffffffffffffffff8214612dc1576040517f08c379a0000000000000000000000000000000000000000000000000000000008152600401612db890615169565b60405180910390fd5b6002612ebf604287600060028110612e02577f4e487b7100000000000000000000000000000000000000000000000000000000600052603260045260246000fd5b602002015160088110612e3e577f4e487b7100000000000000000000000000000000000000000000000000000000600052603260045260246000fd5b6008020187600160028110612e7c577f4e487b7100000000000000000000000000000000000000000000000000000000600052603260045260246000fd5b602002015160088110612eb8577f4e487b7100000000000000000000000000000000000000000000000000000000600052603260045260246000fd5b01546141b6565b14612eff576040517f08c379a0000000000000000000000000000000000000000000000000000000008152600401612ef6906150e9565b60405180910390fd5b613086565b60018214612f47576040517f08c379a0000000000000000000000000000000000000000000000000000000008152600401612f3e90615169565b60405180910390fd5b6001613045604287600060028110612f88577f4e487b7100000000000000000000000000000000000000000000000000000000600052603260045260246000fd5b602002015160088110612fc4577f4e487b7100000000000000000000000000000000000000000000000000000000600052603260045260246000fd5b6008020187600160028110613002577f4e487b7100000000000000000000000000000000000000000000000000000000600052603260045260246000fd5b60200201516008811061303e577f4e487b7100000000000000000000000000000000000000000000000000000000600052603260045260246000fd5b01546141b6565b14613085576040517f08c379a000000000000000000000000000000000000000000000000000000000815260040161307c906150e9565b60405180910390fd5b5b6135ca565b600081141561358e576000846130a25760016130c4565b7fffffffffffffffffffffffffffffffffffffffffffffffffffffffffffffffff5b90506000856130d45760016130d7565b60065b60ff1690508160026130e991906154db565b84141561340357808860006002811061312b577f4e487b7100000000000000000000000000000000000000000000000000000000600052603260045260246000fd5b602002015114613170576040517f08c379a0000000000000000000000000000000000000000000000000000000008152600401613167906151a9565b60405180910390fd5b60006042838a6000600281106131af577f4e487b7100000000000000000000000000000000000000000000000000000000600052603260045260246000fd5b60200201516131be91906153f1565b600881106131f5577f4e487b7100000000000000000000000000000000000000000000000000000000600052603260045260246000fd5b6008020189600160028110613233577f4e487b7100000000000000000000000000000000000000000000000000000000600052603260045260246000fd5b60200201516008811061326f577f4e487b7100000000000000000000000000000000000000000000000000000000600052603260045260246000fd5b0154146132b1576040517f08c379a00000000000000000000000000000000000000000000000000000000081526004016132a890615109565b60405180910390fd5b600060428360026132c291906154db565b8a6000600281106132fc577f4e487b7100000000000000000000000000000000000000000000000000000000600052603260045260246000fd5b602002015161330b91906153f1565b60088110613342577f4e487b7100000000000000000000000000000000000000000000000000000000600052603260045260246000fd5b6008020189600160028110613380577f4e487b7100000000000000000000000000000000000000000000000000000000600052603260045260246000fd5b6020020151600881106133bc577f4e487b7100000000000000000000000000000000000000000000000000000000600052603260045260246000fd5b0154146133fe576040517f08c379a00000000000000000000000000000000000000000000000000000000081526004016133f590615109565b60405180910390fd5b613587565b818414613445576040517f08c379a000000000000000000000000000000000000000000000000000000000815260040161343c90615169565b60405180910390fd5b60006042838a600060028110613484577f4e487b7100000000000000000000000000000000000000000000000000000000600052603260045260246000fd5b602002015161349391906153f1565b600881106134ca577f4e487b7100000000000000000000000000000000000000000000000000000000600052603260045260246000fd5b6008020189600160028110613508577f4e487b7100000000000000000000000000000000000000000000000000000000600052603260045260246000fd5b602002015160088110613544577f4e487b7100000000000000000000000000000000000000000000000000000000600052603260045260246000fd5b015414613586576040517f08c379a000000000000000000000000000000000000000000000000000000000815260040161357d90615109565b60405180910390fd5b5b50506135c9565b6040517f08c379a00000000000000000000000000000000000000000000000000000000081526004016135c090615169565b60405180910390fd5b5b61360a565b6040517f08c379a000000000000000000000000000000000000000000000000000000000815260040161360190615209565b60405180910390fd5b5b505050505050565b61361b61427a565b613626848484613a9b565b600084600060028110613662577f4e487b7100000000000000000000000000000000000000000000000000000000600052603260045260246000fd5b6020020151846000600281106136a1577f4e487b7100000000000000000000000000000000000000000000000000000000600052603260045260246000fd5b60200201516136b0919061564c565b90506000856001600281106136ee577f4e487b7100000000000000000000000000000000000000000000000000000000600052603260045260246000fd5b60200201518560016002811061372d577f4e487b7100000000000000000000000000000000000000000000000000000000600052603260045260246000fd5b602002015161373c919061564c565b9050600061374983614194565b9050600061375683614194565b9050600061376261427a565b6001841480156137725750600283145b8061378957506002841480156137885750600183145b5b156137c057600291506040518060600160405280600260ff168152602001600060ff168152602001600060ff16815250905061387d565b60008414806137cf5750600083145b1561380657600191506040518060600160405280600160ff168152602001600460ff168152602001600060ff16815250905061387c565b8284141561384057600091506040518060600160405280600360ff168152602001600460ff168152602001600060ff16815250905061387b565b6040517f08c379a000000000000000000000000000000000000000000000000000000000815260040161387290614fc9565b60405180910390fd5b5b5b600282141561389457809650505050505050613a94565b828414806138a25750600084145b806138ad5750600083145b6138e0577f4e487b7100000000000000000000000000000000000000000000000000000000600052600160045260246000fd5b60006138eb87614218565b905060006138f887614218565b90506000600190505b61390b8787614261565b811215613a875760006042828561392291906154db565b8f60006002811061395c577f4e487b7100000000000000000000000000000000000000000000000000000000600052603260045260246000fd5b602002015161396b91906153f1565b600881106139a2577f4e487b7100000000000000000000000000000000000000000000000000000000600052603260045260246000fd5b6008020182846139b291906154db565b8f6001600281106139ec577f4e487b7100000000000000000000000000000000000000000000000000000000600052603260045260246000fd5b60200201516139fb91906153f1565b60088110613a32577f4e487b7100000000000000000000000000000000000000000000000000000000600052603260045260246000fd5b015414613a74576040517f08c379a0000000000000000000000000000000000000000000000000000000008152600401613a6b90614ea9565b60405180910390fd5b8080613a7f90615788565b915050613901565b5082985050505050505050505b9392505050565b82600060028110613ad5577f4e487b7100000000000000000000000000000000000000000000000000000000600052603260045260246000fd5b6020020151600011158015613b29575082600160028110613b1f577f4e487b7100000000000000000000000000000000000000000000000000000000600052603260045260246000fd5b6020020151600011155b8015613b735750600883600060028110613b6c577f4e487b7100000000000000000000000000000000000000000000000000000000600052603260045260246000fd5b6020020151105b8015613bbd5750600883600160028110613bb6577f4e487b7100000000000000000000000000000000000000000000000000000000600052603260045260246000fd5b6020020151105b613bfc576040517f08c379a0000000000000000000000000000000000000000000000000000000008152600401613bf390614ec9565b60405180910390fd5b81600060028110613c36577f4e487b7100000000000000000000000000000000000000000000000000000000600052603260045260246000fd5b6020020151600011158015613c8a575081600160028110613c80577f4e487b7100000000000000000000000000000000000000000000000000000000600052603260045260246000fd5b6020020151600011155b8015613cd45750600882600060028110613ccd577f4e487b7100000000000000000000000000000000000000000000000000000000600052603260045260246000fd5b6020020151105b8015613d1e5750600882600160028110613d17577f4e487b7100000000000000000000000000000000000000000000000000000000600052603260045260246000fd5b6020020151105b613d5d576040517f08c379a0000000000000000000000000000000000000000000000000000000008152600401613d54906151e9565b60405180910390fd5b81600060028110613d97577f4e487b7100000000000000000000000000000000000000000000000000000000600052603260045260246000fd5b602002015183600060028110613dd6577f4e487b7100000000000000000000000000000000000000000000000000000000600052603260045260246000fd5b6020020151141580613e64575081600160028110613e1d577f4e487b7100000000000000000000000000000000000000000000000000000000600052603260045260246000fd5b602002015183600160028110613e5c577f4e487b7100000000000000000000000000000000000000000000000000000000600052603260045260246000fd5b602002015114155b613ea3576040517f08c379a0000000000000000000000000000000000000000000000000000000008152600401613e9a90614f29565b60405180910390fd5b6000613fa1604285600060028110613ee4577f4e487b7100000000000000000000000000000000000000000000000000000000600052603260045260246000fd5b602002015160088110613f20577f4e487b7100000000000000000000000000000000000000000000000000000000600052603260045260246000fd5b6008020185600160028110613f5e577f4e487b7100000000000000000000000000000000000000000000000000000000600052603260045260246000fd5b602002015160088110613f9a577f4e487b7100000000000000000000000000000000000000000000000000000000600052603260045260246000fd5b01546141b6565b905060006140a1604285600060028110613fe4577f4e487b7100000000000000000000000000000000000000000000000000000000600052603260045260246000fd5b602002015160088110614020577f4e487b7100000000000000000000000000000000000000000000000000000000600052603260045260246000fd5b600802018560016002811061405e577f4e487b7100000000000000000000000000000000000000000000000000000000600052603260045260246000fd5b60200201516008811061409a577f4e487b7100000000000000000000000000000000000000000000000000000000600052603260045260246000fd5b01546141b6565b905060008214156140e7576040517f08c379a00000000000000000000000000000000000000000000000000000000081526004016140de906150a9565b60405180910390fd5b826140f557600282146140fa565b600182145b614139576040517f08c379a000000000000000000000000000000000000000000000000000000000815260040161413090615149565b60405180910390fd5b8261414857600281141561414e565b60018114155b61418d576040517f08c379a000000000000000000000000000000000000000000000000000000000815260040161418490615229565b60405180910390fd5b5050505050565b6000808212156141ad57816141a89061581a565b6141af565b815b9050919050565b6000816001111580156141ca575060068211155b806141d55750600982145b156141e35760019050614213565b81600b111580156141f5575060108211155b806142005750601382145b1561420e5760029050614213565b600090505b919050565b6000808214614257576000821361424f577fffffffffffffffffffffffffffffffffffffffffffffffffffffffffffffffff614252565b60015b61425a565b60005b9050919050565b60008183116142705781614272565b825b905092915050565b6040518060600160405280600390602082028036833780820191505090505090565b8260028101928215614308579160200282015b828111156143075782518260006101000a81548173ffffffffffffffffffffffffffffffffffffffff021916908373ffffffffffffffffffffffffffffffffffffffff160217905550916020019190600101906142af565b5b509050614315919061439e565b5090565b826002810192821561434d579160200282015b8281111561434c578251829060ff1690559160200191906001019061432c565b5b50905061435a919061439e565b5090565b826008810192821561438d579160200282015b8281111561438c578251825591602001919060010190614371565b5b50905061439a919061439e565b5090565b5b808211156143b757600081600090555060010161439f565b5090565b60006143ce6143c984615289565b615264565b905080828560408602820111156143e457600080fd5b60005b8581101561441457816143fa888261456e565b8452602084019350604083019250506001810190506143e7565b5050509392505050565b600061443161442c846152af565b615264565b9050808285602086028201111561444757600080fd5b60005b85811015614477578161445d88826145f8565b84526020840193506020830192505060018101905061444a565b5050509392505050565b600061449461448f846152d5565b615264565b905080828560208602820111156144aa57600080fd5b60005b858110156144da57816144c088826145f8565b8452602084019350602083019250506001810190506144ad565b5050509392505050565b60006144f76144f2846152fb565b615264565b9050808285602086028201111561450d57600080fd5b60005b8581101561453d578161452388826145f8565b845260208401935060208301925050600181019050614510565b5050509392505050565b600082601f83011261455857600080fd5b60026145658482856143bb565b91505092915050565b600082601f83011261457f57600080fd5b600261458c84828561441e565b91505092915050565b600082601f8301126145a657600080fd5b60046145b3848285614481565b91505092915050565b600082601f8301126145cd57600080fd5b60096145da8482856144e4565b91505092915050565b6000815190506145f281615ea1565b92915050565b60008135905061460781615eb8565b92915050565b600080600080610180858703121561462457600080fd5b60006146328782880161456e565b945050604061464387828801614547565b93505060c06146548782880161456e565b92505061010061466687828801614595565b91505092959194509250565b6000806000806000806102a0878903121561468c57600080fd5b600061469a89828a0161456e565b96505060406146ab89828a0161456e565b95505060806146bc89828a0161456e565b94505060c06146cd89828a01614547565b9350506101406146df89828a0161456e565b9250506101806146f189828a016145bc565b9150509295509295509295565b60006020828403121561471057600080fd5b600061471e848285016145e3565b91505092915050565b60006020828403121561473957600080fd5b6000614747848285016145f8565b91505092915050565b6000806040838503121561476357600080fd5b6000614771858286016145f8565b9250506020614782858286016145f8565b9150509250929050565b60006147988383614822565b60408301905092915050565b60006147b08383614da7565b60208301905092915050565b6147c5816156e0565b82525050565b6147d481615349565b6147de81846153a9565b92506147e982615321565b8060005b8381101561481a578151614801878261478c565b965061480c83615375565b9250506001810190506147ed565b505050505050565b61482b81615354565b61483581846153b4565b92506148408261532b565b8060005b8381101561487157815161485887826147a4565b965061486383615382565b925050600181019050614844565b505050505050565b61488281615354565b61488c81846153bf565b92506148978261532b565b8060005b838110156148c85781516148af87826147a4565b96506148ba83615382565b92505060018101905061489b565b505050505050565b6148d98161535f565b6148e381846153ca565b92506148ee82615335565b8060005b8381101561491f57815161490687826147a4565b96506149118361538f565b9250506001810190506148f2565b505050505050565b6149308161536a565b61493a81846153d5565b92506149458261533f565b8060005b8381101561497657815161495d87826147a4565b96506149688361539c565b925050600181019050614949565b505050505050565b61498781615745565b82525050565b600061499a600f836153e0565b91506149a582615901565b602082019050919050565b60006149bd6028836153e0565b91506149c88261592a565b604082019050919050565b60006149e0600b836153e0565b91506149eb82615979565b602082019050919050565b6000614a036013836153e0565b9150614a0e826159a2565b602082019050919050565b6000614a266016836153e0565b9150614a31826159cb565b602082019050919050565b6000614a496014836153e0565b9150614a54826159f4565b602082019050919050565b6000614a6c6014836153e0565b9150614a7782615a1d565b602082019050919050565b6000614a8f6017836153e0565b9150614a9a82615a46565b602082019050919050565b6000614ab26016836153e0565b9150614abd82615a6f565b602082019050919050565b6000614ad56019836153e0565b9150614ae082615a98565b602082019050919050565b6000614af8600c836153e0565b9150614b0382615ac1565b602082019050919050565b6000614b1b6019836153e0565b9150614b2682615aea565b602082019050919050565b6000614b3e601a836153e0565b9150614b4982615b13565b602082019050919050565b6000614b616019836153e0565b9150614b6c82615b3c565b602082019050919050565b6000614b846011836153e0565b9150614b8f82615b65565b602082019050919050565b6000614ba76011836153e0565b9150614bb282615b8e565b602082019050919050565b6000614bca6016836153e0565b9150614bd582615bb7565b602082019050919050565b6000614bed6013836153e0565b9150614bf882615be0565b602082019050919050565b6000614c10602c836153e0565b9150614c1b82615c09565b604082019050919050565b6000614c336029836153e0565b9150614c3e82615c58565b604082019050919050565b6000614c566013836153e0565b9150614c6182615ca7565b602082019050919050565b6000614c796014836153e0565b9150614c8482615cd0565b602082019050919050565b6000614c9c6021836153e0565b9150614ca782615cf9565b604082019050919050565b6000614cbf6012836153e0565b9150614cca82615d48565b602082019050919050565b6000614ce26012836153e0565b9150614ced82615d71565b602082019050919050565b6000614d056033836153e0565b9150614d1082615d9a565b604082019050919050565b6000614d286018836153e0565b9150614d3382615de9565b602082019050919050565b6000614d4b6009836153e0565b9150614d5682615e12565b602082019050919050565b6000614d6e6012836153e0565b9150614d7982615e3b565b602082019050919050565b6000614d916018836153e0565b9150614d9c82615e64565b602082019050919050565b614db08161573b565b82525050565b614dbf8161573b565b82525050565b6000602082019050614dda60008301846147bc565b92915050565b600061018082019050614df66000830187614879565b614e0360408301866147cb565b614e1060c0830185614879565b614e1e6101008301846148d0565b95945050505050565b600061022082019050614e3d6000830187614879565b614e4a60408301866147cb565b614e5760c0830185614879565b614e65610100830184614927565b95945050505050565b6000602082019050614e83600083018461497e565b92915050565b60006020820190508181036000830152614ea28161498d565b9050919050565b60006020820190508181036000830152614ec2816149b0565b9050919050565b60006020820190508181036000830152614ee2816149d3565b9050919050565b60006020820190508181036000830152614f02816149f6565b9050919050565b60006020820190508181036000830152614f2281614a19565b9050919050565b60006020820190508181036000830152614f4281614a3c565b9050919050565b60006020820190508181036000830152614f6281614a5f565b9050919050565b60006020820190508181036000830152614f8281614a82565b9050919050565b60006020820190508181036000830152614fa281614aa5565b9050919050565b60006020820190508181036000830152614fc281614ac8565b9050919050565b60006020820190508181036000830152614fe281614aeb565b9050919050565b6000602082019050818103600083015261500281614b0e565b9050919050565b6000602082019050818103600083015261502281614b31565b9050919050565b6000602082019050818103600083015261504281614b54565b9050919050565b6000602082019050818103600083015261506281614b77565b9050919050565b6000602082019050818103600083015261508281614b9a565b9050919050565b600060208201905081810360008301526150a281614bbd565b9050919050565b600060208201905081810360008301526150c281614be0565b9050919050565b600060208201905081810360008301526150e281614c03565b9050919050565b6000602082019050818103600083015261510281614c26565b9050919050565b6000602082019050818103600083015261512281614c49565b9050919050565b6000602082019050818103600083015261514281614c6c565b9050919050565b6000602082019050818103600083015261516281614c8f565b9050919050565b6000602082019050818103600083015261518281614cb2565b9050919050565b600060208201905081810360008301526151a281614cd5565b9050919050565b600060208201905081810360008301526151c281614cf8565b9050919050565b600060208201905081810360008301526151e281614d1b565b9050919050565b6000602082019050818103600083015261520281614d3e565b9050919050565b6000602082019050818103600083015261522281614d61565b9050919050565b6000602082019050818103600083015261524281614d84565b9050919050565b600060208201905061525e6000830184614db6565b92915050565b600061526e61527f565b905061527a8282615757565b919050565b6000604051905090565b600067ffffffffffffffff8211156152a4576152a36158c1565b5b602082029050919050565b600067ffffffffffffffff8211156152ca576152c96158c1565b5b602082029050919050565b600067ffffffffffffffff8211156152f0576152ef6158c1565b5b602082029050919050565b600067ffffffffffffffff821115615316576153156158c1565b5b602082029050919050565b6000819050919050565b6000819050919050565b6000819050919050565b6000819050919050565b600060029050919050565b600060029050919050565b600060049050919050565b600060099050919050565b6000602082019050919050565b6000602082019050919050565b6000602082019050919050565b6000602082019050919050565b600081905092915050565b600081905092915050565b600081905092915050565b600081905092915050565b600081905092915050565b600082825260208201905092915050565b60006153fc82615711565b915061540783615711565b9250817f7fffffffffffffffffffffffffffffffffffffffffffffffffffffffffffffff0383136000831215161561544257615441615863565b5b817f800000000000000000000000000000000000000000000000000000000000000003831260008312161561547a57615479615863565b5b828201905092915050565b60006154908261573b565b915061549b8361573b565b9250827fffffffffffffffffffffffffffffffffffffffffffffffffffffffffffffffff038211156154d0576154cf615863565b5b828201905092915050565b60006154e682615711565b91506154f183615711565b9250827f7fffffffffffffffffffffffffffffffffffffffffffffffffffffffffffffff04821160008413600084131616156155305761552f615863565b5b817f8000000000000000000000000000000000000000000000000000000000000000058312600084126000841316161561556d5761556c615863565b5b827f800000000000000000000000000000000000000000000000000000000000000005821260008413600084121616156155aa576155a9615863565b5b827f7fffffffffffffffffffffffffffffffffffffffffffffffffffffffffffffff05821260008412600084121616156155e7576155e6615863565b5b828202905092915050565b60006155fd8261573b565b91506156088361573b565b9250817fffffffffffffffffffffffffffffffffffffffffffffffffffffffffffffffff048311821515161561564157615640615863565b5b828202905092915050565b600061565782615711565b915061566283615711565b9250827f80000000000000000000000000000000000000000000000000000000000000000182126000841215161561569d5761569c615863565b5b827f7fffffffffffffffffffffffffffffffffffffffffffffffffffffffffffffff0182136000841216156156d5576156d4615863565b5b828203905092915050565b60006156eb8261571b565b9050919050565b60008115159050919050565b600081905061570c82615e8d565b919050565b6000819050919050565b600073ffffffffffffffffffffffffffffffffffffffff82169050919050565b6000819050919050565b6000615750826156fe565b9050919050565b615760826158f0565b810181811067ffffffffffffffff8211171561577f5761577e6158c1565b5b80604052505050565b600061579382615711565b91507f7fffffffffffffffffffffffffffffffffffffffffffffffffffffffffffffff8214156157c6576157c5615863565b5b600182019050919050565b60006157dc8261573b565b91507fffffffffffffffffffffffffffffffffffffffffffffffffffffffffffffffff82141561580f5761580e615863565b5b600182019050919050565b600061582582615711565b91507f800000000000000000000000000000000000000000000000000000000000000082141561585857615857615863565b5b816000039050919050565b7f4e487b7100000000000000000000000000000000000000000000000000000000600052601160045260246000fd5b7f4e487b7100000000000000000000000000000000000000000000000000000000600052602160045260246000fd5b7f4e487b7100000000000000000000000000000000000000000000000000000000600052604160045260246000fd5b6000601f19601f8301169050919050565b7f426164206d6f76652070726f6f662e0000000000000000000000000000000000600082015250565b7f43616e2774206d6f7665207468726f75676820706965636573206173206e6f6e60008201527f2d6b6e696768742e000000000000000000000000000000000000000000000000602082015250565b7f4f4f422066726f6d53712e000000000000000000000000000000000000000000600082015250565b7f416c726561647920726567697374657265642e00000000000000000000000000600082015250565b7f43616c6c6572206e6f7420726567697374657265642e00000000000000000000600082015250565b7f66726f6d53712073616d6520617320746f53712e000000000000000000000000600082015250565b7f42616420706c6163656d656e742070726f6f662e000000000000000000000000600082015250565b7f556e6578706563746564207365747570206572726f722e000000000000000000600082015250565b7f706965636546696c6520696e7075742077726f6e672e00000000000000000000600082015250565b7f49742773206e6f7420706c6179657220322773207475726e2e00000000000000600082015250565b7f496e76616c6964206d6f76650000000000000000000000000000000000000000600082015250565b7f49742773206e6f7420706c6179657220312773207475726e2e00000000000000600082015250565b7f616c6c6f77656450696563657320696e7075742077726f6e672e000000000000600082015250565b7f72657175697265644861736820696e7075742077726f6e672e00000000000000600082015250565b7f503220616c72656164792073657475702e000000000000000000000000000000600082015250565b7f503120616c72656164792073657475702e000000000000000000000000000000600082015250565b7f50726f6f662061737365727473206661696c7572652e00000000000000000000600082015250565b7f4e6f2070696563652061742066726f6d53712e00000000000000000000000000600082015250565b7f46756e6374696f6e2063616e27742062652063616c6c6564206174207468697360008201527f2067616d652070686173652e0000000000000000000000000000000000000000602082015250565b7f496e76616c6964207061776e206361707475726520286e6f20656e207061737360008201527f616e7420796574292e0000000000000000000000000000000000000000000000602082015250565b7f506965636520696e207061776e20706174682e00000000000000000000000000600082015250565b7f67616d654b657920696e7075742077726f6e672e000000000000000000000000600082015250565b7f66726f6d537120646f65736e277420636f6e7461696e206f776e20706965636560008201527f2e00000000000000000000000000000000000000000000000000000000000000602082015250565b7f496e76616c6964207061776e206d6f76652e0000000000000000000000000000600082015250565b7f496e76616c6964206b696e67206d6f76652e0000000000000000000000000000600082015250565b7f5061776e2063616e206f6e6c79206d6f76652032207370616365732066726f6d60008201527f207374617274696e6720706f736974696f6e2e00000000000000000000000000602082015250565b7f67616d654b657920696e70757420696e636f72726563742e0000000000000000600082015250565b7f4f4f4220746f53712e0000000000000000000000000000000000000000000000600082015250565b7f556e737570706f727465642070696563652e0000000000000000000000000000600082015250565b7f746f537120636f6e7461696e73206f776e2070696563652e0000000000000000600082015250565b60048110615e9e57615e9d615892565b5b50565b615eaa816156f2565b8114615eb557600080fd5b50565b615ec18161573b565b8114615ecc57600080fd5b5056fea264697066735822122002b2b8533ecce685a63224626889d23410e4f3bfe196bfe390008013d8da6ff964736f6c63430008040033",
  "linkReferences": {},
  "deployedLinkReferences": {}
}