{
  "_format": "hh-sol-artifact-1",
  "contractName": "ZkFischer",
  "sourceName": "contracts/ZkFischer.sol",
  "abi": [
    {
      "inputs": [
        {
          "internalType": "address",
          "name": "_placementVerifier",
          "type": "address"
        },
        {
          "internalType": "address",
          "name": "_moveVerifier",
          "type": "address"
        },
        {
          "internalType": "address",
          "name": "_zkFischerUtilsAddr",
          "type": "address"
        }
      ],
      "stateMutability": "nonpayable",
      "type": "constructor"
    },
    {
      "anonymous": false,
      "inputs": [
        {
          "indexed": false,
          "internalType": "uint256",
          "name": "gameId",
          "type": "uint256"
        },
        {
          "indexed": true,
          "internalType": "address",
          "name": "winner",
          "type": "address"
        }
      ],
      "name": "GameEnd",
      "type": "event"
    },
    {
      "anonymous": false,
      "inputs": [
        {
          "indexed": false,
          "internalType": "uint256",
          "name": "gameId",
          "type": "uint256"
        },
        {
          "indexed": true,
          "internalType": "address",
          "name": "player",
          "type": "address"
        }
      ],
      "name": "Move",
      "type": "event"
    },
    {
      "anonymous": false,
      "inputs": [
        {
          "indexed": false,
          "internalType": "uint256",
          "name": "gameId",
          "type": "uint256"
        },
        {
          "indexed": false,
          "internalType": "enum GamePhase",
          "name": "phase",
          "type": "uint8"
        }
      ],
      "name": "PhaseChange",
      "type": "event"
    },
    {
      "anonymous": false,
      "inputs": [
        {
          "indexed": false,
          "internalType": "uint256",
          "name": "gameId",
          "type": "uint256"
        },
        {
          "indexed": true,
          "internalType": "address",
          "name": "player",
          "type": "address"
        }
      ],
      "name": "Register",
      "type": "event"
    },
    {
      "anonymous": false,
      "inputs": [
        {
          "indexed": false,
          "internalType": "uint256",
          "name": "gameId",
          "type": "uint256"
        },
        {
          "indexed": true,
          "internalType": "address",
          "name": "player",
          "type": "address"
        }
      ],
      "name": "SetupBoard",
      "type": "event"
    },
    {
      "inputs": [
        {
          "internalType": "uint256",
          "name": "",
          "type": "uint256"
        }
      ],
      "name": "games",
      "outputs": [
        {
          "internalType": "address",
          "name": "player1",
          "type": "address"
        },
        {
          "internalType": "address",
          "name": "player2",
          "type": "address"
        },
        {
          "internalType": "uint256",
          "name": "setupHash1",
          "type": "uint256"
        },
        {
          "internalType": "uint256",
          "name": "setupHash2",
          "type": "uint256"
        },
        {
          "internalType": "uint256",
          "name": "gameKey",
          "type": "uint256"
        },
        {
          "internalType": "bool",
          "name": "isWhiteMove",
          "type": "bool"
        },
        {
          "internalType": "enum GamePhase",
          "name": "phase",
          "type": "uint8"
        }
      ],
      "stateMutability": "view",
      "type": "function"
    },
    {
      "inputs": [
        {
          "internalType": "uint256",
          "name": "gameId",
          "type": "uint256"
        }
      ],
      "name": "getBoard",
      "outputs": [
        {
          "internalType": "uint256[8][8]",
          "name": "",
          "type": "uint256[8][8]"
        }
      ],
      "stateMutability": "view",
      "type": "function"
    },
    {
      "inputs": [
        {
          "internalType": "uint256",
          "name": "gameId",
          "type": "uint256"
        },
        {
          "internalType": "uint256",
          "name": "i",
          "type": "uint256"
        },
        {
          "internalType": "uint256",
          "name": "j",
          "type": "uint256"
        }
      ],
      "name": "getStartingFile",
      "outputs": [
        {
          "internalType": "uint256",
          "name": "",
          "type": "uint256"
        }
      ],
      "stateMutability": "view",
      "type": "function"
    },
    {
      "inputs": [
        {
          "internalType": "uint256",
          "name": "gameId",
          "type": "uint256"
        },
        {
          "internalType": "uint256[2]",
          "name": "fromSq",
          "type": "uint256[2]"
        },
        {
          "internalType": "uint256[2]",
          "name": "toSq",
          "type": "uint256[2]"
        },
        {
          "components": [
            {
              "internalType": "uint256[2]",
              "name": "a",
              "type": "uint256[2]"
            },
            {
              "internalType": "uint256[2][2]",
              "name": "b",
              "type": "uint256[2][2]"
            },
            {
              "internalType": "uint256[2]",
              "name": "c",
              "type": "uint256[2]"
            },
            {
              "internalType": "uint256[9]",
              "name": "input",
              "type": "uint256[9]"
            }
          ],
          "internalType": "struct MoveVerifierInput",
          "name": "verifierInput",
          "type": "tuple"
        }
      ],
      "name": "move",
      "outputs": [],
      "stateMutability": "nonpayable",
      "type": "function"
    },
    {
      "inputs": [],
      "name": "moveVerifier",
      "outputs": [
        {
          "internalType": "address",
          "name": "",
          "type": "address"
        }
      ],
      "stateMutability": "view",
      "type": "function"
    },
    {
      "inputs": [],
      "name": "placementVerifier",
      "outputs": [
        {
          "internalType": "address",
          "name": "",
          "type": "address"
        }
      ],
      "stateMutability": "view",
      "type": "function"
    },
    {
      "inputs": [
        {
          "internalType": "uint256",
          "name": "gameId",
          "type": "uint256"
        }
      ],
      "name": "register",
      "outputs": [],
      "stateMutability": "nonpayable",
      "type": "function"
    },
    {
      "inputs": [
        {
          "internalType": "uint256",
          "name": "gameId",
          "type": "uint256"
        },
        {
          "components": [
            {
              "internalType": "uint256[2]",
              "name": "a",
              "type": "uint256[2]"
            },
            {
              "internalType": "uint256[2][2]",
              "name": "b",
              "type": "uint256[2][2]"
            },
            {
              "internalType": "uint256[2]",
              "name": "c",
              "type": "uint256[2]"
            },
            {
              "internalType": "uint256[4]",
              "name": "input",
              "type": "uint256[4]"
            }
          ],
          "internalType": "struct PlacementVerifierInput",
          "name": "verifierInput",
          "type": "tuple"
        }
      ],
      "name": "setupBoard",
      "outputs": [],
      "stateMutability": "nonpayable",
      "type": "function"
    },
    {
      "inputs": [],
      "name": "zkFischerUtils",
      "outputs": [
        {
          "internalType": "contract ZkFischerUtils",
          "name": "",
          "type": "address"
        }
      ],
      "stateMutability": "view",
      "type": "function"
    },
    {
      "inputs": [],
      "name": "zkFischerUtilsAddr",
      "outputs": [
        {
          "internalType": "address",
          "name": "",
          "type": "address"
        }
      ],
      "stateMutability": "view",
      "type": "function"
    }
  ],
  "bytecode": "0x60806040523480156200001157600080fd5b50604051620049823803806200498283398181016040528101906200003791906200017a565b82600260006101000a81548173ffffffffffffffffffffffffffffffffffffffff021916908373ffffffffffffffffffffffffffffffffffffffff16021790555081600360006101000a81548173ffffffffffffffffffffffffffffffffffffffff021916908373ffffffffffffffffffffffffffffffffffffffff160217905550806000806101000a81548173ffffffffffffffffffffffffffffffffffffffff021916908373ffffffffffffffffffffffffffffffffffffffff16021790555060008054906101000a900473ffffffffffffffffffffffffffffffffffffffff16600160006101000a81548173ffffffffffffffffffffffffffffffffffffffff021916908373ffffffffffffffffffffffffffffffffffffffff1602179055505050506200021e565b600081519050620001748162000204565b92915050565b6000806000606084860312156200019057600080fd5b6000620001a08682870162000163565b9350506020620001b38682870162000163565b9250506040620001c68682870162000163565b9150509250925092565b6000620001dd82620001e4565b9050919050565b600073ffffffffffffffffffffffffffffffffffffffff82169050919050565b6200020f81620001d0565b81146200021b57600080fd5b50565b614754806200022e6000396000f3fe608060405234801561001057600080fd5b506004361061009e5760003560e01c8063c3d375b011610066578063c3d375b014610175578063d173bf9c14610191578063e693e41b146101af578063e841ab9b146101cd578063f207564e146101e95761009e565b80630e21ae25146100a3578063117a5b90146100c157806345e09e54146100f7578063531ac6b21461012757806391b8787414610157575b600080fd5b6100ab610205565b6040516100b89190613b98565b60405180910390f35b6100db60048036038101906100d69190613491565b610229565b6040516100ee9796959493929190613bb3565b60405180910390f35b610111600480360381019061010c9190613491565b6102c5565b60405161011e9190613c22565b60405180910390f35b610141600480360381019061013c919061355b565b61035e565b60405161014e9190613f10565b60405180910390f35b61015f61045e565b60405161016c9190613d15565b60405180910390f35b61018f600480360381019061018a919061351e565b610484565b005b610199610da4565b6040516101a69190613b98565b60405180910390f35b6101b7610dca565b6040516101c49190613b98565b60405180910390f35b6101e760048036038101906101e291906134ba565b610df0565b005b61020360048036038101906101fe9190613491565b61237d565b005b60008054906101000a900473ffffffffffffffffffffffffffffffffffffffff1681565b60046020528060005260406000206000915090508060000160009054906101000a900473ffffffffffffffffffffffffffffffffffffffff16908060010160009054906101000a900473ffffffffffffffffffffffffffffffffffffffff16908060020154908060030154908060040154908060850160009054906101000a900460ff16908060850160019054906101000a900460ff16905087565b6102cd612ee8565b60046000838152602001908152602001600020604501600880602002604051908101604052809291906000905b828210156103535783826008020160088060200260405190810160405280929190826008801561033f576020028201915b81548152602001906001019080831161032b575b5050505050815260200190600101906102fa565b505050509050919050565b6000826000111580156103715750600883105b801561037e575081600011155b801561038a5750600882105b6103c9576040517f08c379a00000000000000000000000000000000000000000000000000000000081526004016103c090613d70565b60405180910390fd5b600460008581526020019081526020016000206005018360088110610417577f4e487b7100000000000000000000000000000000000000000000000000000000600052603260045260246000fd5b600802018260088110610453577f4e487b7100000000000000000000000000000000000000000000000000000000600052603260045260246000fd5b015490509392505050565b600160009054906101000a900473ffffffffffffffffffffffffffffffffffffffff1681565b8160018060038111156104c0577f4e487b7100000000000000000000000000000000000000000000000000000000600052602160045260246000fd5b6004600084815260200190815260200160002060850160019054906101000a900460ff16600381111561051c577f4e487b7100000000000000000000000000000000000000000000000000000000600052602160045260246000fd5b1461055c576040517f08c379a000000000000000000000000000000000000000000000000000000000815260040161055390613dd0565b60405180910390fd5b6004600085815260200190815260200160002060000160009054906101000a900473ffffffffffffffffffffffffffffffffffffffff1673ffffffffffffffffffffffffffffffffffffffff163373ffffffffffffffffffffffffffffffffffffffff16148061062d57506004600085815260200190815260200160002060010160009054906101000a900473ffffffffffffffffffffffffffffffffffffffff1673ffffffffffffffffffffffffffffffffffffffff163373ffffffffffffffffffffffffffffffffffffffff16145b61066c576040517f08c379a000000000000000000000000000000000000000000000000000000000815260040161066390613df0565b60405180910390fd5b600183606001516000600481106106ac577f4e487b7100000000000000000000000000000000000000000000000000000000600052603260045260246000fd5b6020020151146106f1576040517f08c379a00000000000000000000000000000000000000000000000000000000081526004016106e890613db0565b60405180910390fd5b600260009054906101000a900473ffffffffffffffffffffffffffffffffffffffff1673ffffffffffffffffffffffffffffffffffffffff16635fe8c13b84600001518560200151866040015187606001516040518563ffffffff1660e01b81526004016107629493929190613c87565b60206040518083038186803b15801561077a57600080fd5b505afa15801561078e573d6000803e3d6000fd5b505050506040513d601f19601f820116820180604052508101906107b29190613468565b6107f1576040517f08c379a00000000000000000000000000000000000000000000000000000000081526004016107e890613ef0565b60405180910390fd5b6004600085815260200190815260200160002060000160009054906101000a900473ffffffffffffffffffffffffffffffffffffffff1673ffffffffffffffffffffffffffffffffffffffff163373ffffffffffffffffffffffffffffffffffffffff161415610a385760006004600086815260200190815260200160002060020154146108b4576040517f08c379a00000000000000000000000000000000000000000000000000000000081526004016108ab90613d30565b60405180910390fd5b82606001516001600481106108f2577f4e487b7100000000000000000000000000000000000000000000000000000000600052603260045260246000fd5b60200201516004600086815260200190815260200160002060020181905550600560046000868152602001908152602001600020604501600760088110610962577f4e487b7100000000000000000000000000000000000000000000000000000000600052603260045260246000fd5b6008020184606001516002600481106109a4577f4e487b7100000000000000000000000000000000000000000000000000000000600052603260045260246000fd5b6020020151600881106109e0577f4e487b7100000000000000000000000000000000000000000000000000000000600052603260045260246000fd5b01819055503373ffffffffffffffffffffffffffffffffffffffff167fc6efe3544b5ec219478d9fe63dd7485bc7e6f24e3b719aa82e5b20c384ab051785604051610a2b9190613f10565b60405180910390a2610cbb565b6004600085815260200190815260200160002060010160009054906101000a900473ffffffffffffffffffffffffffffffffffffffff1673ffffffffffffffffffffffffffffffffffffffff163373ffffffffffffffffffffffffffffffffffffffff161415610c7f576000600460008681526020019081526020016000206003015414610afb576040517f08c379a0000000000000000000000000000000000000000000000000000000008152600401610af290613d90565b60405180910390fd5b8260600151600160048110610b39577f4e487b7100000000000000000000000000000000000000000000000000000000600052603260045260246000fd5b60200201516004600086815260200190815260200160002060030181905550600f60046000868152602001908152602001600020604501600060088110610ba9577f4e487b7100000000000000000000000000000000000000000000000000000000600052603260045260246000fd5b600802018460600151600260048110610beb577f4e487b7100000000000000000000000000000000000000000000000000000000600052603260045260246000fd5b602002015160088110610c27577f4e487b7100000000000000000000000000000000000000000000000000000000600052603260045260246000fd5b01819055503373ffffffffffffffffffffffffffffffffffffffff167fc6efe3544b5ec219478d9fe63dd7485bc7e6f24e3b719aa82e5b20c384ab051785604051610c729190613f10565b60405180910390a2610cba565b6040517f08c379a0000000000000000000000000000000000000000000000000000000008152600401610cb190613e10565b60405180910390fd5b5b6000600460008681526020019081526020016000206003015414158015610cf957506000600460008681526020019081526020016000206002015414155b15610d9e5760026004600086815260200190815260200160002060850160016101000a81548160ff02191690836003811115610d5e577f4e487b7100000000000000000000000000000000000000000000000000000000600052602160045260246000fd5b02179055507fec35bf9b98a4fe496be4d0d90c57e4ff089d0fd239bd8653dfa3ef8b522a3dc9846002604051610d95929190613f2b565b60405180910390a15b50505050565b600360009054906101000a900473ffffffffffffffffffffffffffffffffffffffff1681565b600260009054906101000a900473ffffffffffffffffffffffffffffffffffffffff1681565b836002806003811115610e2c577f4e487b7100000000000000000000000000000000000000000000000000000000600052602160045260246000fd5b6004600084815260200190815260200160002060850160019054906101000a900460ff166003811115610e88577f4e487b7100000000000000000000000000000000000000000000000000000000600052602160045260246000fd5b14610ec8576040517f08c379a0000000000000000000000000000000000000000000000000000000008152600401610ebf90613dd0565b60405180910390fd5b60006004600088815260200190815260200160002060000160009054906101000a900473ffffffffffffffffffffffffffffffffffffffff1673ffffffffffffffffffffffffffffffffffffffff163373ffffffffffffffffffffffffffffffffffffffff161415610fb5576004600088815260200190815260200160002060850160009054906101000a900460ff16610f97576040517f08c379a0000000000000000000000000000000000000000000000000000000008152600401610f8e90613ed0565b60405180910390fd5b600460008881526020019081526020016000206002015490506110dd565b6004600088815260200190815260200160002060010160009054906101000a900473ffffffffffffffffffffffffffffffffffffffff1673ffffffffffffffffffffffffffffffffffffffff163373ffffffffffffffffffffffffffffffffffffffff1614156110a1576004600088815260200190815260200160002060850160009054906101000a900460ff1615611083576040517f08c379a000000000000000000000000000000000000000000000000000000000815260040161107a90613d50565b60405180910390fd5b600460008881526020019081526020016000206003015490506110dc565b6040517f08c379a00000000000000000000000000000000000000000000000000000000081526004016110d390613df0565b60405180910390fd5b5b6000600460008981526020019081526020016000206045018760006002811061112f577f4e487b7100000000000000000000000000000000000000000000000000000000600052603260045260246000fd5b60200201356008811061116b577f4e487b7100000000000000000000000000000000000000000000000000000000600052603260045260246000fd5b60080201876001600281106111a9577f4e487b7100000000000000000000000000000000000000000000000000000000600052603260045260246000fd5b6020020135600881106111e5577f4e487b7100000000000000000000000000000000000000000000000000000000600052603260045260246000fd5b01549050600981141580156111fb575060138114155b156112ce57600160009054906101000a900473ffffffffffffffffffffffffffffffffffffffff1673ffffffffffffffffffffffffffffffffffffffff166326d1386f600460008b81526020019081526020016000206045018989600460008e815260200190815260200160002060850160009054906101000a900460ff166040518563ffffffff1660e01b81526004016112999493929190613c3e565b60006040518083038186803b1580156112b157600080fd5b505afa1580156112c5573d6000803e3d6000fd5b505050506119b2565b6112d6612f16565b600160009054906101000a900473ffffffffffffffffffffffffffffffffffffffff1673ffffffffffffffffffffffffffffffffffffffff1663c55b92eb600460008c81526020019081526020016000206045018a8a600460008f815260200190815260200160002060850160009054906101000a900460ff166040518563ffffffff1660e01b815260040161136f9493929190613c3e565b60606040518083038186803b15801561138757600080fd5b505afa15801561139b573d6000803e3d6000fd5b505050506040513d601f19601f820116820180604052508101906113bf919061343f565b905060008660600151600360098110611401577f4e487b7100000000000000000000000000000000000000000000000000000000600052603260045260246000fd5b602002015160028860600151600260098110611446577f4e487b7100000000000000000000000000000000000000000000000000000000600052603260045260246000fd5b602002015161145591906141fb565b60048960600151600160098110611495577f4e487b7100000000000000000000000000000000000000000000000000000000600052603260045260246000fd5b60200201516114a491906141fb565b6114ae91906141a5565b6114b891906141a5565b90506114c2612f16565b60005b60038110156115795788606001518160056114e091906141a5565b60098110611517577f4e487b7100000000000000000000000000000000000000000000000000000000600052603260045260246000fd5b6020020151828260038110611555577f4e487b7100000000000000000000000000000000000000000000000000000000600052603260045260246000fd5b602002019060ff16908160ff1681525050808061157190614357565b9150506114c5565b50600188606001516000600981106115ba577f4e487b7100000000000000000000000000000000000000000000000000000000600052603260045260246000fd5b6020020151146115ff576040517f08c379a00000000000000000000000000000000000000000000000000000000081526004016115f690613db0565b60405180910390fd5b600460008c81526020019081526020016000206005018a60006002811061164f577f4e487b7100000000000000000000000000000000000000000000000000000000600052603260045260246000fd5b60200201356008811061168b577f4e487b7100000000000000000000000000000000000000000000000000000000600052603260045260246000fd5b600802018a6001600281106116c9577f4e487b7100000000000000000000000000000000000000000000000000000000600052603260045260246000fd5b602002013560088110611705577f4e487b7100000000000000000000000000000000000000000000000000000000600052603260045260246000fd5b01548214611748576040517f08c379a000000000000000000000000000000000000000000000000000000000815260040161173f90613e30565b60405180910390fd5b848860600151600460098110611787577f4e487b7100000000000000000000000000000000000000000000000000000000600052603260045260246000fd5b6020020151146117cc576040517f08c379a00000000000000000000000000000000000000000000000000000000081526004016117c390613e90565b60405180910390fd5b60005b60038110156118ad57838160038110611811577f4e487b7100000000000000000000000000000000000000000000000000000000600052603260045260246000fd5b602002015160ff16828260038110611852577f4e487b7100000000000000000000000000000000000000000000000000000000600052603260045260246000fd5b602002015160ff161461189a576040517f08c379a000000000000000000000000000000000000000000000000000000000815260040161189190613eb0565b60405180910390fd5b80806118a590614357565b9150506117cf565b50600360009054906101000a900473ffffffffffffffffffffffffffffffffffffffff1673ffffffffffffffffffffffffffffffffffffffff1663c542c93b89600001518a602001518b604001518c606001516040518563ffffffff1660e01b815260040161191f9493929190613cce565b60206040518083038186803b15801561193757600080fd5b505afa15801561194b573d6000803e3d6000fd5b505050506040513d601f19601f8201168201806040525081019061196f9190613468565b6119ae576040517f08c379a00000000000000000000000000000000000000000000000000000000081526004016119a590613ef0565b60405180910390fd5b5050505b60006005600460008b815260200190815260200160002060450188600060028110611a06577f4e487b7100000000000000000000000000000000000000000000000000000000600052603260045260246000fd5b602002013560088110611a42577f4e487b7100000000000000000000000000000000000000000000000000000000600052603260045260246000fd5b6008020188600160028110611a80577f4e487b7100000000000000000000000000000000000000000000000000000000600052603260045260246000fd5b602002013560088110611abc577f4e487b7100000000000000000000000000000000000000000000000000000000600052603260045260246000fd5b01541480611bd15750600f600460008b815260200190815260200160002060450188600060028110611b17577f4e487b7100000000000000000000000000000000000000000000000000000000600052603260045260246000fd5b602002013560088110611b53577f4e487b7100000000000000000000000000000000000000000000000000000000600052603260045260246000fd5b6008020188600160028110611b91577f4e487b7100000000000000000000000000000000000000000000000000000000600052603260045260246000fd5b602002013560088110611bcd577f4e487b7100000000000000000000000000000000000000000000000000000000600052603260045260246000fd5b0154145b9050600460008a815260200190815260200160002060450188600060028110611c23577f4e487b7100000000000000000000000000000000000000000000000000000000600052603260045260246000fd5b602002013560088110611c5f577f4e487b7100000000000000000000000000000000000000000000000000000000600052603260045260246000fd5b6008020188600160028110611c9d577f4e487b7100000000000000000000000000000000000000000000000000000000600052603260045260246000fd5b602002013560088110611cd9577f4e487b7100000000000000000000000000000000000000000000000000000000600052603260045260246000fd5b0154600460008b815260200190815260200160002060450188600060028110611d2b577f4e487b7100000000000000000000000000000000000000000000000000000000600052603260045260246000fd5b602002013560088110611d67577f4e487b7100000000000000000000000000000000000000000000000000000000600052603260045260246000fd5b6008020188600160028110611da5577f4e487b7100000000000000000000000000000000000000000000000000000000600052603260045260246000fd5b602002013560088110611de1577f4e487b7100000000000000000000000000000000000000000000000000000000600052603260045260246000fd5b01819055506000600460008b815260200190815260200160002060450189600060028110611e38577f4e487b7100000000000000000000000000000000000000000000000000000000600052603260045260246000fd5b602002013560088110611e74577f4e487b7100000000000000000000000000000000000000000000000000000000600052603260045260246000fd5b6008020189600160028110611eb2577f4e487b7100000000000000000000000000000000000000000000000000000000600052603260045260246000fd5b602002013560088110611eee577f4e487b7100000000000000000000000000000000000000000000000000000000600052603260045260246000fd5b0181905550600460008a815260200190815260200160002060050188600060028110611f43577f4e487b7100000000000000000000000000000000000000000000000000000000600052603260045260246000fd5b602002013560088110611f7f577f4e487b7100000000000000000000000000000000000000000000000000000000600052603260045260246000fd5b6008020188600160028110611fbd577f4e487b7100000000000000000000000000000000000000000000000000000000600052603260045260246000fd5b602002013560088110611ff9577f4e487b7100000000000000000000000000000000000000000000000000000000600052603260045260246000fd5b0154600460008b81526020019081526020016000206005018860006002811061204b577f4e487b7100000000000000000000000000000000000000000000000000000000600052603260045260246000fd5b602002013560088110612087577f4e487b7100000000000000000000000000000000000000000000000000000000600052603260045260246000fd5b60080201886001600281106120c5577f4e487b7100000000000000000000000000000000000000000000000000000000600052603260045260246000fd5b602002013560088110612101577f4e487b7100000000000000000000000000000000000000000000000000000000600052603260045260246000fd5b01819055506000600460008b815260200190815260200160002060050189600060028110612158577f4e487b7100000000000000000000000000000000000000000000000000000000600052603260045260246000fd5b602002013560088110612194577f4e487b7100000000000000000000000000000000000000000000000000000000600052603260045260246000fd5b60080201896001600281106121d2577f4e487b7100000000000000000000000000000000000000000000000000000000600052603260045260246000fd5b60200201356008811061220e577f4e487b7100000000000000000000000000000000000000000000000000000000600052603260045260246000fd5b0181905550600460008a815260200190815260200160002060850160009054906101000a900460ff1615600460008b815260200190815260200160002060850160006101000a81548160ff0219169083151502179055508015612323576003600460008b815260200190815260200160002060850160016101000a81548160ff021916908360038111156122cb577f4e487b7100000000000000000000000000000000000000000000000000000000600052602160045260246000fd5b02179055503373ffffffffffffffffffffffffffffffffffffffff167f9718dbe118eb2ae68ab354f05d6bc7e40cfbb993a521bee9314324bec4dad6618a6040516123169190613f10565b60405180910390a2612372565b3373ffffffffffffffffffffffffffffffffffffffff167f8ceddd02f4fb8ef0d5d6212cf4c91d59d366e04b977e8b2b944168d2a6d850818a6040516123699190613f10565b60405180910390a25b505050505050505050565b8060008060038111156123b9577f4e487b7100000000000000000000000000000000000000000000000000000000600052602160045260246000fd5b6004600084815260200190815260200160002060850160019054906101000a900460ff166003811115612415577f4e487b7100000000000000000000000000000000000000000000000000000000600052602160045260246000fd5b14612455576040517f08c379a000000000000000000000000000000000000000000000000000000000815260040161244c90613dd0565b60405180910390fd5b600073ffffffffffffffffffffffffffffffffffffffff166004600085815260200190815260200160002060000160009054906101000a900473ffffffffffffffffffffffffffffffffffffffff1673ffffffffffffffffffffffffffffffffffffffff161415612571576124c983612803565b336004600085815260200190815260200160002060000160006101000a81548173ffffffffffffffffffffffffffffffffffffffff021916908373ffffffffffffffffffffffffffffffffffffffff1602179055503373ffffffffffffffffffffffffffffffffffffffff167fa902c0ee3df5ddb3d1ab80437a22cd86a19a2295f7c96c5e387ea29d9d0bfaad846040516125649190613f10565b60405180910390a26127fe565b3373ffffffffffffffffffffffffffffffffffffffff166004600085815260200190815260200160002060000160009054906101000a900473ffffffffffffffffffffffffffffffffffffffff1673ffffffffffffffffffffffffffffffffffffffff161415612616576040517f08c379a000000000000000000000000000000000000000000000000000000000815260040161260d90613e50565b60405180910390fd5b600073ffffffffffffffffffffffffffffffffffffffff166004600085815260200190815260200160002060010160009054906101000a900473ffffffffffffffffffffffffffffffffffffffff1673ffffffffffffffffffffffffffffffffffffffff16146126bb576040517f08c379a00000000000000000000000000000000000000000000000000000000081526004016126b290613e70565b60405180910390fd5b336004600085815260200190815260200160002060010160006101000a81548173ffffffffffffffffffffffffffffffffffffffff021916908373ffffffffffffffffffffffffffffffffffffffff1602179055503373ffffffffffffffffffffffffffffffffffffffff167fa902c0ee3df5ddb3d1ab80437a22cd86a19a2295f7c96c5e387ea29d9d0bfaad846040516127569190613f10565b60405180910390a260016004600085815260200190815260200160002060850160016101000a81548160ff021916908360038111156127be577f4e487b7100000000000000000000000000000000000000000000000000000000600052602160045260246000fd5b02179055507fec35bf9b98a4fe496be4d0d90c57e4ff089d0fd239bd8653dfa3ef8b522a3dc98360016040516127f5929190613f2b565b60405180910390a15b505050565b604051806101000160405280604051806101000160405280600060ff168152602001600160ff168152602001600260ff168152602001600360ff168152602001600460ff168152602001600560ff168152602001600660ff168152602001600760ff168152508152602001604051806101000160405280600060ff168152602001600160ff168152602001600260ff168152602001600360ff168152602001600460ff168152602001600560ff168152602001600660ff168152602001600760ff168152508152602001604051806101000160405280606360ff168152602001606360ff168152602001606360ff168152602001606360ff168152602001606360ff168152602001606360ff168152602001606360ff168152602001606360ff168152508152602001604051806101000160405280606360ff168152602001606360ff168152602001606360ff168152602001606360ff168152602001606360ff168152602001606360ff168152602001606360ff168152602001606360ff168152508152602001604051806101000160405280606360ff168152602001606360ff168152602001606360ff168152602001606360ff168152602001606360ff168152602001606360ff168152602001606360ff168152602001606360ff168152508152602001604051806101000160405280606360ff168152602001606360ff168152602001606360ff168152602001606360ff168152602001606360ff168152602001606360ff168152602001606360ff168152602001606360ff168152508152602001604051806101000160405280600060ff168152602001600160ff168152602001600260ff168152602001600360ff168152602001600460ff168152602001600560ff168152602001600660ff168152602001600760ff168152508152602001604051806101000160405280600060ff168152602001600160ff168152602001600260ff168152602001600360ff168152602001600460ff168152602001600560ff168152602001600660ff168152602001600760ff1681525081525060046000838152602001908152602001600020600501906008612b29929190612f38565b50604051806101000160405280604051806101000160405280601360ff168152602001601360ff168152602001601360ff168152602001601360ff168152602001601360ff168152602001601360ff168152602001601360ff168152602001601360ff168152508152602001604051806101000160405280601060ff168152602001601060ff168152602001601060ff168152602001601060ff168152602001601060ff168152602001601060ff168152602001601060ff168152602001601060ff168152508152602001604051806101000160405280600060ff168152602001600060ff168152602001600060ff168152602001600060ff168152602001600060ff168152602001600060ff168152602001600060ff168152602001600060ff168152508152602001604051806101000160405280600060ff168152602001600060ff168152602001600060ff168152602001600060ff168152602001600060ff168152602001600060ff168152602001600060ff168152602001600060ff168152508152602001604051806101000160405280600060ff168152602001600060ff168152602001600060ff168152602001600060ff168152602001600060ff168152602001600060ff168152602001600060ff168152602001600060ff168152508152602001604051806101000160405280600060ff168152602001600060ff168152602001600060ff168152602001600060ff168152602001600060ff168152602001600060ff168152602001600060ff168152602001600060ff168152508152602001604051806101000160405280600660ff168152602001600660ff168152602001600660ff168152602001600660ff168152602001600660ff168152602001600660ff168152602001600660ff168152602001600660ff168152508152602001604051806101000160405280600960ff168152602001600960ff168152602001600960ff168152602001600960ff168152602001600960ff168152602001600960ff168152602001600960ff168152602001600960ff1681525081525060046000838152602001908152602001600020604501906008612e50929190612f38565b5060006004600083815260200190815260200160002060850160016101000a81548160ff02191690836003811115612eb1577f4e487b7100000000000000000000000000000000000000000000000000000000600052602160045260246000fd5b021790555060016004600083815260200190815260200160002060850160006101000a81548160ff02191690831515021790555050565b6040518061010001604052806008905b612f00612f88565b815260200190600190039081612ef85790505090565b6040518060600160405280600390602082028036833780820191505090505090565b82600880028101928215612f77579160200282015b82811115612f7657825182906008612f66929190612fab565b5091602001919060080190612f4d565b5b509050612f849190612ff0565b5090565b604051806101000160405280600890602082028036833780820191505090505090565b8260088101928215612fdf579160200282015b82811115612fde578251829060ff16905591602001919060010190612fbe565b5b509050612fec9190613014565b5090565b5b8082111561301057600081816130079190613031565b50600801612ff1565b5090565b5b8082111561302d576000816000905550600101613015565b5090565b5080600801906130419190613014565b50565b600061305761305284613f79565b613f54565b9050808285604086028201111561306d57600080fd5b60005b8581101561309d57816130838882613278565b845260208401935060408301925050600181019050613070565b5050509392505050565b60006130ba6130b584613f9f565b613f54565b905080828560208602820111156130d057600080fd5b60005b8581101561310057816130e68882613415565b8452602084019350602083019250506001810190506130d3565b5050509392505050565b600061311d61311884613fc5565b613f54565b9050808285602086028201111561313357600080fd5b60005b8581101561316357816131498882613415565b845260208401935060208301925050600181019050613136565b5050509392505050565b600061318061317b84613feb565b613f54565b9050808285602086028201111561319657600080fd5b60005b858110156131c657816131ac8882613415565b845260208401935060208301925050600181019050613199565b5050509392505050565b60006131e36131de84614011565b613f54565b905080828560208602820111156131f957600080fd5b60005b85811015613229578161320f888261342a565b8452602084019350602083019250506001810190506131fc565b5050509392505050565b600082601f83011261324457600080fd5b6002613251848285613044565b91505092915050565b60008190508260206002028201111561327257600080fd5b92915050565b600082601f83011261328957600080fd5b60026132968482856130a7565b91505092915050565b600082601f8301126132b057600080fd5b60046132bd84828561310a565b91505092915050565b600082601f8301126132d757600080fd5b60096132e484828561316d565b91505092915050565b600082601f8301126132fe57600080fd5b600361330b8482856131d0565b91505092915050565b600081519050613323816146d9565b92915050565b6000610220828403121561333c57600080fd5b6133466080613f54565b9050600061335684828501613278565b600083015250604061336a84828501613233565b60208301525060c061337e84828501613278565b604083015250610100613393848285016132c6565b60608301525092915050565b600061018082840312156133b257600080fd5b6133bc6080613f54565b905060006133cc84828501613278565b60008301525060406133e084828501613233565b60208301525060c06133f484828501613278565b6040830152506101006134098482850161329f565b60608301525092915050565b600081359050613424816146f0565b92915050565b60008151905061343981614707565b92915050565b60006060828403121561345157600080fd5b600061345f848285016132ed565b91505092915050565b60006020828403121561347a57600080fd5b600061348884828501613314565b91505092915050565b6000602082840312156134a357600080fd5b60006134b184828501613415565b91505092915050565b6000806000806102c085870312156134d157600080fd5b60006134df87828801613415565b94505060206134f08782880161325a565b93505060606135018782880161325a565b92505060a061351287828801613329565b91505092959194509250565b6000806101a0838503121561353257600080fd5b600061354085828601613415565b92505060206135518582860161339f565b9150509250929050565b60008060006060848603121561357057600080fd5b600061357e86828701613415565b935050602061358f86828701613415565b92505060406135a086828701613415565b9150509250925092565b60006135b6838361372f565b60408301905092915050565b60006135ce8383613834565b6101008301905092915050565b60006135e7838361388b565b6101008301905092915050565b60006136008383613b7a565b60208301905092915050565b6136158161425f565b82525050565b61362481614087565b61362e8184614147565b925061363982614037565b8060005b8381101561366a57815161365187826135aa565b965061365c836140df565b92505060018101905061363d565b505050505050565b61367b81614092565b6136858184614152565b925061369082614041565b8060005b838110156136c15781516136a887826135c2565b96506136b3836140ec565b925050600181019050613694565b505050505050565b6136d28161409d565b6136dc8184614152565b92506136e78261404b565b8060005b8381101561371757816136fe87826135db565b9650613709836140f9565b9250506001810190506136eb565b505050505050565b61372b604083836142fd565b5050565b613738816140a8565b613742818461415d565b925061374d82614055565b8060005b8381101561377e57815161376587826135f4565b965061377083614106565b925050600181019050613751565b505050505050565b61378f816140a8565b6137998184614168565b92506137a482614055565b8060005b838110156137d55781516137bc87826135f4565b96506137c783614106565b9250506001810190506137a8565b505050505050565b6137e6816140b3565b6137f08184614173565b92506137fb8261405f565b8060005b8381101561382c57815161381387826135f4565b965061381e83614113565b9250506001810190506137ff565b505050505050565b61383d816140be565b613847818461417e565b925061385282614069565b8060005b8381101561388357815161386a87826135f4565b965061387583614120565b925050600181019050613856565b505050505050565b613894816140c9565b61389e818461417e565b92506138a982614073565b8060005b838110156138e1576138be8261442d565b6138c887826135f4565b96506138d38361412d565b9250506001810190506138ad565b505050505050565b6138f2816140d4565b6138fc8184614189565b92506139078261407d565b8060005b8381101561393857815161391f87826135f4565b965061392a8361413a565b92505060018101905061390b565b505050505050565b61394981614271565b82525050565b613958816142c7565b82525050565b613967816142eb565b82525050565b600061397a601083614194565b91506139858261445e565b602082019050919050565b600061399d600e83614194565b91506139a882614487565b602082019050919050565b60006139c0601183614194565b91506139cb826144b0565b602082019050919050565b60006139e3601083614194565b91506139ee826144d9565b602082019050919050565b6000613a06601583614194565b9150613a1182614502565b602082019050919050565b6000613a29600c83614194565b9150613a348261452b565b602082019050919050565b6000613a4c601983614194565b9150613a5782614554565b602082019050919050565b6000613a6f601083614194565b9150613a7a8261457d565b602082019050919050565b6000613a92600f83614194565b9150613a9d826145a6565b602082019050919050565b6000613ab5600b83614194565b9150613ac0826145cf565b602082019050919050565b6000613ad8600983614194565b9150613ae3826145f8565b602082019050919050565b6000613afb601283614194565b9150613b0682614621565b602082019050919050565b6000613b1e601383614194565b9150613b298261464a565b602082019050919050565b6000613b41600e83614194565b9150613b4c82614673565b602082019050919050565b6000613b64600983614194565b9150613b6f8261469c565b602082019050919050565b613b83816142b0565b82525050565b613b92816142b0565b82525050565b6000602082019050613bad600083018461360c565b92915050565b600060e082019050613bc8600083018a61360c565b613bd5602083018961360c565b613be26040830188613b89565b613bef6060830187613b89565b613bfc6080830186613b89565b613c0960a0830185613940565b613c1660c083018461395e565b98975050505050505050565b600061080082019050613c386000830184613672565b92915050565b60006108a082019050613c5460008301876136c9565b613c6261080083018661371f565b613c7061084083018561371f565b613c7e610880830184613940565b95945050505050565b600061018082019050613c9d6000830187613786565b613caa604083018661361b565b613cb760c0830185613786565b613cc56101008301846137dd565b95945050505050565b600061022082019050613ce46000830187613786565b613cf1604083018661361b565b613cfe60c0830185613786565b613d0c6101008301846138e9565b95945050505050565b6000602082019050613d2a600083018461394f565b92915050565b60006020820190508181036000830152613d498161396d565b9050919050565b60006020820190508181036000830152613d6981613990565b9050919050565b60006020820190508181036000830152613d89816139b3565b9050919050565b60006020820190508181036000830152613da9816139d6565b9050919050565b60006020820190508181036000830152613dc9816139f9565b9050919050565b60006020820190508181036000830152613de981613a1c565b9050919050565b60006020820190508181036000830152613e0981613a3f565b9050919050565b60006020820190508181036000830152613e2981613a62565b9050919050565b60006020820190508181036000830152613e4981613a85565b9050919050565b60006020820190508181036000830152613e6981613aa8565b9050919050565b60006020820190508181036000830152613e8981613acb565b9050919050565b60006020820190508181036000830152613ea981613aee565b9050919050565b60006020820190508181036000830152613ec981613b11565b9050919050565b60006020820190508181036000830152613ee981613b34565b9050919050565b60006020820190508181036000830152613f0981613b57565b9050919050565b6000602082019050613f256000830184613b89565b92915050565b6000604082019050613f406000830185613b89565b613f4d602083018461395e565b9392505050565b6000613f5e613f6f565b9050613f6a8282614326565b919050565b6000604051905090565b600067ffffffffffffffff821115613f9457613f936143fe565b5b602082029050919050565b600067ffffffffffffffff821115613fba57613fb96143fe565b5b602082029050919050565b600067ffffffffffffffff821115613fe057613fdf6143fe565b5b602082029050919050565b600067ffffffffffffffff821115614006576140056143fe565b5b602082029050919050565b600067ffffffffffffffff82111561402c5761402b6143fe565b5b602082029050919050565b6000819050919050565b6000819050919050565b6000819050919050565b6000819050919050565b6000819050919050565b6000819050919050565b6000819050919050565b6000819050919050565b600060029050919050565b600060089050919050565b600060089050919050565b600060029050919050565b600060049050919050565b600060089050919050565b600060089050919050565b600060099050919050565b6000602082019050919050565b6000602082019050919050565b6000600882019050919050565b6000602082019050919050565b6000602082019050919050565b6000602082019050919050565b6000600182019050919050565b6000602082019050919050565b600081905092915050565b600081905092915050565b600081905092915050565b600081905092915050565b600081905092915050565b600081905092915050565b600081905092915050565b600082825260208201905092915050565b60006141b0826142b0565b91506141bb836142b0565b9250827fffffffffffffffffffffffffffffffffffffffffffffffffffffffffffffffff038211156141f0576141ef6143a0565b5b828201905092915050565b6000614206826142b0565b9150614211836142b0565b9250817fffffffffffffffffffffffffffffffffffffffffffffffffffffffffffffffff048311821515161561424a576142496143a0565b5b828202905092915050565b6000819050919050565b600061426a82614290565b9050919050565b60008115159050919050565b600081905061428b826146c5565b919050565b600073ffffffffffffffffffffffffffffffffffffffff82169050919050565b6000819050919050565b600060ff82169050919050565b60006142d2826142d9565b9050919050565b60006142e482614290565b9050919050565b60006142f68261427d565b9050919050565b82818337600083830152505050565b600061431f61431a83614451565b614255565b9050919050565b61432f82614440565b810181811067ffffffffffffffff8211171561434e5761434d6143fe565b5b80604052505050565b6000614362826142b0565b91507fffffffffffffffffffffffffffffffffffffffffffffffffffffffffffffffff821415614395576143946143a0565b5b600182019050919050565b7f4e487b7100000000000000000000000000000000000000000000000000000000600052601160045260246000fd5b7f4e487b7100000000000000000000000000000000000000000000000000000000600052602160045260246000fd5b7f4e487b7100000000000000000000000000000000000000000000000000000000600052604160045260246000fd5b6000614439825461430c565b9050919050565b6000601f19601f8301169050919050565b60008160001c9050919050565b7f503120616c726561647920736574757000000000000000000000000000000000600082015250565b7f497427732050312773207475726e000000000000000000000000000000000000600082015250565b7f696478206f75742d6f662d626f756e6473000000000000000000000000000000600082015250565b7f503220616c726561647920736574757000000000000000000000000000000000600082015250565b7f50726f6f662061737365727473206661696c7572650000000000000000000000600082015250565b7f57726f6e672070686173652e0000000000000000000000000000000000000000600082015250565b7f4e6f74207265676973746572656420666f722067616d65496400000000000000600082015250565b7f556e6578706563746564206572726f7200000000000000000000000000000000600082015250565b7f57726f6e6720706965636546696c650000000000000000000000000000000000600082015250565b7f416c726561647920726567000000000000000000000000000000000000000000600082015250565b7f47616d652066756c6c0000000000000000000000000000000000000000000000600082015250565b7f57726f6e67207265717569726564486173680000000000000000000000000000600082015250565b7f57726f6e6720616c6c6f77656450696563657300000000000000000000000000600082015250565b7f497427732050322773207475726e000000000000000000000000000000000000600082015250565b7f4261642070726f6f660000000000000000000000000000000000000000000000600082015250565b600481106146d6576146d56143cf565b5b50565b6146e281614271565b81146146ed57600080fd5b50565b6146f9816142b0565b811461470457600080fd5b50565b614710816142ba565b811461471b57600080fd5b5056fea2646970667358221220e32f1362b99c45154835761c7822dff5ff4fde42507af62f44624b425685f3e764736f6c63430008040033",
  "linkReferences": {},
  "deployedLinkReferences": {}
}