{
  "_format": "hh-sol-artifact-1",
  "contractName": "zkFischer",
  "sourceName": "contracts/zkFischer.sol",
  "abi": [
    {
      "inputs": [
        {
          "internalType": "address",
          "name": "_placementVerifier",
          "type": "address"
        },
        {
          "internalType": "address",
          "name": "_moveVerifier",
          "type": "address"
        }
      ],
      "stateMutability": "nonpayable",
      "type": "constructor"
    },
    {
      "anonymous": false,
      "inputs": [
        {
          "indexed": true,
          "internalType": "address",
          "name": "winner",
          "type": "address"
        }
      ],
      "name": "GameEnd",
      "type": "event"
    },
    {
      "anonymous": false,
      "inputs": [],
      "name": "Initialize",
      "type": "event"
    },
    {
      "anonymous": false,
      "inputs": [
        {
          "indexed": true,
          "internalType": "address",
          "name": "player",
          "type": "address"
        }
      ],
      "name": "Move",
      "type": "event"
    },
    {
      "anonymous": false,
      "inputs": [
        {
          "indexed": false,
          "internalType": "enum zkFischer.GamePhase",
          "name": "phase",
          "type": "uint8"
        }
      ],
      "name": "PhaseChange",
      "type": "event"
    },
    {
      "anonymous": false,
      "inputs": [
        {
          "indexed": true,
          "internalType": "address",
          "name": "player",
          "type": "address"
        }
      ],
      "name": "Register",
      "type": "event"
    },
    {
      "anonymous": false,
      "inputs": [
        {
          "indexed": true,
          "internalType": "address",
          "name": "player",
          "type": "address"
        }
      ],
      "name": "SetupBoard",
      "type": "event"
    },
    {
      "inputs": [
        {
          "internalType": "uint256",
          "name": "",
          "type": "uint256"
        },
        {
          "internalType": "uint256",
          "name": "",
          "type": "uint256"
        }
      ],
      "name": "board",
      "outputs": [
        {
          "internalType": "uint256",
          "name": "",
          "type": "uint256"
        }
      ],
      "stateMutability": "view",
      "type": "function"
    },
    {
      "inputs": [],
      "name": "gameKey",
      "outputs": [
        {
          "internalType": "uint256",
          "name": "",
          "type": "uint256"
        }
      ],
      "stateMutability": "view",
      "type": "function"
    },
    {
      "inputs": [
        {
          "internalType": "uint256[2]",
          "name": "fromSq",
          "type": "uint256[2]"
        },
        {
          "internalType": "uint256[2]",
          "name": "toSq",
          "type": "uint256[2]"
        },
        {
          "internalType": "uint256[2]",
          "name": "a",
          "type": "uint256[2]"
        },
        {
          "internalType": "uint256[2][2]",
          "name": "b",
          "type": "uint256[2][2]"
        },
        {
          "internalType": "uint256[2]",
          "name": "c",
          "type": "uint256[2]"
        },
        {
          "internalType": "uint256[9]",
          "name": "input",
          "type": "uint256[9]"
        }
      ],
      "name": "move",
      "outputs": [],
      "stateMutability": "nonpayable",
      "type": "function"
    },
    {
      "inputs": [],
      "name": "moveVerifier",
      "outputs": [
        {
          "internalType": "address",
          "name": "",
          "type": "address"
        }
      ],
      "stateMutability": "view",
      "type": "function"
    },
    {
      "inputs": [],
      "name": "phase",
      "outputs": [
        {
          "internalType": "enum zkFischer.GamePhase",
          "name": "",
          "type": "uint8"
        }
      ],
      "stateMutability": "view",
      "type": "function"
    },
    {
      "inputs": [],
      "name": "phasingPlayer",
      "outputs": [
        {
          "internalType": "uint256",
          "name": "",
          "type": "uint256"
        }
      ],
      "stateMutability": "view",
      "type": "function"
    },
    {
      "inputs": [],
      "name": "placementVerifier",
      "outputs": [
        {
          "internalType": "address",
          "name": "",
          "type": "address"
        }
      ],
      "stateMutability": "view",
      "type": "function"
    },
    {
      "inputs": [
        {
          "internalType": "uint256",
          "name": "",
          "type": "uint256"
        }
      ],
      "name": "players",
      "outputs": [
        {
          "internalType": "address",
          "name": "",
          "type": "address"
        }
      ],
      "stateMutability": "view",
      "type": "function"
    },
    {
      "inputs": [],
      "name": "register",
      "outputs": [],
      "stateMutability": "nonpayable",
      "type": "function"
    },
    {
      "inputs": [],
      "name": "resetGame",
      "outputs": [],
      "stateMutability": "nonpayable",
      "type": "function"
    },
    {
      "inputs": [
        {
          "internalType": "uint256[2]",
          "name": "a",
          "type": "uint256[2]"
        },
        {
          "internalType": "uint256[2][2]",
          "name": "b",
          "type": "uint256[2][2]"
        },
        {
          "internalType": "uint256[2]",
          "name": "c",
          "type": "uint256[2]"
        },
        {
          "internalType": "uint256[4]",
          "name": "input",
          "type": "uint256[4]"
        }
      ],
      "name": "setupBoard",
      "outputs": [],
      "stateMutability": "nonpayable",
      "type": "function"
    },
    {
      "inputs": [
        {
          "internalType": "uint256",
          "name": "",
          "type": "uint256"
        }
      ],
      "name": "setupHashes",
      "outputs": [
        {
          "internalType": "uint256",
          "name": "",
          "type": "uint256"
        }
      ],
      "stateMutability": "view",
      "type": "function"
    },
    {
      "inputs": [
        {
          "internalType": "uint256",
          "name": "",
          "type": "uint256"
        },
        {
          "internalType": "uint256",
          "name": "",
          "type": "uint256"
        }
      ],
      "name": "startingFiles",
      "outputs": [
        {
          "internalType": "uint256",
          "name": "",
          "type": "uint256"
        }
      ],
      "stateMutability": "view",
      "type": "function"
    }
  ],
  "bytecode": "0x60806040526000608760146101000a81548160ff0219169083600381111562000051577f4e487b7100000000000000000000000000000000000000000000000000000000600052602160045260246000fd5b02179055503480156200006357600080fd5b50604051620066ee380380620066ee83398181016040528101906200008991906200070c565b81608660006101000a81548173ffffffffffffffffffffffffffffffffffffffff021916908373ffffffffffffffffffffffffffffffffffffffff16021790555080608760006101000a81548173ffffffffffffffffffffffffffffffffffffffff021916908373ffffffffffffffffffffffffffffffffffffffff1602179055506200011b6200012360201b60201c565b505062000822565b60006001819055506040518060400160405280600073ffffffffffffffffffffffffffffffffffffffff1673ffffffffffffffffffffffffffffffffffffffff168152602001600073ffffffffffffffffffffffffffffffffffffffff1673ffffffffffffffffffffffffffffffffffffffff168152506082906002620001ac929190620005c5565b506040518060400160405280600060ff168152602001600060ff168152506084906002620001dc92919062000647565b506000604051806101000160405280600181526020016002815260200160038152602001600481526020016005815260200160068152602001600781526020016008815250905080600260006008811062000260577f4e487b7100000000000000000000000000000000000000000000000000000000600052603260045260246000fd5b600802019060086200027492919062000691565b50806002600160088110620002b2577f4e487b7100000000000000000000000000000000000000000000000000000000600052603260045260246000fd5b60080201906008620002c692919062000691565b5080600260066008811062000304577f4e487b7100000000000000000000000000000000000000000000000000000000600052603260045260246000fd5b600802019060086200031892919062000691565b5080600260076008811062000356577f4e487b7100000000000000000000000000000000000000000000000000000000600052603260045260246000fd5b600802019060086200036a92919062000691565b5060005b60088110156200058e5760136042600060088110620003b6577f4e487b7100000000000000000000000000000000000000000000000000000000600052603260045260246000fd5b600802018260088110620003f3577f4e487b7100000000000000000000000000000000000000000000000000000000600052603260045260246000fd5b01819055506010604260016008811062000436577f4e487b7100000000000000000000000000000000000000000000000000000000600052603260045260246000fd5b60080201826008811062000473577f4e487b7100000000000000000000000000000000000000000000000000000000600052603260045260246000fd5b018190555060066042600660088110620004b6577f4e487b7100000000000000000000000000000000000000000000000000000000600052603260045260246000fd5b600802018260088110620004f3577f4e487b7100000000000000000000000000000000000000000000000000000000600052603260045260246000fd5b01819055506009604260076008811062000536577f4e487b7100000000000000000000000000000000000000000000000000000000600052603260045260246000fd5b60080201826008811062000573577f4e487b7100000000000000000000000000000000000000000000000000000000600052603260045260246000fd5b0181905550808062000585906200078b565b9150506200036e565b50600080819055507f80f860092ed8101278311dd6b10dda4920a40ea5dfcbacfe724e2accfaf63efc60405160405180910390a150565b826002810192821562000634579160200282015b82811115620006335782518260006101000a81548173ffffffffffffffffffffffffffffffffffffffff021916908373ffffffffffffffffffffffffffffffffffffffff16021790555091602001919060010190620005d9565b5b509050620006439190620006d6565b5090565b82600281019282156200067e579160200282015b828111156200067d578251829060ff169055916020019190600101906200065b565b5b5090506200068d9190620006d6565b5090565b8260088101928215620006c3579160200282015b82811115620006c2578251825591602001919060010190620006a5565b5b509050620006d29190620006d6565b5090565b5b80821115620006f1576000816000905550600101620006d7565b5090565b600081519050620007068162000808565b92915050565b600080604083850312156200072057600080fd5b60006200073085828601620006f5565b92505060206200074385828601620006f5565b9150509250929050565b60006200075a8262000761565b9050919050565b600073ffffffffffffffffffffffffffffffffffffffff82169050919050565b6000819050919050565b6000620007988262000781565b91507fffffffffffffffffffffffffffffffffffffffffffffffffffffffffffffffff821415620007ce57620007cd620007d9565b5b600182019050919050565b7f4e487b7100000000000000000000000000000000000000000000000000000000600052601160045260246000fd5b62000813816200074d565b81146200081f57600080fd5b50565b615ebc80620008326000396000f3fe608060405234801561001057600080fd5b50600436106100cf5760003560e01c80638ca49cb71161008c578063d173bf9c11610066578063d173bf9c146101da578063d1958b41146101f8578063e693e41b14610228578063f71d96cb14610246576100cf565b80638ca49cb714610182578063b1c9fe6e146101b2578063bb472219146101d0576100cf565b806304c05644146100d45780631aa3a008146100f057806333d4a797146100fa5780637cb2fd05146101185780638086a92a146101365780638c26874d14610166575b600080fd5b6100ee60048036038101906100e991906145c4565b610276565b005b6100f8610d08565b005b610102611135565b60405161010f9190615200565b60405180910390f35b61012061113b565b60405161012d9190615200565b60405180910390f35b610150600480360381019061014b9190614707565b611141565b60405161015d9190615200565b60405180910390f35b610180600480360381019061017b9190614629565b61116f565b005b61019c60048036038101906101979190614707565b6124f2565b6040516101a99190615200565b60405180910390f35b6101ba612520565b6040516101c79190614e25565b60405180910390f35b6101d8612533565b005b6101e26129b9565b6040516101ef9190614d7c565b60405180910390f35b610212600480360381019061020d91906146de565b6129df565b60405161021f9190615200565b60405180910390f35b6102306129fa565b60405161023d9190614d7c565b60405180910390f35b610260600480360381019061025b91906146de565b612a20565b60405161026d9190614d7c565b60405180910390f35b60018060038111156102b1577f4e487b7100000000000000000000000000000000000000000000000000000000600052602160045260246000fd5b608760149054906101000a900460ff1660038111156102f9577f4e487b7100000000000000000000000000000000000000000000000000000000600052602160045260246000fd5b14610339576040517f08c379a000000000000000000000000000000000000000000000000000000000815260040161033090615080565b60405180910390fd5b6082600060028110610374577f4e487b7100000000000000000000000000000000000000000000000000000000600052603260045260246000fd5b0160009054906101000a900473ffffffffffffffffffffffffffffffffffffffff1673ffffffffffffffffffffffffffffffffffffffff163373ffffffffffffffffffffffffffffffffffffffff16148061045657506082600160028110610405577f4e487b7100000000000000000000000000000000000000000000000000000000600052603260045260246000fd5b0160009054906101000a900473ffffffffffffffffffffffffffffffffffffffff1673ffffffffffffffffffffffffffffffffffffffff163373ffffffffffffffffffffffffffffffffffffffff16145b610495576040517f08c379a000000000000000000000000000000000000000000000000000000000815260040161048c90614ec0565b60405180910390fd5b6001826000600481106104d1577f4e487b7100000000000000000000000000000000000000000000000000000000600052603260045260246000fd5b602002015114610516576040517f08c379a000000000000000000000000000000000000000000000000000000000815260040161050d90615040565b60405180910390fd5b60005482600360048110610553577f4e487b7100000000000000000000000000000000000000000000000000000000600052603260045260246000fd5b602002015114610598576040517f08c379a000000000000000000000000000000000000000000000000000000000815260040161058f90615180565b60405180910390fd5b608660009054906101000a900473ffffffffffffffffffffffffffffffffffffffff1673ffffffffffffffffffffffffffffffffffffffff16635fe8c13b868686866040518563ffffffff1660e01b81526004016105f99493929190614d97565b60206040518083038186803b15801561061157600080fd5b505afa158015610625573d6000803e3d6000fd5b505050506040513d601f19601f8201168201806040525081019061064991906146b5565b610688576040517f08c379a000000000000000000000000000000000000000000000000000000000815260040161067f90614f00565b60405180910390fd5b60826000600281106106c3577f4e487b7100000000000000000000000000000000000000000000000000000000600052603260045260246000fd5b0160009054906101000a900473ffffffffffffffffffffffffffffffffffffffff1673ffffffffffffffffffffffffffffffffffffffff163373ffffffffffffffffffffffffffffffffffffffff16141561091a5760006084600060028110610755577f4e487b7100000000000000000000000000000000000000000000000000000000600052603260045260246000fd5b015414610797576040517f08c379a000000000000000000000000000000000000000000000000000000000815260040161078e90615020565b60405180910390fd5b816001600481106107d1577f4e487b7100000000000000000000000000000000000000000000000000000000600052603260045260246000fd5b60200201516084600060028110610811577f4e487b7100000000000000000000000000000000000000000000000000000000600052603260045260246000fd5b018190555060056042600760088110610853577f4e487b7100000000000000000000000000000000000000000000000000000000600052603260045260246000fd5b6008020183600260048110610891577f4e487b7100000000000000000000000000000000000000000000000000000000600052603260045260246000fd5b6020020151600881106108cd577f4e487b7100000000000000000000000000000000000000000000000000000000600052603260045260246000fd5b01819055503373ffffffffffffffffffffffffffffffffffffffff167faf4d9c446642b35d7ee8febf856e561aab055caad19b4fcf9e632edca55c6c9f60405160405180910390a2610be8565b6082600160028110610955577f4e487b7100000000000000000000000000000000000000000000000000000000600052603260045260246000fd5b0160009054906101000a900473ffffffffffffffffffffffffffffffffffffffff1673ffffffffffffffffffffffffffffffffffffffff163373ffffffffffffffffffffffffffffffffffffffff161415610bac57600060846001600281106109e7577f4e487b7100000000000000000000000000000000000000000000000000000000600052603260045260246000fd5b015414610a29576040517f08c379a0000000000000000000000000000000000000000000000000000000008152600401610a2090615000565b60405180910390fd5b81600160048110610a63577f4e487b7100000000000000000000000000000000000000000000000000000000600052603260045260246000fd5b60200201516084600160028110610aa3577f4e487b7100000000000000000000000000000000000000000000000000000000600052603260045260246000fd5b0181905550600f6042600060088110610ae5577f4e487b7100000000000000000000000000000000000000000000000000000000600052603260045260246000fd5b6008020183600260048110610b23577f4e487b7100000000000000000000000000000000000000000000000000000000600052603260045260246000fd5b602002015160088110610b5f577f4e487b7100000000000000000000000000000000000000000000000000000000600052603260045260246000fd5b01819055503373ffffffffffffffffffffffffffffffffffffffff167faf4d9c446642b35d7ee8febf856e561aab055caad19b4fcf9e632edca55c6c9f60405160405180910390a2610be7565b6040517f08c379a0000000000000000000000000000000000000000000000000000000008152600401610bde90614f20565b60405180910390fd5b5b60006084600060028110610c25577f4e487b7100000000000000000000000000000000000000000000000000000000600052603260045260246000fd5b015414158015610c72575060006084600160028110610c6d577f4e487b7100000000000000000000000000000000000000000000000000000000600052603260045260246000fd5b015414155b15610d01576002608760146101000a81548160ff02191690836003811115610cc3577f4e487b7100000000000000000000000000000000000000000000000000000000600052602160045260246000fd5b02179055507fed606d544c2202d032d2626c390923e6f260ca5d89625bba0cfe70d2bdda4e8f6002604051610cf89190614e25565b60405180910390a15b5050505050565b6000806003811115610d43577f4e487b7100000000000000000000000000000000000000000000000000000000600052602160045260246000fd5b608760149054906101000a900460ff166003811115610d8b577f4e487b7100000000000000000000000000000000000000000000000000000000600052602160045260246000fd5b14610dcb576040517f08c379a0000000000000000000000000000000000000000000000000000000008152600401610dc290615080565b60405180910390fd5b600073ffffffffffffffffffffffffffffffffffffffff166082600060028110610e1e577f4e487b7100000000000000000000000000000000000000000000000000000000600052603260045260246000fd5b0160009054906101000a900473ffffffffffffffffffffffffffffffffffffffff1673ffffffffffffffffffffffffffffffffffffffff161415610f1f57336082600060028110610e98577f4e487b7100000000000000000000000000000000000000000000000000000000600052603260045260246000fd5b0160006101000a81548173ffffffffffffffffffffffffffffffffffffffff021916908373ffffffffffffffffffffffffffffffffffffffff1602179055503373ffffffffffffffffffffffffffffffffffffffff167feeda149c76076b34d4b9d8896c2f7efc0d33d1c7b53ea3c5db490d64613f603a60405160405180910390a2611132565b3373ffffffffffffffffffffffffffffffffffffffff166082600060028110610f71577f4e487b7100000000000000000000000000000000000000000000000000000000600052603260045260246000fd5b0160009054906101000a900473ffffffffffffffffffffffffffffffffffffffff1673ffffffffffffffffffffffffffffffffffffffff161415610fea576040517f08c379a0000000000000000000000000000000000000000000000000000000008152600401610fe190614ea0565b60405180910390fd5b336082600160028110611026577f4e487b7100000000000000000000000000000000000000000000000000000000600052603260045260246000fd5b0160006101000a81548173ffffffffffffffffffffffffffffffffffffffff021916908373ffffffffffffffffffffffffffffffffffffffff1602179055503373ffffffffffffffffffffffffffffffffffffffff167feeda149c76076b34d4b9d8896c2f7efc0d33d1c7b53ea3c5db490d64613f603a60405160405180910390a26001608760146101000a81548160ff021916908360038111156110f4577f4e487b7100000000000000000000000000000000000000000000000000000000600052602160045260246000fd5b02179055507fed606d544c2202d032d2626c390923e6f260ca5d89625bba0cfe70d2bdda4e8f60016040516111299190614e25565b60405180910390a15b50565b60005481565b60015481565b6042826008811061115157600080fd5b60080201816008811061116357600080fd5b01600091509150505481565b60028060038111156111aa577f4e487b7100000000000000000000000000000000000000000000000000000000600052602160045260246000fd5b608760149054906101000a900460ff1660038111156111f2577f4e487b7100000000000000000000000000000000000000000000000000000000600052602160045260246000fd5b14611232576040517f08c379a000000000000000000000000000000000000000000000000000000000815260040161122990615080565b60405180910390fd5b6000806082600060028110611270577f4e487b7100000000000000000000000000000000000000000000000000000000600052603260045260246000fd5b0160009054906101000a900473ffffffffffffffffffffffffffffffffffffffff1673ffffffffffffffffffffffffffffffffffffffff163373ffffffffffffffffffffffffffffffffffffffff1614156113525760006001541461130a576040517f08c379a000000000000000000000000000000000000000000000000000000000815260040161130190614fa0565b60405180910390fd5b6084600060028110611345577f4e487b7100000000000000000000000000000000000000000000000000000000600052603260045260246000fd5b01549150600190506114aa565b608260016002811061138d577f4e487b7100000000000000000000000000000000000000000000000000000000600052603260045260246000fd5b0160009054906101000a900473ffffffffffffffffffffffffffffffffffffffff1673ffffffffffffffffffffffffffffffffffffffff163373ffffffffffffffffffffffffffffffffffffffff16141561146e576001805414611426576040517f08c379a000000000000000000000000000000000000000000000000000000000815260040161141d90614f60565b60405180910390fd5b6084600160028110611461577f4e487b7100000000000000000000000000000000000000000000000000000000600052603260045260246000fd5b01549150600090506114a9565b6040517f08c379a00000000000000000000000000000000000000000000000000000000081526004016114a090614ec0565b60405180910390fd5b5b600060428a6000600281106114e8577f4e487b7100000000000000000000000000000000000000000000000000000000600052603260045260246000fd5b602002015160088110611524577f4e487b7100000000000000000000000000000000000000000000000000000000600052603260045260246000fd5b600802018a600160028110611562577f4e487b7100000000000000000000000000000000000000000000000000000000600052603260045260246000fd5b60200201516008811061159e577f4e487b7100000000000000000000000000000000000000000000000000000000600052603260045260246000fd5b01549050600981141580156115b4575060138114155b156115c9576115c48a8a84612a56565b611c21565b6115d1614231565b6115dc8b8b856135ca565b9050600060018760036009811061161c577f4e487b7100000000000000000000000000000000000000000000000000000000600052603260045260246000fd5b602002015160028960026009811061165d577f4e487b7100000000000000000000000000000000000000000000000000000000600052603260045260246000fd5b602002015161166c91906155a9565b60048a6001600981106116a8577f4e487b7100000000000000000000000000000000000000000000000000000000600052603260045260246000fd5b60200201516116b791906155a9565b6116c1919061543c565b6116cb919061543c565b6116d5919061543c565b90506116df614231565b60005b600381101561179257888160056116f9919061543c565b60098110611730577f4e487b7100000000000000000000000000000000000000000000000000000000600052603260045260246000fd5b602002015182826003811061176e577f4e487b7100000000000000000000000000000000000000000000000000000000600052603260045260246000fd5b602002019060ff16908160ff1681525050808061178a90615788565b9150506116e2565b506001886000600981106117cf577f4e487b7100000000000000000000000000000000000000000000000000000000600052603260045260246000fd5b602002015114611814576040517f08c379a000000000000000000000000000000000000000000000000000000000815260040161180b90615040565b60405180910390fd5b60028d600060028110611850577f4e487b7100000000000000000000000000000000000000000000000000000000600052603260045260246000fd5b60200201516008811061188c577f4e487b7100000000000000000000000000000000000000000000000000000000600052603260045260246000fd5b600802018d6001600281106118ca577f4e487b7100000000000000000000000000000000000000000000000000000000600052603260045260246000fd5b602002015160088110611906577f4e487b7100000000000000000000000000000000000000000000000000000000600052603260045260246000fd5b01548214611949576040517f08c379a000000000000000000000000000000000000000000000000000000000815260040161194090614f40565b60405180910390fd5b8588600460098110611984577f4e487b7100000000000000000000000000000000000000000000000000000000600052603260045260246000fd5b6020020151146119c9576040517f08c379a00000000000000000000000000000000000000000000000000000000081526004016119c090614fe0565b60405180910390fd5b60005b6003811015611aaa57838160038110611a0e577f4e487b7100000000000000000000000000000000000000000000000000000000600052603260045260246000fd5b602002015160ff16828260038110611a4f577f4e487b7100000000000000000000000000000000000000000000000000000000600052603260045260246000fd5b602002015160ff1614611a97576040517f08c379a0000000000000000000000000000000000000000000000000000000008152600401611a8e90614fc0565b60405180910390fd5b8080611aa290615788565b9150506119cc565b5060005488600860098110611ae8577f4e487b7100000000000000000000000000000000000000000000000000000000600052603260045260246000fd5b602002015114611b2d576040517f08c379a0000000000000000000000000000000000000000000000000000000008152600401611b24906150e0565b60405180910390fd5b608760009054906101000a900473ffffffffffffffffffffffffffffffffffffffff1673ffffffffffffffffffffffffffffffffffffffff1663c542c93b8c8c8c8c6040518563ffffffff1660e01b8152600401611b8e9493929190614dde565b60206040518083038186803b158015611ba657600080fd5b505afa158015611bba573d6000803e3d6000fd5b505050506040513d601f19601f82011682018060405250810190611bde91906146b5565b611c1d576040517f08c379a0000000000000000000000000000000000000000000000000000000008152600401611c1490614e40565b60405180910390fd5b5050505b6000600560428b600060028110611c61577f4e487b7100000000000000000000000000000000000000000000000000000000600052603260045260246000fd5b602002015160088110611c9d577f4e487b7100000000000000000000000000000000000000000000000000000000600052603260045260246000fd5b600802018b600160028110611cdb577f4e487b7100000000000000000000000000000000000000000000000000000000600052603260045260246000fd5b602002015160088110611d17577f4e487b7100000000000000000000000000000000000000000000000000000000600052603260045260246000fd5b01541480611e185750600f60428b600060028110611d5e577f4e487b7100000000000000000000000000000000000000000000000000000000600052603260045260246000fd5b602002015160088110611d9a577f4e487b7100000000000000000000000000000000000000000000000000000000600052603260045260246000fd5b600802018b600160028110611dd8577f4e487b7100000000000000000000000000000000000000000000000000000000600052603260045260246000fd5b602002015160088110611e14577f4e487b7100000000000000000000000000000000000000000000000000000000600052603260045260246000fd5b0154145b905060428b600060028110611e56577f4e487b7100000000000000000000000000000000000000000000000000000000600052603260045260246000fd5b602002015160088110611e92577f4e487b7100000000000000000000000000000000000000000000000000000000600052603260045260246000fd5b600802018b600160028110611ed0577f4e487b7100000000000000000000000000000000000000000000000000000000600052603260045260246000fd5b602002015160088110611f0c577f4e487b7100000000000000000000000000000000000000000000000000000000600052603260045260246000fd5b015460428b600060028110611f4a577f4e487b7100000000000000000000000000000000000000000000000000000000600052603260045260246000fd5b602002015160088110611f86577f4e487b7100000000000000000000000000000000000000000000000000000000600052603260045260246000fd5b600802018b600160028110611fc4577f4e487b7100000000000000000000000000000000000000000000000000000000600052603260045260246000fd5b602002015160088110612000577f4e487b7100000000000000000000000000000000000000000000000000000000600052603260045260246000fd5b0181905550600060428c600060028110612043577f4e487b7100000000000000000000000000000000000000000000000000000000600052603260045260246000fd5b60200201516008811061207f577f4e487b7100000000000000000000000000000000000000000000000000000000600052603260045260246000fd5b600802018c6001600281106120bd577f4e487b7100000000000000000000000000000000000000000000000000000000600052603260045260246000fd5b6020020151600881106120f9577f4e487b7100000000000000000000000000000000000000000000000000000000600052603260045260246000fd5b018190555060028b60006002811061213a577f4e487b7100000000000000000000000000000000000000000000000000000000600052603260045260246000fd5b602002015160088110612176577f4e487b7100000000000000000000000000000000000000000000000000000000600052603260045260246000fd5b600802018b6001600281106121b4577f4e487b7100000000000000000000000000000000000000000000000000000000600052603260045260246000fd5b6020020151600881106121f0577f4e487b7100000000000000000000000000000000000000000000000000000000600052603260045260246000fd5b015460028b60006002811061222e577f4e487b7100000000000000000000000000000000000000000000000000000000600052603260045260246000fd5b60200201516008811061226a577f4e487b7100000000000000000000000000000000000000000000000000000000600052603260045260246000fd5b600802018b6001600281106122a8577f4e487b7100000000000000000000000000000000000000000000000000000000600052603260045260246000fd5b6020020151600881106122e4577f4e487b7100000000000000000000000000000000000000000000000000000000600052603260045260246000fd5b0181905550600060028c600060028110612327577f4e487b7100000000000000000000000000000000000000000000000000000000600052603260045260246000fd5b602002015160088110612363577f4e487b7100000000000000000000000000000000000000000000000000000000600052603260045260246000fd5b600802018c6001600281106123a1577f4e487b7100000000000000000000000000000000000000000000000000000000600052603260045260246000fd5b6020020151600881106123dd577f4e487b7100000000000000000000000000000000000000000000000000000000600052603260045260246000fd5b01819055506000600154146123f35760006123f6565b60015b60ff166001819055503373ffffffffffffffffffffffffffffffffffffffff167f2faa250a40ee7ae6e526f286912b032fc352944ea55943cf3a6c38c42ca364d860405160405180910390a280156124e5576003608760146101000a81548160ff02191690836003811115612494577f4e487b7100000000000000000000000000000000000000000000000000000000600052602160045260246000fd5b02179055503373ffffffffffffffffffffffffffffffffffffffff167fb67620889a46b45c8fb14b148cd35a53f19434107ee6fae801472351c39a545d60405160405180910390a26124e4612533565b5b5050505050505050505050565b6002826008811061250257600080fd5b60080201816008811061251457600080fd5b01600091509150505481565b608760149054906101000a900460ff1681565b60006001819055506040518060400160405280600073ffffffffffffffffffffffffffffffffffffffff1673ffffffffffffffffffffffffffffffffffffffff168152602001600073ffffffffffffffffffffffffffffffffffffffff1673ffffffffffffffffffffffffffffffffffffffff1681525060829060026125ba929190614253565b506040518060400160405280600060ff168152602001600060ff1681525060849060026125e89291906142d0565b506000604051806101000160405280600181526020016002815260200160038152602001600481526020016005815260200160068152602001600781526020016008815250905080600260006008811061266b577f4e487b7100000000000000000000000000000000000000000000000000000000600052603260045260246000fd5b6008020190600861267d929190614315565b508060026001600881106126ba577f4e487b7100000000000000000000000000000000000000000000000000000000600052603260045260246000fd5b600802019060086126cc929190614315565b50806002600660088110612709577f4e487b7100000000000000000000000000000000000000000000000000000000600052603260045260246000fd5b6008020190600861271b929190614315565b50806002600760088110612758577f4e487b7100000000000000000000000000000000000000000000000000000000600052603260045260246000fd5b6008020190600861276a929190614315565b5060005b600881101561298257601360426000600881106127b4577f4e487b7100000000000000000000000000000000000000000000000000000000600052603260045260246000fd5b6008020182600881106127f0577f4e487b7100000000000000000000000000000000000000000000000000000000600052603260045260246000fd5b018190555060106042600160088110612832577f4e487b7100000000000000000000000000000000000000000000000000000000600052603260045260246000fd5b60080201826008811061286e577f4e487b7100000000000000000000000000000000000000000000000000000000600052603260045260246000fd5b0181905550600660426006600881106128b0577f4e487b7100000000000000000000000000000000000000000000000000000000600052603260045260246000fd5b6008020182600881106128ec577f4e487b7100000000000000000000000000000000000000000000000000000000600052603260045260246000fd5b01819055506009604260076008811061292e577f4e487b7100000000000000000000000000000000000000000000000000000000600052603260045260246000fd5b60080201826008811061296a577f4e487b7100000000000000000000000000000000000000000000000000000000600052603260045260246000fd5b0181905550808061297a90615788565b91505061276e565b50600080819055507f80f860092ed8101278311dd6b10dda4920a40ea5dfcbacfe724e2accfaf63efc60405160405180910390a150565b608760009054906101000a900473ffffffffffffffffffffffffffffffffffffffff1681565b608481600281106129ef57600080fd5b016000915090505481565b608660009054906101000a900473ffffffffffffffffffffffffffffffffffffffff1681565b60828160028110612a3057600080fd5b016000915054906101000a900473ffffffffffffffffffffffffffffffffffffffff1681565b612a61838383613a52565b6000604284600060028110612a9f577f4e487b7100000000000000000000000000000000000000000000000000000000600052603260045260246000fd5b602002015160088110612adb577f4e487b7100000000000000000000000000000000000000000000000000000000600052603260045260246000fd5b6008020184600160028110612b19577f4e487b7100000000000000000000000000000000000000000000000000000000600052603260045260246000fd5b602002015160088110612b55577f4e487b7100000000000000000000000000000000000000000000000000000000600052603260045260246000fd5b01549050600084600060028110612b95577f4e487b7100000000000000000000000000000000000000000000000000000000600052603260045260246000fd5b602002015184600060028110612bd4577f4e487b7100000000000000000000000000000000000000000000000000000000600052603260045260246000fd5b6020020151612be39190615603565b9050600085600160028110612c21577f4e487b7100000000000000000000000000000000000000000000000000000000600052603260045260246000fd5b602002015185600160028110612c60577f4e487b7100000000000000000000000000000000000000000000000000000000600052603260045260246000fd5b6020020151612c6f9190615603565b90506005831480612c805750600f83145b15612ceb576001612c908361414b565b11158015612ca757506001612ca48261414b565b11155b612ce6576040517f08c379a0000000000000000000000000000000000000000000000000000000008152600401612cdd90615140565b60405180910390fd5b6135c2565b6006831480612cfa5750601083145b15613586576001612d0a8261414b565b1415613042578315612ebb577fffffffffffffffffffffffffffffffffffffffffffffffffffffffffffffffff8214612d78576040517f08c379a0000000000000000000000000000000000000000000000000000000008152600401612d6f90615120565b60405180910390fd5b6002612e76604287600060028110612db9577f4e487b7100000000000000000000000000000000000000000000000000000000600052603260045260246000fd5b602002015160088110612df5577f4e487b7100000000000000000000000000000000000000000000000000000000600052603260045260246000fd5b6008020187600160028110612e33577f4e487b7100000000000000000000000000000000000000000000000000000000600052603260045260246000fd5b602002015160088110612e6f577f4e487b7100000000000000000000000000000000000000000000000000000000600052603260045260246000fd5b015461416d565b14612eb6576040517f08c379a0000000000000000000000000000000000000000000000000000000008152600401612ead906150a0565b60405180910390fd5b61303d565b60018214612efe576040517f08c379a0000000000000000000000000000000000000000000000000000000008152600401612ef590615120565b60405180910390fd5b6001612ffc604287600060028110612f3f577f4e487b7100000000000000000000000000000000000000000000000000000000600052603260045260246000fd5b602002015160088110612f7b577f4e487b7100000000000000000000000000000000000000000000000000000000600052603260045260246000fd5b6008020187600160028110612fb9577f4e487b7100000000000000000000000000000000000000000000000000000000600052603260045260246000fd5b602002015160088110612ff5577f4e487b7100000000000000000000000000000000000000000000000000000000600052603260045260246000fd5b015461416d565b1461303c576040517f08c379a0000000000000000000000000000000000000000000000000000000008152600401613033906150a0565b60405180910390fd5b5b613581565b60008114156135455760008461305957600161307b565b7fffffffffffffffffffffffffffffffffffffffffffffffffffffffffffffffff5b905060008561308b57600161308e565b60065b60ff1690508160026130a09190615492565b8414156133ba5780886000600281106130e2577f4e487b7100000000000000000000000000000000000000000000000000000000600052603260045260246000fd5b602002015114613127576040517f08c379a000000000000000000000000000000000000000000000000000000000815260040161311e90615160565b60405180910390fd5b60006042838a600060028110613166577f4e487b7100000000000000000000000000000000000000000000000000000000600052603260045260246000fd5b602002015161317591906153a8565b600881106131ac577f4e487b7100000000000000000000000000000000000000000000000000000000600052603260045260246000fd5b60080201896001600281106131ea577f4e487b7100000000000000000000000000000000000000000000000000000000600052603260045260246000fd5b602002015160088110613226577f4e487b7100000000000000000000000000000000000000000000000000000000600052603260045260246000fd5b015414613268576040517f08c379a000000000000000000000000000000000000000000000000000000000815260040161325f906150c0565b60405180910390fd5b600060428360026132799190615492565b8a6000600281106132b3577f4e487b7100000000000000000000000000000000000000000000000000000000600052603260045260246000fd5b60200201516132c291906153a8565b600881106132f9577f4e487b7100000000000000000000000000000000000000000000000000000000600052603260045260246000fd5b6008020189600160028110613337577f4e487b7100000000000000000000000000000000000000000000000000000000600052603260045260246000fd5b602002015160088110613373577f4e487b7100000000000000000000000000000000000000000000000000000000600052603260045260246000fd5b0154146133b5576040517f08c379a00000000000000000000000000000000000000000000000000000000081526004016133ac906150c0565b60405180910390fd5b61353e565b8184146133fc576040517f08c379a00000000000000000000000000000000000000000000000000000000081526004016133f390615120565b60405180910390fd5b60006042838a60006002811061343b577f4e487b7100000000000000000000000000000000000000000000000000000000600052603260045260246000fd5b602002015161344a91906153a8565b60088110613481577f4e487b7100000000000000000000000000000000000000000000000000000000600052603260045260246000fd5b60080201896001600281106134bf577f4e487b7100000000000000000000000000000000000000000000000000000000600052603260045260246000fd5b6020020151600881106134fb577f4e487b7100000000000000000000000000000000000000000000000000000000600052603260045260246000fd5b01541461353d576040517f08c379a0000000000000000000000000000000000000000000000000000000008152600401613534906150c0565b60405180910390fd5b5b5050613580565b6040517f08c379a000000000000000000000000000000000000000000000000000000000815260040161357790615120565b60405180910390fd5b5b6135c1565b6040517f08c379a00000000000000000000000000000000000000000000000000000000081526004016135b8906151c0565b60405180910390fd5b5b505050505050565b6135d2614231565b6135dd848484613a52565b600084600060028110613619577f4e487b7100000000000000000000000000000000000000000000000000000000600052603260045260246000fd5b602002015184600060028110613658577f4e487b7100000000000000000000000000000000000000000000000000000000600052603260045260246000fd5b60200201516136679190615603565b90506000856001600281106136a5577f4e487b7100000000000000000000000000000000000000000000000000000000600052603260045260246000fd5b6020020151856001600281106136e4577f4e487b7100000000000000000000000000000000000000000000000000000000600052603260045260246000fd5b60200201516136f39190615603565b905060006137008361414b565b9050600061370d8361414b565b90506000613719614231565b6001841480156137295750600283145b80613740575060028414801561373f5750600183145b5b1561377757600291506040518060600160405280600260ff168152602001600060ff168152602001600060ff168152509050613834565b60008414806137865750600083145b156137bd57600191506040518060600160405280600160ff168152602001600460ff168152602001600060ff168152509050613833565b828414156137f757600091506040518060600160405280600360ff168152602001600460ff168152602001600060ff168152509050613832565b6040517f08c379a000000000000000000000000000000000000000000000000000000000815260040161382990614f80565b60405180910390fd5b5b5b600282141561384b57809650505050505050613a4b565b828414806138595750600084145b806138645750600083145b613897577f4e487b7100000000000000000000000000000000000000000000000000000000600052600160045260246000fd5b60006138a2876141cf565b905060006138af876141cf565b90506000600190505b6138c28787614218565b811215613a3e576000604282856138d99190615492565b8f600060028110613913577f4e487b7100000000000000000000000000000000000000000000000000000000600052603260045260246000fd5b602002015161392291906153a8565b60088110613959577f4e487b7100000000000000000000000000000000000000000000000000000000600052603260045260246000fd5b6008020182846139699190615492565b8f6001600281106139a3577f4e487b7100000000000000000000000000000000000000000000000000000000600052603260045260246000fd5b60200201516139b291906153a8565b600881106139e9577f4e487b7100000000000000000000000000000000000000000000000000000000600052603260045260246000fd5b015414613a2b576040517f08c379a0000000000000000000000000000000000000000000000000000000008152600401613a2290614e60565b60405180910390fd5b8080613a369061573f565b9150506138b8565b5082985050505050505050505b9392505050565b82600060028110613a8c577f4e487b7100000000000000000000000000000000000000000000000000000000600052603260045260246000fd5b6020020151600011158015613ae0575082600160028110613ad6577f4e487b7100000000000000000000000000000000000000000000000000000000600052603260045260246000fd5b6020020151600011155b8015613b2a5750600883600060028110613b23577f4e487b7100000000000000000000000000000000000000000000000000000000600052603260045260246000fd5b6020020151105b8015613b745750600883600160028110613b6d577f4e487b7100000000000000000000000000000000000000000000000000000000600052603260045260246000fd5b6020020151105b613bb3576040517f08c379a0000000000000000000000000000000000000000000000000000000008152600401613baa90614e80565b60405180910390fd5b81600060028110613bed577f4e487b7100000000000000000000000000000000000000000000000000000000600052603260045260246000fd5b6020020151600011158015613c41575081600160028110613c37577f4e487b7100000000000000000000000000000000000000000000000000000000600052603260045260246000fd5b6020020151600011155b8015613c8b5750600882600060028110613c84577f4e487b7100000000000000000000000000000000000000000000000000000000600052603260045260246000fd5b6020020151105b8015613cd55750600882600160028110613cce577f4e487b7100000000000000000000000000000000000000000000000000000000600052603260045260246000fd5b6020020151105b613d14576040517f08c379a0000000000000000000000000000000000000000000000000000000008152600401613d0b906151a0565b60405180910390fd5b81600060028110613d4e577f4e487b7100000000000000000000000000000000000000000000000000000000600052603260045260246000fd5b602002015183600060028110613d8d577f4e487b7100000000000000000000000000000000000000000000000000000000600052603260045260246000fd5b6020020151141580613e1b575081600160028110613dd4577f4e487b7100000000000000000000000000000000000000000000000000000000600052603260045260246000fd5b602002015183600160028110613e13577f4e487b7100000000000000000000000000000000000000000000000000000000600052603260045260246000fd5b602002015114155b613e5a576040517f08c379a0000000000000000000000000000000000000000000000000000000008152600401613e5190614ee0565b60405180910390fd5b6000613f58604285600060028110613e9b577f4e487b7100000000000000000000000000000000000000000000000000000000600052603260045260246000fd5b602002015160088110613ed7577f4e487b7100000000000000000000000000000000000000000000000000000000600052603260045260246000fd5b6008020185600160028110613f15577f4e487b7100000000000000000000000000000000000000000000000000000000600052603260045260246000fd5b602002015160088110613f51577f4e487b7100000000000000000000000000000000000000000000000000000000600052603260045260246000fd5b015461416d565b90506000614058604285600060028110613f9b577f4e487b7100000000000000000000000000000000000000000000000000000000600052603260045260246000fd5b602002015160088110613fd7577f4e487b7100000000000000000000000000000000000000000000000000000000600052603260045260246000fd5b6008020185600160028110614015577f4e487b7100000000000000000000000000000000000000000000000000000000600052603260045260246000fd5b602002015160088110614051577f4e487b7100000000000000000000000000000000000000000000000000000000600052603260045260246000fd5b015461416d565b9050600082141561409e576040517f08c379a000000000000000000000000000000000000000000000000000000000815260040161409590615060565b60405180910390fd5b826140ac57600282146140b1565b600182145b6140f0576040517f08c379a00000000000000000000000000000000000000000000000000000000081526004016140e790615100565b60405180910390fd5b826140ff576002811415614105565b60018114155b614144576040517f08c379a000000000000000000000000000000000000000000000000000000000815260040161413b906151e0565b60405180910390fd5b5050505050565b600080821215614164578161415f906157d1565b614166565b815b9050919050565b600081600111158015614181575060068211155b8061418c5750600982145b1561419a57600190506141ca565b81600b111580156141ac575060108211155b806141b75750601382145b156141c557600290506141ca565b600090505b919050565b600080821461420e5760008213614206577fffffffffffffffffffffffffffffffffffffffffffffffffffffffffffffffff614209565b60015b614211565b60005b9050919050565b60008183116142275781614229565b825b905092915050565b6040518060600160405280600390602082028036833780820191505090505090565b82600281019282156142bf579160200282015b828111156142be5782518260006101000a81548173ffffffffffffffffffffffffffffffffffffffff021916908373ffffffffffffffffffffffffffffffffffffffff16021790555091602001919060010190614266565b5b5090506142cc9190614355565b5090565b8260028101928215614304579160200282015b82811115614303578251829060ff169055916020019190600101906142e3565b5b5090506143119190614355565b5090565b8260088101928215614344579160200282015b82811115614343578251825591602001919060010190614328565b5b5090506143519190614355565b5090565b5b8082111561436e576000816000905550600101614356565b5090565b600061438561438084615240565b61521b565b9050808285604086028201111561439b57600080fd5b60005b858110156143cb57816143b18882614525565b84526020840193506040830192505060018101905061439e565b5050509392505050565b60006143e86143e384615266565b61521b565b905080828560208602820111156143fe57600080fd5b60005b8581101561442e578161441488826145af565b845260208401935060208301925050600181019050614401565b5050509392505050565b600061444b6144468461528c565b61521b565b9050808285602086028201111561446157600080fd5b60005b85811015614491578161447788826145af565b845260208401935060208301925050600181019050614464565b5050509392505050565b60006144ae6144a9846152b2565b61521b565b905080828560208602820111156144c457600080fd5b60005b858110156144f457816144da88826145af565b8452602084019350602083019250506001810190506144c7565b5050509392505050565b600082601f83011261450f57600080fd5b600261451c848285614372565b91505092915050565b600082601f83011261453657600080fd5b60026145438482856143d5565b91505092915050565b600082601f83011261455d57600080fd5b600461456a848285614438565b91505092915050565b600082601f83011261458457600080fd5b600961459184828561449b565b91505092915050565b6000815190506145a981615e58565b92915050565b6000813590506145be81615e6f565b92915050565b60008060008061018085870312156145db57600080fd5b60006145e987828801614525565b94505060406145fa878288016144fe565b93505060c061460b87828801614525565b92505061010061461d8782880161454c565b91505092959194509250565b6000806000806000806102a0878903121561464357600080fd5b600061465189828a01614525565b965050604061466289828a01614525565b955050608061467389828a01614525565b94505060c061468489828a016144fe565b93505061014061469689828a01614525565b9250506101806146a889828a01614573565b9150509295509295509295565b6000602082840312156146c757600080fd5b60006146d58482850161459a565b91505092915050565b6000602082840312156146f057600080fd5b60006146fe848285016145af565b91505092915050565b6000806040838503121561471a57600080fd5b6000614728858286016145af565b9250506020614739858286016145af565b9150509250929050565b600061474f83836147d9565b60408301905092915050565b60006147678383614d5e565b60208301905092915050565b61477c81615697565b82525050565b61478b81615300565b6147958184615360565b92506147a0826152d8565b8060005b838110156147d15781516147b88782614743565b96506147c38361532c565b9250506001810190506147a4565b505050505050565b6147e28161530b565b6147ec818461536b565b92506147f7826152e2565b8060005b8381101561482857815161480f878261475b565b965061481a83615339565b9250506001810190506147fb565b505050505050565b6148398161530b565b6148438184615376565b925061484e826152e2565b8060005b8381101561487f578151614866878261475b565b965061487183615339565b925050600181019050614852565b505050505050565b61489081615316565b61489a8184615381565b92506148a5826152ec565b8060005b838110156148d65781516148bd878261475b565b96506148c883615346565b9250506001810190506148a9565b505050505050565b6148e781615321565b6148f1818461538c565b92506148fc826152f6565b8060005b8381101561492d578151614914878261475b565b965061491f83615353565b925050600181019050614900565b505050505050565b61493e816156fc565b82525050565b6000614951600f83615397565b915061495c826158b8565b602082019050919050565b6000614974602883615397565b915061497f826158e1565b604082019050919050565b6000614997600b83615397565b91506149a282615930565b602082019050919050565b60006149ba601383615397565b91506149c582615959565b602082019050919050565b60006149dd601683615397565b91506149e882615982565b602082019050919050565b6000614a00601483615397565b9150614a0b826159ab565b602082019050919050565b6000614a23601483615397565b9150614a2e826159d4565b602082019050919050565b6000614a46601783615397565b9150614a51826159fd565b602082019050919050565b6000614a69601683615397565b9150614a7482615a26565b602082019050919050565b6000614a8c601983615397565b9150614a9782615a4f565b602082019050919050565b6000614aaf600c83615397565b9150614aba82615a78565b602082019050919050565b6000614ad2601983615397565b9150614add82615aa1565b602082019050919050565b6000614af5601a83615397565b9150614b0082615aca565b602082019050919050565b6000614b18601983615397565b9150614b2382615af3565b602082019050919050565b6000614b3b601183615397565b9150614b4682615b1c565b602082019050919050565b6000614b5e601183615397565b9150614b6982615b45565b602082019050919050565b6000614b81601683615397565b9150614b8c82615b6e565b602082019050919050565b6000614ba4601383615397565b9150614baf82615b97565b602082019050919050565b6000614bc7602c83615397565b9150614bd282615bc0565b604082019050919050565b6000614bea602983615397565b9150614bf582615c0f565b604082019050919050565b6000614c0d601383615397565b9150614c1882615c5e565b602082019050919050565b6000614c30601483615397565b9150614c3b82615c87565b602082019050919050565b6000614c53602183615397565b9150614c5e82615cb0565b604082019050919050565b6000614c76601283615397565b9150614c8182615cff565b602082019050919050565b6000614c99601283615397565b9150614ca482615d28565b602082019050919050565b6000614cbc603383615397565b9150614cc782615d51565b604082019050919050565b6000614cdf601883615397565b9150614cea82615da0565b602082019050919050565b6000614d02600983615397565b9150614d0d82615dc9565b602082019050919050565b6000614d25601283615397565b9150614d3082615df2565b602082019050919050565b6000614d48601883615397565b9150614d5382615e1b565b602082019050919050565b614d67816156f2565b82525050565b614d76816156f2565b82525050565b6000602082019050614d916000830184614773565b92915050565b600061018082019050614dad6000830187614830565b614dba6040830186614782565b614dc760c0830185614830565b614dd5610100830184614887565b95945050505050565b600061022082019050614df46000830187614830565b614e016040830186614782565b614e0e60c0830185614830565b614e1c6101008301846148de565b95945050505050565b6000602082019050614e3a6000830184614935565b92915050565b60006020820190508181036000830152614e5981614944565b9050919050565b60006020820190508181036000830152614e7981614967565b9050919050565b60006020820190508181036000830152614e998161498a565b9050919050565b60006020820190508181036000830152614eb9816149ad565b9050919050565b60006020820190508181036000830152614ed9816149d0565b9050919050565b60006020820190508181036000830152614ef9816149f3565b9050919050565b60006020820190508181036000830152614f1981614a16565b9050919050565b60006020820190508181036000830152614f3981614a39565b9050919050565b60006020820190508181036000830152614f5981614a5c565b9050919050565b60006020820190508181036000830152614f7981614a7f565b9050919050565b60006020820190508181036000830152614f9981614aa2565b9050919050565b60006020820190508181036000830152614fb981614ac5565b9050919050565b60006020820190508181036000830152614fd981614ae8565b9050919050565b60006020820190508181036000830152614ff981614b0b565b9050919050565b6000602082019050818103600083015261501981614b2e565b9050919050565b6000602082019050818103600083015261503981614b51565b9050919050565b6000602082019050818103600083015261505981614b74565b9050919050565b6000602082019050818103600083015261507981614b97565b9050919050565b6000602082019050818103600083015261509981614bba565b9050919050565b600060208201905081810360008301526150b981614bdd565b9050919050565b600060208201905081810360008301526150d981614c00565b9050919050565b600060208201905081810360008301526150f981614c23565b9050919050565b6000602082019050818103600083015261511981614c46565b9050919050565b6000602082019050818103600083015261513981614c69565b9050919050565b6000602082019050818103600083015261515981614c8c565b9050919050565b6000602082019050818103600083015261517981614caf565b9050919050565b6000602082019050818103600083015261519981614cd2565b9050919050565b600060208201905081810360008301526151b981614cf5565b9050919050565b600060208201905081810360008301526151d981614d18565b9050919050565b600060208201905081810360008301526151f981614d3b565b9050919050565b60006020820190506152156000830184614d6d565b92915050565b6000615225615236565b9050615231828261570e565b919050565b6000604051905090565b600067ffffffffffffffff82111561525b5761525a615878565b5b602082029050919050565b600067ffffffffffffffff82111561528157615280615878565b5b602082029050919050565b600067ffffffffffffffff8211156152a7576152a6615878565b5b602082029050919050565b600067ffffffffffffffff8211156152cd576152cc615878565b5b602082029050919050565b6000819050919050565b6000819050919050565b6000819050919050565b6000819050919050565b600060029050919050565b600060029050919050565b600060049050919050565b600060099050919050565b6000602082019050919050565b6000602082019050919050565b6000602082019050919050565b6000602082019050919050565b600081905092915050565b600081905092915050565b600081905092915050565b600081905092915050565b600081905092915050565b600082825260208201905092915050565b60006153b3826156c8565b91506153be836156c8565b9250817f7fffffffffffffffffffffffffffffffffffffffffffffffffffffffffffffff038313600083121516156153f9576153f861581a565b5b817f80000000000000000000000000000000000000000000000000000000000000000383126000831216156154315761543061581a565b5b828201905092915050565b6000615447826156f2565b9150615452836156f2565b9250827fffffffffffffffffffffffffffffffffffffffffffffffffffffffffffffffff038211156154875761548661581a565b5b828201905092915050565b600061549d826156c8565b91506154a8836156c8565b9250827f7fffffffffffffffffffffffffffffffffffffffffffffffffffffffffffffff04821160008413600084131616156154e7576154e661581a565b5b817f800000000000000000000000000000000000000000000000000000000000000005831260008412600084131616156155245761552361581a565b5b827f800000000000000000000000000000000000000000000000000000000000000005821260008413600084121616156155615761556061581a565b5b827f7fffffffffffffffffffffffffffffffffffffffffffffffffffffffffffffff058212600084126000841216161561559e5761559d61581a565b5b828202905092915050565b60006155b4826156f2565b91506155bf836156f2565b9250817fffffffffffffffffffffffffffffffffffffffffffffffffffffffffffffffff04831182151516156155f8576155f761581a565b5b828202905092915050565b600061560e826156c8565b9150615619836156c8565b9250827f8000000000000000000000000000000000000000000000000000000000000000018212600084121516156156545761565361581a565b5b827f7fffffffffffffffffffffffffffffffffffffffffffffffffffffffffffffff01821360008412161561568c5761568b61581a565b5b828203905092915050565b60006156a2826156d2565b9050919050565b60008115159050919050565b60008190506156c382615e44565b919050565b6000819050919050565b600073ffffffffffffffffffffffffffffffffffffffff82169050919050565b6000819050919050565b6000615707826156b5565b9050919050565b615717826158a7565b810181811067ffffffffffffffff8211171561573657615735615878565b5b80604052505050565b600061574a826156c8565b91507f7fffffffffffffffffffffffffffffffffffffffffffffffffffffffffffffff82141561577d5761577c61581a565b5b600182019050919050565b6000615793826156f2565b91507fffffffffffffffffffffffffffffffffffffffffffffffffffffffffffffffff8214156157c6576157c561581a565b5b600182019050919050565b60006157dc826156c8565b91507f800000000000000000000000000000000000000000000000000000000000000082141561580f5761580e61581a565b5b816000039050919050565b7f4e487b7100000000000000000000000000000000000000000000000000000000600052601160045260246000fd5b7f4e487b7100000000000000000000000000000000000000000000000000000000600052602160045260246000fd5b7f4e487b7100000000000000000000000000000000000000000000000000000000600052604160045260246000fd5b6000601f19601f8301169050919050565b7f426164206d6f76652070726f6f662e0000000000000000000000000000000000600082015250565b7f43616e2774206d6f7665207468726f75676820706965636573206173206e6f6e60008201527f2d6b6e696768742e000000000000000000000000000000000000000000000000602082015250565b7f4f4f422066726f6d53712e000000000000000000000000000000000000000000600082015250565b7f416c726561647920726567697374657265642e00000000000000000000000000600082015250565b7f43616c6c6572206e6f7420726567697374657265642e00000000000000000000600082015250565b7f66726f6d53712073616d6520617320746f53712e000000000000000000000000600082015250565b7f42616420706c6163656d656e742070726f6f662e000000000000000000000000600082015250565b7f556e6578706563746564207365747570206572726f722e000000000000000000600082015250565b7f706965636546696c6520696e7075742077726f6e672e00000000000000000000600082015250565b7f49742773206e6f7420706c6179657220322773207475726e2e00000000000000600082015250565b7f496e76616c6964206d6f76650000000000000000000000000000000000000000600082015250565b7f49742773206e6f7420706c6179657220312773207475726e2e00000000000000600082015250565b7f616c6c6f77656450696563657320696e7075742077726f6e672e000000000000600082015250565b7f72657175697265644861736820696e7075742077726f6e672e00000000000000600082015250565b7f503220616c72656164792073657475702e000000000000000000000000000000600082015250565b7f503120616c72656164792073657475702e000000000000000000000000000000600082015250565b7f50726f6f662061737365727473206661696c7572652e00000000000000000000600082015250565b7f4e6f2070696563652061742066726f6d53712e00000000000000000000000000600082015250565b7f46756e6374696f6e2063616e27742062652063616c6c6564206174207468697360008201527f2067616d652070686173652e0000000000000000000000000000000000000000602082015250565b7f496e76616c6964207061776e206361707475726520286e6f20656e207061737360008201527f616e7420796574292e0000000000000000000000000000000000000000000000602082015250565b7f506965636520696e207061776e20706174682e00000000000000000000000000600082015250565b7f67616d654b657920696e7075742077726f6e672e000000000000000000000000600082015250565b7f66726f6d537120646f65736e277420636f6e7461696e206f776e20706965636560008201527f2e00000000000000000000000000000000000000000000000000000000000000602082015250565b7f496e76616c6964207061776e206d6f76652e0000000000000000000000000000600082015250565b7f496e76616c6964206b696e67206d6f76652e0000000000000000000000000000600082015250565b7f5061776e2063616e206f6e6c79206d6f76652032207370616365732066726f6d60008201527f207374617274696e6720706f736974696f6e2e00000000000000000000000000602082015250565b7f67616d654b657920696e70757420696e636f72726563742e0000000000000000600082015250565b7f4f4f4220746f53712e0000000000000000000000000000000000000000000000600082015250565b7f556e737570706f727465642070696563652e0000000000000000000000000000600082015250565b7f746f537120636f6e7461696e73206f776e2070696563652e0000000000000000600082015250565b60048110615e5557615e54615849565b5b50565b615e61816156a9565b8114615e6c57600080fd5b50565b615e78816156f2565b8114615e8357600080fd5b5056fea26469706673582212205d2610cb2a3c5fe4456b0ad997c418cbe7564c4b3ef445d89203f13e97f08ec864736f6c63430008040033",
  "linkReferences": {},
  "deployedLinkReferences": {}
}